:100000000C941C010C94A80F0C94810F0C944401C7
:100010000C9444010C9444010C9444010C9444014C
:100020000C9444010C9444010C9444010C9444013C
:100030000C9444010C94EE100C9444010C94440173
:100040000C94370F0C9444010C94050F0C94DF0EA4
:100050000C9444010C9444010C9444010C9444010C
:100060000C94CF0F0C94440108000000BE92244968
:10007000123EABAAAA2ABECDCCCC4C3E00000080DA
:10008000BEABAAAAAA3E00000000BF000000803F4D
:100090000000000000084178D3BB4387D1133D190D
:1000A0000E3CC3BD4282AD2B3E68EC8276BED98F3A
:1000B000E1A93E4C80EFFFBE01C4FF7F3F0000007E
:1000C00000002D2D2D2D2D002D2D2D2D002D2D2D14
:1000D0002D002D2D2D2D2D002D2D2D2D002D2D2DD7
:1000E0002D000000000800020100000304070000CA
:1000F0000000000000002D2D2D2D2D2D2D2D2D2D3E
:100100002D2D2D2D2D2D2D2D2D2D00202020205459
:100110004F5745522047415244454E202020200051
:10012000204D4F44554C415220485944524F504F56
:100130004E494320002D2D2D2D2D2D2D2D2D2D2DD6
:100140002D2D2D2D2D2D2D2D2D002D2D2D2D707284
:100150006F6772657373206261722D2D2D2D0054AF
:10016000696D65723A202D2D3A2D2D3A2D2D206C7A
:100170006566740054653A2D2D2D2D2D2D202054AB
:10018000693A2D2D2D2D2D2D00576174657220702B
:10019000756D703A202D2D2D2D2D2D2D2D00736573
:1001A0007276696365206D6F646521002D2D3A2D8F
:1001B0002D3A2D2D0039393A35393A3539206C65CB
:1001C000667400206C6566740054653A2D2D2D2DE3
:1001D0002D2D202054693A2D2D2D2D2D2D006F66AB
:1001E000662020202020006F66662020202020002E
:1001F00031303025006F6E204000000000002500E7
:1002000028002B0000000000240027002A0004041E
:1002100004040404040402020202020203030303AE
:10022000030301020408102040800102040810208A
:10023000010204081020F81011241FBECFEFD8E0EF
:10024000DEBFCDBF11E0A0E0B1E0E0EFFCE302C013
:1002500005900D92A83EB107D9F724E0A8EEB1E0D1
:1002600001C01D92A232B207E1F711E0CCE1D1E06A
:1002700004C02197FE010E946B1ECB31D107C9F744
:100280000E9470110C94761E0C94000090E0FC010A
:10029000EE5DFD4F2491825F9D4FFC018491882388
:1002A00099F090E0880F991FFC01EC5FFD4FA5913C
:1002B000B491FC01E650FE4F859194918FB7F8946C
:1002C000EC91E22BEC938FBF08952091570381E0CE
:1002D000213208F044C0809133038111FCCF80911A
:1002E000560392E09093330391E0909332039FEF93
:1002F000909331031092300320932F03A6E3B3E0D1
:10030000EFE0F3E090E0291331C010920E039091DA
:100310000E03880F892B80930E0380910D0381308B
:1003200049F510920D0380910E038093BB008091DC
:10033000BC0083FDF8CF85EC8093BC008091330333
:100340008230E1F3809131038F3FB1F0809131032E
:100350008032A1F080913103803391F084E01092DB
:100360003503109257031092340308953D91319351
:100370009F5FC9CF85EEE0CF80E0F1CF82E0EFCF85
:1003800083E0EDCFF89481E08093DA0278940895C9
:10039000AF92BF92CF92DF92EF92FF920F931F9393
:1003A000CF93DF936C017B018B01040F151FEB01D1
:1003B0005E01AE18BF08C017D10759F06991D60188
:1003C000ED91FC910190F081E02DC6010995892BFA
:1003D00079F7C501DF91CF911F910F91FF90EF90B9
:1003E000DF90CF90BF90AF900895FC01538D448D66
:1003F000252F30E0842F90E0821B930B541710F0D0
:10040000CF96089501970895FC01918D828D9817DC
:1004100061F0A28DAE0FBF2FB11D5D968C91928DB4
:100420009F5F9F73928F90E008958FEF9FEF0895E5
:10043000FC01918D828D981731F0828DE80FF11DAE
:10044000858D90E008958FEF9FEF0895FC01918DC9
:10045000228D892F90E0805C9F4F821B91098F73C2
:100460009927089588E593E00E94260221E0892BD0
:1004700009F420E0822F089580E090E0892B29F094
:100480000E94320281110C9400000895FC01A48D99
:10049000A80FB92FB11DA35ABF4F2C91848D90E0A6
:1004A00001968F739927848FA689B7892C93A08989
:1004B000B1898C91837080648C93938D848D981313
:1004C00006C00288F389E02D80818F7D80830895A6
:1004D000EF92FF920F931F93CF93DF93EC0181E094
:1004E000888F9B8D8C8D98131AC0E889F98980813B
:1004F00085FF15C09FB7F894EE89FF896083E8896E
:10050000F98980818370806480839FBF81E090E05F
:10051000DF91CF911F910F91FF90EF900895F62EEC
:100520000B8D10E00F5F1F4F0F731127E02E8C8D86
:100530008E110CC00FB607FCFACFE889F9898081CB
:1005400085FFF5CFCE010E944602F1CFEB8DEC0F77
:10055000FD2FF11DE35AFF4FF0829FB7F8940B8FE8
:10056000EA89FB8980818062CFCFCF93DF93EC0152
:10057000888D8823B9F0AA89BB89E889F9898C918B
:1005800085FD03C0808186FD0DC00FB607FCF7CF47
:100590008C9185FFF2CF808185FFEDCFCE010E9447
:1005A0004602E9CFDF91CF91089590E0FC01EE5132
:1005B000FF4F2491FC01EE5DFD4F3491FC01E25FA1
:1005C000FD4FE491EE23C9F0222339F0233001F1ED
:1005D000A8F4213019F1223029F1F0E0EE0FFF1FCD
:1005E000E650FE4FA591B4918FB7F894EC9161114C
:1005F00026C030953E233C938FBF08952730A9F045
:100600002830C9F0243049F7809180008F7D03C0E5
:10061000809180008F7780938000DFCF84B58F77C3
:1006200084BDDBCF84B58F7DFBCF8091B0008F7709
:100630008093B000D2CF8091B0008F7DF9CF3E2B58
:10064000DACF8E50806480937C0080917A00806441
:1006500080937A0080917A0086FDFCCF80917800AB
:100660009091790008953FB7F89480915702909146
:100670005802A0915902B0915A0226B5A89B05C014
:100680002F3F19F00196A11DB11D3FBFBA2FA92F11
:10069000982F8827BC01CD01620F711D811D911D0E
:1006A00042E0660F771F881F991F4A95D1F708957A
:1006B0008F929F92AF92BF92CF92DF92EF92FF9272
:1006C0004B015C010E9433036B017C010E943303E8
:1006D0006C197D098E099F09683E7340810591055B
:1006E000A8F321E0821A9108A108B10888EEC80E8B
:1006F00083E0D81EE11CF11C81149104A104B10413
:1007000029F7FF90EF90DF90CF90BF90AF909F9030
:100710008F9008952FB7F89460915302709154020E
:1007200080915502909156022FBF0895089585ED4E
:100730008093BC008091BC0084FDFCCF10923303F9
:10074000089520912D02260F3327331F21323105C2
:10075000ECF420913303FC0190E080E0243069F058
:1007600082E00895A0912D022191AC01455F5D4F7B
:10077000A40FB52FB11D2C930196861798F3809185
:100780002D02680F60932D0280E0089581E00895A6
:10079000089508950895E0910A0280910902E817EA
:1007A00030F4F0E0E751FE4F808190E008958FEF44
:1007B0009FEF089590910A02809109022FEF3FEF79
:1007C000981748F4E92FF0E0E751FE4F208130E020
:1007D0009F5F90930A02C901089580910902909148
:1007E0000A02891B990B0895CF92DF92EF92FF9234
:1007F0000F931F93CF93DF937C01CB018A0120914C
:100800003403222389F0EB016B01C40ED51ECC15F5
:10081000DD0569F06991D701ED91FC910190F081BE
:10082000E02DC7010995F3CF642F0E94A103C801F1
:10083000DF91CF911F910F91FF90EF90DF90CF90BC
:100840000895CF93DF931F92CDB7DEB769832091D0
:1008500034032223F9F020915703203258F021E08D
:1008600030E0FC013383228390E080E00F90DF9141
:10087000CF91089580913503E82FF0E0EA5CFC4FBA
:10088000998190838F5F809335038093570381E034
:1008900090E0ECCF61E0CE0101960E94A103F7CF7A
:1008A000089521E001C0220F6A95EAF7DC011C9649
:1008B0002C931C971A965C934E931997ED91FC918B
:1008C0000484F585E02D60E00994DC01ED91FC9154
:1008D0000684F785E02D41E0099581E090E00895D8
:1008E0000F931F93CF93DF938C01D0E0C0E0F8010A
:1008F000EC0FFD1F6491662341F085E094E00E94B7
:100900006504892B11F02196F2CFCE01DF91CF91B2
:100910001F910F910895DC01ED91FC910684F785FC
:10092000E02D40E009940F931F93CF93DF93CDB751
:10093000DEB728970FB6F894DEBF0FBECDBF00918B
:100940007B0110917C0120917D0130917E010D830E
:100950001E832F83388700917F01109180012091A1
:1009600081013091820109831A832B833C8390910A
:100970000C04691710F06FEF690F262F30E04091DB
:100980000D042C0F3D1FF901403199F4943089F486
:100990006181680F606885E094E028960FB6F8944E
:1009A000DEBF0FBECDBFDF91CF911F910F910C9491
:1009B0008B046581EECFEF92FF920F931F93CF933D
:1009C000DF938B0198E0899FB0011124606485E07A
:1009D00094E00E948B0483E790E00197F1F7E8012F
:1009E000085F1F4F8BE9E82EF12C699185E094E0B8
:1009F0000E946504C7010197F1F7C017D107A9F755
:100A0000DF91CF911F910F91FF90EF900895DC013E
:100A1000ED91FC910484F585E02D6FEF099461E080
:100A20000E948B048BE39FE10197F1F708950F93E8
:100A30001F93CF93DF93EC01423018F08C818860D4
:100A40008C834F836887222329F0413019F48C81ED
:100A500084608C8364E670E080E090E00E9458033C
:100A60006C8164FD52C0E881F9810684F785E02D30
:100A700042E063E0CE0109958BE496E40197F1F73B
:100A8000E881F9810684F785E02D42E063E0CE013C
:100A9000099503E512E0C8010197F1F7E881F981B2
:100AA0000684F785E02D42E063E0CE010995C80198
:100AB0000197F1F7E881F9810684F785E02D42E09E
:100AC00062E0CE010995C8010197F1F76C8160627F
:100AD000CE010E948B048BEE90E00197F1F784E049
:100AE0008D836CE0CE010E948B04CE010E940F0525
:100AF00082E08E8366E0CE010E948B04CE01DF91FE
:100B0000CF911F910F910C9407056062CE010E9456
:100B10008B048BE496E40197F1F76C816062CE015F
:100B20000E948B0403E512E0C8010197F1F76C8184
:100B30006062CE010E948B04C6CF08950895089587
:100B400090E080E00895FC0123812223F1F0262F1C
:100B50006181609562236083828191E09093340388
:100B600080935603109235031092570385EF93E05C
:100B70000E9421040E946501282F30E081E090E06E
:100B8000232B11F090E080E0089530E020E0F6CFD4
:100B9000EF92FF920F931F93CF938C01FC0184E09F
:100BA000C0E0262F30E060FF02C09589C92BB90153
:100BB00075956795815031968111F3CF413011F4CD
:100BC000F8014489F8016585C62BC42B7801FEE045
:100BD000EF0EF11CF80162896C2BC7010E94A3057E
:100BE000F801628960956C23C701CF911F910F9125
:100BF000FF90EF900C94A3050F931F93CF93DF9377
:100C0000062F0F70423041F440E0602FDF91CF910A
:100C10001F910F910C94C805142FEC0170E084E033
:100C2000759567958A95E1F7CE010E94C805412F19
:100C3000602FCE01EBCFFC0184858823A1F02185B4
:100C400032852115310521F4611107C0158606C0D2
:100C500021303105D9F76111F9CF85876585CF013D
:100C60000E960C94A3050895EF92FF920F931F9395
:100C7000CF93DF93EC01062FF42EE22E8B85888B29
:100C800010920A0210920902109235031092570333
:100C90001092330311E01093320310920D0361E0C0
:100CA00082E10E94D50261E083E10E94D502809139
:100CB000B9008E7F8093B9008091B9008D7F8093B9
:100CC000B90088E48093B80085E48093BC0088EC88
:100CD00093E090932C0280932B0289EC93E0909305
:100CE000300280932F028889109334038093560337
:100CF00010923503109257030E94650181111CC0A8
:100D0000198B85EF93E00E94DA038E878989882307
:100D100039F01F861C8260E0CE010E960E94A3056A
:100D20002E2D4F2D602FCE01DF91CF911F910F916E
:100D3000FF90EF900C941705198AE8CFCF92DF92BD
:100D4000EF92FF929C0150E040E060E472E48FE09B
:100D500090E00E94351B44275527A0EAB0E00E948E
:100D6000541B6B017C0124E130E040E050E00E9424
:100D70005F1B2115310581E048075105C8F481E06A
:100D80008093600230935F0220935E0280915E0246
:100D900090915F029093870080938600809160021B
:100DA000806180938100FF90EF90DF90CF90089555
:100DB00082E080936002C701B60120EA30E040E0A3
:100DC00050E00E945F1BDECF4F925F926F927F9246
:100DD0008F929F92AF92BF92CF92DF92EF92FF924B
:100DE0000F931F93CF9390917801911104C090912C
:100DF000F8029923D1F0C82F811127C089E00E9401
:100E00004601809180008068809380001092890064
:100E1000109288008091600280618093810061E07F
:100E200084E00E94D5021092E801CF911F910F91AA
:100E3000FF90EF90DF90CF90BF90AF909F908F90FA
:100E40007F906F905F904F9008952091E801281750
:100E500008F04AC0022F10E09801AFEFB3E00E9403
:100E6000811B6B017C018C2E912C412C512C320169
:100E70004A948016910608F483C089E00E944601D6
:100E800080918000806880938000A0905E02B09086
:100E90005F02C701B601A30192010E94351B4427DE
:100EA0005527D5010E94541B4AE096958795779562
:100EB00067954A95D1F77093890060938800809177
:100EC00060028061809381006FE070E080E090E0DC
:100ED0000E945803A8950F5F1F4F8FEFC80E83E045
:100EE000D81EE11CF11CC5CF821708F049C0022FA3
:100EF00010E09801AFEFB3E00E94811B6B017C0111
:100F00008C2E912C412C512C32014A940815190534
:100F1000B8F189E00E94460180918000806880934A
:100F20008000A0905E02B0905F02C701B601A301ED
:100F300092010E94351B44275527D5010E94541B5E
:100F40002AE096958795779567952A95D1F77093BE
:100F500089006093880080916002806180938100A5
:100F60006FE070E080E090E00E945803A895015087
:100F700011098FEFC81A83E0D80AE108F108C6CF3B
:100F800060E084E00E94D502C093E8014ECF8F92CA
:100F90009F92AF92BF92CF92DF92EF92FF921F93F8
:100FA000CF93DF93809177028093710280917802D2
:100FB00080937202809179028093690280917A0213
:100FC00080936A0280917B0280936B0280917C0205
:100FD00080936C0280917D0280936D0280917E02ED
:100FE00080936E0280917F0280936F0280918002D5
:100FF00080937002809181028093610280918202CD
:1010000080936202809183028093630280918402C4
:1010100080936402809185028093650280918602AC
:101020008093660280918702809367028091880294
:1010300080936802109189021093F70260918A02EE
:1010400070918B0280918C0290918D020E94641E9F
:101050004B015C018092FD029092FE02A092FF0281
:10106000B092000360918E0270918F028091900285
:10107000909191020E94641E6B017C01C092F90262
:10108000D092FA02E092FB02F092FC02809192026E
:101090008093D102809193028093C8026091940260
:1010A0007091950276276727762770937A0160936F
:1010B000790190E080E00E94AA1C9B01AC0160E0F5
:1010C00070E080E89FE30E94021C6093010470932B
:1010D00002048093030490930404C0919602D0917B
:1010E0009702DC27CD27DC27D0930101C0930001B4
:1010F000CE010E949E068091F802811156C0811493
:101100009104A104B104C1F41092010310920203EE
:1011100010920303109204030E94E40610927801D7
:10112000DF91CF911F91FF90EF90DF90CF90BF9014
:10113000AF909F908F900895C114D104E104F10401
:1011400041F51092010310920203109203031092D2
:10115000040381E080937801812FDF91CF911F916B
:10116000FF90EF90DF90CF90BF90AF909F908F90C7
:101170000C94E4068092010390920203A092030370
:10118000B092040381E080937801CE010E949E0614
:10119000E3CF809178018111EDCFC0920103D0920D
:1011A0000203E0920303F092040380E0B5CFFC0158
:1011B00001900020E9F73197AF01481B590BBC01A2
:1011C00085E094E00C94C8018F929F92AF92BF92F9
:1011D0000F931F93CF93DF93CDB7DEB7A1970FB6D1
:1011E000F894DEBF0FBECDBF19A2423008F44AE02A
:1011F0008E010F5D1F4F842E912CB12CA12CA501C7
:1012000094010E945F1BE62FB901CA01EA30F4F491
:10121000E05DD801EE938D01232B242B252B79F74C
:1012200090E080E0109719F0CD010E94D708A196B8
:101230000FB6F894DEBF0FBECDBFDF91CF911F91E7
:101240000F91BF90AF909F908F900895E95CE1CF90
:101250000C94D70860E085E094E00E94650486EC79
:1012600091E00C9428094F925F926F927F928F9237
:101270009F92AF92BF92CF92DF92EF92FF92CF9365
:101280006B017C01842EAC019B010E941E1E8823F1
:1012900089F088EC91E0CF91FF90EF90DF90CF90B4
:1012A000BF90AF909F908F907F906F905F904F9086
:1012B0000C94D70826013701E89477F82FEF3FEF19
:1012C0004FE75FE7C301B2010E941E1E81110DC0EE
:1012D0002FEF3FEF4FE75FE7C301B2010E94FD1B15
:1012E00018161CF48CEC91E0D6CF2FEF3FEF4FE7B0
:1012F0005FE4C701B6010E945C1D18161CF480ED66
:1013000091E0C9CF2FEF3FEF4FE75FECC701B60188
:101310000E94FD1B87FDF3CF20E030E0A901C7014B
:10132000B6010E94FD1BB12CA12C87FF0AC06DE203
:1013300085E094E00E9465045C01F7FAF094F7F808
:10134000F094C82D60E070E080E09FE3912C20E0F5
:1013500030E040E251E40E94021C93949814B8F3E8
:10136000A70196010E94911B2B013C010E947B1C4E
:101370006B017C010E94AA1C9B01AC01C301B2015C
:101380000E94901B2B013C014AE0C701B6010E945C
:10139000E4087C016EE285E094E00E946504E80EBA
:1013A000F91EEA0CFB1CC15018F120E030E040E2CD
:1013B00051E4C301B2010E94B11D2B013C010E9406
:1013C0007B1C4B01B12CA12C4AE0C501B4010E9449
:1013D000E408E80EF91EC501B4010E94AA1C9B0195
:1013E000AC01C301B2010E94901B2B013C01DBCF79
:1013F000C701CF91FF90EF90DF90CF90BF90AF905B
:101400009F908F907F906F905F904F900895CF92B4
:10141000DF92EF92FF928091C802823009F4A5C05A
:10142000843009F43CC1813009F0A5C161E08EE04F
:101430000E94930420E030E048EC52E46091DF0227
:101440007091E0028091E1029091E2020E94B11D50
:101450006B017C0120E030E0A9010E945C1D20E0CE
:1014600030E040E05FE387FD29C0C701B6010E947C
:10147000911B0E94741C0E94AC1C20E030E048ECE0
:1014800052E40E94021C6B017C0120E030E040E24B
:1014900051EC0E94FD1B181654F420E030E048EC9B
:1014A00052E4C701B6010E945C1D87FD0CC087EDA8
:1014B00091E00E94280942E050E01AC0C701B6013D
:1014C0000E94901BD6CF20E030E040E251ECC701F3
:1014D000B6010E945C1D1816E4F420E030E0A9017A
:1014E000C701B6010E94FD1B87FF13C041E050E019
:1014F000C701B6010E94330960E085E094E00E94D4
:10150000650486EC91E0FF90EF90DF90CF900C9413
:10151000280920E030E0A901C701B6010E945C1D46
:1015200087FD0AC020E030E040E251E4C701B60187
:101530000E94FD1B87FDBFCF20E030E040E251E478
:10154000C701B6010E945C1D87FD0AC020E030E0A3
:1015500048EC52E4C701B6010E94FD1B87FDC6CFCF
:101560008DED90E00E947004C7CF61E08EE00E9494
:10157000930420E030E048EC52E46091E302709183
:10158000E4028091E5029091E6020E94B11D6B0198
:101590007C0120E030E0A9010E945C1D20E030E0E9
:1015A00040E05FE387FD29C0C701B6010E94911B9F
:1015B0000E94741C0E94AC1C20E030E048EC52E415
:1015C0000E94021C6B017C0120E030E040E251EC03
:1015D0000E94FD1B181654F420E030E048EC52E461
:1015E000C701B6010E945C1D87FD0CC087ED91E02C
:1015F0000E94280942E050E01AC0C701B6010E94CB
:10160000901BD6CF20E030E040E251ECC701B6019C
:101610000E945C1D1816BCF420E030E0A901C7014F
:10162000B6010E94FD1B87FF0EC041E050E0C701DC
:10163000B6010E94330960E085E094E00E946504F1
:1016400084ED91E060CF20E030E0A901C701B60150
:101650000E945C1D87FD0AC020E030E040E251E4BA
:10166000C701B6010E94FD1B87FDC4CF20E030E01A
:1016700040E251E4C701B6010E945C1D87FD0AC02B
:1016800020E030E048EC52E4C701B6010E94FD1BA7
:1016900087FDCBCF88ED90E00E947004CCCF61E055
:1016A0008EE00E94930420E030E048EC52E4609128
:1016B000DB027091DC028091DD029091DE020E94DB
:1016C000B11D6B017C0120E030E0A9010E945C1D8E
:1016D00020E030E040E05FE387FD37C0C701B6019E
:1016E0000E94911B0E94741C0E94AC1C20E030E000
:1016F00048EC52E40E94021C6B017C0120E030E0C7
:1017000040E251E40E94FD1B43E050E087FD16C01B
:1017100020E030E040E251E4C701B6010E945C1DC8
:1017200087FD18C020E030E048EC52E4C701B60164
:101730000E94FD1B87FF0EC042E050E0C701B601CA
:101740000E94330981EE91E0DECEC701B6010E940E
:10175000901BC8CF20E030E048EC52E4C701B6014E
:101760000E945C1D41E050E087FFE8CF82ED90E0F1
:101770000E947004E7CFFF90EF90DF90CF90089524
:10178000CF92DF92EF92FF928091C802823009F4EB
:10179000A5C0843009F43CC1813009F0A5C161E0E5
:1017A00083E00E94930420E030E048EC52E4609132
:1017B000EB027091EC028091ED029091EE020E949A
:1017C000B11D6B017C0120E030E0A9010E945C1D8D
:1017D00020E030E040E05FE387FD29C0C701B601AB
:1017E0000E94911B0E94741C0E94AC1C20E030E0FF
:1017F00048EC52E40E94021C6B017C0120E030E0C6
:1018000040E251EC0E94FD1B181654F420E030E039
:1018100048EC52E4C701B6010E945C1D87FD0CC074
:1018200087ED91E00E94280942E050E01AC0C7010C
:10183000B6010E94901BD6CF20E030E040E251EC90
:10184000C701B6010E945C1D1816E4F420E030E0E8
:10185000A901C701B6010E94FD1B87FF13C041E02B
:1018600050E0C701B6010E94330960E085E094E0D2
:101870000E94650486EC91E0FF90EF90DF90CF909E
:101880000C94280920E030E0A901C701B6010E94AC
:101890005C1D87FD0AC020E030E040E251E4C70152
:1018A000B6010E94FD1B87FDBFCF20E030E040E283
:1018B00051E4C701B6010E945C1D87FD0AC020E00B
:1018C00030E048EC52E4C701B6010E94FD1B87FDE1
:1018D000C6CF8DEC90E00E947004C7CF61E083E03A
:1018E0000E94930420E030E048EC52E46091EF0263
:1018F0007091F0028091F1029091F2020E94B11D6C
:101900006B017C0120E030E0A9010E945C1D20E019
:1019100030E040E05FE387FD29C0C701B6010E94C7
:10192000911B0E94741C0E94AC1C20E030E048EC2B
:1019300052E40E94021C6B017C0120E030E040E296
:1019400051EC0E94FD1B181654F420E030E048ECE6
:1019500052E4C701B6010E945C1D87FD0CC087EDF3
:1019600091E00E94280942E050E01AC0C701B60188
:101970000E94901BD6CF20E030E040E251ECC7013E
:10198000B6010E945C1D1816BCF420E030E0A901ED
:10199000C701B6010E94FD1B87FF0EC041E050E069
:1019A000C701B6010E94330960E085E094E00E941F
:1019B000650484ED91E060CF20E030E0A901C7012B
:1019C000B6010E945C1D87FD0AC020E030E040E2C5
:1019D00051E4C701B6010E94FD1B87FDC4CF20E082
:1019E00030E040E251E4C701B6010E945C1D87FD72
:1019F0000AC020E030E048EC52E4C701B6010E9482
:101A0000FD1B87FDCBCF88EC90E00E947004CCCF0B
:101A100061E083E00E94930420E030E048EC52E46F
:101A20006091E7027091E8028091E9029091EA02E8
:101A30000E94B11D6B017C0120E030E0A9010E94F1
:101A40005C1D20E030E040E05FE387FD37C0C70168
:101A5000B6010E94911B0E94741C0E94AC1C20E0E5
:101A600030E048EC52E40E94021C6B017C0120E053
:101A700030E040E251E40E94FD1B43E050E087FD6E
:101A800016C020E030E040E251E4C701B6010E94F8
:101A90005C1D87FD18C020E030E048EC52E4C7012F
:101AA000B6010E94FD1B87FF0EC042E050E0C70157
:101AB000B6010E94330981EE91E0DECEC701B60186
:101AC0000E94901BC8CF20E030E048EC52E4C701F0
:101AD000B6010E945C1D41E050E087FFE8CF82EC38
:101AE00090E00E947004E7CFFF90EF90DF90CF90DE
:101AF0000895682F70E090E080E04AE00C94E408DC
:101B0000AF92BF92CF92DF92EF92FF920F931F930B
:101B1000CF93DF9300D000D000D01F92CDB7DEB7B7
:101B2000EDB6FEB6E0911E04F0911F048E010F5F2A
:101B30001F4F3097E9F5F801E252F440FA83E98348
:101B4000E981FA81D901D896EA17FB07B0F587E059
:101B5000E3E8F1E0D80101900D928A95E1F76E017A
:101B6000B8E0CB0ED11CF80161918F0188E593E0BC
:101B70000E946802C016D106B1F70FB6F894FEBEF7
:101B80000FBEEDBE0FB6F894FEBE0FBEEDBE27969B
:101B90000FB6F894DEBF0FBECDBFDF91CF911F917E
:101BA0000F91FF90EF90DF90CF90BF90AF9008958E
:101BB000D801AE1BBF0BFD01C1CF6901F6E0CF0E0E
:101BC000D11CADB7BEB7AC19BD090FB6F894BEBFF6
:101BD0000FBEADBF0DB71EB70F5F1F4F9DE3119630
:101BE0009C93F9013296D8011196FC9311979CEFC2
:101BF0009C0D12969C931297806813968C93139762
:101C000014966C9314972115310551F0FA0115962D
:101C1000420F531FE417F50719F081918D93FACF06
:101C20002B5F3F4FF801319680E0AF01401B510B15
:101C30004217530718F49191890FF7CF200F311FE6
:101C4000F90180835801C501801B910B8C159D05FE
:101C500008F093CFD5016D915D0188E593E00E9476
:101C60006802F1CF0F931F93CF93DF93CDB7DEB709
:101C70002E970FB6F894DEBF0FBECDBF00910103C3
:101C80001091020320910303309104038091050316
:101C900090910603A0910703B0910803800F911F54
:101CA000A21FB31F4091090350910A0360910B03D7
:101CB00070910C03841B950BA60BB70B8093CD0280
:101CC0009093CE02A093CF02B093D0025091F8022D
:101CD00051114EC0012B022B032B09F449C04B2F8D
:101CE0003A2F292F198290917801992311F091E0D0
:101CF00099839981552309F440C09260998390910A
:101D0000F7029A834B833C832D838E838091D1028B
:101D100080FF35C09091B8029F839091B902988757
:101D20009091BA0299879091BB029A8781FF2CC04B
:101D30008091BC028B878091BD028C878091BE020E
:101D40008D878091BF028E872EE030E0AE014F5F1D
:101D50005F4F60E082E00E94800D2E960FB6F894EF
:101D6000DEBF0FBECDBFDF91CF911F910F910895C0
:101D700080E020E030E040E0B5CF9D7FBFCF1F8204
:101D8000188619861A86D2CF1B861C861D861E864B
:101D9000DBCF0E94711E1F93CF93DF93EC01162FB0
:101DA0000E941F1B181739F0612FCE01DF91CF91D0
:101DB0001F910C94271BDF91CF911F9108951F92C3
:101DC0000F920FB60F9211242F933F934F935F936F
:101DD0006F937F938F939F93AF93BF93EF93FF93F3
:101DE00088E593E00E944602FF91EF91BF91AF9189
:101DF0009F918F917F916F915F914F913F912F9123
:101E00000F900FBE0F901F9018951F920F920FB654
:101E10000F9211242F938F939F93EF93FF93E09151
:101E20006803F09169038081E0916E03F0916F0384
:101E300082FD1BC09081809171038F5F8F73209111
:101E40007203821741F0E0917103F0E0E85AFC4F11
:101E5000958F80937103FF91EF919F918F912F91B7
:101E60000F900FBE0F901F9018958081F4CF1F9296
:101E70000F920FB60F9211242F933F938F939F933E
:101E8000AF93BF938091530290915402A091550259
:101E9000B09156023091520223E0230F2D3758F5AE
:101EA0000196A11DB11D209352028093530290937D
:101EB0005402A0935502B09356028091570290911C
:101EC0005802A0915902B0915A020196A11DB11D6C
:101ED0008093570290935802A0935902B0935A02EC
:101EE000BF91AF919F918F913F912F910F900FBE16
:101EF0000F901F90189526E8230F0296A11DB11D83
:101F0000D2CF1F920F920FB60F9211242F933F93AF
:101F10004F935F936F937F938F939F93AF93BF93F1
:101F2000EF93FF93E0910401F09105010995FF9172
:101F3000EF91BF91AF919F918F917F916F915F9141
:101F40004F913F912F910F900FBE0F901F901895BA
:101F50001F920F920FB60F9211242F933F934F931E
:101F60005F936F937F938F939F93AF93BF93EF9301
:101F7000FF93E0910201F09103010995FF91EF9128
:101F8000BF91AF919F918F917F916F915F914F9191
:101F90003F912F910F900FBE0F901F9018951F9299
:101FA0000F920FB60F9211242F933F934F935F938D
:101FB0006F937F938F939F93AF93BF93EF93FF9311
:101FC0008091B900887F803609F44AC0F0F58832E4
:101FD00009F4A7C018F5803109F49BC0B8F4882330
:101FE00009F4F9C0883009F494C0FF91EF91BF91D2
:101FF000AF919F918F917F916F915F914F913F91A1
:102000002F910F900FBE0F901F901895883109F4F3
:1020100088C0803251F78093310314C0803409F4B2
:102020009DC040F48033B9F38833F9F680933103CF
:1020300085ECB0C0803509F485C0883509F496C0B8
:10204000883499F60E949703D0CF883909F48CC060
:1020500038F5883729F050F4883611F0803729F6A2
:1020600083E0809333031092510257C0883809F4FB
:102070007BC0803919F0803809F0B7CF80915102C8
:10208000803208F071C0E091510281E08E0F8093A0
:1020900051028091BB00F0E0EF5CFD4F80833DC0BA
:1020A000803B39F0E0F4803A09F479C0883A09F0CD
:1020B0009CCF84E08093330310922E0210922D0265
:1020C000E0912B02F0912C02099580912D02811153
:1020D0000FC081E080932D0210920B0209C0803C5A
:1020E00009F4A6CF883C09F4A3CF883B09F07DCF43
:1020F000E0912E0281E08E0F80932E02F0E0E55FEA
:10210000FD4F80818093BB0090912E0280912D0223
:1021100029C080910E038093BB0085EC8093BC00A6
:1021200064CF9091300380912F03981758F5E09178
:10213000300381E08E0F80933003F0E0E15FFC4FCD
:102140008081E9CFE091300381E08E0F80933003EE
:102150008091BB00F0E0E15FFC4F80839091300301
:1021600080912F039817C8F285E8D8CFE09130030B
:1021700081E08E0F809330038091BB00F0E0E15F3F
:10218000FC4F80838091320381115CCF81E080938A
:102190000D0384EA8093BC001092330326CF85ECB4
:1021A0008093BC001092330380915102803230F44E
:1021B000E0915102F0E0EF5CFD4F1082609151021E
:1021C00070E0E0912F02F091300281E392E00995F6
:1021D000109251020ACF1092310334CF1F920F9206
:1021E0000FB60F9211240F900FBE0F901F901895ED
:1021F000E8E5F3E01382128288EE93E0A0E0B0E01D
:1022000084839583A683B78322E931E031832083D9
:1022100025EC30E03587248724EC30E037872687AB
:1022200020EC30E0318B208B21EC30E0338B228BA3
:1022300022EC30E0358B248B26EC30E0378B268B7C
:10224000118E128E138E148EE5EFF3E0138212823C
:1022500084839583A683B78384EA91E09183808306
:10226000E5E0F4E01382128286EB91E091838083B3
:10227000108A8FEF87871686118A87E283871486F4
:1022800015861286118684E0828B82E0838B81E042
:10229000848B80E1858B80E2868B80E4878B80E86D
:1022A000808F50E040E063E0CF010E9451046091D4
:1022B000790170917A0190E080E00E94AA1C9B0154
:1022C000AC0160E070E080E89FE30E94021C609334
:1022D000010470930204809303049093040408950E
:1022E000CF93DF93CDB7DEB7A5970FB6F894DEBFD7
:1022F0000FBECDBF789484B5826084BD84B5816003
:1023000084BD85B5826085BD85B5816085BD8091C0
:102310006E00816080936E00109281008091810038
:102320008260809381008091810081608093810030
:10233000809180008160809380008091B1008460F2
:102340008093B1008091B00081608093B000809153
:102350007A00846080937A0080917A008260809312
:102360007A0080917A00816080937A0080917A006F
:10237000806880937A001092C1007894E09168039D
:10238000F091690382E08083E0916403F09165033A
:102390001082E0916603F091670387E080831092DA
:1023A0007003E0916C03F0916D0386E08083E0910F
:1023B0006A03F0916B03808180618083E0916A03FE
:1023C000F0916B03808188608083E0916A03F091D3
:1023D0006B03808180688083E0916A03F0916B03D6
:1023E00080818F7D808384E00E94460161E084E0EB
:1023F0000E94D50289E00E94460182EC91E0909310
:10240000030180930201809169008C7F8260809338
:102410006900E89A80E1809381001092800081E059
:102420008093600280EC9FE390935F0280935E0252
:10243000909387008093860081E18093810089E0FA
:102440000E944601809180008068809380001092F5
:1024500089001092880080916002806180938100E1
:1024600081E2F0E0E0E080935700E491E0935B02CA
:10247000E2E0F0E080935700E491E0935C02E4E056
:10248000F0E080935700849180935D0220E044E067
:1024900064E185E094E00E94340685E094E00E94C7
:1024A000070585E094E00E940F0562E085E094E076
:1024B0000E948B040BE31FE1C8010197F1F785E34C
:1024C00091E00E94700461E080E00E94930480E249
:1024D00091E00E94700462E080E00E9493048BE02F
:1024E00091E00E94700463E080E00E94930486EF14
:1024F00090E00E9470046EE271E080E00E94DB04D4
:1025000066E271E081E00E94DB046EE171E082E04E
:102510000E94DB0466E171E083E00E94DB046EE070
:1025200071E084E00E94DB0466E071E085E00E94D7
:10253000DB0460ED77E080E090E00E94580385E0E6
:1025400094E00E94070585E094E00E940F0562E098
:1025500085E094E00E948B04C8010197F1F789E8B7
:1025600091E00E94700461E080E00E94930484E79F
:1025700091E00E94700462E080E00E9493048FE585
:1025800091E00E94700463E080E00E9493048AE47A
:1025900091E00E94700427E7E22E22E0F22E10E084
:1025A00000E0C8010E941F1BD7018D937D010F5FC2
:1025B0001F4F00341105A9F797E7292E92E0392E15
:1025C00080E0F10191911F01890FF6EB2F16F2E0E7
:1025D0003F06B9F79091B60298137DC30E94C707D2
:1025E00088E198E20FB6F894A895809360000FBE3A
:1025F0009093600021E030E047EB52E061E080E042
:102600000E94800D20918A0130918B0140918C01B4
:1026100050918D012AA33BA34CA35DA3AE01405F63
:102620005F4F5C8F4B8FA89588E593E00E94260250
:10263000181619064CF588E593E00E9404028D33C4
:1026400009F041C68DB79EB79E8F8D8F0E948A0379
:102650004B015C01D12C88E593E00E942602029791
:102660000CF069C3DD2009F457C321E030E046E7F0
:1026700051E066E08FE00E94800D2D8D3E8D0FB6FB
:10268000F8943EBF0FBE2DBF0E948A036B017C01F0
:10269000C0920903D0920A03E0920B03F0920C035C
:1026A0008091050390910603A0910703B091080360
:1026B00097018601081B190B2A0B3B0B4091010364
:1026C00050910203609103037091040304171507EE
:1026D0002607370708F410C68C159D05AE05BF0503
:1026E00008F00AC64091FD025091FE026091FF027F
:1026F00070910003411551056105710509F4FCC590
:102700000091F9021091FA022091FB023091FC0233
:10271000011511052105310509F4EEC5C092050327
:10272000D0920603E0920703F092080380917801AB
:10273000882309F4CDC5009301031093020320936D
:1027400003033093040380E00E94E40610927801B2
:102750008091F3029091F402A091F502B091F602FB
:10276000B701A601481B590B6A0B7B0B483E53402F
:102770006105710508F4D3C6C092F302D092F40249
:10278000E092F502F092F6021092C4021092C50295
:102790001092C6021092C7021092C0021092C1029B
:1027A0001092C2021092C30204EF11E08EE00E9468
:1027B0002103092E000CAA0BBB0B4091C4025091BF
:1027C000C5026091C6027091C7024C015D01840E82
:1027D000951EA61EB71E8092C4029092C502A092BA
:1027E000C602B092C7020150110901F704EF11E0CF
:1027F0008FE00E942103092E000CAA0BBB0B409115
:10280000C0025091C1026091C2027091C3026C017A
:102810007D01C40ED51EE61EF71EC092C002D092E6
:10282000C102E092C202F092C3020150110901F705
:10283000C501B40124EF31E040E050E00E945F1B8D
:1028400049015A018092C4029092C502A092C60228
:10285000B092C702C701B60124EF31E040E050E07A
:102860000E945F1B29013A014092C0025092C102AE
:102870006092C2027092C302C501B4010E94AA1CF8
:102880009B01AC0160E070EC8FE794E40E94021CB5
:1028900020E030E040E85FE30E94901B0E94691D49
:1028A0008090010490900204A0900304B09004046E
:1028B000A50194010E94B11D2FE03FEC4BE55BE3C5
:1028C0000E94911B9B01AC0160E070E080E89FE3F7
:1028D0000E94021C6B017C01C301B2010E94AA1C70
:1028E0009B01AC0160E070EC8FE794E40E94021C55
:1028F00020E030E040E85FE30E94901B0E94691DE9
:102900009B01AC01C501B4010E94B11D2FE03FEC59
:102910004BE55BE30E94911B9B01AC0160E070E022
:1029200080E89FE30E94021C4B015C0120E030E044
:10293000A901C701B6010E94FD1B882309F4EBC45D
:1029400023E333E948E853E4C701B6010E94901B32
:10295000C092E702D092E802E092E902F092EA0225
:102960006093EB027093EC028093ED029093EE0281
:1029700020E030E040E151E40E94B11D20E030E071
:1029800040EA50E40E94021C20E030E040E052E4C3
:102990000E94911B6093EF027093F0028093F1020A
:1029A0009093F20220E030E0A901C501B4010E9439
:1029B000FD1B882309F4C8C423E333E948E853E442
:1029C000C501B4010E94901B8092DB029092DC0250
:1029D000A092DD02B092DE026093DF027093E0020B
:1029E0008093E1029093E20220E030E040E151E484
:1029F0000E94B11D20E030E040EA50E40E94021C39
:102A000020E030E040E052E40E94911B6093E3023A
:102A10007093E4028093E5029093E6028091C802ED
:102A2000823009F4AAC4843009F4B8C47091EB026E
:102A30006091EC025091ED024091EE023091DF0284
:102A40002091E0029091E1028091E2027093B8023D
:102A50006093B9025093BA024093BB023093BC0218
:102A60002093BD029093BE028093BF0280917701B4
:102A7000882309F461C50E94320E8091780160E0DC
:102A8000882309F4A9C48CE00E9493048091F80281
:102A900081119FC485EF91E00E9470046091F7025C
:102AA00070E090E080E00E94AA1C20E030E040E866
:102AB0005FE30E94911B20E030E048EC52E40E946A
:102AC000B11D20E030E040E85BE30E94B11D6B01E6
:102AD0007C0120E030E0A9010E945C1D20E030E094
:102AE00040E05FE387FD6BC4C701B6010E94911B04
:102AF0000E94741C162F86ED91E01A3028F01436CF
:102B000008F062C487ED91E00E942809812F0E949D
:102B1000790D89ED91E00E9428098091D1028823E6
:102B200009F4A9C48370833009F05CC40E94C00B0F
:102B30000E94070A8091F8028111B4C480910103B8
:102B400090910203A0910303B0910403892B8A2B77
:102B50008B2B09F4A0C48090CD029090CE02A0905F
:102B6000CF02B090D002C501B40128EE33E040E0BE
:102B700050E00E945F1B69017A01F0E4CF16FEE786
:102B8000DF06F5E0EF06F10408F07EC4C501B401EC
:102B900020E83EEE46E350E00E945F1B2093CC020B
:102BA000C701B60120E13EE040E050E00E945F1B1B
:102BB0002CE330E040E050E00E945F1B2093CB020A
:102BC0006093CA0262E087E00E9493048091CC0285
:102BD0008A3020F483EE91E00E9428098091CC0293
:102BE0000E94790D85EE91E00E9428098091CB0228
:102BF0008A3020F483EE91E00E9428098091CB0274
:102C00000E94790D85EE91E00E9428098091CA0208
:102C10008A3020F483EE91E00E9428098091CA0254
:102C20000E94790D83EC91E00E947004C090010332
:102C3000D0900203E0900303F0900403C114D10488
:102C4000E104F10409F43AC46091CD027091CE021E
:102C50008091CF029091D0020E94AA1C4B015C018E
:102C6000C701B6010E94AA1C9B01AC01C501B401B9
:102C70000E94021C20E030E048EC52E40E94B11DAA
:102C80006B017C0120E030E0A9010E945C1D20E086
:102C900030E040E05FE387FD0CC4C701B6010E944D
:102CA000911B0E94741C6093C9020091C902802F7D
:102CB00065E00E94581EF82E63E080E00E949304B5
:102CC00010E0F11609F4FEC365E085E094E00E948F
:102CD00065041F5FF6CFE6E3F1E025E731E0DF01B1
:102CE00080E09D91890F2A173B07D9F780937501E2
:102CF00086E791E0A7E7B2E021912D938E179F0719
:102D0000D9F70E94C70721E030E046E751E06CEFB9
:102D10008FE00E94800D64CC0E948A0368197909B3
:102D20008A099B09DD24D394693C710581059105CD
:102D300008F091CC8FCCD11098CC88E593E00E941C
:102D40000402C82E88E593E00E94040289A3C8A269
:102D50001F8E8F8C98A0882A5401A2E0AA1AB1086D
:102D600021E030E046E751E061E0BBEFAB16B3E0B5
:102D7000BB0608F07FCC0E948A032B013C01840132
:102D80000F5F1F4F88E593E00E942602801791078E
:102D900088F4D1106ACC0E948A03641975098609E7
:102DA0009709DD24D394653671058105910550F7A7
:102DB000D12CE8CFD11059CC88E593E00E940402D1
:102DC000582E88E593E00E9404027C01EDB7FEB71F
:102DD000EA19FB090FB6F894FEBF0FBEEDBF0DB7A1
:102DE0001EB70F5F1F4FA114B10481F0380188E5B1
:102DF00093E00E940402D3018D933D01CD01801B1D
:102E0000910B8A159B0598F3DD24D39488E593E014
:102E10000E940402B9A1CB0EC50CCE0CDD2051F0EE
:102E2000F8019F01201B310B2A153B0518F49191E5
:102E3000C90EF7CF8C1531F021E030E046E751E0C4
:102E400065E018CC852D8F70823009F489C060F45C
:102E5000882309F46AC0813009F470C021E030E0B1
:102E600046E751E062E0D5C0843009F43EC108F481
:102E700081C08E3099F7FF2482E0E816F10409F44E
:102E8000BAC193E0E916F10409F4E7C1EA94EF2826
:102E900009F07FC0B4E0AB16B10408F4B5C0F80186
:102EA000C080D180DC24CD24DC2450814181E280AB
:102EB000F380FE24EF24FE249281838197012C0D60
:102EC0003D1D215031092115344008F09DC06DB6DB
:102ED0007EB6470124E0820E911CADB7BEB7A8199B
:102EE000B9090FB6F894BEBF0FBEADBF0DB71EB780
:102EF0000F5F1F4F11965C93F80141839283838388
:102F0000E00EF11E5801C01AD10AAE14BF0409F434
:102F100066C1C6018A0D9B1D0E941F1BD501149618
:102F20008C93BFEFAB1ABB0AF0CF21E030E047EB48
:102F300052E060E080E00E94800DFFCF2AA13BA11B
:102F40004CA15DA129833A834B835C8324E030E06C
:102F5000AE014F5F5F4F60E081E00E94800D02C0D4
:102F60000E94320EED8DFE8D0FB6F894FEBF0FBE9F
:102F7000EDBF8ACBFF2433E0E316F10409F478C0F7
:102F800074F451E0E516F10451F162E0E616F10443
:102F9000B9F121E030E046E751E063E03AC084E077
:102FA000E816F10409F475C095E0E916F10489F713
:102FB000DD2051F18091F80221E030E0882309F40E
:102FC00090C0A80165E083E00E94800DF801808137
:102FD000811183C0109278010E94E406C3CFA9E852
:102FE000B2E0FE013196AF018D9181932B8D3C8D26
:102FF0002E173F07C9F72FE030E061E083E0ADCF47
:103000003FE0A316B10438F421E030E046E751E098
:1030100064E08FE0A2CFF801A9E8B2E0C8010F9602
:1030200021912D93E817F907D9F7E7E7F2E080E05F
:103030009191890F2E163F06D9F78093B60287E744
:10304000E82E82E0F82E10E000E0D7016D917D01BE
:10305000C8010E94CB0E0F5F1F4F00341105A9F766
:103060000E94C70721E030E047EB52E062E0C6CFA4
:10307000DD2051F2F8018081811107C010927701A3
:1030800021E030E0A80163E0B9CFF1E0F0937701EF
:10309000F7CFDD2009F4B8CFD8018C9180FF13C0A1
:1030A0008091F80281110AC0B1E0B093F8028091DA
:1030B0007801882319F080E00E94E40621E030E0E6
:1030C000A80164E09BCF1092F802809178018823D8
:1030D00009F4ABC28091F702EFCFF1E0F0937801F1
:1030E0007BCF46E751E06EEF94CFFF2422E0E2165B
:1030F000F104E1F05CF4EA94EF2809F04ACF20E211
:1031000030E047E752E061E085E027CF53E0E51685
:10311000F10409F454C064E0E616F10409F039CF73
:1031200028E030E048EB52E064E0EECF809171029D
:103130008983809172028A83809169028B83809156
:103140006A028C8380916B028D8380916C028E83E6
:1031500080916D028F8380916E02888780916F02CB
:103160008987809170028A87809161028B87809124
:1031700062028C87809163028D87809164028E87C2
:10318000809165028F8780916602888B80916702AB
:10319000898B809168028A8B1B8A1C8A1D8A1E8AF1
:1031A0008EE58F8B8FEA888F8AED898F88E08A8FF2
:1031B0002AE130E0AE014F5F5F4F62E0A5CF0E9491
:1031C0008A039093730280937402709375026093E4
:1031D000760224E030E043E752E063E095CF9401CB
:1031E000A80161E08EE00E94800D0FB6F8947EBECB
:1031F0000FBE6DBEB7CEE3E0AE16B10408F404CF47
:10320000D801AD90BC90BA24AB24BA246401B4E0D8
:10321000CB1AD108E5E08E1A91088A0C9B1C811408
:10322000F4E09F0608F0F0CE0E5F1F4FF12CE12C6A
:10323000D8016D918D01C5018E0D9F1D0E94CB0E91
:10324000BFEFEB1AFB0AEC14FD0490F321E030E031
:1032500047EB52E062E08EE080CEE2E0AE16B104D1
:1032600008F4D2CED8016C916093960211968C919D
:1032700080939702E7E7F2E080E09191890FB2E056
:10328000E63BFB07D1F78093B6028FE190E00E9406
:10329000CB0EF801618180E290E00E94CB0E60913C
:1032A000B6028FE390E00E94CB0ED8018D919C91E5
:1032B0009827892798270E949E0621E030E047EB57
:1032C00052E063E0C8CF88E593E00E940402DCC9C5
:1032D00031E03093780140930103509302036093EF
:1032E0000303709304038091F802811131CA809125
:1032F000F7020E94E4062CCAC816D906EA06FB06A5
:1033000008F026CA109205031092060310920703D4
:10331000109208031DCA1092E7021092E802109260
:10332000E9021092EA021092EB021092EC02109263
:10333000ED021092EE021092EF021092F002109243
:10334000F1021092F2022ECB1092DB021092DC02FC
:103350001092DD021092DE021092DF021092E00263
:103360001092E1021092E2021092E3021092E40243
:103370001092E5021092E60251CB7091EF0260913B
:10338000F0025091F1024091F2023091E30220915B
:10339000E4029091E5028091E60258CB7091E70239
:1033A0006091E8025091E9024091EA023091DB021B
:1033B0002091DC029091DD028091DE0247CBC701B3
:1033C000B6010E94901B94CB80EF91E00E947004A4
:1033D000A4CB87EE91E0FACF8CE00E9493048EEDAF
:1033E00091E0F4CF823009F561E083E00E9493041C
:1033F0008BED91E00E9428098091C802823041F053
:10340000843081F0813009F093CB0E942A0990CB5F
:1034100060E085E094E00E94650484ED91E00E9404
:10342000280986CB80EE91E0FACF813009F082CB7B
:103430000E94C00B61E08EE00E9493048BED91E04E
:103440000E9428098091C802823041F0843081F0C6
:10345000813009F06FCB0E942A096CCB60E085E0D7
:1034600094E00E94650484ED91E00E94280962CBFB
:1034700080EE91E0FACF61E080E00E94930489EC55
:1034800091E00E94700456CB62E087E00E949304B2
:1034900085EB91E0C9CB62E087E00E9493048CEA5F
:1034A00091E0C2CB62E087E00E9493048EE991E054
:1034B000BBCBC701B6010E94901BF3CB84E680937F
:1034C000C902F3CB0436C0F5802F65E00E94581E78
:1034D000923009F1B0F461E09130C1F087ED91E0F4
:1034E0000E942809F12C23E130E0211B31098901D8
:1034F000F01611060CF587ED91E00E942809F3946F
:10350000F7CF933051F064E0943041F785E094E0D8
:103510000E946504E7CF62E0F9CF63E0F7CFC816F9
:10352000D906EA06FB0640F41092F3021092F40268
:103530001092F5021092F6028091DA02882381F04F
:103540009091F8021092DA0280917801911155C0A1
:1035500031E03093F802882341F080E00E94E406D5
:103560008091F802882309F450C0C0900903D090DC
:103570000A03E0900B03F0900C038091D602909127
:10358000D702A091D802B091D902A7019601281BB9
:10359000390B4A0B5B0BDA01C901843F9140A1054D
:1035A000B105A0F0C092D602D092D702E092D80224
:1035B000F092D90260E084E00E94D502C092D2026B
:1035C000D092D302E092D402F092D5028091D2023E
:1035D0009091D302A091D402B091D502C81AD90A11
:1035E000EA0AFB0A44E6C416D104E104F10468F0D7
:1035F00061E084E00E94D50208C01092F80288239E
:10360000C9F08091F7020E94E40680E090E0892BE7
:1036100011F40C9413130E943202882311F40C94B9
:103620000E130E9400000C940E1361E084E00E94CF
:10363000D50244CD61E084E00E94D50291CFF99992
:10364000FECF92BD81BDF89A992780B50895262FA7
:10365000F999FECF1FBA92BD81BD20BD0FB6F89477
:10366000FA9AF99A0FBE01960895052E97FB1EF45B
:1036700000940E944C1B57FD07D00E945F1B07FC63
:1036800003D04EF40C944C1B5095409530952195E9
:103690003F4F4F4F5F4F089590958095709561957E
:1036A0007F4F8F4F9F4F08950E94811BA59F900DC4
:1036B000B49F900DA49F800D911D11240895A1E247
:1036C0001A2EAA1BBB1BFD010DC0AA1FBB1FEE1F9C
:1036D000FF1FA217B307E407F50720F0A21BB30BE7
:1036E000E40BF50B661F771F881F991F1A9469F763
:1036F00060957095809590959B01AC01BD01CF01BF
:103700000895A29FB001B39FC001A39F700D811DBA
:103710001124911DB29F700D811D1124911D0895DA
:103720005058BB27AA270E94A81B0C94221D0E9458
:10373000141D38F00E941B1D20F039F49F3F19F42E
:1037400026F40C94111D0EF4E095E7FB0C940B1D70
:10375000E92F0E94331D58F3BA17620773078407D5
:10376000950720F079F4A6F50C94551D0EF4E0951C
:103770000B2EBA2FA02D0B01B90190010C01CA012B
:10378000A0011124FF27591B99F0593F50F4503ED6
:1037900068F11A16F040A22F232F342F4427585FC8
:1037A000F3CF469537952795A795F0405395C9F7E0
:1037B0007EF41F16BA0B620B730B840BBAF0915098
:1037C000A1F0FF0FBB1F661F771F881FC2F70EC037
:1037D000BA0F621F731F841F48F48795779567950A
:1037E000B795F7959E3F08F0B0CF9395880F08F0F6
:1037F0009927EE0F9795879508950E94E71C08F486
:1038000081E008950E94161C0C94221D0E941B1D2D
:1038100058F00E94141D40F029F45F3F29F00C94E9
:103820000B1D51110C94561D0C94111D0E94331D3B
:1038300068F39923B1F3552391F3951B550BBB27DF
:10384000AA2762177307840738F09F5F5F4F220F24
:10385000331F441FAA1FA9F335D00E2E3AF0E0E81B
:1038600032D091505040E695001CCAF72BD0FE2F65
:1038700029D0660F771F881FBB1F261737074807F9
:10388000AB07B0E809F0BB0B802DBF01FF279358B1
:103890005F4F3AF09E3F510578F00C940B1D0C944D
:1038A000561D5F3FE4F3983ED4F386957795679570
:1038B000B795F7959F5FC9F7880F911D96958795E6
:1038C00097F90895E1E0660F771F881FBB1F621705
:1038D00073078407BA0720F0621B730B840BBA0BC3
:1038E000EE1F88F7E09508950E947B1C6894B11143
:1038F0000C94561D08950E943B1D88F09F5798F028
:10390000B92F9927B751B0F0E1F0660F771F881FE4
:10391000991F1AF0BA95C9F714C0B13091F00E94FE
:10392000551DB1E008950C94551D672F782F8827F9
:10393000B85F39F0B93FCCF3869577956795B39525
:10394000D9F73EF490958095709561957F4F8F4F94
:103950009F4F0895E89409C097FB3EF49095809599
:10396000709561957F4F8F4F9F4F9923A9F0F92F45
:1039700096E9BB279395F695879577956795B795C3
:10398000F111F8CFFAF4BB0F11F460FF1BC06F5FA9
:103990007F4F8F4F9F4F16C0882311F096E911C0BB
:1039A000772321F09EE8872F762F05C0662371F0DC
:1039B00096E8862F70E060E02AF09A95660F771FF0
:1039C000881FDAF7880F9695879597F90895990FCC
:1039D0000008550FAA0BE0E8FEEF16161706E807D9
:1039E000F907C0F012161306E407F50798F0621BFA
:1039F000730B840B950B39F40A2661F0232B242BCF
:103A0000252B21F408950A2609F4A140A6958FEFED
:103A1000811D811D089597F99F6780E870E060E03F
:103A200008959FEF80EC089500240A941616170657
:103A300018060906089500240A941216130614069F
:103A400005060895092E0394000C11F4882352F002
:103A5000BB0F40F4BF2B11F460FF04C06F5F7F4FBA
:103A60008F4F9F4F089557FD9058440F551F59F0A1
:103A70005F3F71F04795880F97FB991F61F09F3F5B
:103A800079F087950895121613061406551FF2CF84
:103A90004695F1DF08C0161617061806991FF1CFD4
:103AA00086957105610508940895E894BB276627FB
:103AB0007727CB0197F908950E94E71C08F48FEF50
:103AC000089516F00C94231E0C94111D68940C9408
:103AD0000B1D0E943B1DA8F39923C1F3AEF3DF93A6
:103AE000CF931F930F93FF92C92FDD2788232AF0CE
:103AF0002197660F771F881FDAF720E030E040E853
:103B00005FEB9FE3883920F0803E38F021968F7775
:103B10000E94911BE8E6F0E004C00E94911BE5E9D9
:103B2000F0E00E94311E8B01BE01EC01FB2E6F57AD
:103B300071097595771F880B990B0E94AC1C28E1C1
:103B400032E741E35FE30E94C41DAF2D9801AE014F
:103B5000FF900F911F91CF91DF910E94A81B0C94B1
:103B6000221D0E94C41D0C94221D0E94141D38F0B9
:103B70000E941B1D20F0952311F00C940B1D0C943A
:103B8000111D11240C94561D0E94331D70F3959F36
:103B9000C1F3950F50E0551F629FF001729FBB2744
:103BA000F00DB11D639FAA27F00DB11DAA1F649FE0
:103BB0006627B00DA11D661F829F2227B00DA11D93
:103BC000621F739FB00DA11D621F839FA00D611D19
:103BD000221F749F3327A00D611D231F849F600D3A
:103BE000211D822F762F6A2F11249F5750409AF063
:103BF000F1F088234AF0EE0FFF1FBB1F661F771FEF
:103C0000881F91505040A9F79E3F510580F00C94B9
:103C10000B1D0C94561D5F3FE4F3983ED4F386953C
:103C200077956795B795F795E7959F5FC1F7FE2B59
:103C3000880F911D9695879597F908950E94E71C26
:103C4000880B990B08959F3F31F0915020F4879590
:103C500077956795B795880F911D9695879597F9F4
:103C60000895DF93CF931F930F93FF92EF92DF920C
:103C70007B018C01689406C0DA2EEF010E94C41DFE
:103C8000FE01E894A5912591359145915591A6F3B2
:103C9000EF010E94A81BFE019701A801DA9469F7C1
:103CA000DF90EF90FF900F911F91CF91DF910895DA
:103CB000991B79E004C0991F961708F0961B881F7E
:103CC0007A95C9F7809508956927962769277827F7
:103CD000872778270895EE0FFF1F0590F491E02DB8
:103CE000099481E090E0F8940C94761EF894FFCF4C
:103CF000EA019603960300001F1F1F00000000004A
:103D00001E1E1E00000000001C1C1C000000000005
:103D1000181818000000000010101000000006091C
:103D200009060000000000C70000000000000000BD
:103D300000000000000000007F000DBBA0000DBBD4
:103D4000A000010F6E01EA0000000000000000006A
:103D50000000000000000000000000000000000063
:103D6000000000000000FF01016E0F00401454002D
:103D70004010503D00038FFDFF8E4D48544700001A
:103D800000006802C801F501B5022602040218020B
:103D9000000000002104F403A005CA03ED03DA03C8
:103DA000CB03000000006504C801A0059F05340690
:103DB00051041B06FC0543006E616E00696E6600CF
:103DC0006F766600460020200025002D2D2D2D0049
:083DD0002D4B0030003A000009
:107E0000112484B714BE81FFF0D085E080938100F7
:107E100082E08093C00088E18093C10086E0809377
:107E2000C20080E18093C4008EE0C9D0259A86E02C
:107E300020E33CEF91E0309385002093840096BBD3
:107E4000B09BFECF1D9AA8958150A9F7CC24DD24C4
:107E500088248394B5E0AB2EA1E19A2EF3E0BF2EE7
:107E6000A2D0813461F49FD0082FAFD0023811F036
:107E7000013811F484E001C083E08DD089C08234E0
:107E800011F484E103C0853419F485E0A6D080C0E4
:107E9000853579F488D0E82EFF2485D0082F10E0AE
:107EA000102F00270E291F29000F111F8ED06801E7
:107EB0006FC0863521F484E090D080E0DECF843638
:107EC00009F040C070D06FD0082F6DD080E0C81688
:107ED00080E7D80618F4F601B7BEE895C0E0D1E017
:107EE00062D089930C17E1F7F0E0CF16F0E7DF06D8
:107EF00018F0F601B7BEE89568D007B600FCFDCFD4
:107F0000A601A0E0B1E02C9130E011968C91119780
:107F100090E0982F8827822B932B1296FA010C0160
:107F200087BEE89511244E5F5F4FF1E0A038BF0790
:107F300051F7F601A7BEE89507B600FCFDCF97BE46
:107F4000E89526C08437B1F42ED02DD0F82E2BD052
:107F50003CD0F601EF2C8F010F5F1F4F84911BD097
:107F6000EA94F801C1F70894C11CD11CFA94CF0C13
:107F7000D11C0EC0853739F428D08EE10CD085E9AC
:107F80000AD08FE07ACF813511F488E018D01DD067
:107F900080E101D065CF982F8091C00085FFFCCF94
:107FA0009093C60008958091C00087FFFCCF809118
:107FB000C00084FD01C0A8958091C6000895E0E648
:107FC000F0E098E1908380830895EDDF803219F02E
:107FD00088E0F5DFFFCF84E1DECF1F93182FE3DFCA
:107FE0001150E9F7F2DF1F91089580E0E8DFEE27F6
:047FF000FF270994CA
:027FFE00040479
:0400000300007E007B
:00000001FF
