:100000000C94B4000C9432030C940B030C94DC009D
:100010000C94DC000C94DC000C94DC000C94DC00F0
:100020000C94DC000C94DC000C94DC000C94DC00E0
:100030000C94DC000C94DC000C94DC000C94DC00D0
:100040000C94F10A0C94DC000C947F030C9459037B
:100050000C94DC000C94DC000C94DC000C94DC00B0
:100060000C94B1030C94DC0008000000BE922449FB
:10007000123EABAAAA2ABECDCCCC4C3E00000080DA
:10008000BEABAAAAAA3E00000000BF000000803F4D
:100090000000000000084178D3BB4387D1133D190D
:1000A0000E3CC3BD4282AD2B3E68EC8276BED98F3A
:1000B000E1A93E4C80EFFFBE01C4FF7F3F0000007E
:1000C00000002D2D2D2D2D2D2D2D2D2D2D2D2D2DBA
:1000D0002D2D2D2D2D2D0020544F574552204741B9
:1000E0005244454E2056312E30322000204D4F4490
:1000F000554C415220485944524F504F4E4943208D
:10010000002D2D2D2D2D2D2D2D2D2D2D2D2D2D2D4C
:100110002D2D2D2D2D0000000008000201000003F0
:10012000040700000000000000000000000025009F
:1001300028002B0000000000240027002A000404EF
:10014000040404040404020202020202030303037F
:10015000030301020408102040800102040810205B
:10016000010204081020AE1211241FBECFEFD8E008
:10017000DEBFCDBF11E0A0E0B1E0EAEEFBE202C0DD
:1001800005900D92AC35B107D9F723E0ACE5B1E0AD
:1001900001C01D92AC36B207E1F710E0C4EBD0E02D
:1001A00004C02197FE010E94ED15C33BD107C9F79A
:1001B0000E943B0B0C94F3150C9400000895CF9211
:1001C000DF92EF92FF920F931F93CF93DF936C0117
:1001D0007A018B01C0E0D0E0CE15DF0581F0D801B7
:1001E0006D918D01D601ED91FC910190F081E02D92
:1001F000C6010995892B11F02196EECF7E01C7012A
:10020000DF91CF911F910F91FF90EF90DF90CF90F2
:100210000895FC01538D448D252F30E0842F90E00C
:10022000821B930B541710F0CF96089501970895F1
:10023000FC01918D828D981761F0828DDF01A80FEE
:10024000B11D5D968C91928D9F5F9F73928F90E010
:1002500008958FEF9FEF0895FC01918D828D98177F
:1002600031F0828DE80FF11D858D90E008958FEFBC
:100270009FEF0895FC01918D228D892F90E0805C85
:100280009F4F821B91098F739927089589E992E006
:100290000E943A0121E0892B09F420E0822F089581
:1002A000FC01848DDF01A80FB11DA35ABF4F2C9113
:1002B000848D90E001968F739927848FA689B789E2
:1002C0002C93A089B1898C91837080648C93938DD9
:1002D000848D981306C00288F389E02D80818F7D7C
:1002E00080830895EF92FF920F931F93CF93DF9334
:1002F000EC0181E0888F9B8D8C8D981305C0E88977
:10030000F989808185FD26C0F62E0B8D10E00F5FE8
:100310001F4F0F731127E02E8C8DE8120CC00FB603
:1003200007FCFACFE889F989808185FFF5CFCE01F6
:100330000E945001F1CF8B8DFE01E80FF11DE35AB1
:10034000FF4FF0829FB7F8940B8FEA89FB89808179
:1003500080620AC09FB7F894EE89FF896083E889BC
:10036000F98980818370806480839FBF81E090E001
:10037000DF91CF911F910F91FF90EF900895CF9350
:10038000DF93EC01888D8823C9F0EA89FB8980819D
:1003900085FD05C0A889B9898C9186FD0FC00FB66F
:1003A00007FCF5CF808185FFF2CFA889B9898C91B0
:1003B00085FFEDCFCE010E945001E7CFDF91CF91B5
:1003C000089580E090E0892B29F00E944601811178
:1003D0000C940000089585ED8093BC008091BC00D2
:1003E00084FDFCCF1092740208954091A101262F44
:1003F00030E0240F311D21323105DCF420917402EC
:100400002430C9F4FC0180E090E0861758F4309164
:10041000A1012191DC01A158BE4FA30FB11D2C9366
:100420000196F3CF8091A101680F6093A10180E054
:10043000089581E0089582E008950895089508954B
:10044000E0917E0180917D01E81730F4F0E0E35AFD
:10045000FE4F808190E008958FEF9FEF0895909177
:100460007E0180917D01981750F4E92FF0E0E35A66
:10047000FE4F208130E09F5F90937E0102C02FEFFE
:100480003FEFC901089580917D0190E020917E01A8
:10049000821B91090895CF92DF92EF92FF920F9302
:1004A0001F93CF93DF937C01CB018A0120917502CA
:1004B000222389F0EB016B01C40ED51ECC15DD059E
:1004C00069F06991D701ED91FC910190F081E02DE7
:1004D000C7010995F3CF642F0E94F501C801DF9190
:1004E000CF911F910F91FF90EF90DF90CF900895E3
:1004F000CF93DF931F92CDB7DEB76983209175024A
:100500002223D1F020919802203240F021E030E007
:10051000FC013383228380E090E015C08091760255
:10052000E82FF0E0E958FD4F998190838F5F809329
:1005300076028093980205C061E0CE0101960E9488
:10054000F50181E090E00F90DF91CF91089521E0D7
:1005500001C0220F6A95EAF7DC011C962C931C97C8
:100560001A965C934E931997ED91FC910484F5854E
:10057000E02D60E00994DC01ED91FC910684F785A3
:10058000E02D41E0099581E090E0089508950895F7
:10059000089580E090E00895F89481E0809303024C
:1005A000789408950F931F93CF93DF93062F0F70C6
:1005B000423019F440E0602F0EC0142FEC0170E0BF
:1005C00084E0759567958A95E1F7CE010E94BE0992
:1005D000412F602FCE01DF91CF911F910F910C948D
:1005E000BE09FC0184858823A9F021853285211567
:1005F000310519F4611106C007C02130310521F41D
:10060000611102C0858701C015866585CF010E96F0
:100610000C94990908951F920F920FB60F9211240E
:100620002F933F934F935F936F937F938F939F93FA
:10063000AF93BF93EF93FF93E0910201F091030119
:100640000995FF91EF91BF91AF919F918F917F910C
:100650006F915F914F913F912F910F900FBE0F902F
:100660001F9018951F920F920FB60F9211242F937F
:100670003F934F935F936F937F938F939F93AF932A
:10068000BF93EF93FF93E0910001F0910101099571
:10069000FF91EF91BF91AF919F918F917F916F915A
:1006A0005F914F913F912F910F900FBE0F901F9030
:1006B00018951F920F920FB60F9211242F933F930C
:1006C0004F935F936F937F938F939F93AF93BF935A
:1006D000EF93FF9389E992E00E945001FF91EF911F
:1006E000BF91AF919F918F917F916F915F914F914A
:1006F0003F912F910F900FBE0F901F9018951F9252
:100700000F920FB60F9211242F938F939F93EF9315
:10071000FF93E091A902F091AA028081E091AF02DB
:10072000F091B00282FD12C090818091B2028F5F81
:100730008F732091B302821751F0E091B202F0E082
:10074000E756FD4F958F8093B20201C08081FF91E3
:10075000EF919F918F912F910F900FBE0F901F904F
:1007600018951F920F920FB60F9211242F933F935B
:100770004F935F936F937F938F939F93AF93BF93A9
:10078000EF93FF938091B900887F803609F49CC075
:1007900068F5883209F45BC090F4803109F454C0E4
:1007A00038F4882309F4F6C0883009F44DC0F6C047
:1007B000883109F44CC0803209F45DC0EFC0803448
:1007C00009F468C048F4803309F455C0883309F04F
:1007D000E5C080937202D8C0803509F44FC08835D7
:1007E00009F45DC0883409F0D9C0D6C0883909F44D
:1007F000C7C0A8F4883709F467C038F4883609F40C
:1008000063C0803709F460C0C9C0883809F4B8C033
:10081000803909F45FC0803809F0C0C05BC0803BFC
:1008200009F486C038F4803A09F466C0883A09F4BD
:100830007FC0B4C0803C09F4A7C0883C09F4A4C0C0
:10084000883B09F48AC0AAC080914F0210C09091E1
:10085000710280917002981770F5E091710281E049
:100860008E0F80937102F0E0E05BFD4F80818093FA
:10087000BB0085EC86C0809372028EC0E09171024D
:1008800081E08E0F809371028091BB00F0E0E05B0D
:10089000FD4F808390917102809170026EC0E09153
:1008A000710281E08E0F809371028091BB00F0E0B5
:1008B000E05BFD4F80838091730281116DC081E008
:1008C00080934E0284EA61C083E0809374021092A8
:1008D000C501CFCF8091C501803208F051C0E091B1
:1008E000C50181E08E0F8093C5018091BB00F0E0CF
:1008F000EB55FE4F8083BDCF85EC8093BC001092FA
:1009000074028091C501803230F4E091C501F0E0BD
:10091000EB55FE4F10826091C50170E0E091A3019C
:10092000F091A40185EA91E009951092C50136C0C5
:1009300084E0809374021092A2011092A101E091D0
:100940009F01F091A00109958091A101811105C03D
:1009500081E08093A10110927F01E091A20181E0EA
:100960008E0F8093A201F0E0E158FE4F80818093CA
:10097000BB009091A2018091A101981708F479CF52
:1009800085E88093BC000AC085EC8093BC0010927F
:10099000740204C0109272020E94EB01FF91EF9169
:1009A000BF91AF919F918F917F916F915F914F9187
:1009B0003F912F910F900FBE0F901F901895DC0163
:1009C000ED91FC910684F785E02D40E009940F93AA
:1009D0001F93CF93DF93EC01423018F08C81886035
:1009E0008C834F836887222329F0413019F48C814E
:1009F00084608C8364E670E080E090E00E94AB0A43
:100A00006C8164FD31C0E881F9810684F785E02DB1
:100A100042E063E0CE0109958BE496E40197F1F79B
:100A2000E881F9810684F785E02D42E063E0CE019C
:100A3000099503E512E0C8010197F1F7E881F98112
:100A40000684F785E02D42E063E0CE010995C801F8
:100A50000197F1F7E881F9810684F785E02D42E0FE
:100A600062E0CE01099517C06062CE010E94DF04EA
:100A70008BE496E40197F1F76C816062CE010E94ED
:100A8000DF0403E512E0C8010197F1F76C816062B1
:100A9000CE010E94DF04C8010197F1F76C8160620A
:100AA000CE010E94DF048BEE90E00197F1F784E025
:100AB0008D836CE0CE010E94DF0461E0CE010E94D4
:100AC000DF048BE39FE10197F1F782E08E8366E01C
:100AD000CE010E94DF04E881F9810484F585E02DD0
:100AE0006FEFCE01DF91CF911F910F910994EF929B
:100AF000FF920F931F93CF93DF93EC01062FF42EF9
:100B0000E22E8B85888B10927E0110927D011092CF
:100B10007602109298021092740211E01093730200
:100B200010924E0261E082E10E94EE0961E083E1F1
:100B30000E94EE098091B9008E7F8093B900809168
:100B4000B9008D7F8093B90088E48093B80085E474
:100B50008093BC008DE192E09093A00180939F016F
:100B60008EE192E09093A4018093A3018889109371
:100B700075028093970210927602109298020E945A
:100B80003D0991E0811190E0998B811105C086E3C8
:100B900093E00E942F028E878989882339F01F866F
:100BA0001C8260E0CE010E960E9499092E2D4F2DD9
:100BB000602FCE01DF91CF911F910F91FF90EF90A9
:100BC0000C94E7041F93CF93DF93EC01162F0E9440
:100BD0002613181739F0612FCE01DF91CF911F91A5
:100BE0000C942E13DF91CF911F910895AF92BF9275
:100BF000CF92DF92EF92FF920F931F93CF93DF93E9
:100C0000CDB7DEB727970FB6F894DEBF0FBECDBFC6
:100C1000EDB6FEB6E0916803F09169038E010F5FB7
:100C20001F4F309721F4F801EC56F34004C0D8016F
:100C3000AE1BBF0BFD01FA83E983E981FA81D9017B
:100C4000D896EA17FB07B8F487E0E1E1F1E0D801B4
:100C500001900D928A95E1F76E01B8E0CB0ED11CA0
:100C6000F80161918F0189E992E00E9472010C15EF
:100C70001D05B1F754C06901F6E0CF0ED11CADB728
:100C8000BEB7AC19BD090FB6F894BEBF0FBEADBF5D
:100C90000DB71EB70F5F1F4F9DE311969C93F9018F
:100CA0003296D8011196FC9311979CEF9C0D1296E9
:100CB0009C931297806813968C93139714966C9359
:100CC00014972115310551F0FA011596420F531F63
:100CD000E417F50719F081918D93FACF2B5F3F4F01
:100CE000F801319680E0AF01401B510B42175307CA
:100CF00018F49191890FF7CFF801E20FF31F808369
:100D00005801C501801B910B8C159D0540F4F50120
:100D100061915F0189E992E00E947201F2CF0FB602
:100D2000F894FEBE0FBEEDBE0FB6F894FEBE0FBE29
:100D3000EDBE27960FB6F894DEBF0FBECDBFDF9194
:100D4000CF911F910F91FF90EF90DF90CF90BF90C8
:100D5000AF900895CF92DF92EF92FF920F931F937F
:100D6000CF93DF93CDB7DEB72E970FB6F894DEBFE3
:100D70000FBECDBFC0901202D0901302E0901402BB
:100D8000F090150280910E0290910F02A091100236
:100D9000B0911102009116021091170220911802D1
:100DA0003091190250910502511110C00097A10510
:100DB000B10561F08C0D9D1DAE1DBF1D801B910BFB
:100DC000A20BB30B4B2F3A2F292F04C080E020E059
:100DD00030E040E0198290910E01992311F091E0EA
:100DE00099839981552311F0926001C09D7F998369
:100DF000909104029A834B833C832D838E83809150
:100E0000FA018F838091FB0188878091FC0189879B
:100E10008091FD018A878091FE018B878091FF017F
:100E20008C87809100028D87809101028E872EE051
:100E300030E0AE014F5F5F4F60E082E00E94F60558
:100E40002E960FB6F894DEBF0FBECDBFDF91CF91C7
:100E50001F910F91FF90EF90DF90CF900895EF9248
:100E6000FF920F931F93CF9390910E01911105C0A4
:100E700090910502992309F444C0C82F81110BC039
:100E800060E089E00E94EE0961E084E00E94EE09E2
:100E900010925C0136C080915C018C17A0F4009127
:100EA0005C0110E0EC2EF12CE016F10620F1C801F7
:100EB0000E943B0A6FE070E080E090E00E94AB0A85
:100EC0000F5F1F4FF1CF80915C01C817A0F4009114
:100ED0005C0110E0EC2EF12C0E151F0560F0C8012E
:100EE0000E943B0A6FE070E080E090E00E94AB0A55
:100EF00001501109F1CF60E084E00E94EE09C09337
:100F00005C01CF911F910F91FF90EF9008950F9387
:100F10001F938091DA018093D8018091DB01809347
:100F2000D9018091DC018093D0018091DD01809313
:100F3000D1018091DE018093D2018091DF01809305
:100F4000D3018091E0018093D4018091E1018093ED
:100F5000D5018091E2018093D6018091E3018093D5
:100F6000D7018091E4018093C8018091E5018093CD
:100F7000C9018091E6018093CA018091E7018093C5
:100F8000CB018091E8018093CC018091E9018093AD
:100F9000CD018091EA018093CE018091EB01809395
:100FA000CF018091EC01809304026091ED0170917A
:100FB000EE018091EF019091F0010E94E6158B0106
:100FC0009C0160930A0270930B0280930C02909331
:100FD0000D026091F1017091F2018091F301909105
:100FE000F4010E94E6156093060270930702809355
:100FF00008029093090240910502411177C0012B2C
:10100000022B032B69F4672B682B692BE1F41092F8
:101010000E0210920F02109210021092110261C083
:10102000672B682B692B79F410920E0210920F0235
:10103000109210021092110281E080930E018091B3
:1010400004020E942F0780910A0290910B02A09146
:101050000C02B0910D02892B8A2B8B2B69F4109214
:101060000E0210920F02109210021092110280E0F4
:101070000E942F0710920E0140910A0250910B021C
:1010800060910C0270910D024115510561057105C9
:1010900069F18091060290910702A0910802B09137
:1010A00009020097A105B10509F120910E01222343
:1010B00081F040930E0250930F02609310027093E0
:1010C000110281E080930E01809104020E942F079B
:1010D0000DC080930E0290930F02A0931002B09364
:1010E000110280E00E942F0710920E018091F601FC
:1010F000809302026091F7017091F80176276727CB
:1011000076277093100160930F0180E090E00E94B9
:1011100020149B01AC0160E070E080E89FE30E9436
:10112000AE13609342037093430380934403909300
:1011300045031F910F9108953FB7F8948091640380
:1011400090916503A0916603B091670326B5A89BB3
:1011500005C02F3F19F00196A11DB11D3FBFBA2F49
:10116000A92F982F8827820F911DA11DB11DBC01A9
:10117000CD0142E0660F771F881F991F4A95D1F76E
:10118000089590E0FC01EE5AFE4F2491FC01E25CD0
:10119000FE4F8491882399F090E0880F991FFC01FD
:1011A000EC5CFE4FA591B491FC01E65DFE4F85918C
:1011B00094918FB7F894EC91E22BEC938FBF089544
:1011C0000F931F93CF93DF938C01C0E0D0E0F80121
:1011D000EC0FFD1F6491662341F086E493E00E94CA
:1011E000BB02892B11F02196F2CFCE01DF91CF9176
:1011F0001F910F910895CF93DF93CDB7DEB7289756
:101200000FB6F894DEBF0FBECDBF40911C015091C8
:101210001D0160911E0170911F014D835E836F83DC
:1012200078874091200150912101609122017091B5
:10123000230149835A836B837C8320914D0382175A
:1012400010F08FEF820F30914E0390E0FE01E80F17
:10125000F91F303121F4243011F4618101C065811E
:10126000606886E493E028960FB6F894DEBF0FBE60
:10127000CDBFDF91CF910C94DF04309198023132D1
:1012800008F04BC0809174028111FCCF90919702BD
:1012900022E02093740221E0209373022FEF209329
:1012A00072021092710230937002E7E7F2E0A0E55B
:1012B000B2E020E0321721F041914D932F5FFACF39
:1012C00010924F0220914F02990F922B90934F0250
:1012D00090914E02913061F410924E0290914F0223
:1012E0009093BB009091BC0093FDF8CF95EC01C0AA
:1012F00095EE9093BC00909174029230E1F390913E
:1013000072029F3F79F080917202803241F08091A9
:101310007202803331F084E005C081E003C082E0D6
:1013200001C083E01092760210929802109275022A
:101330000895FC0183818823C1F0962F6181609517
:1013400069236083828191E0909375028093970274
:10135000109276021092980286E393E00E9478023F
:101360000E943D09282F30E002C020E030E081E0FB
:1013700090E0232B11F080E090E00895EF92FF922F
:101380000F931F93CF938C01FC0184E0C0E060FFBA
:1013900002C09589C92B6695815031968111F7CF8E
:1013A000413011F4F8014489F8018585C82BC42B1C
:1013B0007801FEE0EF0EF11CF80162896C2BC70189
:1013C0000E949909F801628960956C23C701CF9149
:1013D0001F910F91FF90EF900C94990990E0FC0100
:1013E000EA5EFE4F2491FC01EE5AFE4F3491FC015F
:1013F000E25CFE4FE491EE2309F43CC0222339F174
:10140000233091F038F42130A9F0223001F584B571
:101410008F7D12C0273091F02830A1F02430B9F42C
:10142000809180008F7D03C0809180008F778093B2
:1014300080000DC084B58F7784BD09C08091B00055
:101440008F7703C08091B0008F7D8093B000F0E073
:10145000EE0FFF1FE65DFE4FA591B4919FB7F89484
:10146000611104C08C913095382302C0EC913E2B61
:101470003C939FBF0895CF93DF93EC0189E00E94D6
:10148000C108209711F460E004C0CF3FD10531F4CA
:1014900061E089E0DF91CF910C94EE09EFE1F1E09A
:1014A000E491E330F9F048F4E130B9F0E230A1F52D
:1014B00084B5806284BDC8BD34C0E730E9F0E8304F
:1014C00019F1E43049F580918000806280938000BA
:1014D000D0938B00C0938A0024C084B5806884BDFB
:1014E000C7BD1FC080918000806880938000D0932A
:1014F0008900C093880015C08091B00080688093F7
:10150000B000C093B3000DC08091B00080628093A2
:10151000B000C093B40005C0C038D1050CF0B8CFFE
:10152000B2CFDF91CF9108958E3008F08E50877042
:10153000806480937C0080917A00806480937A003C
:1015400080917A0086FDFCCF80917800209179000F
:1015500090E0922B08958F929F92AF92BF92CF927C
:10156000DF92EF92FF926B017C010E949C084B017D
:101570005C01C114D104E104F104F1F00E949C0863
:10158000DC01CB0188199909AA09BB09883E93405F
:10159000A105B10570F321E0C21AD108E108F108F4
:1015A00088EE880E83E0981EA11CB11CC114D104E2
:1015B000E104F10419F7DDCFFF90EF90DF90CF90B9
:1015C000BF90AF909F908F9008952FB7F89460913F
:1015D00060037091610380916203909163032FBF58
:1015E00008951F920F920FB60F9211242F933F93DD
:1015F0008F939F93AF93BF9380916003909161030A
:10160000A0916203B091630330915F0323E0230F45
:101610002D3720F40196A11DB11D05C026E8230F2A
:101620000296A11DB11D20935F03809360039093E8
:101630006103A0936203B09363038091640390916C
:101640006503A0916603B09167030196A11DB11DCA
:101650008093640390936503A0936603B09367033C
:10166000BF91AF919F918F913F912F910F900FBE9E
:101670000F901F901895CF93DF93CDB7DEB7A49747
:101680000FB6F894DEBF0FBECDBF789484B58260EC
:1016900084BD84B5816084BD85B5826085BD85B516
:1016A000816085BD80916E00816080936E00109294
:1016B000810080918100826080938100809181000F
:1016C00081608093810080918000816080938000A0
:1016D0008091B10084608093B1008091B0008160FE
:1016E0008093B00080917A00846080937A0080912A
:1016F0007A00826080937A0080917A008160809382
:101700007A0080917A00806880937A001092C100FC
:101710007894E091A902F091AA0282E08083E0919E
:10172000A502F091A6021082E091A702F091A80212
:1017300087E080831092B102E091AD02F091AE0299
:1017400086E08083E091AB02F091AC028081806101
:101750008083E091AB02F091AC028081886080834D
:10176000E091AB02F091AC02808180688083E091CF
:10177000AB02F091AC0280818F7D808384E00E9477
:10178000C10861E084E00E94EE0989E00E94C1087E
:101790008CEC92E0909301018093000180916900AC
:1017A0008C7F826080936900E89A81E2E0E0F0E05B
:1017B00080935700E491E0931A02E2E0F0E0809316
:1017C0005700E491E0931B02E4E0F0E080935700BF
:1017D000849180931C0220E044E064E186E493E07D
:1017E0000E9477056FEF86E493E00E94F10261E0CA
:1017F00086E493E00E94DF040BE31FE1C801019738
:10180000F1F762E086E493E00E94DF04C8010197EB
:10181000F1F781E091E00E94E00881E00E94FB087E
:101820008CEE90E00E94E00882E00E94FB0887EDC9
:1018300090E00E94E00883E00E94FB0882EC90E0C8
:101840000E94E00860E486E493E00E94DF0483E7FE
:1018500090E00197F1F704E011E03BE9E32EF12C71
:10186000D8016D918D0186E493E00E94BB02C7010F
:101870000197F1F7B1E00C301B0791F72AEDE22E4A
:1018800021E0F22E00E010E0C8010E942613F701CB
:1018900081937F010F5F1F4F00321105A9F7EAED19
:1018A000F1E080E09191890F21E0E93FF207D1F763
:1018B0009091F901981303C00E94870766C01092A7
:1018C000D80186E68093D9011092D0011092D101FF
:1018D0001092D2011092D3018DE58093D4019AEC3D
:1018E0009093D5019EEB9093D6019DE09093D70104
:1018F0001092C8011092C9011092CA011092CB0136
:101900008093CC018CEA8093CD0187E58093CE0152
:1019100083E28093CF018FE78093040280910402D9
:101920000E942F0780EA9BEBADE0B0E080930A02B3
:1019300090930B02A0930C02B0930D0280930602C9
:1019400090930702A0930802B093090280930E02BD
:1019500090930F02A0931002B093110281E0809344
:1019600002022EE63FE03093100120930F014CE27B
:101970005BEB64E879E34093420350934303609345
:1019800044037093450380930E0198E288E10FB6FB
:10199000F894A895809360000FBE9093600021E0BA
:1019A00030E041E252E061E080E00E94F60533243D
:1019B000339491E8292EAE01425F5F4F5C8F4B8FCD
:1019C0008091180190911901A0911A01B0911B0109
:1019D00089A39AA3ABA3BCA3A89589E992E00E942E
:1019E0003A01181619060CF04EC089E992E00E94DF
:1019F00018018D3309F043C0ADB7BEB7BE8FAD8FB0
:101A00000E94E50A4B015C01F12C89E992E00E94F9
:101A10003A0102974CF4FF2009F43BC321E030E087
:101A20004CE051E066E020C0F110F8CF89E992E087
:101A30000E941801482E89E992E00E941801582E50
:101A400048A21F8EAF8CB8A0A82A6501B2E0CB1ABD
:101A5000D108EBEFCE16E3E0DE0608F409C321E07F
:101A600030E04CE051E061E08FE00E94F6052D8D02
:101A70003E8D0FB6F8943EBF0FBE2DBF04C089E95E
:101A800092E00E9418010E94E50A6B017C016093BC
:101A90001602709317028093180290931902809196
:101AA000120290911302A0911402B09115029701B5
:101AB0008601081B190B2A0B3B0B40910E0250911B
:101AC0000F0260911002709111020417150726078A
:101AD000370708F44DC08C159D05AE05BF0508F00D
:101AE00047C040910A0250910B0260910C02709124
:101AF0000D024115510561057105D1F100910602F4
:101B00001091070220910802309109020115110578
:101B10002105310569F1C0921202D0921302E092C0
:101B20001402F092150280910E01882371F0009347
:101B30000E0210930F02209310023093110280E0E6
:101B40000E942F0710920E0120C030920E01409388
:101B50000E0250930F026093100270931102809155
:101B60000502811112C0809104020E942F070DC04E
:101B7000C816D906EA06FB0640F41092120210922B
:101B80001302109214021092150280914A02909151
:101B90004B02A0914C02B0914D02B701A601481B27
:101BA000590B6A0B7B0B483E53406105710508F4E5
:101BB000DDC1C0924A02D0924B02E0924C02F092F8
:101BC0004D021092260210922702109228021092C3
:101BD00029021092220210922302109224021092E3
:101BE000250204EF11E08EE00E94940A4C01990F47
:101BF000AA08BB088091260290912702A091280292
:101C0000B0912902880E991EAA1EBB1E8092260240
:101C100090922702A0922802B09229020150110945
:101C200011F704EF11E08FE00E94940A6C01990F04
:101C3000EE08FF088091220290912302A0912402D5
:101C4000B0912502C80ED91EEA1EFB1EC0922202C8
:101C5000D0922302E0922402F09225020150110951
:101C600011F7C501B40124EF31E040E050E00E94DB
:101C7000C41549015A01209326023093270240934C
:101C8000280250932902C701B60124EF31E040E059
:101C900050E00E94C41529013A012093220230939A
:101CA00023024093240250932502C501B4010E94EF
:101CB00020149B01AC0160E070EC8FE794E40E947B
:101CC000AE1320E030E040E85FE30E943C130E9446
:101CD000DA148090420390904303A0904403B090A4
:101CE0004503A50194010E9422152FE03FEC4BE52E
:101CF0005BE30E943D139B01AC0160E070E080E873
:101D00009FE30E94AE136B017C01C301B2010E94EC
:101D100020149B01AC0160E070EC8FE794E40E941A
:101D2000AE1320E030E040E85FE30E943C130E94E5
:101D3000DA149B01AC01C501B4010E9422152FE009
:101D40003FEC4BE55BE30E943D139B01AC0160E07F
:101D500070E080E89FE30E94AE134B015C0120E03D
:101D600030E0A901C701B6010E94A913882399F1A7
:101D700023E333E948E853E4C701B6010E943C136A
:101D8000C0923E02D0923F02E0924002F0924102A5
:101D90006093420270934302809344029093450201
:101DA00020E030E040E151E40E94221520E030E0E4
:101DB00040EA50E40E94AE1320E030E040E052E4FC
:101DC0000E943D136093460270934702809348023D
:101DD0009093490218C010923E0210923F02109256
:101DE000400210924102109242021092430210925D
:101DF000440210924502109246021092470210923D
:101E000048021092490220E030E0A901C501B40166
:101E10000E94A913882399F123E333E948E853E4A6
:101E2000C501B4010E943C138092320290923302A9
:101E3000A0923402B092350260933602709337025A
:101E4000809338029093390220E030E040E151E481
:101E50000E94221520E030E040EA50E40E94AE13D8
:101E600020E030E040E052E40E943D1360933A02EB
:101E700070933B0280933C0290933D0218C01092F5
:101E800032021092330210923402109235021092F4
:101E900036021092370210923802109239021092D4
:101EA0003A0210923B0210923C0210923D02809145
:101EB0000202823019F1843091F1E0914202709176
:101EC00043026091440250914502409136023091A4
:101ED00037022091380290913902E093FA01709311
:101EE000FB016093FC015093FD014093FE01309390
:101EF000FF01209300029093010231C070914602CD
:101F000060914702509148024091490230913A0253
:101F100020913B0290913C0280913D0210C0709153
:101F20003E0260913F025091400240914102309147
:101F300032022091330290913402809135027093E5
:101F4000FA016093FB015093FC014093FD01309333
:101F5000FE012093FF019093000280930102809183
:101F60000D01882381F00E94AA060DC0C816D9066B
:101F7000EA06FB0640F410924A0210924B021092BD
:101F80004C0210924D0280910302882311F11092AD
:101F900003029091050280910E01911108C03092C8
:101FA00005028823D9F080E00E942F0712C010920A
:101FB0000502882331F030920E01809104020E94C4
:101FC0002F0780910E01811150C061E084E00E94D2
:101FD000EE0980910502882309F447C0C0901602DB
:101FE000D0901702E0901802F090190280912E0212
:101FF00090912F02A0913002B0913102A701960179
:10200000281B390B4A0B5B0BDA01C901843F914055
:10201000A105B105A0F0C0922E02D0922F02E0924D
:102020003002F092310260E084E00E94EE09C0923A
:102030002A02D0922B02E0922C02F0922D02809183
:102040002A0290912B02A0912C02B0912D02C81A65
:10205000D90AEA0AFB0A44E6C416D104E104F104F1
:1020600020F061E084E00E94EE090E94E101B4CC1E
:102070000E94E50A3B014C0185010F5F1F4F89E972
:1020800092E00E943A018017910728F5F110C6CC22
:1020900011C00E94E50ADC01CB0188199909AA093F
:1020A000BB09FF24F394893C9105A105B10508F013
:1020B000ACCCAACC0E94E50ADC01CB0186199709B9
:1020C000A809B909FF24F39485369105A105B10546
:1020D000B0F6F12CD4CFF110A1CC89E992E00E94A6
:1020E0001801682E89E992E00E9418018C012DB731
:1020F0003EB72C193D090FB6F8943EBF0FBE2DBF59
:102100004DB75EB74F5F5F4F7A01C114D10489F0BC
:102110004A0189E992E00E941801D4018D934D0192
:10212000CD018E199F098C159D0598F399249394E0
:1021300001C0912C89E992E00E941801742C750C61
:10214000760C700E992051F0F7019F012E193F096E
:102150002C153D0518F49191790EF7CF871531F0C4
:1021600021E030E04CE051E065E07ECC862D8F70C0
:10217000823039F1A8F48823D9F0813009F0DEC12A
:1021800029A13AA14BA15CA129833A834B835C83AB
:1021900024E030E0AE014F5F5F4F60E081E0D4C1EA
:1021A000843009F4B3C080F08E3009F425C1C6C173
:1021B00021E030E041E252E060E080E00E94F6057C
:1021C000FFCF0E94AA06C2C111270330110509F4EE
:1021D00059C03CF40130110569F002301105D1F00D
:1021E000A7C10430110509F45DC00530110509F4DB
:1021F0006FC09EC1ACEEB1E0FE013196AF018D9192
:1022000081938B8D9C8DE817F907C9F72DE030E09D
:1022100061E05CC09DE0C916D10430F421E030E0FB
:102220004CE051E064E08FC1F701ACEEB1E0C701D2
:102230000D9621912D93E817F907D9F7EAEDF1E012
:1022400080E09191890FA1E0E93FFA07D1F78093EF
:10225000F9018AEDE82E81E0F82E00E010E0F701A8
:1022600061917F01C8010E94E2050F5F1F4F00329C
:102270001105A9F70E94870721E030E041E252E012
:1022800062E024C0992051F2D7018C91811103C0E2
:1022900010920D0102C030920D0121E030E0A70143
:1022A00063E014C0992009F4B9CFF701808181114E
:1022B00007C010920502809104020E942F0702C0FD
:1022C0003092050221E030E0A70164E083E03CC1E8
:1022D000992009F4A3CF8091050221E030E0882302
:1022E00089F0A70165E083E00E94F605D7018C9193
:1022F000811103C010920E0102C030920E010E94A3
:102300002F0724C14CE051E06EEF1DC111270230B0
:102310001105C9F054F40130110509F009C120E29A
:1023200030E04AED51E061E065C00330110509F489
:1023300052C00430110509F0FBC028E030E04AEF3C
:1023400051E064E057C08091D80189838091D90120
:102350008A838091D0018B838091D1018C8380917D
:10236000D2018D838091D3018E838091D4018F839C
:102370008091D50188878091D60189878091D70186
:102380008A878091C8018B878091C9018C87809151
:10239000CA018D878091CB018E878091CC018F8778
:1023A0008091CD01888B8091CE01898B8091CF0166
:1023B0008A8B1B8A1C8A1D8A1E8ABEE5BF8BE2E6B9
:1023C000E88FF2E8F98F2A8E2AE130E0AE014F5F04
:1023D0005F4F62E00FC00E94E50A90931D02809358
:1023E0001E0270931F026093200224E030E04DE152
:1023F00052E063E085E0A8C011270130110529F003
:102400000230110509F465C093C024E0C216D1045E
:1024100008F404CFD701AD90BC901197BA24AB2437
:10242000BA245C9111964C91119712960D911C91C2
:10243000139710270127102712963C911297139695
:102440002C91C501800F911F01978115944008F0D0
:10245000E5CE4DB65EB63801E4E06E0E711C8DB768
:102460009EB7861997090FB6F8949EBF0FBE8DBF11
:10247000ADB7BEB711967D01EDB7FEB7518311968A
:102480004C93119712963C93129713962C938DB6FA
:102490009EB6F5E08F0E911CC12CD12CC016D10632
:1024A00061F0C5018C0D9D1D0E942613D4018D93F2
:1024B0004D01BFEFCB1ADB0AF1CF9301A70161E019
:1024C0008EE00E94F6050FB6F8945EBE0FBE4DBEBC
:1024D0003DC0E3E0CE16D10408F4A0CED701CD90E4
:1024E000DC90DC24CD24DC24B4E0AB1AB108C601B6
:1024F00001978A0D9B1D8115944008F08FCEF2E064
:10250000EF0EF11C00E010E0D7016D917D01C801D4
:102510008C0D9D1D0E94E2050F5F1F4F0A151B05C4
:1025200098F321E030E041E252E062E08EE00CC03E
:1025300021E030E04CE051E063E005C021E030E014
:102540004CE051E062E08FE00E94F605ED8DFE8DDB
:102550000FB6F894FEBF0FBEEDBF95CAE9E9F2E0F1
:102560001382128288EE93E0A0E0B0E0848395832A
:10257000A683B78328E231E03183208325EC30E065
:102580003587248724EC30E03787268720EC30E03D
:10259000318B208B21EC30E0338B228B22EC30E02E
:1025A000358B248B26EC30E0378B268B118E128EE8
:1025B000138E148EE6E3F3E01382128284839583F4
:1025C000A683B7838AE391E091838083E6E4F3E016
:1025D000138212828CE491E091838083108A8FEFC2
:1025E00087871686118A87E2838714861586128666
:1025F000118684E0828B82E0838B81E0848B80E192
:10260000858B80E2868B80E4878B80E8808F40E03A
:1026100050E063E0CF010E94A70260910F0170912A
:10262000100180E090E00E9420149B01AC0160E06A
:1026300070E080E89FE30E94AE13609342037093C2
:10264000430380934403909345030895F999FECF83
:1026500092BD81BDF89A992780B50895262FF999E2
:10266000FECF1FBA92BD81BD20BD0FB6F894FA9A75
:10267000F99A0FBE019608955058BB27AA270E94C9
:1026800054130C9498140E948A1438F00E949114E8
:1026900020F039F49F3F19F426F40C9487140EF4BB
:1026A000E095E7FB0C948114E92F0E94A91458F3DC
:1026B000BA17620773078407950720F079F4A6F527
:1026C0000C94CB140EF4E0950B2EBA2FA02D0B0119
:1026D000B90190010C01CA01A0011124FF27591B67
:1026E00099F0593F50F4503E68F11A16F040A22F6D
:1026F000232F342F4427585FF3CF469537952795DE
:10270000A795F0405395C9F77EF41F16BA0B620BDC
:10271000730B840BBAF09150A1F0FF0FBB1F661F23
:10272000771F881FC2F70EC0BA0F621F731F841F66
:1027300048F4879577956795B795F7959E3F08F08C
:10274000B0CF9395880F08F09927EE0F979587954E
:1027500008950E945D1408F481E008950E94C21358
:102760000C9498140E94911458F00E948A1440F01E
:1027700029F45F3F29F00C94811451110C94CC146E
:102780000C9487140E94A91468F39923B1F355237C
:1027900091F3951B550BBB27AA2762177307840774
:1027A00038F09F5F5F4F220F331F441FAA1FA9F30A
:1027B00035D00E2E3AF0E0E832D091505040E695F8
:1027C000001CCAF72BD0FE2F29D0660F771F881F59
:1027D000BB1F261737074807AB07B0E809F0BB0B4C
:1027E000802DBF01FF2793585F4F3AF09E3F510560
:1027F00078F00C9481140C94CC145F3FE4F3983E71
:10280000D4F3869577956795B795F7959F5FC9F748
:10281000880F911D9695879597F90895E1E0660FC9
:10282000771F881FBB1F621773078407BA0720F042
:10283000621B730B840BBA0BEE1F88F7E0950895AB
:10284000E89409C097FB3EF490958095709561954A
:102850007F4F8F4F9F4F9923A9F0F92F96E9BB2700
:102860009395F695879577956795B795F111F8CF7C
:10287000FAF4BB0F11F460FF1BC06F5F7F4F8F4FE7
:102880009F4F16C0882311F096E911C0772321F0DD
:102890009EE8872F762F05C0662371F096E8862F75
:1028A00070E060E02AF09A95660F771F881FDAF7CC
:1028B000880F9695879597F90895990F0008550FF9
:1028C000AA0BE0E8FEEF16161706E807F907C0F0B6
:1028D00012161306E407F50798F0621B730B840BBE
:1028E000950B39F40A2661F0232B242B252B21F498
:1028F00008950A2609F4A140A6958FEF811D811D38
:10290000089597F99F6780E870E060E008959FEF71
:1029100080EC089500240A94161617061806090676
:10292000089500240A941216130614060506089545
:10293000092E0394000C11F4882352F0BB0F40F4CD
:10294000BF2B11F460FF04C06F5F7F4F8F4F9F4F0D
:10295000089557FD9058440F551F59F05F3F71F08F
:102960004795880F97FB991F61F09F3F79F08795F6
:102970000895121613061406551FF2CF4695F1DF7F
:1029800008C0161617061806991FF1CF869571050F
:10299000610508940895E894BB2766277727CB0143
:1029A00097F9089516F00C948F150C948714689479
:1029B0000C9481140E94B114A8F39923C1F3AEF3CF
:1029C000DF93CF931F930F93FF92C92FDD278823A7
:1029D0002AF02197660F771F881FDAF720E030E092
:1029E00040E85FEB9FE3883920F0803E38F0219685
:1029F0008F770E943D13E8E6F0E004C00E943D138B
:102A0000E5E9F0E00E949D158B01BE01EC01FB2E73
:102A10006F5771097595771F880B990B0E942214C7
:102A200028E132E741E35FE30E943515AF2D9801BD
:102A3000AE01FF900F911F91CF91DF910E9454132F
:102A40000C9498140E9435150C9498140E948A14C2
:102A500038F00E94911420F0952311F00C94811409
:102A60000C94871411240C94CC140E94A91470F3B4
:102A7000959FC1F3950F50E0551F629FF001729F23
:102A8000BB27F00DB11D639FAA27F00DB11DAA1F32
:102A9000649F6627B00DA11D661F829F2227B00D7F
:102AA000A11D621F739FB00DA11D621F839FA00D0A
:102AB000611D221F749F3327A00D611D231F849F5A
:102AC000600D211D822F762F6A2F11249F575040B1
:102AD0009AF0F1F088234AF0EE0FFF1FBB1F661F2C
:102AE000771F881F91505040A9F79E3F510580F0F5
:102AF0000C9481140C94CC145F3FE4F3983ED4F30F
:102B0000869577956795B795F795E7959F5FC1F798
:102B1000FE2B880F911D9695879597F908959F3FF5
:102B200031F0915020F4879577956795B795880F88
:102B3000911D9695879597F90895DF93CF931F93ED
:102B40000F93FF92EF92DF927B018C01689406C095
:102B5000DA2EEF010E943515FE01E894A59125912A
:102B6000359145915591A6F3EF010E945413FE0152
:102B70009701A801DA9469F7DF90EF90FF900F9129
:102B80001F91CF91DF910895A1E21A2EAA1BBB1BC2
:102B9000FD010DC0AA1FBB1FEE1FFF1FA217B30729
:102BA000E407F50720F0A21BB30BE40BF50B661F3F
:102BB000771F881F991F1A9469F760957095809503
:102BC00090959B01AC01BD01CF010895692796271F
:102BD00069277827872778270895EE0FFF1F05902C
:0A2BE000F491E02D0994F894FFCF62
:102BEA00DE00DE000609090600000000FF01016E92
:102BFA000F3D00038FFDFF8E4D485447004014548B
:102C0A0000401050000000007201DF000901BF01FE
:102C1A003A0118012C010000000078024B02C90297
:102C2A001F0243022F02200200000000BB02DF0045
:0C2C3A00C902C8027705A702F102D2020D
:00000001FF
