:100000000C94B4000C94750A0C944E0A0C94DC0009
:100010000C94DC000C94DC000C94DC000C94DC00F0
:100020000C94DC000C94DC000C94DC000C94DC00E0
:100030000C94DC000C94DC000C94DC000C94DC00D0
:100040000C94490D0C94DC000C94C20A0C949C0A8C
:100050000C94DC000C94DC000C94DC000C94DC00B0
:100060000C9475020C94DC0008000000BE92244938
:10007000123EABAAAA2ABECDCCCC4C3E00000080DA
:10008000BEABAAAAAA3E00000000BF000000803F4D
:100090000000000000084178D3BB4387D1133D190D
:1000A0000E3CC3BD4282AD2B3E68EC8276BED98F3A
:1000B000E1A93E4C80EFFFBE01C4FF7F3F0000007E
:1000C00000002D2D2D2D2D2D2D2D2D2D2D2D2D2DBA
:1000D0002D2D2D2D2D2D0020544F574552204741B9
:1000E0005244454E2056312E30322000204D4F4490
:1000F000554C415220485944524F504F4E4943208D
:10010000002D2D2D2D2D2D2D2D2D2D2D2D2D2D2D4C
:100110002D2D2D2D2D0000000008000201000003F0
:10012000040700000000000000000000000025009F
:1001300028002B0000000000240027002A000404EF
:10014000040404040404020202020202030303037F
:10015000030301020408102040800102040810205B
:10016000010204081020BE1111241FBECFEFD8E0F9
:10017000DEBFCDBF11E0A0E0B1E0E4E1FAE202C0F1
:1001800005900D92A635B107D9F723E0A6E5B1E0B9
:1001900001C01D92A935B207E1F710E0C4EBD0E031
:1001A00004C02197FE010E94FD14C33BD107C9F78B
:1001B0000E94930D0C9408150C940000FC01918D85
:1001C000828D981761F0828DDF01A80FB11D5D96B9
:1001D0008C91928D9F5F9F73928F90E008958FEF27
:1001E0009FEF0895FC01918D828D981731F0828DDB
:1001F000E80FF11D858D90E008958FEF9FEF089532
:10020000FC01918D228D892F90E0805C9F4F821B95
:1002100091098F739927089580E090E0892B29F048
:100220000E94D30981110C940000089585ED8093FC
:10023000BC008091BC0084FDFCCF10926502089543
:1002400040919E01262F30E0240F311D21323105CF
:10025000DCF4209165022430C9F4FC0180E090E0D8
:10026000861758F430919E012191DC01A458BE4FAD
:10027000A30FB11D2C930196F3CF80919E01680FBF
:1002800060939E0180E0089581E0089582E00895E2
:10029000089508950895E0917B0180917A01E8170F
:1002A00030F4F0E0E65AFE4F808190E008958FEF41
:1002B0009FEF089590917B0180917A01981750F4F7
:1002C000E92FF0E0E65AFE4F208130E09F5F9093E7
:1002D0007B0102C02FEF3FEFC901089580917A01A1
:1002E00090E020917B01821B91090895CF92DF92CB
:1002F000EF92FF920F931F93CF93DF937C01CB017B
:100300008A0120916602222389F0EB016B01C40E61
:10031000D51ECC15DD0569F06991D701ED91FC91F1
:100320000190F081E02DC7010995F3CF642F0E9461
:100330002001C801DF91CF911F910F91FF90EF90A5
:10034000DF90CF900895CF93DF931F92CDB7DEB7A4
:100350006983209166022223D1F020918902203204
:1003600040F021E030E0FC013383228380E090E024
:1003700015C080916702E82FF0E0E859FD4F9981A0
:1003800090838F5F809367028093890205C061E04C
:10039000CE0101960E94200181E090E00F90DF9154
:1003A000CF91089521E001C0220F6A95EAF7DC01A0
:1003B0001C962C931C971A965C934E931997ED916B
:1003C000FC910484F585E02D60E00994DC01ED9159
:1003D000FC910684F785E02D41E0099581E090E0ED
:1003E000089508950895089580E090E008950F938A
:1003F0001F93CF93DF93062F0F70423019F440E024
:10040000602F0EC0142FEC0170E084E075956795A5
:100410008A95E1F7CE010E94160C412F602FCE0184
:10042000DF91CF911F910F910C94160CFC018485E4
:100430008823A9F0218532852115310519F4611130
:1004400006C007C02130310521F4611102C0858743
:1004500001C015866585CF010E960C94F10B0895A9
:100460001F93CF93DF93EC01162F0E9436121817BB
:1004700039F0612FCE01DF91CF911F910C943E1284
:10048000DF91CF911F910895F89481E0809313023A
:1004900080910E01882329F08091010290E00E9452
:1004A000930C78940895FC01848DDF01A80FB11D91
:1004B000A35ABF4F2C91848D90E001968F7399279A
:1004C000848FA689B7892C93A089B1898C91837078
:1004D00080648C93938D848D981306C00288F38971
:1004E000E02D80818F7D808308951F920F920FB63B
:1004F0000F9211242F933F934F935F936F937F93AA
:100500008F939F93AF93BF93EF93FF938091B90025
:10051000887F803609F49CC068F5883209F45BC096
:1005200090F4803109F454C038F4882309F4F6C0FB
:10053000883009F44DC0F6C0883109F44CC08032CF
:1005400009F45DC0EFC0803409F468C048F480331A
:1005500009F455C0883309F0E5C080936302D8C020
:10056000803509F44FC0883509F45DC0883409F03E
:10057000D9C0D6C0883909F4C7C0A8F4883709F4AF
:1005800067C038F4883609F463C0803709F460C066
:10059000C9C0883809F4B8C0803909F45FC0803810
:1005A00009F0C0C05BC0803B09F486C038F4803AD3
:1005B00009F466C0883A09F47FC0B4C0803C09F4ED
:1005C000A7C0883C09F4A4C0883B09F48AC0AAC02B
:1005D0008091400210C09091620280916102981750
:1005E00070F5E091620281E08E0F80936202F0E08C
:1005F000EF5BFD4F80818093BB0085EC86C08093CC
:1006000063028EC0E091620281E08E0F80936202ED
:100610008091BB00F0E0EF5BFD4F80839091620220
:10062000809161026EC0E091620281E08E0F809342
:1006300062028091BB00F0E0EF5BFD4F8083809110
:10064000640281116DC081E080933F0284EA61C041
:1006500083E0809365021092C201CFCF8091C201E6
:10066000803208F051C0E091C20181E08E0F80938A
:10067000C2018091BB00F0E0EE55FE4F8083BDCFFC
:1006800085EC8093BC00109265028091C20180329B
:1006900030F4E091C201F0E0EE55FE4F108260911F
:1006A000C20170E0E091A001F091A10182EA91E025
:1006B00009951092C20136C084E0809365021092C1
:1006C0009F0110929E01E0919C01F0919D0109957E
:1006D00080919E01811105C081E080939E0110925E
:1006E0007C01E0919F0181E08E0F80939F01F0E0FB
:1006F000E458FE4F80818093BB0090919F018091D0
:100700009E01981708F479CF85E88093BC000AC051
:1007100085EC8093BC001092650204C010926302C5
:100720000E941601FF91EF91BF91AF919F918F9120
:100730007F916F915F914F913F912F910F900FBEDD
:100740000F901F901895DC01ED91FC910684F785C0
:10075000E02D40E009940F931F93CF93DF93EC01BA
:10076000423018F08C8188608C834F836887222305
:1007700029F0413019F48C8184608C8364E670E048
:1007800080E090E00E94030D6C8164FD31C0E8813F
:10079000F9810684F785E02D42E063E0CE010995FA
:1007A0008BE496E40197F1F7E881F9810684F785F7
:1007B000E02D42E063E0CE01099503E512E0C801B7
:1007C0000197F1F7E881F9810684F785E02D42E091
:1007D00063E0CE010995C8010197F1F7E881F9813D
:1007E0000684F785E02D42E062E0CE01099517C04E
:1007F0006062CE010E94A3038BE496E40197F1F7B7
:100800006C816062CE010E94A30303E512E0C8017F
:100810000197F1F76C816062CE010E94A303C801C9
:100820000197F1F76C816062CE010E94A3038BEE09
:1008300090E00197F1F784E08D836CE0CE010E9497
:10084000A30361E0CE010E94A3038BE39FE1019724
:10085000F1F782E08E8366E0CE010E94A303E88177
:10086000F9810484F585E02D6FEFCE01DF91CF9102
:100870001F910F910994EF92FF920F931F93CF93C3
:10088000DF93EC01062FF42EE22E8B85888B1092DD
:100890007B0110927A0110926702109289021092E5
:1008A000650211E01093640210923F0261E082E160
:1008B0000E94460C61E083E10E94460C8091B900E1
:1008C0008E7F8093B9008091B9008D7F8093B900AD
:1008D00088E48093B80085E48093BC0088E491E0CC
:1008E00090939D0180939C0189E491E09093A101F4
:1008F0008093A001888910936602809388021092E9
:100900006702109289020E94950B91E0811190E09C
:10091000998B811105C087E293E00E945A018E876E
:100920008989882339F01F861C8260E0CE010E96EB
:100930000E94F10B2E2D4F2D602FCE01DF91CF9114
:100940001F910F91FF90EF900C94AB03CF92DF9229
:10095000EF92FF920F931F93CF93DF93CDB7DEB744
:10096000742F952F0DB71EB7A9014A5F5F4FADB722
:10097000BEB7A41BB50B0FB6F894BEBF0FBEADBF7C
:10098000EDB7FEB731960F2EFDE3FF2EF02D119639
:10099000FC92D9011296B183ACEFA40FA2838058C8
:1009A000838364832115310591F0C72ED92E8DB72D
:1009B0009EB706967601E20EF31ECE14DF0439F0E0
:1009C000D6016D916D01DC016D93CD01F6CF2B5FEA
:1009D0003F4FDF01119680E0BD016E1B7F0B621758
:1009E000730718F49D91890FF7CFDF01A20FB31F92
:1009F0008C93BF018AE892E00E949A090FB6F8949E
:100A00001EBF0FBE0DBFDF91CF911F910F91FF90C1
:100A1000EF90DF90CF900895CF92DF92EF92FF9208
:100A20000F931F93CF93DF93CDB7DEB72E970FB6FB
:100A3000F894DEBF0FBECDBFC0900F02D090100261
:100A4000E0901102F090120280910B0290910C0242
:100A5000A0910D02B0910E020091140210911502A6
:100A6000209116023091170250910A0251110CC0C8
:100A70008C0D9D1DAE1DBF1D801B910BA20BB30BDA
:100A80004B2F3A2F292F04C080E020E030E040E0D7
:100A9000198290910E01992311F091E09983998127
:100AA000552311F0926001C09D7F998390910102BE
:100AB0009A834B833C832D838E838091F8018F83AF
:100AC0008091F90188878091FA0189878091FB01E3
:100AD0008A878091FC018B878091FD018C878091B2
:100AE000FE018D878091FF018E872EE030E0AE0100
:100AF0004F5F5F4F60E082E00E94A6042E960FB623
:100B0000F894DEBF0FBECDBFDF91CF911F910F9143
:100B1000FF90EF90DF90CF9008950F931F93CF93A6
:100B2000DF93082F10E0C0E0D0E0CE01C017D1075E
:100B300051F00E94930C6FE070E080E090E00E9422
:100B4000030D2196F2CFDF91CF911F910F910C945D
:100B5000930C0F931F938091D8018093D5018091BE
:100B6000D9018093D6018091DA018093CD018091E3
:100B7000DB018093CE018091DC018093CF018091D5
:100B8000DD018093D0018091DE018093D1018091BD
:100B9000DF018093D2018091E0018093D3018091A5
:100BA000E1018093D4018091E2018093C50180919D
:100BB000E3018093C6018091E4018093C701809195
:100BC000E5018093C8018091E6018093C90180917D
:100BD000E7018093CA018091E8018093CB01809165
:100BE000E9018093CC018091EA0180930102809118
:100BF00001020E948D056091EB017091EC018091E2
:100C0000ED019091EE010E94F6148B019C0160931E
:100C10000202709303028093040290930502609194
:100C2000EF017091F0018091F1019091F2010E9429
:100C3000F614609306027093070280930802909363
:100C4000090240910E01442349F000930B021093D6
:100C50000C0220930D0230930E0208C060930B0229
:100C600070930C0280930D0290930E028091F40118
:100C7000809300026091F5017091F6017627672755
:100C800076277093100160930F0180E090E00E943E
:100C900030139B01AC0160E070E080E89FE30E94AC
:100CA000BE126093330370933403809335039093A3
:100CB00036031F910F9108952F923F924F925F92AA
:100CC0006F927F928F929F92AF92BF92CF92DF925C
:100CD000EF92FF920F931F93CF93DF93CDB7DEB7C1
:100CE000C650D2400FB6F894DEBF0FBECDBF4DB692
:100CF0005EB60E943D0D4B015C0110E08AE892E077
:100D00000E94000102970CF044C0112391F121E0F0
:100D100030E040E051E066E005C021E030E040E036
:100D200051E061E08FE00E94A6040FB6F8945EBE29
:100D30000FBE4DBE0FB6F8945EBE0FBE4DBECA5F6D
:100D4000DD4F0FB6F894DEBF0FBECDBFDF91CF9160
:100D50001F910F91FF90EF90DF90CF90BF90AF90D9
:100D60009F908F907F906F905F904F903F902F90CB
:100D700008950E943D0DDC01CB0188199909AA094B
:100D8000BB0911E0893C9105A105B10508F0B6CF7A
:100D9000B4CF1111BCCF8AE892E00E94DE00782E19
:100DA0008AE892E00E94DE00382ED72CC12CC80EB3
:100DB000D11C96012F5F3F4FCB5FDD4F39832883D6
:100DC000C550D24032E0C31AD1084BEFC41643E0FD
:100DD000D40608F0A2CF0E943D0D4B015C0111C06A
:100DE000111195CF0E943D0DDC01CB0188199909A5
:100DF000AA09BB0911E085369105A105B10508F4E2
:100E000010E08AE892E00E940001CB5FDD4FE881AC
:100E1000F981C550D2408E179F0710F3111177CF7B
:100E20008AE892E00E94DE00682E8AE892E00E9442
:100E3000DE008C012DB73EB72C193D090FB6F89492
:100E40003EBF0FBE2DBF4DB75EB74F5F5F4F7A01FC
:100E5000C114D10489F05A018AE892E00E94DE00B0
:100E6000F50181935F01CF018E199F098C159D05B6
:100E700098F3BB24B39401C0B12C8AE892E00E949D
:100E8000DE00730C760C700EBB2051F0F7019F0151
:100E90002E193F092C153D0518F49191790EF7CFC5
:100EA000871531F021E030E040E051E065E03ACFD5
:100EB000862D8F70823059F1C8F48823F9F0813083
:100EC00009F031C28091110190911201A09113019A
:100ED000B091140189839A83AB83BC8324E030E012
:100EE000AE014F5F5F4F60E081E01DCF843009F4B9
:100EF000C0C080F08E3009F433C115C221E030E06B
:100F000043EC51E060E080E00E94A604FFCF0E9425
:100F10000C050BCF11270330110509F45AC03CF41E
:100F20000130110569F002301105D1F0F6C104302D
:100F3000110509F45FC00530110509F472C0EDC157
:100F4000AAEEB1E0FE013196CE010E96AF012D91D1
:100F50002193E817F907D9F72DE030E061E05FC091
:100F6000BB2021F0FCE0CF16D10430F421E030E0CA
:100F700040E051E064E0D6CEF701AAEEB1E0C7014F
:100F80000D9621912D93E817F907D9F798EDE92EE1
:100F900091E0F92EF70180E09191890F21E0E73F80
:100FA000F207D1F78093F70100E010E0F7016191BB
:100FB0007F01C8010E9430020F5F1F4F00321105F0
:100FC000A9F70E94A90521E030E043EC51E062E07E
:100FD00026C0BB2059F2F7018081811103C0109215
:100FE0000D0103C081E080930D0121E030E0A701F5
:100FF00063E015C0BB2009F4B9CFF70180818111EE
:1010000007C010920A02809101020E948D0503C060
:1010100081E080930A0221E030E0A70164E083E0F0
:1010200082CEBB2009F4A2CF80910A0221E030E0F9
:101030008823D9F0A70165E083E00E94A604F701A8
:101040008081811108C010920E0160E089E00E9449
:10105000460C61E006C091E090930E010E948D0560
:1010600060E084E00E94460C60CE40E051E06EEF0C
:1010700059CE112702301105C9F054F40130110581
:1010800009F04BC120E230E048ED51E061E066C07C
:101090000330110509F453C00430110509F03DC1B6
:1010A00028E030E048EF51E064E058C08091D5017D
:1010B00089838091D6018A838091CD018B83809131
:1010C000CE018C838091CF018D838091D0018E835E
:1010D0008091D1018F838091D20188878091D30143
:1010E00089878091D4018A878091C5018B878091FF
:1010F000C6018C878091C7018D878091C8018E873A
:101100008091C9018F878091CA01888B8091CB0122
:10111000898B8091CC018A8B1B8A1C8A1D8A1E8A2E
:101120008EE58F8B8CE1888F8BED898F8AE28A8F99
:101130002AE130E0AE014F5F5F4F62E00FC00E94D6
:101140003D0D909356018093570170935801609321
:10115000590124E030E046E551E063E085E0E3CD6D
:1011600011270130110529F00230110509F4A7C03B
:10117000D4C0BB2009F4FACEF4E0CF16D10408F4B1
:10118000F5CEF70160807180762467247624908103
:101190008181028113811027012710273281238149
:1011A000A801460D571D4130544008F0DFCE01150F
:1011B00042E01407D8F52DB63EB6480154E0850E3E
:1011C000911CEDB7FEB7E819F9090FB6F894FEBF08
:1011D0000FBEEDBF4DB75EB74F5F5F4F5A019183B2
:1011E000FA01818332832383CDB6DEB6F5E0CF0EDC
:1011F000D11CE12CF12CE016F10661F0C701860D3F
:10120000971D0E943612F60181936F01FFEFEF1ACE
:10121000FF0AF1CF9401A50161E08EE00E94A604CF
:101220000FB6F8943EBE0FBE2DBE7FCD99838A8344
:1012300082E08B831C829E012F5F3F4F69015E011C
:101240003FEFA31A3DEFB30A760143018C189D08C6
:10125000C4018E0D9F1D0E943612F7018483FFEF9B
:10126000EF1AFF0AEA14FB0499F724E032E0A60122
:1012700061E08EE00E94A60482E089831A82C801A0
:1012800092509B830C835E0125E0A20EB11CE12CE1
:1012900082E0F82EE016F10661F0C701860D971D79
:1012A0000E943612F50181935F01FFEFEF1AFF0AEA
:1012B000F1CF97012C5F3140A60161E02CC0BB202B
:1012C00009F454CE23E0C216D10408F44FCEF7013E
:1012D000C190D1907F01DC24CD24DC24CB5FDD4F95
:1012E00088809980C550D240F5E08F1A910800E0BF
:1012F00010E0F70161917F01C8018C0D9D1D0E94D6
:1013000030020F5F1F4F0815190598F321E030E0F8
:1013100043EC51E062E08EE006CD21E030E040E0B9
:1013200051E063E0FFCC21E030E040E051E062E0DA
:10133000F9CC0895CF92DF92EF92FF920F931F9313
:10134000CF93DF936C017A018B01C0E0D0E0CE1522
:10135000DF0581F0D8016D918D01D601ED91FC91F1
:101360000190F081E02DC6010995892B11F021969D
:10137000EECF7E01C701DF91CF911F910F91FF90BA
:10138000EF90DF90CF900895FC01538D448D252F71
:1013900030E0842F90E0821B930B541710F0CF960F
:1013A0000895019708958AE892E00E94000121E0E3
:1013B000892B09F420E0822F08950E940315EF92F3
:1013C000FF920F931F93CF93DF93EC0181E0888FFF
:1013D0009B8D8C8D981305C0E889F989808185FDE6
:1013E00026C0F62E0B8D10E00F5F1F4F0F731127D5
:1013F000E02E8C8DE8120CC00FB607FCFACFE889FE
:10140000F989808185FFF5CFCE010E945302F1CF8B
:101410008B8DFE01E80FF11DE35AFF4FF0829FB75D
:10142000F8940B8FEA89FB89808180620AC09FB79C
:10143000F894EE89FF896083E889F9898081837057
:10144000806480839FBF81E090E0DF91CF911F9106
:101450000F91FF90EF900895CF93DF93EC01888D6B
:101460008823C9F0EA89FB89808185FD05C0A889A8
:10147000B9898C9186FD0FC00FB607FCF5CF80812E
:1014800085FFF2CFA889B9898C9185FFEDCFCE0178
:101490000E945302E7CFDF91CF9108951F920F92E0
:1014A0000FB60F9211242F933F934F935F936F9337
:1014B0007F938F939F93AF93BF93EF93FF93E091AD
:1014C0000301F09104010995FF91EF91BF91AF9154
:1014D0009F918F917F916F915F914F913F912F914C
:1014E0000F900FBE0F901F9018951F920F920FB67E
:1014F0000F9211242F933F934F935F936F937F939A
:101500008F939F93AF93BF93EF93FF93E09101016C
:10151000F09102010995FF91EF91BF91AF919F91D9
:101520008F917F916F915F914F913F912F910F908C
:101530000FBE0F901F9018951F920F920FB60F922B
:1015400011242F933F934F935F936F937F938F93C8
:101550009F93AF93BF93EF93FF938AE892E00E942B
:101560005302FF91EF91BF91AF919F918F917F9126
:101570006F915F914F913F912F910F900FBE0F9000
:101580001F9018951F920F920FB60F9211242F9350
:101590008F939F93EF93FF93E0919A02F0919B02B8
:1015A0008081E091A002F091A10282FD12C09081A1
:1015B0008091A3028F5F8F732091A402821751F054
:1015C000E091A302F0E0E657FD4F958F8093A302D0
:1015D00001C08081FF91EF919F918F912F910F908A
:1015E0000FBE0F901F9018953FB7F8948091550348
:1015F00090915603A0915703B091580326B5A89B2C
:1016000005C02F3F19F00196A11DB11D3FBFBA2F94
:10161000A92F982F8827820F911DA11DB11DBC01F4
:10162000CD0142E0660F771F881F991F4A95D1F7B9
:10163000089590E0FC01EE5AFE4F2491FC01E25C1B
:10164000FE4F8491882399F090E0880F991FFC0148
:10165000EC5CFE4FA591B491FC01E65DFE4F8591D7
:1016600094918FB7F894EC91E22BEC938FBF08958F
:101670000F931F93CF93DF938C01C0E0D0E0F8016C
:10168000EC0FFD1F6491662341F087E393E00E9415
:10169000E601892B11F02196F2CFCE01DF91CF9197
:1016A0001F910F910895CF93DF93CDB7DEB72897A1
:1016B0000FB6F894DEBF0FBECDBF4091150150911B
:1016C000160160911701709118014D835E836F833D
:1016D00078874091190150911A0160911B01709116
:1016E0001C0149835A836B837C8320913E038217BC
:1016F00010F08FEF820F30913F0390E0FE01E80F72
:10170000F91F303121F4243011F4618101C0658169
:10171000606887E393E028960FB6F894DEBF0FBEAB
:10172000CDBFDF91CF910C94A30330918902313268
:1017300008F04BC0809165028111FCCF9091880226
:1017400022E02093650221E0209364022FEF209392
:1017500063021092620230936102E8E6F2E0A1E4D3
:10176000B2E020E0321721F041914D932F5FFACF84
:101770001092400220914002990F922B90934002C8
:1017800090913F02913061F410923F02909140029B
:101790009093BB009091BC0093FDF8CF95EC01C0F5
:1017A00095EE9093BC00909165029230E1F3909198
:1017B00063029F3F79F080916302803241F0809113
:1017C0006302803331F084E005C081E003C082E031
:1017D00001C083E0109267021092890210926602A3
:1017E0000895FC0183818823C1F0962F6181609563
:1017F00069236083828191E09093660280938802DE
:10180000109267021092890287E293E00E94A3017E
:101810000E94950B282F30E002C020E030E081E0EC
:1018200090E0232B11F080E090E00895EF92FF927A
:101830000F931F93CF938C01FC0184E0C0E060FF05
:1018400002C09589C92B6695815031968111F7CFD9
:10185000413011F4F8014489F8018585C82BC42B67
:101860007801FEE0EF0EF11CF80162896C2BC701D4
:101870000E94F10BF801628960956C23C701CF913A
:101880001F910F91FF90EF900C94F10B90E0FC01F1
:10189000EA5EFE4F2491FC01EE5AFE4F3491FC01AA
:1018A000E25CFE4FE491EE2309F43CC0222339F1BF
:1018B000233091F038F42130A9F0223001F584B5BD
:1018C0008F7D12C0273091F02830A1F02430B9F478
:1018D000809180008F7D03C0809180008F778093FE
:1018E00080000DC084B58F7784BD09C08091B000A1
:1018F0008F7703C08091B0008F7D8093B000F0E0BF
:10190000EE0FFF1FE65DFE4FA591B4919FB7F894CF
:10191000611104C08C913095382302C0EC913E2BAC
:101920003C939FBF0895CF93DF93EC0189E00E9421
:10193000190B209711F460E004C0CF3FD10531F4BA
:1019400061E089E0DF91CF910C94460CEFE1F1E08A
:10195000E491E330F9F048F4E130B9F0E230A1F578
:1019600084B5806284BDC8BD34C0E730E9F0E8309A
:1019700019F1E43049F58091800080628093800005
:10198000D0938B00C0938A0024C084B5806884BD46
:10199000C7BD1FC080918000806880938000D09375
:1019A0008900C093880015C08091B0008068809342
:1019B000B000C093B3000DC08091B00080628093EE
:1019C000B000C093B40005C0C038D1050CF0B8CF4A
:1019D000B2CFDF91CF9108958E3008F08E5087708E
:1019E000806480937C0080917A00806480937A0088
:1019F00080917A0086FDFCCF80917800209179005B
:101A000090E0922B08958F929F92AF92BF92CF92C7
:101A1000DF92EF92FF926B017C010E94F40A4B016E
:101A20005C01C114D104E104F104F1F00E94F40A54
:101A3000DC01CB0188199909AA09BB09883E9340AA
:101A4000A105B10570F321E0C21AD108E108F1083F
:101A500088EE880E83E0981EA11CB11CC114D1042D
:101A6000E104F10419F7DDCFFF90EF90DF90CF9004
:101A7000BF90AF909F908F9008952FB7F89460918A
:101A800051037091520380915303909154032FBFDF
:101A900008951F920F920FB60F9211242F933F9328
:101AA0008F939F93AF93BF93809151039091520373
:101AB000A0915303B09154033091500323E0230FBE
:101AC0002D3720F40196A11DB11D05C026E8230F76
:101AD0000296A11DB11D2093500380935103909352
:101AE0005203A0935303B0935403809155039091F4
:101AF0005603A0915703B09158030196A11DB11D43
:101B00008093550390935603A0935703B0935803C3
:101B1000BF91AF919F918F913F912F910F900FBEE9
:101B20000F901F901895789484B5826084BD84B519
:101B3000816084BD85B5826085BD85B5816085BDC8
:101B400080916E00816080936E0010928100809180
:101B50008100826080938100809181008160809308
:101B60008100809180008160809380008091B1002D
:101B700084608093B1008091B00081608093B00058
:101B800080917A00846080937A0080917A008260EC
:101B900080937A0080917A00816080937A008091AE
:101BA0007A00806880937A001092C1007894E09166
:101BB0009A02F0919B0282E08083E0919602F0917C
:101BC00097021082E0919802F091990287E0808359
:101BD0001092A202E0919E02F0919F0286E0808323
:101BE000E0919C02F0919D02808180618083E09170
:101BF0009C02F0919D02808188608083E0919C022C
:101C0000F0919D02808180688083E0919C02F09138
:101C10009D0280818F7D808384E00E94190B89E082
:101C20000E94190B84E492E09093020180930101D9
:101C3000809169008C7F826080936900E89A81E2DC
:101C4000E0E0F0E080935700E491E0931802E2E0D6
:101C5000F0E080935700E491E0931902E4E0F0E0B3
:101C600080935700849180931A0208ED11E0780167
:101C7000C0E0D0E0CE010E943612F70181937F01CF
:101C80002196C032D105B1F727EF31E080E0F801AD
:101C900091918F01890F2E173F07C9F79091F70196
:101CA000981303C00E94A90564C01092D50186E66E
:101CB0008093D6011092CD011092CE011092CF01E7
:101CC0001092D0018DE58093D1019AEC9093D201CE
:101CD0009EEB9093D3019DE09093D4011092C501A7
:101CE0001092C6011092C7011092C8018093C901D9
:101CF0008CEA8093CA0187E58093CB0183E28093CD
:101D0000CC018FE780930102809101020E948D0532
:101D100080EA9BEBADE0B0E0809302029093030277
:101D2000A0930402B09305028093060290930702E9
:101D3000A0930802B093090280930B0290930C02C7
:101D4000A0930D02B0930E0281E0809300028EE614
:101D50009FE09093100180930F018CE29BEBA4E82D
:101D6000B9E38093330390933403A0933503B09386
:101D7000360320E044E064E187E393E00E943B0403
:101D80006FEF87E393E00E94160261E087E393E040
:101D90000E94A303CBE3DFE1CE010197F1F762E0FC
:101DA00087E393E00E94A3032197F1F781E091E09C
:101DB0000E94380B81E00E94530B8CEE90E00E9451
:101DC000380B82E00E94530B87ED90E00E94380BA5
:101DD00083E00E94530B82EC90E00E94380B60E499
:101DE00087E393E00E94A30383E790E00197F1F774
:101DF000C5E0D1E00BE910E0699187E393E00E9430
:101E0000E601C8010197F1F7F1E0CD30DF07A1F756
:101E100081E080930E0198E288E10FB6F894A895CE
:101E2000809360000FBE9093600021E030E043ECAF
:101E300051E061E080E00E94A60411E0A8950E94B4
:101E40003D0D6093140270931502809316029093D7
:101E500017028AE892E00E940001181619066CF435
:101E60008AE892E00E94DE008D3319F40E945C063D
:101E700004C08AE892E00E94DE0080911302811182
:101E800010921302C0901402D0901502E090160236
:101E9000F090170280910F0290911002A091110210
:101EA000B091120246015701881A990AAA0ABB0A80
:101EB00040910B0250910C0260910D0270910E0244
:101EC00084169506A606B70608F44CC08C159D0529
:101ED000AE05BF0508F046C0C0920F02D0921002B6
:101EE000E0921102F092120280910A02811147C021
:101EF00080910E018823D9F010920E018091060284
:101F000090910702A0910802B091090280930B0200
:101F100090930C02A0930D02B0930E0260E089E052
:101F20000E94460C61E084E00E94460C28C0109399
:101F30000E018091020290910302A0910402B091DF
:101F4000050280930B0290930C02A0930D02B093B4
:101F50000E0260E084E00E94460C809101020E9423
:101F60008D050DC0C816D906EA06FB0640F410928E
:101F70000F02109210021092110210921202809120
:101F80003B0290913C02A0913D02B0913E02B7010C
:101F9000A601481B590B6A0B7B0B483E5340610559
:101FA000710508F4DBC1C0923B02D0923C02E09282
:101FB0003D02F0923E0210921F02109220021092F7
:101FC00021021092220210921B0210921C02109207
:101FD0001D0210921E02C8EED3E08EE00E94EC0CAF
:101FE0004C01990FAA08BB0880911F029091200212
:101FF000A0912102B0912202880E991EAA1EBB1E3A
:1020000080921F0290922002A0922102B09222029E
:10201000219719F7C8EED3E08FE00E94EC0C6C0119
:10202000990FEE08FF0880911B0290911C02A0916D
:102030001D02B0911E02C80ED91EEA1EFB1EC092E0
:102040001B02D0921C02E0921D02F0921E02219708
:1020500019F7C501B40128EE33E040E050E00E94DA
:10206000D41449015A0120931F0230932002409357
:10207000210250932202C701B60128EE33E040E06E
:1020800050E00E94D41429013A0120931B0230939E
:102090001C0240931D0250931E02C501B4010E9410
:1020A00030139B01AC0160E070EC8FE794E40E9478
:1020B000BE1220E030E040E85FE30E944C120E9434
:1020C000EA138090330390903403A0903503B090CE
:1020D0003603A50194010E9432142FE03FEC4BE53A
:1020E0005BE30E944D129B01AC0160E070E080E870
:1020F0009FE30E94BE126B017C01C301B2010E94EA
:1021000030139B01AC0160E070EC8FE794E40E9417
:10211000BE1220E030E040E85FE30E944C120E94D3
:10212000EA139B01AC01C501B4010E9432142FE0F7
:102130003FEC4BE55BE30E944D129B01AC0160E07C
:1021400070E080E89FE30E94BE124B015C0120E03A
:1021500030E0A901C701B6010E94B912882399F1A4
:1021600023E333E948E853E4C701B6010E944C1267
:10217000C0922F02D0923002E0923102F0923202ED
:102180006093330270933402809335029093360249
:1021900020E030E040E151E40E94321420E030E0E1
:1021A00040EA50E40E94BE1220E030E040E052E4F9
:1021B0000E944D1260933702709338028093390267
:1021C00090933A0218C010922F021092300210928F
:1021D00031021092320210923302109234021092A5
:1021E0003502109236021092370210923802109285
:1021F000390210923A0220E030E0A901C501B40191
:102200000E94B912882399F123E333E948E853E4A3
:10221000C501B4010E944C128092230290922402C4
:10222000A0922502B09226026093270270932802A2
:102230008093290290932A0220E030E040E151E4AB
:102240000E94321420E030E040EA50E40E94BE12C6
:1022500020E030E040E052E40E944D1260932B02F7
:1022600070932C0280932D0290932E0218C010922E
:10227000230210922402109225021092260210923C
:102280002702109228021092290210922A0210921C
:102290002B0210922C0210922D0210922E0280918D
:1022A0000002823019F1843091F1E0913302709193
:1022B00034026091350250913602409127023091EC
:1022C00028022091290290912A02E093F80170934C
:1022D000F9016093FA015093FB014093FC013093A4
:1022E000FD012093FE019093FF0131C070913702F0
:1022F000609138025091390240913A0230912B029C
:1023000020912C0290912D0280912E0210C070918C
:102310002F0260913002509131024091320230918F
:10232000230220912402909125028091260270932D
:10233000F8016093F9015093FA014093FB01309347
:10234000FC012093FD019093FE018093FF01809199
:102350000D01882381F00E940C050DC0C816D90616
:10236000EA06FB0640F410923B0210923C021092E7
:102370003D0210923E020E940C0160CDEAE8F2E0BC
:102380001382128288EE93E0A0E0B0E0848395830C
:10239000A683B78321E231E03183208325EC30E04E
:1023A0003587248724EC30E03787268720EC30E01F
:1023B000318B208B21EC30E0338B228B22EC30E010
:1023C000358B248B26EC30E0378B268B118E128ECA
:1023D000138E148EE7E2F3E01382128284839583D6
:1023E000A683B78383E391E091838083E7E3F3E0FF
:1023F0001382128285E491E091838083108A8FEFAB
:1024000087871686118A87E2838714861586128647
:10241000118684E0828B82E0838B81E0848B80E173
:10242000858B80E2868B80E4878B80E8808F40E01C
:1024300050E063E0CF010E94D20160910F017091E2
:10244000100180E090E00E9430139B01AC0160E03D
:1024500070E080E89FE30E94BE12609333037093A4
:10246000340380933503909336030895F999FECF92
:1024700092BD81BDF89A992780B50895262FF999C4
:10248000FECF1FBA92BD81BD20BD0FB6F894FA9A57
:10249000F99A0FBE019608955058BB27AA270E94AB
:1024A00064120C94A8130E949A1338F00E94A1138E
:1024B00020F039F49F3F19F426F40C9497130EF48E
:1024C000E095E7FB0C949113E92F0E94B91358F3A0
:1024D000BA17620773078407950720F079F4A6F509
:1024E0000C94DB130EF4E0950B2EBA2FA02D0B01EC
:1024F000B90190010C01CA01A0011124FF27591B49
:1025000099F0593F50F4503E68F11A16F040A22F4E
:10251000232F342F4427585FF3CF469537952795BF
:10252000A795F0405395C9F77EF41F16BA0B620BBE
:10253000730B840BBAF09150A1F0FF0FBB1F661F05
:10254000771F881FC2F70EC0BA0F621F731F841F48
:1025500048F4879577956795B795F7959E3F08F06E
:10256000B0CF9395880F08F09927EE0F9795879530
:1025700008950E946D1308F481E008950E94D2121C
:102580000C94A8130E94A11358F00E949A1340F0D3
:1025900029F45F3F29F00C94911351110C94DC1332
:1025A0000C9497130E94B91368F39923B1F3552340
:1025B00091F3951B550BBB27AA2762177307840756
:1025C00038F09F5F5F4F220F331F441FAA1FA9F3EC
:1025D00035D00E2E3AF0E0E832D091505040E695DA
:1025E000001CCAF72BD0FE2F29D0660F771F881F3B
:1025F000BB1F261737074807AB07B0E809F0BB0B2E
:10260000802DBF01FF2793585F4F3AF09E3F510541
:1026100078F00C9491130C94DC135F3FE4F3983E34
:10262000D4F3869577956795B795F7959F5FC9F72A
:10263000880F911D9695879597F90895E1E0660FAB
:10264000771F881FBB1F621773078407BA0720F024
:10265000621B730B840BBA0BEE1F88F7E09508958D
:10266000E89409C097FB3EF490958095709561952C
:102670007F4F8F4F9F4F9923A9F0F92F96E9BB27E2
:102680009395F695879577956795B795F111F8CF5E
:10269000FAF4BB0F11F460FF1BC06F5F7F4F8F4FC9
:1026A0009F4F16C0882311F096E911C0772321F0BF
:1026B0009EE8872F762F05C0662371F096E8862F57
:1026C00070E060E02AF09A95660F771F881FDAF7AE
:1026D000880F9695879597F90895990F0008550FDB
:1026E000AA0BE0E8FEEF16161706E807F907C0F098
:1026F00012161306E407F50798F0621B730B840BA0
:10270000950B39F40A2661F0232B242B252B21F479
:1027100008950A2609F4A140A6958FEF811D811D19
:10272000089597F99F6780E870E060E008959FEF53
:1027300080EC089500240A94161617061806090658
:10274000089500240A941216130614060506089527
:10275000092E0394000C11F4882352F0BB0F40F4AF
:10276000BF2B11F460FF04C06F5F7F4F8F4F9F4FEF
:10277000089557FD9058440F551F59F05F3F71F071
:102780004795880F97FB991F61F09F3F79F08795D8
:102790000895121613061406551FF2CF4695F1DF61
:1027A00008C0161617061806991FF1CF86957105F1
:1027B000610508940895E894BB2766277727CB0125
:1027C00097F9089516F00C949F140C94971368943D
:1027D0000C9491130E94C113A8F39923C1F3AEF393
:1027E000DF93CF931F930F93FF92C92FDD27882389
:1027F0002AF02197660F771F881FDAF720E030E074
:1028000040E85FEB9FE3883920F0803E38F0219666
:102810008F770E944D12E8E6F0E004C00E944D124E
:10282000E5E9F0E00E94AD148B01BE01EC01FB2E46
:102830006F5771097595771F880B990B0E9432139A
:1028400028E132E741E35FE30E944514AF2D980190
:10285000AE01FF900F911F91CF91DF910E94641202
:102860000C94A8130E9445140C94A8130E949A1368
:1028700038F00E94A11320F0952311F00C949113CD
:102880000C94971311240C94DC130E94B91370F369
:10289000959FC1F3950F50E0551F629FF001729F05
:1028A000BB27F00DB11D639FAA27F00DB11DAA1F14
:1028B000649F6627B00DA11D661F829F2227B00D61
:1028C000A11D621F739FB00DA11D621F839FA00DEC
:1028D000611D221F749F3327A00D611D231F849F3C
:1028E000600D211D822F762F6A2F11249F57504093
:1028F0009AF0F1F088234AF0EE0FFF1FBB1F661F0E
:10290000771F881F91505040A9F79E3F510580F0D6
:102910000C9491130C94DC135F3FE4F3983ED4F3D2
:10292000869577956795B795F795E7959F5FC1F77A
:10293000FE2B880F911D9695879597F908959F3FD7
:1029400031F0915020F4879577956795B795880F6A
:10295000911D9695879597F90895DF93CF931F93CF
:102960000F93FF92EF92DF927B018C01689406C077
:10297000DA2EEF010E944514FE01E894A5912591FD
:10298000359145915591A6F3EF010E946412FE0125
:102990009701A801DA9469F7DF90EF90FF900F910B
:1029A0001F91CF91DF910895A1E21A2EAA1BBB1BA4
:1029B000FD010DC0AA1FBB1FEE1FFF1FA217B3070B
:1029C000E407F50720F0A21BB30BE40BF50B661F21
:1029D000771F881F991F1A9469F7609570958095E5
:1029E00090959B01AC01BD01CF0108956927962701
:1029F00069277827872778270895EE0FFF1F05900E
:102A0000F491E02D099481E090E0F8940C9408157D
:042A1000F894FFCF68
:102A1400FF99099909060909060000000001016EE1
:102A24000F4D48544700401454004010500000001B
:102A340000DF099A09C4092C0A0001DE00F2000033
:102A4400000000A3017601F4014A016E015A014B12
:102A54000100000000E6019A09F401F3013B04D2ED
:062A6400011602F701005B
:00000001FF
