:100000000C94B4000C9434030C940D030C94DC0099
:100010000C94DC000C94DC000C94DC000C94DC00F0
:100020000C94DC000C94DC000C94DC000C94DC00E0
:100030000C94DC000C94DC000C94DC000C94DC00D0
:100040000C943A0B0C94DC000C9481030C945B032D
:100050000C94DC000C94DC000C94DC000C94DC00B0
:100060000C94B3030C94DC0008000000BE922449F9
:10007000123EABAAAA2ABECDCCCC4C3E00000080DA
:10008000BEABAAAAAA3E00000000BF000000803F4D
:100090000000000000084178D3BB4387D1133D190D
:1000A0000E3CC3BD4282AD2B3E68EC8276BED98F3A
:1000B000E1A93E4C80EFFFBE01C4FF7F3F0000007E
:1000C00000002D2D2D2D2D2D2D2D2D2D2D2D2D2DBA
:1000D0002D2D2D2D2D2D0020544F574552204741B9
:1000E0005244454E2056312E30322000204D4F4490
:1000F000554C415220485944524F504F4E4943208D
:10010000002D2D2D2D2D2D2D2D2D2D2D2D2D2D2D4C
:100110002D2D2D2D2D0000000008000201000003F0
:10012000040700000000000000000000000025009F
:1001300028002B0000000000240027002A000404EF
:10014000040404040404020202020202030303037F
:10015000030301020408102040800102040810205B
:10016000010204081020491311241FBECFEFD8E06C
:10017000DEBFCDBF11E0A0E0B1E0EAE2FDE202C0E7
:1001800005900D92AE35B107D9F723E0AEE5B1E0A9
:1001900001C01D92AF38B207E1F710E0C4EBD0E028
:1001A00004C02197FE010E948816C33BD107C9F7FE
:1001B0000E94840B0C9493160C9400000895CF9227
:1001C000DF92EF92FF920F931F93CF93DF936C0117
:1001D0007A018B01C0E0D0E0CE15DF0581F0D801B7
:1001E0006D918D01D601ED91FC910190F081E02D92
:1001F000C6010995892B11F02196EECF7E01C7012A
:10020000DF91CF911F910F91FF90EF90DF90CF90F2
:100210000895FC01538D448D252F30E0842F90E00C
:10022000821B930B541710F0CF96089501970895F1
:10023000FC01918D828D981761F0828DDF01A80FEE
:10024000B11D5D968C91928D9F5F9F73928F90E010
:1002500008958FEF9FEF0895FC01918D828D98177F
:1002600031F0828DE80FF11D858D90E008958FEFBC
:100270009FEF0895FC01918D228D892F90E0805C85
:100280009F4F821B91098F73992708958CEB92E001
:100290000E943A0121E0892B09F420E0822F089581
:1002A000FC01848DDF01A80FB11DA35ABF4F2C9113
:1002B000848D90E001968F739927848FA689B789E2
:1002C0002C93A089B1898C91837080648C93938DD9
:1002D000848D981306C00288F389E02D80818F7D7C
:1002E00080830895EF92FF920F931F93CF93DF9334
:1002F000EC0181E0888F9B8D8C8D981305C0E88977
:10030000F989808185FD26C0F62E0B8D10E00F5FE8
:100310001F4F0F731127E02E8C8DE8120CC00FB603
:1003200007FCFACFE889F989808185FFF5CFCE01F6
:100330000E945001F1CF8B8DFE01E80FF11DE35AB1
:10034000FF4FF0829FB7F8940B8FEA89FB89808179
:1003500080620AC09FB7F894EE89FF896083E889BC
:10036000F98980818370806480839FBF81E090E001
:10037000DF91CF911F910F91FF90EF900895CF9350
:10038000DF93EC01888D8823C9F0EA89FB8980819D
:1003900085FD05C0A889B9898C9186FD0FC00FB66F
:1003A00007FCF5CF808185FFF2CFA889B9898C91B0
:1003B00085FFEDCFCE010E945001E7CFDF91CF91B5
:1003C000089580E090E0892B29F00E944601811178
:1003D0000C940000089585ED8093BC008091BC00D2
:1003E00084FDFCCF1092970208954091A301262F1F
:1003F00030E0240F311D21323105DCF420919702C9
:100400002430C9F4FC0180E090E0861758F4309164
:10041000A3012191DC01AF57BE4FA30FB11D2C9357
:100420000196F3CF8091A301680F6093A30180E050
:10043000089581E0089582E008950895089508954B
:10044000E091800180917F01E81730F4F0E0E15AFB
:10045000FE4F808190E008958FEF9FEF0895909177
:10046000800180917F01981750F4E92FF0E0E15A64
:10047000FE4F208130E09F5F9093800102C02FEFFC
:100480003FEFC901089580917F0190E020918001A4
:10049000821B91090895CF92DF92EF92FF920F9302
:1004A0001F93CF93DF937C01CB018A0120919802A7
:1004B000222389F0EB016B01C40ED51ECC15DD059E
:1004C00069F06991D701ED91FC910190F081E02DE7
:1004D000C7010995F3CF642F0E94F501C801DF9190
:1004E000CF911F910F91FF90EF90DF90CF900895E3
:1004F000CF93DF931F92CDB7DEB769832091980227
:100500002223D1F02091BB02203240F021E030E0E4
:10051000FC013383228380E090E015C08091990232
:10052000E82FF0E0E656FD4F998190838F5F80932E
:1005300099028093BB0205C061E0CE0101960E9442
:10054000F50181E090E00F90DF91CF91089521E0D7
:1005500001C0220F6A95EAF7DC011C962C931C97C8
:100560001A965C934E931997ED91FC910484F5854E
:10057000E02D60E00994DC01ED91FC910684F785A3
:10058000E02D41E0099581E090E0089508950895F7
:10059000089580E090E00895F89481E0809325022A
:1005A000789408950E948E160F931F93CF93DF9334
:1005B000062F0F70423019F440E0602F0EC0142F48
:1005C000EC0170E084E0759567958A95E1F7CE01BE
:1005D0000E94070A412F602FCE01DF91CF911F911A
:1005E0000F910C94070AFC0184858823A9F02185CA
:1005F00032852115310519F4611106C007C021307B
:10060000310521F4611102C0858701C01586658519
:10061000CF010E960C94E20908951F920F920FB627
:100620000F9211242F933F934F935F936F937F9378
:100630008F939F93AF93BF93EF93FF93E09102014A
:10064000F09103010995FF91EF91BF91AF919F91B7
:100650008F917F916F915F914F913F912F910F906B
:100660000FBE0F901F9018951F920F920FB60F920A
:1006700011242F933F934F935F936F937F938F93A7
:100680009F93AF93BF93EF93FF93E0910001F0919D
:1006900001010995FF91EF91BF91AF919F918F91CA
:1006A0007F916F915F914F913F912F910F900FBE6E
:1006B0000F901F9018951F920F920FB60F92112452
:1006C0002F933F934F935F936F937F938F939F935A
:1006D000AF93BF93EF93FF938CEB92E00E94500196
:1006E000FF91EF91BF91AF919F918F917F916F910A
:1006F0005F914F913F912F910F900FBE0F901F90E0
:1007000018951F920F920FB60F9211242F938F936B
:100710009F93EF93FF93E091CC02F091CD02808103
:10072000E091D202F091D30282FD12C090818091BB
:10073000D5028F5F8F732091D602821751F0E0911E
:10074000D502F0E0E454FD4F958F8093D50201C0AF
:100750008081FF91EF919F918F912F910F900FBE0C
:100760000F901F9018951F920F920FB60F921124A1
:100770002F933F934F935F936F937F938F939F93A9
:10078000AF93BF93EF93FF938091B900887F80363A
:1007900009F49CC068F5883209F45BC090F480319C
:1007A00009F454C038F4882309F4F6C0883009F4F9
:1007B0004DC0F6C0883109F44CC0803209F45DC0E8
:1007C000EFC0803409F468C048F4803309F455C0A0
:1007D000883309F0E5C080939502D8C0803509F4CC
:1007E0004FC0883509F45DC0883409F0D9C0D6C03F
:1007F000883909F4C7C0A8F4883709F467C038F409
:10080000883609F463C0803709F460C0C9C08838ED
:1008100009F4B8C0803909F45FC0803809F0C0C05D
:100820005BC0803B09F486C038F4803A09F466C0A6
:10083000883A09F47FC0B4C0803C09F4A7C0883C62
:1008400009F4A4C0883B09F48AC0AAC0809172024E
:1008500010C09091940280919302981770F5E091E6
:10086000940281E08E0F80939402F0E0ED58FD4FEA
:1008700080818093BB0085EC86C0809395028EC0FA
:10088000E091940281E08E0F809394028091BB00EE
:10089000F0E0ED58FD4F8083909194028091930297
:1008A0006EC0E091940281E08E0F8093940280915B
:1008B000BB00F0E0ED58FD4F8083809196028111DE
:1008C0006DC081E08093710284EA61C083E080930F
:1008D00097021092C701CFCF8091C701803208F0F4
:1008E00051C0E091C70181E08E0F8093C7018091D4
:1008F000BB00F0E0E955FE4F8083BDCF85EC8093CF
:10090000BC00109297028091C701803230F4E091D0
:10091000C701F0E0E955FE4F10826091C70170E019
:10092000E091A501F091A60187EA91E00995109266
:10093000C70136C084E0809397021092A401109200
:10094000A301E091A101F091A20109958091A30179
:10095000811105C081E08093A30110928101E09193
:10096000A40181E08E0F8093A401F0E0EF57FE4FC9
:1009700080818093BB009091A4018091A30198177E
:1009800008F479CF85E88093BC000AC085EC809399
:10099000BC001092970204C0109295020E94EB01D5
:1009A000FF91EF91BF91AF919F918F917F916F9147
:1009B0005F914F913F912F910F900FBE0F901F901D
:1009C0001895DC01ED91FC910684F785E02D40E05F
:1009D00009940F931F93CF93DF93EC01423018F0EB
:1009E0008C8188608C834F836887222329F0413073
:1009F00019F48C8184608C8364E670E080E090E080
:100A00000E94F40A6C8164FD31C0E881F98106849A
:100A1000F785E02D42E063E0CE0109958BE496E492
:100A20000197F1F7E881F9810684F785E02D42E02E
:100A300063E0CE01099503E512E0C8010197F1F7E3
:100A4000E881F9810684F785E02D42E063E0CE017C
:100A50000995C8010197F1F7E881F9810684F785C6
:100A6000E02D42E062E0CE01099517C06062CE0140
:100A70000E94E1048BE496E40197F1F76C816062D7
:100A8000CE010E94E10403E512E0C8010197F1F7ED
:100A90006C816062CE010E94E104C8010197F1F708
:100AA0006C816062CE010E94E1048BEE90E00197C0
:100AB000F1F784E08D836CE0CE010E94E10461E0F7
:100AC000CE010E94E1048BE39FE10197F1F782E000
:100AD0008E8366E0CE010E94E104E881F9810484FE
:100AE000F585E02D6FEFCE01DF91CF911F910F9132
:100AF0000994EF92FF920F931F93CF93DF93EC0132
:100B0000062FF42EE22E8B85888B10928001109296
:100B10007F01109299021092BB021092970211E08D
:100B2000109396021092710261E082E10E94370AEE
:100B300061E083E10E94370A8091B9008E7F809343
:100B4000B9008091B9008D7F8093B90088E48093CB
:100B5000B80085E48093BC008DE192E09093A201FF
:100B60008093A1018EE192E09093A6018093A5016C
:100B70008889109398028093BA0210929902109279
:100B8000BB020E94860991E0811190E0998B81114E
:100B900005C089E593E00E942F028E87898988230A
:100BA00039F01F861C8260E0CE010E960E94E20999
:100BB0002E2D4F2D602FCE01DF91CF911F910F91E0
:100BC000FF90EF900C94E9041F93CF93DF93EC0117
:100BD000162F0E94C113181739F0612FCE01DF9133
:100BE000CF911F910C94C913DF91CF911F9108955C
:100BF000AF92BF92CF92DF92EF92FF920F931F932B
:100C0000CF93DF93CDB7DEB727970FB6F894DEBF4B
:100C10000FBECDBFEDB6FEB6E0918B03F0918C0315
:100C20008E010F5F1F4F309721F4F801EF58F3400A
:100C300004C0D801AE1BBF0BFD01FA83E983E98133
:100C4000FA81D901D896EA17FB07B8F487E0E3E107
:100C5000F1E0D80101900D928A95E1F76E01B8E0BC
:100C6000CB0ED11CF80161918F018CEB92E00E94B8
:100C700072010C151D05B1F754C06901F6E0CF0EE5
:100C8000D11CADB7BEB7AC19BD090FB6F894BEBF45
:100C90000FBEADBF0DB71EB70F5F1F4F9DE311967F
:100CA0009C93F9013296D8011196FC9311979CEF11
:100CB0009C0D12969C931297806813968C931397B1
:100CC00014966C9314972115310551F0FA0115967D
:100CD000420F531FE417F50719F081918D93FACF56
:100CE0002B5F3F4FF801319680E0AF01401B510B65
:100CF0004217530718F49191890FF7CFF801E20FCB
:100D0000F31F80835801C501801B910B8C159D0535
:100D100040F4F50161915F018CEB92E00E94720159
:100D2000F2CF0FB6F894FEBE0FBEEDBE0FB6F8942C
:100D3000FEBE0FBEEDBE27960FB6F894DEBF0FBE07
:100D4000CDBFDF91CF911F910F91FF90EF90DF907A
:100D5000CF90BF90AF900895CF92DF92EF92FF9225
:100D60000F931F93CF93DF93CDB7DEB72E970FB6B8
:100D7000F894DEBF0FBECDBFC0903402D0903502D4
:100D8000E0903602F090370280913002909131026B
:100D9000A0913202B09133020091380210913902D1
:100DA00020913A0230913B0250912702511110C01C
:100DB0000097A105B10561F08C0D9D1DAE1DBF1DF5
:100DC000801B910BA20BB30B4B2F3A2F292F04C082
:100DD00080E020E030E040E01982909110019923FA
:100DE00011F091E099839981552311F0926001C02F
:100DF0009D7F9983909126029A834B833C832D8318
:100E00008E8380911C028F8380911D028887809140
:100E10001E02898780911F028A87809120028B871A
:100E2000809121028C87809122028D8780912302FC
:100E30008E872EE030E0AE014F5F5F4F60E082E0D2
:100E40000E94F8052E960FB6F894DEBF0FBECDBFF8
:100E5000DF91CF911F910F91FF90EF90DF90CF9096
:100E60000895F894109285001092840020910C014E
:100E700030910D0140E050E060E074E284EF90E0DA
:100E80000E945F16DA01C9010197A109B109009713
:100E900021E0A207B10520F08FEF9FEFA0E0B0E0C6
:100EA0009093890080938800809180008160809376
:100EB0008000809181008061809381008091810019
:100EC00081608093810078940895EF92FF920F9350
:100ED0001F93CF9390911001911105C0909127021B
:100EE000992309F444C0C82F81110BC060E089E048
:100EF0000E94370A61E084E00E94370A10925E0186
:100F000036C080915E018C17A0F400915E0110E064
:100F1000EC2EF12CE016F10620F1C8010E94840AA3
:100F20006FE070E080E090E00E94F40A0F5F1F4FD6
:100F3000F1CF80915E01C817A0F400915E0110E02E
:100F4000EC2EF12C0E151F0560F0C8010E94840ADA
:100F50006FE070E080E090E00E94F40A0150110917
:100F6000F1CF60E084E00E94370AC0935E01CF9128
:100F70001F910F91FF90EF9008950F931F93809111
:100F8000DC018093DA018091DD018093DB018091A7
:100F9000DE018093D2018091DF018093D3018091A3
:100FA000E0018093D4018091E1018093D50180918B
:100FB000E2018093D6018091E3018093D701809173
:100FC000E4018093D8018091E5018093D90180915B
:100FD000E6018093CA018091E7018093CB01809163
:100FE000E8018093CC018091E9018093CD0180914B
:100FF000EA018093CE018091EB018093CF01809133
:10100000EC018093D0018091ED018093D10180911A
:10101000EE01809326026091EF017091F0018091C2
:10102000F1019091F2010E9481168B019C01609365
:101030002C0270932D0280932E0290932F026091C8
:10104000F3017091F4018091F5019091F6010E94F5
:101050008116609328027093290280932A0290934C
:101060002B0240912702411172C0012B022B032B4E
:1010700069F4672B682B692BE1F41092300210920F
:101080003102109232021092330261C0672B682B3A
:10109000692B79F4109230021092310210923202D0
:1010A0001092330281E080931001809126020E9409
:1010B000650780912C0290912D02A0912E02B09193
:1010C0002F02892B8A2B8B2B69F4109230021092FD
:1010D0003102109232021092330280E00E946507C2
:1010E0001092100140912C0250912D0260912E021D
:1010F00070912F02411551056105710569F18091CB
:10110000280290912902A0912A02B0912B02009707
:10111000A105B10509F120911001222381F040932E
:10112000300250933102609332027093330281E0B7
:1011300080931001809126020E9465070DC0809364
:10114000300290933102A0933202B093330280E0D8
:101150000E946507109210018091F801809324028B
:101160006091F9017091FA017627672776277093CD
:1011700012016093110180E090E00E94BB149B017A
:10118000AC0160E070E080E89FE30E944914609346
:10119000650370936603809367039093680380915F
:1011A000FB019091FC0198278927982790930D01C6
:1011B00080930C018A3E21E0920721F01F910F914C
:1011C0000C9431071F910F9108953FB7F8948091C7
:1011D000870390918803A0918903B0918A0326B573
:1011E000A89B05C02F3F19F00196A11DB11D3FBF5F
:1011F000BA2FA92F982F8827820F911DA11DB11DED
:10120000BC01CD0142E0660F771F881F991F4A95E8
:10121000D1F7089590E0FC01EE5AFE4F2491FC01B5
:10122000E25CFE4F8491882399F090E0880F991F2B
:10123000FC01EC5CFE4FA591B491FC01E65DFE4F14
:10124000859194918FB7F894EC91E22BEC938FBF3A
:1012500008950F931F93CF93DF938C01C0E0D0E0EC
:10126000F801EC0FFD1F6491662341F089E693E0DD
:101270000E94BB02892B11F02196F2CFCE01DF91A3
:10128000CF911F910F910895CF93DF93CDB7DEB724
:1012900028970FB6F894DEBF0FBECDBF40911E0158
:1012A00050911F0160912001709121014D835E8357
:1012B0006F8378874091220150912301609124012E
:1012C0007091250149835A836B837C83209170033D
:1012D000821710F08FEF820F3091710390E0FE01C2
:1012E000E80FF91F303121F4243011F4618101C07D
:1012F0006581606889E693E028960FB6F894DEBFB2
:101300000FBECDBFDF91CF910C94E1043091BB02B1
:10131000313208F04BC0809197028111FCCF90913F
:10132000BA0222E02093970221E0209396022FEF49
:10133000209395021092940230939302EAE9F2E02E
:10134000A3E7B2E020E0321721F041914D932F5FE7
:10135000FACF1092720220917202990F922B909301
:10136000720290917102913061F410927102909129
:1013700072029093BB009091BC0093FDF8CF95EC66
:1013800001C095EE9093BC00909197029230E1F3EA
:10139000909195029F3F79F080919502803241F0C3
:1013A00080919502803331F084E005C081E003C074
:1013B00082E001C083E0109299021092BB02109269
:1013C00098020895FC0183818823C1F0962F6181E2
:1013D000609569236083828191E090939802809365
:1013E000BA02109299021092BB0289E593E00E9422
:1013F00078020E948609282F30E002C020E030E009
:1014000081E090E0232B11F080E090E00895EF92CE
:10141000FF920F931F93CF938C01FC0184E0C0E0F7
:1014200060FF02C09589C92B669581503196811164
:10143000F7CF413011F4F8014489F8018585C82BB4
:10144000C42B7801FEE0EF0EF11CF80162896C2BD1
:10145000C7010E94E209F801628960956C23C70107
:10146000CF911F910F91FF90EF900C94E20990E0C3
:10147000FC01EA5EFE4F2491FC01EE5AFE4F3491CE
:10148000FC01E25CFE4FE491EE2309F43CC0222310
:1014900039F1233091F038F42130A9F0223001F5F0
:1014A00084B58F7D12C0273091F02830A1F0243010
:1014B000B9F4809180008F7D03C0809180008F7788
:1014C000809380000DC084B58F7784BD09C0809162
:1014D000B0008F7703C08091B0008F7D8093B00003
:1014E000F0E0EE0FFF1FE65DFE4FA591B4919FB7B0
:1014F000F894611104C08C913095382302C0EC91AE
:101500003E2B3C939FBF0895CF93DF93EC0189E07E
:101510000E940A09209711F460E004C0CF3FD10572
:1015200031F461E089E0DF91CF910C94370AEFE16B
:10153000F1E0E491E330F9F048F4E130B9F0E23061
:10154000A1F584B5806284BDC8BD34C0E730E9F040
:10155000E83019F1E43049F5809180008062809391
:101560008000D0938B00C0938A0024C084B580682B
:1015700084BDC7BD1FC080918000806880938000BB
:10158000D0938900C093880015C08091B000806816
:101590008093B000C093B3000DC08091B000806212
:1015A0008093B000C093B40005C0C038D1050CF0E2
:1015B000B8CFB2CFDF91CF9108958E3008F08E5022
:1015C0008770806480937C0080917A00806480932F
:1015D0007A0080917A0086FDFCCF8091780020917E
:1015E000790090E0922B08958F929F92AF92BF92D4
:1015F000CF92DF92EF92FF926B017C010E94E5088F
:101600004B015C01C114D104E104F104F1F00E942A
:10161000E508DC01CB0188199909AA09BB09883EB4
:101620009340A105B10570F321E0C21AD108E10889
:10163000F10888EE880E83E0981EA11CB11CC1142D
:10164000D104E104F10419F7DDCFFF90EF90DF90B2
:10165000CF90BF90AF909F908F9008952FB7F89440
:101660006091830370918403809185039091860338
:101670002FBF08951F920F920FB60F9211242F9330
:101680003F938F939F93AF93BF93809183039091E8
:101690008403A0918503B09186033091820323E0F7
:1016A000230F2D3720F40196A11DB11D05C026E89A
:1016B000230F0296A11DB11D209382038093830303
:1016C00090938403A0938503B0938603809187034E
:1016D00090918803A0918903B0918A030196A11D7E
:1016E000B11D8093870390938803A0938903B093DF
:1016F0008A03BF91AF919F918F913F912F910F904E
:101700000FBE0F901F901895CF93DF93CDB7DEB724
:10171000A4970FB6F894DEBF0FBECDBF789484B502
:10172000826084BD84B5816084BD85B5826085BDDD
:1017300085B5816085BD80916E00816080936E006B
:10174000109281008091810082608093810080915D
:10175000810081608093810080918000816080930E
:1017600080008091B10084608093B1008091B000CE
:1017700081608093B00080917A00846080937A00C9
:1017800080917A00826080937A0080917A008160F3
:1017900080937A0080917A00806880937A0010921A
:1017A000C1007894E091CC02F091CD0282E0808378
:1017B000E091C802F091C9021082E091CA02F09152
:1017C000CB0287E080831092D402E091D002F091A6
:1017D000D10286E08083E091CE02F091CF02808139
:1017E00080618083E091CE02F091CF028081886099
:1017F0008083E091CE02F091CF0280818068808367
:10180000E091CE02F091CF0280818F7D808384E0D1
:101810000E940A0961E084E00E94370A89E00E9480
:101820000A098CEC92E09093010180930001809171
:1018300069008C7F826080936900E89A81E2E0E031
:10184000F0E080935700E491E0933D02E2E0F0E0A5
:1018500080935700E491E0933E02E4E0F0E080934F
:101860005700849180933F0220E044E064E189E6E0
:1018700093E00E9479056FEF89E693E00E94F302FE
:1018800061E089E693E00E94E1040BE31FE1C801F7
:101890000197F1F762E089E693E00E94E104C80154
:1018A0000197F1F781E091E00E94290981E00E940F
:1018B00044098CEE90E00E94290982E00E944409CC
:1018C00087ED90E00E94290983E00E94440982ECA0
:1018D00090E00E94290960E489E693E00E94E10417
:1018E00083E790E00197F1F704E011E03CE0E32E9C
:1018F00031E0F32E4BE9C42ED12CD8016D918D012E
:1019000089E693E00E94BB02C6010197F1F7E01659
:10191000F10699F72CEDE22E21E0F22E00E010E026
:10192000C8010E94C113F70181937F010F5F1F4F10
:1019300000341105A9F7ECEDF1E080E09191890FF9
:101940002BE132E02E173F07C9F790911B02981345
:1019500004C081E080933C020AC010923C0221E066
:1019600030E04EE051E06CEF8FE00E94F80580918E
:101970003C02882319F00E94BD0767C01092DA016B
:1019800087EC8093DB011092D2011092D301109268
:10199000D4011092D5011092D6011092D701109265
:1019A000D8011092D9011092CA011092CB01109265
:1019B000CC011092CD011092CE011092CF01109265
:1019C000D0011092D1018FE78093260280912602E8
:1019D0000E94650780EA9BEBADE0B0E080932C02AB
:1019E00090932D02A0932E02B0932F028093280291
:1019F00090932902A0932A02B0932B028093300285
:101A000090933102A0933202B093330211E010930D
:101A100024028EE69FE090931201809311018CE2E4
:101A20009BEBA4E8B9E38093650390936603A093CE
:101A30006703B09368038AEE91E090930D01809361
:101A40000C010E9431071093100198E288E10FB653
:101A5000F894A895809360000FBE9093600021E0F9
:101A600030E044E452E061E080E00E94F805332475
:101A7000339493EC292EAE01405F5F4F5C8F4B8F08
:101A800080911A0190911B01A0911C01B0911D0140
:101A900089A39AA3ABA3BCA3A8958CEB92E00E9468
:101AA0003A01181619060CF04EC08CEB92E00E9419
:101AB00018018D3309F043C0ADB7BEB7BE8FAD8FEF
:101AC0000E942E0B4B015C01F12C8CEB92E00E94EA
:101AD0003A0102974CF4FF2009F42AC321E030E0D8
:101AE0004EE051E066E020C0F110F8CF8CEB92E0C0
:101AF0000E941801482E8CEB92E00E941801582E8B
:101B000048A21F8EAF8CB8A0A82A6501B2E0CB1AFC
:101B1000D108EBEFCE16E3E0DE0608F41AC321E0AD
:101B200030E04EE051E061E08FE00E94F8054D8D1D
:101B30005E8D0FB6F8945EBF0FBE4DBF04C08CEB38
:101B400092E00E9418010E942E0B6B017C016093B1
:101B500038027093390280933A0290933B0280914D
:101B6000340290913502A0913602B091370297016C
:101B70008601081B190B2A0B3B0B40913002509138
:101B80003102609132027091330204171507260763
:101B9000370708F44DC08C159D05AE05BF0508F04C
:101BA00047C040912C0250912D0260912E027091FD
:101BB0002F024115510561057105D1F100912802EF
:101BC0001091290220912A0230912B020115110552
:101BD0002105310569F1C0923402D0923502E092BC
:101BE0003602F092370280911001882371F0009341
:101BF000300210933102209332023093330280E09E
:101C00000E9465071092100120C03092100140938D
:101C1000300250933102609332027093330280910C
:101C20002702811112C0809126020E9465070DC013
:101C3000C816D906EA06FB0640F410923402109248
:101C40003502109236021092370280916D02909107
:101C50006E02A0916F02B0917002B701A601481BFD
:101C6000590B6A0B7B0B483E53406105710508F424
:101C7000DDC1C0926D02D0926E02E0926F02F092CE
:101C800070021092490210924A0210924B02109276
:101C90004C02109245021092460210924702109296
:101CA000480204EF11E08EE00E94DD0A4C01990F1A
:101CB000AA08BB088091490290914A02A0914B0268
:101CC000B0914C02880E991EAA1EBB1E809249023A
:101CD00090924A02A0924B02B0924C02015011091C
:101CE00011F704EF11E08FE00E94DD0A6C01990FFB
:101CF000EE08FF088091450290914602A0914702AC
:101D0000B0914802C80ED91EEA1EFB1EC0924502C1
:101D1000D0924602E0924702F09248020150110927
:101D200011F7C501B40124EF31E040E050E00E941A
:101D30005F1649015A012093490230934A024093A9
:101D40004B0250934C02C701B60124EF31E040E052
:101D500050E00E945F1629013A012093450230931A
:101D600046024093470250934802C501B4010E94C5
:101D7000BB149B01AC0160E070EC8FE794E40E941F
:101D8000491420E030E040E85FE30E94D7130E944E
:101D900075158090650390906603A0906703B090DE
:101DA0006803A50194010E94BD152FE03FEC4BE5AF
:101DB0005BE30E94D8139B01AC0160E070E080E817
:101DC0009FE30E9449146B017C01C301B2010E9490
:101DD000BB149B01AC0160E070EC8FE794E40E94BF
:101DE000491420E030E040E85FE30E94D7130E94EE
:101DF00075159B01AC01C501B4010E94BD152FE012
:101E00003FEC4BE55BE30E94D8139B01AC0160E023
:101E100070E080E89FE30E9449144B015C0120E0E0
:101E200030E0A901C701B6010E944414882399F14A
:101E300023E333E948E853E4C701B6010E94D7130E
:101E4000C0926102D0926202E0926302F092640258
:101E500060936502709366028093670290936802B4
:101E600020E030E040E151E40E94BD1520E030E088
:101E700040EA50E40E94491420E030E040E052E49F
:101E80000E94D8136093690270936A0280936B0278
:101E900090936C0218C0109261021092620210922C
:101EA0006302109264021092650210926602109210
:101EB0006702109268021092690210926A021092F0
:101EC0006B0210926C0220E030E0A901C501B40160
:101ED0000E944414882399F123E333E948E853E44A
:101EE000C501B4010E94D713809255029092560208
:101EF000A0925702B09258026093590270935A020E
:101F000080935B0290935C0220E030E040E151E47A
:101F10000E94BD1520E030E040EA50E40E944914E0
:101F200020E030E040E052E40E94D81360935D026C
:101F300070935E0280935F029093600218C01092CB
:101F400055021092560210925702109258021092A7
:101F5000590210925A0210925B0210925C02109287
:101F60005D0210925E0210925F02109260028091F8
:101F70002402823019F1843091F1E0916502709170
:101F80006602609167025091680240915902309157
:101F90005A0220915B0290915C02E0931C027093C4
:101FA0001D0260931E0250931F0240932002309343
:101FB0002102209322029093230231C07091690282
:101FC00060916A0250916B0240916C0230915D0207
:101FD00020915E0290915F028091600210C070912A
:101FE00061026091620250916302409164023091FB
:101FF0005502209156029091570280915802709399
:102000001C0260931D0250931E0240931F023093E6
:102010002002209321029093220280932302809138
:102020000F01882381F00E94AC060DC0C816D906A6
:10203000EA06FB0640F410926D0210926E021092B6
:102040006F021092700280912502882311F1109284
:1020500025029091270280911001911108C03092C1
:1020600027028823D9F080E00E94650712C01092F1
:102070002702882331F030921001809126020E94BD
:10208000650780911001811150C061E084E00E94D9
:10209000370A80912702882309F447C0C09038028C
:1020A000D0903902E0903A02F0903B0280915102C8
:1020B00090915202A0915302B0915402A70196014F
:1020C000281B390B4A0B5B0BDA01C901843F914095
:1020D000A105B105A0F0C0925102D0925202E09247
:1020E0005302F092540260E084E00E94370AC092EA
:1020F0004D02D0924E02E0924F02F0925002809137
:102100004D0290914E02A0914F02B0915002C81A18
:10211000D90AEA0AFB0A44E6C416D104E104F10430
:1021200020F061E084E00E94370A0E94E101B4CC13
:102130000E942E0BDC01CB0188199909AA09BB0961
:10214000FF24F394893C9105A105B10508F0BDCCAD
:10215000BBCC0E942E0B3B014C0185010F5F1F4F32
:102160008CEB92E00E943A018017910798F4F110ED
:10217000B5CC0E942E0BDC01CB0186199709A8096A
:10218000B909FF24F39485369105A105B10540F7FF
:10219000F12CE6CFF110A2CC8CEB92E00E9418015A
:1021A000682E8CEB92E00E9418018C012DB73EB78F
:1021B0002C193D090FB6F8943EBF0FBE2DBF4DB789
:1021C0005EB74F5F5F4F7A01C114D10489F04A01B5
:1021D0008CEB92E00E941801D4018D934D01CD014A
:1021E0008E199F098C159D0598F39924939401C02D
:1021F000912C8CEB92E00E941801742C750C760CDB
:10220000700E992051F0F7019F012E193F092C15EE
:102210003D0518F49191790EF7CF871531F021E043
:1022200030E04EE051E065E07FCC862D8F7082304B
:1022300039F1A8F48823D9F0813009F01AC229A114
:102240003AA14BA15CA129833A834B835C8324E0B0
:1022500030E0AE014F5F5F4F60E081E010C284303C
:1022600009F4B4C080F08E3009F426C102C221E026
:1022700030E044E452E060E080E00E94F805FFCFE7
:102280000E94AC06FEC111270330110509F45AC0A3
:102290003CF40130110569F002301105D1F0E3C1C1
:1022A0000430110509F45EC00530110509F470C051
:1022B000DAC1AEEEB1E0FE013196AF018D918193AE
:1022C0008B8D9C8DE817F907C9F72FE030E061E0AE
:1022D0005DC09FE0C916D10430F421E030E04EE04B
:1022E00051E064E0CBC1F701AEEEB1E0C7010F965B
:1022F00021912D93E817F907D9F7ECEDF1E080E093
:102300009191890FABE1B2E0AE17BF07C9F7809397
:102310001B028CEDE82E81E0F82E00E010E0F701C2
:1023200061917F01C8010E94E4050F5F1F4F0034D7
:102330001105A9F70E94BD0721E030E044E452E016
:1023400062E024C0992049F2D7018C91811103C029
:1023500010920F0102C030920F0121E030E0A7017E
:1023600063E014C0992009F4B8CFF701808181118E
:1023700007C010922702809126020E94650702C0C2
:102380003092270221E030E0A70164E083E077C1CA
:10239000992009F4A2CF8091270221E030E0882320
:1023A00089F0A70165E083E00E94F805D7018C91D0
:1023B000811103C01092100102C0309210010E94DE
:1023C00065075FC14EE051E06EEF58C11127023042
:1023D0001105C9F054F40130110509F044C120E29F
:1023E00030E04CED51E061E065C00330110509F4C7
:1023F00052C00430110509F036C128E030E04CE14C
:1024000052E064E057C08091DA0189838091DB015A
:102410008A838091D2018B838091D3018C838091B8
:10242000D4018D838091D5018E838091D6018F83D5
:102430008091D70188878091D80189878091D901BF
:102440008A878091CA018B878091CB018C8780918C
:10245000CC018D878091CD018E878091CE018F87B1
:102460008091CF01888B8091D001898B8091D1019F
:102470008A8B1B8A1C8A1D8A1E8ABEE5BF8BE8E6F2
:10248000E88FFAEDF98F2A8E2AE130E0AE014F5F36
:102490005F4F62E00FC00E942E0B9093400280932A
:1024A0004102709342026093430224E030E040E432
:1024B00052E063E085E0E3C011270230110509F422
:1024C0006CC00330110509F496C00130110509F004
:1024D000CAC024E0C216D10408F4FFCED701AD90E3
:1024E000BC901197BA24AB24BA245C9111964C91FC
:1024F000119712960D911C91139710270127102701
:1025000012963C91129713962C91C501800F911F42
:1025100001978115944008F0E0CE4DB65EB63801C3
:10252000E4E06E0E711C8DB79EB7861997090FB641
:10253000F8949EBF0FBE8DBFADB7BEB711967D019B
:10254000EDB7FEB7518311964C93119712963C93B9
:10255000129713962C938DB69EB6F5E08F0E911CB4
:10256000C12CD12CC016D10661F0C5018C0D9D1D6A
:102570000E94C113D4018D934D01BFEFCB1ADB0A2A
:10258000F1CF9301A70161E08EE00E94F8050FB63C
:10259000F8945EBE0FBE4DBE74C0E3E0CE16D1040B
:1025A00008F49BCED701CD90DC90DC24CD24DC2434
:1025B000B4E0AB1AB108C60101978A0D9B1D8115C5
:1025C000944008F08ACEF2E0EF0EF11C00E010E03B
:1025D000D7016D917D01C8018C0D9D1D0E94E40500
:1025E0000F5F1F4F0A151B0598F321E030E044E40C
:1025F00052E062E036C0B2E0CB16D10408F46DCEF2
:10260000F70160816093FB0181818093FC01ECED17
:10261000F1E080E09191890F2BE132E02E173F0726
:10262000C9F780931B028FE190E00E94E405D70177
:1026300011966C9180E290E00E94E40560911B028B
:102640008FE390E00E94E405F70180819181982753
:10265000892798270E94310721E030E044E452E0C6
:1026600063E08EE00CC021E030E04EE051E063E03A
:1026700005C021E030E04EE051E062E08FE00E94D2
:10268000F8052D8D3E8D0FB6F8943EBF0FBE2DBFC1
:102690005ACAECEBF2E01382128288EE93E0A0E0DB
:1026A000B0E084839583A683B7832AE231E0318347
:1026B000208325EC30E03587248724EC30E0378711
:1026C000268720EC30E0318B208B21EC30E0338BFF
:1026D000228B22EC30E0358B248B26EC30E0378BDC
:1026E000268B118E128E138E148EE9E5F3E0138281
:1026F000128284839583A683B7838CE391E09183D0
:102700008083E9E6F3E0138212828EE491E0918304
:102710008083108A8FEF87871686118A87E28387E6
:10272000148615861286118684E0828B82E0838B64
:1027300081E0848B80E1858B80E2868B80E4878BCF
:1027400080E8808F40E050E063E0CF010E94A70264
:10275000609111017091120180E090E00E94BB1421
:102760009B01AC0160E070E080E89FE30E944914A7
:102770006093650370936603809367039093680387
:102780000895F999FECF92BD81BDF89A992780B539
:102790000895262FF999FECF1FBA92BD81BD20BDA5
:1027A0000FB6F894FA9AF99A0FBE01960895505808
:1027B000BB27AA270E94EF130C9433150E942515FE
:1027C00038F00E942C1520F039F49F3F19F426F4BC
:1027D0000C9422150EF4E095E7FB0C941C15E92FE0
:1027E0000E94441558F3BA176207730784079507C8
:1027F00020F079F4A6F50C9466150EF4E0950B2EF6
:10280000BA2FA02D0B01B90190010C01CA01A00142
:102810001124FF27591B99F0593F50F4503E68F19D
:102820001A16F040A22F232F342F4427585FF3CFDE
:10283000469537952795A795F0405395C9F77EF4AF
:102840001F16BA0B620B730B840BBAF09150A1F0F8
:10285000FF0FBB1F661F771F881FC2F70EC0BA0F7E
:10286000621F731F841F48F4879577956795B79506
:10287000F7959E3F08F0B0CF9395880F08F0992701
:10288000EE0F9795879508950E94F81408F481E05B
:1028900008950E945D140C9433150E942C1558F075
:1028A0000E94251540F029F45F3F29F00C941C1577
:1028B00051110C9467150C9422150E94441568F36D
:1028C0009923B1F3552391F3951B550BBB27AA27E9
:1028D00062177307840738F09F5F5F4F220F331F23
:1028E000441FAA1FA9F335D00E2E3AF0E0E832D0EB
:1028F00091505040E695001CCAF72BD0FE2F29D0EE
:10290000660F771F881FBB1F261737074807AB07BF
:10291000B0E809F0BB0B802DBF01FF2793585F4F34
:102920003AF09E3F510578F00C941C150C946715F5
:102930005F3FE4F3983ED4F3869577956795B79516
:10294000F7959F5FC9F7880F911D9695879597F921
:102950000895E1E0660F771F881FBB1F621773079A
:102960008407BA0720F0621B730B840BBA0BEE1FAF
:1029700088F7E0950895E89409C097FB3EF4909598
:102980008095709561957F4F8F4F9F4F9923A9F048
:10299000F92F96E9BB279395F695879577956795D7
:1029A000B795F111F8CFFAF4BB0F11F460FF1BC01B
:1029B0006F5F7F4F8F4F9F4F16C0882311F096E9AE
:1029C00011C0772321F09EE8872F762F05C066235C
:1029D00071F096E8862F70E060E02AF09A95660F15
:1029E000771F881FDAF7880F9695879597F90895CE
:1029F000990F0008550FAA0BE0E8FEEF1616170610
:102A0000E807F907C0F012161306E407F50798F077
:102A1000621B730B840B950B39F40A2661F0232B90
:102A2000242B252B21F408950A2609F4A140A6950C
:102A30008FEF811D811D089597F99F6780E870E0F1
:102A400060E008959FEF80EC089500240A94161624
:102A5000170618060906089500240A94121613068C
:102A6000140605060895092E0394000C11F488231A
:102A700052F0BB0F40F4BF2B11F460FF04C06F5F36
:102A80007F4F8F4F9F4F089557FD9058440F551F0C
:102A900059F05F3F71F04795880F97FB991F61F0E0
:102AA0009F3F79F087950895121613061406551F57
:102AB000F2CF4695F1DF08C0161617061806991FC3
:102AC000F1CF86957105610508940895E894BB27B8
:102AD00066277727CB0197F9089516F00C942A16EC
:102AE0000C94221568940C941C150E944C15A8F3A4
:102AF0009923C1F3AEF3DF93CF931F930F93FF920C
:102B0000C92FDD2788232AF02197660F771F881F9A
:102B1000DAF720E030E040E85FEB9FE3883920F00F
:102B2000803E38F021968F770E94D813E8E6F0E0D7
:102B300004C00E94D813E5E9F0E00E9438168B012A
:102B4000BE01EC01FB2E6F5771097595771F880B3D
:102B5000990B0E94BD1428E132E741E35FE30E9434
:102B6000D015AF2D9801AE01FF900F911F91CF911D
:102B7000DF910E94EF130C9433150E94D0150C9432
:102B800033150E94251538F00E942C1520F095234E
:102B900011F00C941C150C94221511240C9467153B
:102BA0000E94441570F3959FC1F3950F50E0551F97
:102BB000629FF001729FBB27F00DB11D639FAA2792
:102BC000F00DB11DAA1F649F6627B00DA11D661FE1
:102BD000829F2227B00DA11D621F739FB00DA11D02
:102BE000621F839FA00D611D221F749F3327A00DBC
:102BF000611D231F849F600D211D822F762F6A2F58
:102C000011249F5750409AF0F1F088234AF0EE0FBC
:102C1000FF1FBB1F661F771F881F91505040A9F7E9
:102C20009E3F510580F00C941C150C9467155F3F76
:102C3000E4F3983ED4F3869577956795B795F79525
:102C4000E7959F5FC1F7FE2B880F911D969587959D
:102C500097F908959F3F31F0915020F4879577952B
:102C60006795B795880F911D9695879597F9089563
:102C7000DF93CF931F930F93FF92EF92DF927B012D
:102C80008C01689406C0DA2EEF010E94D015FE0177
:102C9000E894A5912591359145915591A6F3EF01C1
:102CA0000E94EF13FE019701A801DA9469F7DF9003
:102CB000EF90FF900F911F91CF91DF910895A1E2C6
:102CC0001A2EAA1BBB1BFD010DC0AA1FBB1FEE1FA6
:102CD000FF1FA217B307E407F50720F0A21BB30BF1
:102CE000E40BF50B661F771F881F991F1A9469F76D
:102CF00060957095809590959B01AC01BD01CF01C9
:102D000008956927962769277827872778270895C0
:102D1000EE0FFF1F0590F491E02D099481E090E003
:0A2D2000F8940C949316F894FFCF7A
:102D2A00DE00DE000609090600000000EA01FF01D4
:102D3A00016E0F3D00038FFDFF8E4D485447004042
:102D4A00145400401050000000007201DF00090115
:102D5A00BF013A0118012C010000000078024B0261
:102D6A00C9021F0243022F02200200000000BB0218
:0E2D7A00DF00C902C8027905A702F302D402E5
:107E0000112484B714BE81FFF0D085E080938100F7
:107E100082E08093C00088E18093C10086E0809377
:107E2000C20080E18093C4008EE0C9D0259A86E02C
:107E300020E33CEF91E0309385002093840096BBD3
:107E4000B09BFECF1D9AA8958150A9F7CC24DD24C4
:107E500088248394B5E0AB2EA1E19A2EF3E0BF2EE7
:107E6000A2D0813461F49FD0082FAFD0023811F036
:107E7000013811F484E001C083E08DD089C08234E0
:107E800011F484E103C0853419F485E0A6D080C0E4
:107E9000853579F488D0E82EFF2485D0082F10E0AE
:107EA000102F00270E291F29000F111F8ED06801E7
:107EB0006FC0863521F484E090D080E0DECF843638
:107EC00009F040C070D06FD0082F6DD080E0C81688
:107ED00080E7D80618F4F601B7BEE895C0E0D1E017
:107EE00062D089930C17E1F7F0E0CF16F0E7DF06D8
:107EF00018F0F601B7BEE89568D007B600FCFDCFD4
:107F0000A601A0E0B1E02C9130E011968C91119780
:107F100090E0982F8827822B932B1296FA010C0160
:107F200087BEE89511244E5F5F4FF1E0A038BF0790
:107F300051F7F601A7BEE89507B600FCFDCF97BE46
:107F4000E89526C08437B1F42ED02DD0F82E2BD052
:107F50003CD0F601EF2C8F010F5F1F4F84911BD097
:107F6000EA94F801C1F70894C11CD11CFA94CF0C13
:107F7000D11C0EC0853739F428D08EE10CD085E9AC
:107F80000AD08FE07ACF813511F488E018D01DD067
:107F900080E101D065CF982F8091C00085FFFCCF94
:107FA0009093C60008958091C00087FFFCCF809118
:107FB000C00084FD01C0A8958091C6000895E0E648
:107FC000F0E098E1908380830895EDDF803219F02E
:107FD00088E0F5DFFFCF84E1DECF1F93182FE3DFCA
:107FE0001150E9F7F2DF1F91089580E0E8DFEE27F6
:047FF000FF270994CA
:027FFE00040479
:0400000300007E007B
:00000001FF
