:100000000C94E9080C945C340C9435340C9411096C
:100010000C9411090C9411090C9411090C941109F8
:100020000C9411090C9411090C9411090C941109E8
:100030000C9411090C946F360C9411090C9411094D
:100040000C94EB330C9411090C94B3330C948D3352
:100050000C9411090C9411090C9411090C941109B8
:100060000C9483340C94110908000000BE922449BA
:10007000123EABAAAA2ABECDCCCC4C3E00000080DA
:10008000BEABAAAAAA3E00000000BF000000803F4D
:100090000000000000084178D3BB4387D1133D190D
:1000A0000E3CC3BD4282AD2B3E68EC8276BED98F3A
:1000B000E1A93E4C80EFFFBE01C4FF7F3F0000007E
:1000C00000002D2D2D2D2D2D2D2D2D2D2D2D2D2DBA
:1000D0002D2D2D2D2D2D0020202020544F57455201
:1000E0002047415244454E2020202000204D4F44BF
:1000F000554C415220485944524F504F4E4943208D
:10010000002D2D2D2D2D2D2D2D2D2D2D2D2D2D2D4C
:100110002D2D2D2D2D002D2D2D2D2D002D2D2D2D69
:10012000002D2D2D2D002D2D2D2D2D002D2D2D2D86
:10013000002D2D2D2D002D2D2D2D2D2D2D2D2D2D49
:100140002D2D2D2D2D2D2D2D2D2D2D2D2D2D2D2DDF
:100150002D2D004B00C2B04600C2B043002020202D
:1001600020696E7465726E616C203A20004B00C28B
:10017000B04600C2B043002020202065787465722C
:100180006E616C203A200054656D70657261747503
:10019000726573002D2D3A2D2D3A2D2D002D2D3AFF
:1001A0002D2D3A2D2D00206C656674002020202016
:1001B00020202054696D6572203A2000202057616C
:1001C0007465722070756D70203A206F6666002528
:1001D00000202057617465722070756D70203A2080
:1001E0006F6E2040200053657276696365206D6FE5
:1001F0006465203A2064697361626C6564005365CC
:100200007276696365206D6F6465203A20656E6162
:10021000626C6564002D2D2D2D2D2D2D2D2D2D2D58
:100220005354415455532D2D2D2D2D2D2D2D2D2D28
:100230002D0000000000240027002A00000000001C
:10024000250028002B000404040404040404020212
:100250000202020203030303030301020408102045
:100260004080010204081020010204081020000050
:100270000008000201000003040700000000000065
:1002800000002D2D2D2D70726F67726573732062C3
:1002900061722D2D2D2D0054696D65723A202D2D22
:1002A0003A2D2D3A2D2D206C6566740054653A2D3B
:1002B0002D2D2D2D2D202054693A2D2D2D2D2D2D18
:1002C0000057617465722070756D703A202D2D2D68
:1002D0002D2D2D2D2D00526573756C743A20756E81
:1002E0006B6E6F776E20636F6D6D616E642100526F
:1002F0006573756C743A20696E76616C69642076FA
:10030000616C7565212050574D2066726571756569
:100310006E6379206D757374206265206772656104
:10032000746572207468616E20302E0020487A2E29
:1003300000526573756C743A2050574D2066726593
:100340007175656E6379206368616E67656420749A
:100350006F2000526573756C743A206572726F720B
:100360002100526573756C743A20696E76616C6910
:10037000642076616C756521204E5443206265745B
:10038000612076616C7565206D75737420626520DF
:1003900067726561746572207468616E20302E002A
:1003A000204B2E00526573756C743A204E544320D6
:1003B000626574612076616C7565206368616E6743
:1003C000656420746F2000526573756C743A206503
:1003D00072726F722100526573756C743A20696E87
:1003E00076616C69642076616C7565210052657375
:1003F000756C743A2074656D7065726174757265A0
:1004000020756E69742073657420746F204B656C61
:1004100076696E2E00526573756C743A2074656D42
:10042000706572617475726520756E69742073658C
:100430007420746F2046616872656E686569742EF9
:1004400000526573756C743A2074656D70657261E5
:100450007475726520756E69742073657420746F8D
:100460002043656C736975732E00526573756C74E7
:100470003A206572726F722100526573756C743A1E
:1004800020696E76616C69642076616C7565210007
:10049000526573756C743A2074656D706572617421
:1004A0007572652073656E736F7220636F6E666917
:1004B0006775726174696F6E20697320736574204B
:1004C000746F20626F74682065787465726E616CF9
:1004D00020616E6420696E7465726E616C20736554
:1004E0006E736F72732E00526573756C743A20745C
:1004F000656D70657261747572652073656E736F7A
:100500007220636F6E66696775726174696F6E20C1
:1005100069732073657420746F20696E7465726EE0
:10052000616C2073656E736F72206F6E6C792E0034
:10053000526573756C743A2074656D706572617480
:100540007572652073656E736F7220636F6E666976
:100550006775726174696F6E2069732073657420AA
:10056000746F2065787465726E616C2073656E734C
:100570006F72206F6E6C792E00526573756C743AD1
:100580002074656D70657261747572652073656E37
:10059000736F7220636F6E66696775726174696FDD
:1005A0006E2069732073657420746F206E6F6E65A2
:1005B0002E00526573756C743A206572726F7221E9
:1005C00000526573756C743A20696E76616C69646B
:1005D0002076616C75652120576174657220707595
:1005E0006D70206F66662D74696D65206D7573740E
:1005F000206265206C657373207468616E203731EA
:10060000353832206D696E757465732E00206D6902
:100610006E7574652873292E00526573756C743A73
:100620002077617465722070756D70206F66662D1D
:1006300074696D65206368616E67656420746F20FE
:1006400000526573756C743A206572726F72210086
:10065000526573756C743A20696E76616C696420BA
:1006600076616C7565212057617465722070756DB7
:1006700070206F6E2D74696D65206D7573742062C6
:1006800065206C657373207468616E20373135386E
:1006900032206D696E757465732E00206D696E75FC
:1006A00074652873292E00526573756C743A20772F
:1006B000617465722070756D70206F6E2D74696D38
:1006C00065206368616E67656420746F2000526501
:1006D00073756C743A206572726F722100252E005A
:1006E000526573756C743A20696E76616C6964202A
:1006F00076616C7565212057617465722070756D27
:10070000702073706565642072656D61696E732019
:1007100061742000252E00526573756C743A207741
:10072000617465722070756D7020737065656420EA
:100730006368616E67656420746F20004E6F746536
:100740003A20706C65617365207761697420776801
:10075000696C6520746865207761746572207075B6
:100760006D70207370656564206973206368616EC5
:1007700067696E672E00526573756C743A206572F6
:10078000726F722100526573756C743A20696E76CF
:10079000616C69642076616C7565210052657375C2
:1007A0006C743A20726567756C6172207374617441
:1007B00075732075706461746520656E61626C6527
:1007C000642E00526573756C743A20726567756C9F
:1007D00061722073746174757320757064617465DF
:1007E000732064697361626C65642E005265737571
:1007F0006C743A206572726F722100526573756C69
:10080000743A20696E76616C69642076616C7565F6
:100810002100526573756C743A2073657276696352
:1008200065206D6F646520656E61626C65642C2067
:1008300077617465722070756D70206973207465BE
:100840006D706F72617279207475726E6564206F5D
:1008500066662E00526573756C743A207365727605
:10086000696365206D6F64652064697361626C659E
:10087000642C2077617465722070756D70206973C7
:1008800020636F6E74726F6C6C6564206279207483
:1008900068652074696D65722E00526573756C749D
:1008A0003A206572726F7221002D2D2D2D2D2D2D68
:1008B0002D2D2D2D2D2D2D2D2D2D2D2D2D2D2D2D68
:1008C0002D2D2D2D2D2D2D2D2D2D2D2D2D2D2D2D58
:1008D0002D2D2D2D2D2D0020487A00202020202088
:1008E00020202050574D206672657175656E6379C2
:1008F000203A2000204B00202020202020204E5491
:100900004320626574612076616C7565203A200031
:100910004E2F41004B656C76696E004661687265CA
:100920006E686569740043656C7369757300202097
:1009300020202054656D7065726174757265207534
:100940006E6974203A20004E2F41006578746572FC
:100950006E616C20616E6420696E7465726E616C8C
:1009600000696E7465726E616C0065787465726E94
:10097000616C006E6F6E650054656D7065726174B8
:100980007572652073656E736F72287329203A2023
:1009900000206D696E7574652873290020205761E9
:1009A0007465722070756D70206F66662D74696D48
:1009B00065203A2000206D696E75746528732900E2
:1009C00020202057617465722070756D70206F6EE5
:1009D0002D74696D65203A20002020202020576169
:1009E0007465722070756D70207374617465203A3F
:1009F000206F666600250020202020205761746546
:100A0000722070756D70207374617465203A206F68
:100A10006E20402000202020202020202020536510
:100A20007276696365206D6F6465203A206469732E
:100A300061626C656400202020202020202020534B
:100A4000657276696365206D6F6465203A20656E16
:100A500061626C65640030003A0030003A0030009A
:100A6000200030002E0030002E00202020202020EA
:100A700020204669726D776172652064617465201B
:100A80003A200030003A0030003A003000200030B8
:100A9000002E0030002E0020202020202020204189
:100AA0007373656D626C792064617465203A20000F
:100AB00030003A0030003A003000200030002E00B4
:100AC00030002E0020202020202020204861726449
:100AD000776172652064617465203A2000202020CF
:100AE000202048617264776172652076657273694F
:100AF0006F6E203A20560028756E6B6E6F776E20F1
:100B00006D6963726F636F6E74726F6C6C6572295E
:100B1000002841546D656761333238502900202028
:100B2000202020202020415652207369676E617476
:100B3000757265203A20002D2D2D2D2D2D2D2D2D5A
:100B40002D2D2D2D2D2D2D2D2D2D2D494E464F2D5D
:100B50002D2D2D2D2D2D2D2D2D2D2D2D2D2D2D2DC5
:100B60002D2D2D2D00526573756C743A20726573AE
:100B700074617274696E6720636F6E74726F6C6CEF
:100B80006572206E6F772C20706C656173652077BD
:100B90006169742E002D2D2D2D2D2D2D2D2D2D2DFA
:100BA0002D2D2D2D2D2D2D2D2D2D2D2D2D2D2D2D75
:100BB0002D2D2D2D2D2D2D2D2D2D2D2D2D2D2D2D65
:100BC0002D2D2D2D2D2D2D2D2D2D2D2D2D2D2D2D55
:100BD0002D2D2D2D2D2D2D2D2D2D2D2D004E6F74C8
:100BE000653A2073657474696E677320617265205D
:100BF0006175746F6D61746963616C6C7920736188
:100C000076656420746F2074686520696E746572FF
:100C10006E616C20454550524F4D2E002020202003
:100C2000202020202020202020202020583D343942
:100C300030205B487A5D2062792064656661756C5E
:100C4000742E002020202070776D667265713D58EB
:100C5000203A207365742077617465722070756D19
:100C600070206472697665722050574D20667265F7
:100C70007175656E637920696E20486572747A2C8F
:100C80000020202020202020202020202020202084
:100C900020583D33393530205B4B5D20627920642C
:100CA000656661756C742E00202020206E7463626E
:100CB0006574613D58203A207365742074656D70C9
:100CC000657261747572652073656E736F722062F0
:100CD0006574612076616C756520696E204B656C6A
:100CE00076696E2C0020202020202020202020202B
:100CF0002020202020583D343A204B656C76696EC8
:100D00002E002020202020202020202020202020F5
:100D10002020583D323A2046616872656E686569E8
:100D2000742C002020202020202020202020202083
:100D3000202020583D313A2043656C73697573203B
:100D40002864656661756C74292C00202020746508
:100D50006D70756E69743D58203A20736574207407
:100D6000656D706572617475726520756E69742C3D
:100D70000020202020202020202020202020202093
:100D800020583D333A20626F74682065787465722C
:100D90006E616C20616E6420696E7465726E616C48
:100DA0002E00202020202020202020202020202055
:100DB0002020583D323A20696E7465726E616C2C49
:100DC0000020202020202020202020202020202043
:100DD00020583D313A2065787465726E616C2C0044
:100DE0002020202020202020202020202020202003
:100DF000583D303A206E6F6E6520286465666175D7
:100E00006C74292C0074656D7073656E736F7273EA
:100E10003D58203A207365742074656D7065726169
:100E2000747572652073656E736F7220636F6E6682
:100E3000696775726174696F6E2C00202020202014
:100E400020202020202020202020207768656E2070
:100E500073657420746F2030207468652077617426
:100E600065722070756D70206973207065726D6198
:100E70006E656E746C79207475726E6564206F6E29
:100E80002E00202020202020202020202020202074
:100E90002020583D302E2E2E3731353832205B6DD4
:100EA000696E5D2C00202020206F666674696D6578
:100EB0003D58203A20736574207761746572207004
:100EC000756D70206F66662D74696D6520696E2082
:100ED0006D696E757465732C002020202020202001
:100EE0002020202020202020207768656E20736538
:100EF0007420746F20302074686520776174657287
:100F00002070756D70206973207065726D616E65FB
:100F10006E746C79207475726E6564206F66662ECF
:100F200000202020202020202020202020202020E1
:100F300020583D302E2E2E3731353832205B6D69EA
:100F40006E5D2C0020202020206F6E74696D653D41
:100F500058203A207365742077617465722070752B
:100F60006D70206F6E2D74696D6520696E206D69DE
:100F70006E757465732C00202020202020202020F6
:100F800020202020202020583D302E2E2E313030A1
:100F9000205B255D2E00202070756D707370656577
:100FA000643D58203A20736574207761746572201F
:100FB00070756D7020737065656420696E20706552
:100FC0007263656E74732C00202020202020202066
:100FD0002020202020202020583D313A20656E61BD
:100FE000626C6564202864656661756C74292E00E6
:100FF00020202020202020202020202020202020F1
:10100000583D303A2064697361626C65642C00203D
:10101000202020207374617475733D58203A20702D
:1010200072696E7420726567756C61722073746189
:1010300074757320757064617465732C00202020B2
:1010400020202020202020202020202020583D313A
:101050003A20656E61626C65642E0020202020209D
:101060002020202020202020202020583D303A2001
:1010700064697361626C6564202864656661756C7F
:1010800074292C00736572766963656D6F64653DC4
:1010900058203A2073657420736572766963652001
:1010A0006D6F64652C0020202020202020202069E6
:1010B0006E666F203A207072696E7420636F6E7472
:1010C000726F6C6C657220696E666F726D617469A7
:1010D0006F6E2E00202020202020726573746172B4
:1010E00074203A207265737461727420636F6E7439
:1010F000726F6C6C65722E00202020202020202032
:101100002068656C70203A207072696E7420746873
:101110006973206465736372697074696F6E2E0001
:101120002D2D2D2D2D2D2D2D2D2D2D2D2D2D2D2DEF
:101130002D2D2D2D2D2D2D2D2D2D2D2D2D2D2D2DDF
:101140002D2D48454C502D2D2D2D2D2D2D2D2D2D5A
:101150002D2D2D2D2D2D2D2D2D2D2D2D2D2D2D2DBF
:101160002D2D2D2D2D2D2D0056616C75653A2000ED
:10117000436F6D6D616E643A2000496E7075743A0C
:10118000200073657276696365206D6F6465210068
:101190002D2D3A2D2D3A2D2D00206C6566740054AE
:1011A000653A2D2D2D2D2D2D202054693A2D2D2DD4
:1011B0002D2D2D006F66662020202020006F666692
:1011C00020202020200031303025006F6E2040008C
:1011D000793611241FBECFEFD8E0DEBFCDBF12E0BD
:1011E000A0E0B1E0EEE2F4E702C005900D92A23B70
:1011F000B107D9F725E0A2EBB2E001C01D92A931F9
:10120000B207E1F718E0C9EED8E004C02197FE016B
:101210000E94F239C83ED107C9F70E94991E0C946A
:10122000153A0C940000F89481E08093E2047894DD
:101230000895DC01ED91FC910190F081E02D09957C
:101240000895EF92FF920F931F93CF93DF93FB01CB
:1012500064916623E9F07F018C01D0E0C0E0D80101
:10126000ED91FC910190F081E02DC8010995892B49
:1012700039F02196FE01EE0DFF1D64916111EFCF53
:10128000CE01DF91CF911F910F91FF90EF900895C4
:10129000D0E0C0E0F5CFCF92DF92EF92FF920F93B4
:1012A0001F93CF93DF934115510509F16A018C011A
:1012B000E62EF72ED0E0C0E0D7016D917D01D80178
:1012C000ED91FC910190F081E02DC8010995892BE9
:1012D00021F02196CC16DD0679F7CE01DF91CF9172
:1012E0001F910F91FF90EF90DF90CF900895EA014A
:1012F000F4CFE3E1F4E01382128288EE93E0A0E001
:10130000B0E084839583A683B78389EB91E09183D2
:10131000808385EC90E09587848784EC90E09787C4
:10132000868780EC90E0918B808B81EC90E0938BB2
:10133000828B82EC90E0958B848B86EC90E0978B8F
:10134000868B118E128E138E148E0895FC01938D50
:10135000848D981720F4891B990B019708952FE32A
:1013600030E0291B3109820F932F911D0895FC0154
:10137000918D828D981761F0A28DAE0FBF2FB11D98
:101380005D968C91928D9F5F9F73928F90E00895F0
:101390008FEF9FEF0895FC01918D828D981731F0AA
:1013A000828DE80FF11D858D90E008958FEF9FEFFE
:1013B0000895FC01918D228D892F90E0805C9F4FD4
:1013C000821B91098F739927089583E194E00E940D
:1013D000D90921E0892B09F420E0822F0895FC012E
:1013E000A48DA80FB92FB11DA35ABF4F2C91848D86
:1013F00090E001968F739078848FA689B7892C939B
:10140000A089B1898C91837080648C93938D848D35
:10141000981308950288F389E02D80818F7D808361
:10142000F8CF0F931F93CF93DF93EC0181E0888F68
:101430009B8D8C8D9817B1F0062F8B8D90E00196C7
:101440008F739078182F8C8D81131EC00FB607FCF8
:10145000FACFE889F989808185FFF5CFCE010E9416
:10146000EF09F1CFE889F989808185FFE5CF9FB742
:10147000F894EE89FF896083E889F9898081837017
:10148000806480839FBF10C0EB8DEC0FFD2FF11D9A
:10149000E35AFF4F00839FB7F8941B8FEA89FB89BB
:1014A0008081806280839FBF81E090E0DF91CF9157
:1014B0001F910F910895CF93DF93EC01888D8823BE
:1014C00071F0EA89FB8903C00FB607FE0BC080816B
:1014D00085FDFACFA889B9898C9186FFF5CFDF9178
:1014E000CF910895808185FFECCFE889F9898081CB
:1014F00085FFE7CFCE010E94EF09E3CF80E090E0C7
:10150000892B21F00E94E509811101C008950E94F4
:101510000000FCCF90E0FC01E259FD4F2491FC015A
:10152000E65AFD4F34918A5B9D4FFC0184918823DC
:10153000A1F0211113C0E82FF0E0EE0FFF1FE45CD3
:10154000FD4FA591B4918FB7F894611134C09C916F
:10155000E32FE095E923EC938FBF08952330A9F0A2
:1015600060F02730E1F0283001F1243021F7E0E885
:10157000F0E090819F7D9083DECF213061F02230BA
:10158000D1F694B59F7D94BDD6CFE0E8F0E0908190
:101590009F779083D0CF94B59F7794BDCCCFE0EB6D
:1015A000F0E090819F779083C6CFE0EBF0E09081F0
:1015B0009F7D9083C0CFEC91E32BEC93CDCFCF9365
:1015C000DF9390E0FC01E65AFD4F24918A5B9D4F2A
:1015D000FC018491882319F190E0880F991FFC0188
:1015E000EE5CFD4FA591B491FC01E45CFD4FC5910B
:1015F000D491662349F06230A9F08FB7F894EC914A
:10160000E22BEC938FBF0BC09FB7F8948C91E22F25
:10161000E0958E238C938881E823E8839FBFDF9138
:10162000CF9108959FB7F8943C91822F80958323A2
:101630008C93E881E22BE8839FBFF1CF8E3008F0D6
:101640008E508770806480937C00EAE7F0E08081B0
:1016500080648083808186FDFDCF809178009091A9
:10166000790008958230910538F0880F991F880F0E
:10167000991F05970197F1F708953FB7F894809166
:10168000910390919203A0919303B091940326B596
:10169000A89B05C02F3F19F00196A11DB11D3FBFAA
:1016A000BA2FA92F982F8827BC01CD01620F711D79
:1016B000811D911D660F771F881F991F660F771F69
:1016C000881F991F08958F929F92AF92BF92CF92D9
:1016D000DF92EF92FF926B017C010E943D0B4B0168
:1016E0005C01C114D104E104F10431F420C0C1143F
:1016F000D104E104F104D9F00E943D0B6819790985
:101700008A099B09683E73408105910580F321E0B9
:10171000C21AD108E108F10888EE880E83E0981E0D
:10172000A11CB11CC114D104E104F10429F7FF90FC
:10173000EF90DF90CF90BF90AF909F908F900895E3
:101740002FB7F89460918D0370918E0380918F0371
:10175000909190032FBF0895089585ED8093BC006C
:10176000ECEBF0E0808184FDFDCF109266030895DC
:10177000811104C085E88093BC00089585EC8093B6
:10178000BC00089520914003260F3327331F2132D8
:101790003105F4F4209166032430E1F4662389F0E6
:1017A000A82FB92F90E080E0E09140032D91AC018B
:1017B000425E5C4FE40FF52FF11D208301968617E2
:1017C00098F380914003680F6093400380E0089590
:1017D00081E0089582E00895E2E1F3E0138212824D
:1017E00088EE93E0A0E0B0E084839583A683B7837E
:1017F00087EA91E09183808308950895089508957C
:10180000E0910F0380910E03E81730F4F0E0E2510D
:10181000FD4F808190E008958FEF9FEF08959091A4
:101820000F0380910E03981758F4E92FF0E0E2516E
:10183000FD4F208130E09F5F90930F03C901089511
:101840002FEF3FEFFBCF80910E0390910F03891B89
:10185000990B0895CF92DF92EF92FF920F931F930F
:10186000CF93DF938C01CB016A012091ED022223FB
:10187000E9F04115510581F0EB017B01E40EF51E05
:101880006991D801ED91FC910190F081E02DC801A2
:101890000995CE15DF05A1F7C601DF91CF911F9104
:1018A0000F91FF90EF90DF90CF900895642F0E94EA
:1018B000C20BF2CFCF93DF931F92CDB7DEB7FC01FF
:1018C00069839091ED029923F1F090911003903289
:1018D00050F081E090E09383828390E080E00F906D
:1018E000DF91CF91089580911103E82FF0E0E35349
:1018F000FD4F998190838F5F809311038093100334
:1019000081E090E0ECCF61E0CE0101960E94C20B35
:1019100081E090E0E4CF08956093C9027093CA0219
:101920008093CB029093CC02645D7E4F8F4F9F4F8C
:101930006093C5027093C6028093C7029093C80259
:1019400082E090E09093C4028093C3020E94A00BB7
:101950006093BF027093C0028093C1029093C20251
:1019600008950F931F930E94A00B0091BF02109146
:10197000C0022091C1023091C202AB01BC01401BE8
:10198000510B620B730B483E53406105710518F112
:101990004091C9025091CA026091CB027091CC0271
:1019A0004F5F5F4F6F4F7F4F4093C9025093CA0202
:1019B0006093CB027093CC02D901C80188519C4F2F
:1019C000AF4FBF4F8093BF029093C002A093C1025C
:1019D000B093C202C8CF6091C9027091CA028091CF
:1019E000CB029091CC021F910F9108952F923F92BC
:1019F0004F925F926F927F928F929F92AF92BF921F
:101A0000CF92DF92EF92FF920F931F93CF93DF93CA
:101A100000D000D01F92CDB7DEB74B015C018091A2
:101A2000B4029091B502A091B602B091B7028815A8
:101A30009905AA05BB0509F4F3C00F2EFCE3CF2ED0
:101A4000D12CE12CF12CF02DC501A70196010E94AB
:101A5000E536E8EBF2E06083CA01B901A70196011F
:101A60000E94E5366093B902C501B40120E13EE071
:101A700040E050E00E94E536CA01B90128E130E0BB
:101A800040E050E00E94E5366093BA02C501B4011F
:101A900020E831E541E050E00E94E53669017A0135
:101AA000C982DA82EB82FC82CA01B9016C5F7F4F86
:101AB0008F4F9F4F27E030E040E050E00E94E53636
:101AC0006F5F6093BB0200E010E0980140E0512C92
:101AD000412C0F2EFEE67F2EF02D66246394312CD0
:101AE000212C4D834D81E42FF0E0EE54F84FCF01CF
:101AF00083709927892B39F5CF0164E670E00E9445
:101B0000DE39892B29F5CF0160E971E00E94DE39C9
:101B1000892B19F5872D962DA32DB22D080F191F8E
:101B20002A1F3B1FD901C801AA27BB2749815A8117
:101B30006B817C81481759076A077B0798F0ED8114
:101B4000EF5FED83CFCF8DE691E0A52DB42DE6CFED
:101B5000872D962DA32DB22DE1CF8DE691E0A52DF9
:101B6000B42DDCCF4D814093BE028DE691E0A0E024
:101B7000B0E01E161F06D4F4CF0183709927892B7D
:101B800009F066C0CF0164E670E00E94DE39892B5F
:101B900009F063C0CF0160E971E00E94DE39892B52
:101BA00009F060C08EE691E0A0E0B0E0081B190BE0
:101BB0002A0B3B0BC01AD10AE20AF30ACF0164E6F2
:101BC00070E00E94DE399C01CF0160E971E00E9463
:101BD000DE3960E0AF01437055277CE1A62FB0E00D
:101BE000A956BE4F4C90512C712C612CC414D504B5
:101BF000E604F70438F0C418D508E608F7086F5F64
:101C00006C30A8F1E8EBF2E06F5F6583C394C482A7
:101C10008092B4029092B502A092B602B092B7023E
:101C20000F900F900F900F900F90DF91CF911F9119
:101C30000F91FF90EF90DF90CF90BF90AF909F906B
:101C40008F907F906F905F904F903F902F9008956E
:101C50008DE691E0A0E0B0E0A9CF8EE691E0A0E0B3
:101C6000B0E0A4CF8DE691E0A0E0B0E09FCF61307E
:101C700009F0B4CF472E1E161F060CF0B4CF411545
:101C8000510509F0B0CF0F2EFDE14F2EF02D21159B
:101C9000310509F0A8CF0F2EFDE14F2EF02D009752
:101CA00009F4A1CF472E9FCF0E94B10C0E94F60CE1
:101CB0008091BE0290E08E54984F08950E94B10C1E
:101CC0000E94F60C8091BD0290E008950E94B10C34
:101CD0000E94F60C8091BC0290E008950E94B10C25
:101CE0000E94F60C8091B80290E008950E94B10C19
:101CF0000E94F60C8091B90290E008950E94B10C08
:101D00000E94F60C8091BA0290E00895FC012481B3
:101D100031E03093ED022093B30210921103109240
:101D200010038385682BE0911203F0911303019057
:101D3000F081E02D82E193E00995809110038132DA
:101D400008F040C0909166039111FCCF3091B3022E
:101D500092E09093660391E0909368039FEF9093D5
:101D6000650310928A0380938903882369F0EDEC60
:101D7000F2E0A9E6B3E0815090E082539D4F2191BB
:101D80002D93E817F907D9F710928B0390918B03E5
:101D9000832F880F892B80938B0380916703813079
:101DA000C1F085EE8093BC00809166038230E1F340
:101DB000809165038F3F31F080916503803211F08F
:101DC0008091650310921103109210031092ED029E
:101DD000089510926703ABEBB0E0ECEBF0E080917C
:101DE0008B038C93808183FDFACF85EC8093BC00BC
:101DF000DBCF0F931F93CF938C01C62F0E94860ECB
:101E00006C2F6460C8010E94860E81E090E00E9401
:101E1000320B6C2F6B7FC8010E94860E82E390E02C
:101E20000E94320BCF911F910F9108950F931F9332
:101E3000CF93DF938C01D62FC42F607F642B0E9439
:101E4000F90E80E1D89FB00111246C2BC8010E94CB
:101E5000F90EDF91CF911F910F91089541E00E94FB
:101E6000160F81E090E00895EF92FF920F931F9379
:101E7000CF93DF938C017A016770660F660F660F50
:101E8000606440E00E94160FE70188E0E80EF11C54
:101E90006991D801ED91FC910190F081E02DC8018C
:101EA0000995CE15DF05A1F7DF91CF911F910F9115
:101EB000FF90EF900895CF93DF93CDB7DEB72897CB
:101EC0000FB6F894DEBF0FBECDBF28E0ECE7F1E01F
:101ED000DE01119601900D922A95E1F7FC01218512
:101EE000241710F44FEF420FE42FF0E0EE0FFF1F26
:101EF000EC0FFD1F2181620F606840E00E94160F09
:101F000028960FB6F894DEBF0FBECDBFDF91CF91FC
:101F1000089540E062E00E94160F80ED97E00E9475
:101F2000320B089540E061E00E94160F80ED97E0CB
:101F30000E94320B0895089590E080E00895EEEC41
:101F4000F4E0138212828FE891E09183808387E22C
:101F5000848384E1808784E08187128688E0838798
:101F6000609176017091770190E080E00E943038B6
:101F70009B01AC0160E070E080E89FE30E9488373D
:101F80006093B8047093B9048093BA049093BB042F
:101F90000895CF93DF9310920F0310920E031092C7
:101FA0001103109210031092660381E0809368037E
:101FB0001092670361E082E10E948A0A61E083E196
:101FC0000E948A0AE9EBF0E080818E7F8083808125
:101FD0008D7F808388E48093B80085E48093BC0083
:101FE0008DEF9BE090933F0380933E038EEF9BE049
:101FF0009093430380934203EEECF4E015828185D5
:10200000823008F4A1C088E08093D30462E370E0DA
:1020100080E090E00E94630BCEECD4E06B85CE01B3
:102020000E94860E68EE73E080E090E00E94630BF1
:1020300060E3CE010E94F90E84E991E10E94320B27
:1020400060E3CE010E94F90E84E991E10E94320B17
:1020500060E3CE010E94F90E86E990E00E94320B07
:1020600060E2CE010E94F90E6D81606240E0CE0117
:102070000E94160F84E08E8340E06CE0CE010E9447
:10208000160FCE010E94920F82E08F8340E066E03F
:10209000CE010E94160FCE010E94890F88E08B8727
:1020A00060E0CE010E94860ECE010E94920FCE010A
:1020B0000E94890F61E071E0CE010E94210941E098
:1020C00060E0CE010E945B0F6CEE70E0CE010E94DA
:1020D000210942E060E0CE010E945B0F67ED70E0F5
:1020E000CE010E94210943E060E0CE010E945B0F17
:1020F00062EC70E0CE010E94210948E251E060E00C
:10210000CE010E94340F40E251E061E0CE010E9416
:10211000340F48E151E062E0CE010E94340F40E10B
:1021200051E063E0CE010E94340F48E051E064E0EA
:10213000CE010E94340F40E051E065E0CE010E94E4
:10214000340FDF91CF9108959091D804992309F429
:102150005DCF813009F05ACF84E08093D30456CF0D
:102160008F929F92AF92BF92CF92DF92EF92FF92A7
:10217000C0900D05D0900E05E0900F05F090100571
:102180008091090590910A05A0910B05B0910C056D
:102190008C0D9D1DAE1DBF1D409111055091120566
:1021A00060911305709114056C017D01C41AD50A64
:1021B000E60AF70AC092C604D092C704E092C804A7
:1021C000F092C904C701B60128EE33E040E050E0C8
:1021D0000E94E53649015A0180E488168EE7980688
:1021E00085E0A806B10488F083E68093CC048BE3F5
:1021F0008093CB048093CA04FF90EF90DF90CF9040
:10220000BF90AF909F908F900895C701B60120E8CE
:102210003EEE46E350E00E94E5362093CC04C50133
:10222000B40120E13EE040E050E00E94E5362CE3BE
:1022300030E040E050E00E94E5362093CB0460930C
:10224000CA04DACFCF92DF92EF92FF929C0150E066
:1022500040E060E472E48FE090E00E94BB364427E7
:102260005527A0EAB0E00E94DA366B017C0124E138
:1022700030E040E050E00E94E536822F932FA42FFB
:10228000B52F009741E0A407B105C8F0009728E0FA
:10229000A207B10570F10097A044B105D0F184E028
:1022A00080939703C701B60120E034E140E050E09D
:1022B0000E94E536309396032093950308C081E091
:1022C00080939703822F9093960380939503809138
:1022D0009503909196039093870080938600809158
:1022E0009703806180938100FF90EF90DF90CF9003
:1022F000089582E080939703C701B60120EA30E099
:1023000040E050E00E94E536309396032093950319
:10231000DECF83E080939703C701B60120E035E06C
:1023200040E050E00E94E5363093960320939503F9
:10233000CECF3F924F925F926F927F928F929F92F9
:10234000AF92BF92CF92DF92EF92FF920F931F93C3
:10235000CF93DF9390917B01911105C0909100057F
:10236000992309F47AC0382E882309F488C0C090D4
:10237000B202C81608F09CC0CC2DD0E0E82FF0E0E7
:10238000EC17FD0708F463C0D12CF12CE12CAFEF62
:10239000B3E0A70196010E94DA362B013C012FEF32
:1023A000C21AD20AE20AF20AEC1BFD0BA70196013F
:1023B0002E0F3F1F411D511D0E94DA364B015C015B
:1023C000C0E8D0E00F2EF8E8EF2EF12CF02D0F2E04
:1023D000F1E8CF2ED12CF02D61E089E00E94DF0AD8
:1023E0008881806888830091950310919603C301CA
:1023F000B2012FEF30E040E050E00E94BB364427AE
:102400005527D8010E94DA36052E5AE09695879511
:10241000779567955A95D1F7502DF70171836083B1
:10242000809197038061F60180836FE070E080E027
:1024300090E00E94630BA895FFEF4F0EF3E05F1E44
:10244000611C711C481459046A047B0429F660E07D
:1024500084E00E948A0A3092B202DF91CF911F91EC
:102460000F91FF90EF90DF90CF90BF90AF909F9033
:102470008F907F906F905F904F903F90089561E0B4
:1024800089E00E94DF0AE0E8F0E0808180688083D4
:102490001092890010928800809197038061809348
:1024A000810061E084E00E948A0A1092B202D5CFD6
:1024B0008C1568F6EC2DF0E0C82FD0E0EC17FD0786
:1024C00030F2D12CF12CE12CAFEFB3E0A701960153
:1024D0000E94DA362B013C01EC1BFD0B2E1B3F0B3F
:1024E000410951090E94DA364B015C012FEF821A33
:1024F00023E0920AA108B108C0E8D0E00F2EF8E866
:10250000EF2EF12CF02D0F2EF1E8CF2ED12CF02D47
:1025100061E089E00E94DF0A8881806888830091F9
:10252000950310919603C301B2012FEF30E040E014
:1025300050E00E94BB3644275527D8010E94DA3666
:10254000052E5AE096958795779567955A95D1F718
:10255000502DF70171836083809197038061F601AC
:1025600080836FE070E080E090E00E94630BA895AC
:10257000FFEF4F1AF3E05F0A61087108481459042D
:102580006A047B0429F663CF8F929F92AF92BF9229
:10259000CF92DF92EF92FF921F93CF93DF93E8EAFF
:1025A000F3E0C2EDD3E08881808389818183E0EA12
:1025B000F3E08A8180838B8181838C8182838D810A
:1025C00083838E8184838F818583888586838985B3
:1025D0008783E8E9F3E08A8580838B8581838C8516
:1025E00082838D8583838E8584838F858583888987
:1025F0008683898987831A891093FF048B898C8845
:10260000912CB12CA12C540199248824B82A8E89AC
:10261000882A8D89982A8092050590920605A092B5
:102620000705B09208058F89C88CD12CF12CE12CBC
:102630007601DD24CC24F82A8A8DC82A898DD82AEF
:10264000C0920105D0920205E0920305F0920405C4
:102650008B8D8093CD048C8D8093C4046D8D8E8D75
:10266000762F682F709377016093760190E080E079
:102670000E9430389B01AC0160E070E080E89FE38D
:102680000E9488376093B8047093B9048093BA04A9
:102690009093BB049F8D88A1D92FC82FD09375012B
:1026A000C0937401CE010E94221180910005811116
:1026B0004AC081149104A104B104F9F4CD28CE28B4
:1026C000CF2871F01092090510920A0510920B059F
:1026D00010920C0580E00E94991110927B0138C085
:1026E0001092090510920A0510920B0510920C0524
:1026F0000E94991110927B012BC0C114D104E104F6
:10270000F10491F51092090510920A0510920B053B
:1027100010920C0581E080937B01812F0E9499111A
:1027200017C08092090590920A05A0920B05B092FD
:102730000C0581E080937B01CE010E942211812F44
:102740000E94991105C080E00E94991110927B01AE
:10275000DF91CF911F91FF90EF90DF90CF90BF90CE
:10276000AF909F908F90089580917B018111D9CF78
:10277000C0920905D0920A05E0920B05F0920C0573
:1027800080E00E94991110927B01E2CF8F929F927C
:10279000AF92BF92CF92DF92EF92FF920F931F936F
:1027A000CF93DF9300D000D000D01F92CDB7DEB71B
:1027B000EDB6FEB6CDB6DEB6A0911505B091160504
:1027C000109709F444C0FE013196EA1BFB0BFA8313
:1027D000E983E981FA81D901D896EA17FB07E8F580
:1027E00087E0E4E8F1E0DE01119601900D928A9510
:1027F000E1F78E010F5F1F4F5E0188E0A80EB11C4C
:10280000D8016D918D0183E194E00E94110AA01618
:10281000B106B1F70FB6F894DEBE0FBECDBE0FB64F
:10282000F894FEBE0FBEEDBE27960FB6F894DEBF3D
:102830000FBECDBFDF91CF911F910F91FF90EF9011
:10284000DF90CF90BF90AF909F908F900895FE0142
:10285000E851F540FA83E983BCCF4901B6E08B0E1D
:10286000911CEDB7FEB7E819F9090FB6F894FEBF51
:102870000FBEEDBFADB7BEB711965D018D019DE3F3
:102880009183D9011296F501B1839CEF980D928343
:102890008068838364832115310599F0FA01C501AD
:1028A0000596420F531F6191DC016D93CD01E41732
:1028B000F507C9F72B5F3F4F80E02230310518F450
:1028C0000DC02B5F3F4FF501319680E09191890F4C
:1028D000AF01401B510B42175307C0F32A0D3B1D9C
:1028E000F90180838114910469F08501A80CB91C59
:1028F000D8016D918D0183E194E00E94110A0A15BF
:102900001B05B1F70FB6F894DEBE0FBECDBE87CF64
:10291000FF920F931F93CF93DF9302ED13E021E11A
:1029200034E0F80180E09191890FE217F307D9F7BD
:1029300080931104D0E0C0E0F801F1908F01CE0146
:102940000E94A536F81621F06F2DCE010E94AD36FB
:102950002196C034D10581F7DF91CF911F910F915E
:10296000FF9008958F929F92AF92BF92EF92FF9245
:102970000F931F93CF93DF93CDB7DEB7A1970FB619
:10298000F894DEBF0FBECDBF7C01CB01BA0119A206
:10299000223040F08E010F5D1F4F822E912CB12C02
:1029A000A12C0BC02AE0F6CFE95CD801EE938D0193
:1029B000611571058105910569F0A50194010E94D9
:1029C000E536E62F622F732F842F952FEA3064F7B8
:1029D000E05DEBCF109711F1FD0101900020E9F7C8
:1029E0003197AF014A1B5B0BD701ED91FC9102803F
:1029F000F381E02DB801C7010995A1960FB6F894AF
:102A0000DEBF0FBECDBFDF91CF911F910F91FF9021
:102A1000EF90BF90AF909F908F90089590E080E0EE
:102A2000ECCF2115310549F4DC01ED91FC910190C9
:102A3000F081E02D642F099508950E94B214089545
:102A40009A01462F50E070E060E00E941115089551
:102A5000CF92DF92EF92FF920F931F93CF93DF936A
:102A6000EC019A014115510579F4E881F981019051
:102A7000F081E02D0995DF91CF911F910F91FF908B
:102A8000EF90DF90CF9008954A30510509F56B0122
:102A9000072E000CEE08FF08FF2094F46DE20E9460
:102AA00019098C0144275527BA014C195D096E0993
:102AB0007F092AE0CE010E94B214800F911FDBCF64
:102AC000AB01770F660B770B2AE00E94B214D3CFCD
:102AD000AB01770F660B770B0E94B214CCCFDC01F1
:102AE000ED91FC910280F381E02D42E050E067EC33
:102AF00071E0099508950F931F93CF93DF93EC0135
:102B00000E9428158C01CE010E946F15800F911F25
:102B1000DF91CF911F910F9108950F931F93CF9342
:102B2000DF93EC010E9421098C01CE010E946F15F8
:102B3000800F911FDF91CF911F910F910895611523
:102B4000710581F0FB0101900020E9F73197AF0199
:102B5000461B570BDC01ED91FC910280F381E02DC7
:102B60000995089590E080E008956F927F928F928A
:102B70009F92AF92BF92CF92DF92EF92FF920F930C
:102B80001F93CF93DF938C016A017B01622EAB010F
:102B90009601CB01B6010E94A43981114BC04601B8
:102BA0005701E894B7F82FEF3FEF4FE75FE7C50114
:102BB000B4010E94A43981110AC02FEF3FEF4FE703
:102BC0005FE7C501B4010E9483371816D4F12FEFD7
:102BD0003FEF4FE75FE4C701B6010E94E2381816E5
:102BE000BCF12FEF3FEF4FE75FECC701B6010E944A
:102BF00083378823A4F120E030E0A901C701B601A2
:102C00000E948337D0E0C0E0882384F1662009F475
:102C100093C060E070E080E09FE3712C20E030E042
:102C200040E251E40E94883721E0270D621641F10D
:102C3000722EF4CF6AEC71E0C8010E949F15EC017E
:102C40006BC06EEC71E0C8010E949F15EC0164C07E
:102C500062ED71E0C8010E949F15EC015DC062ED5C
:102C600071E0C8010E949F15EC0156C06DE2C801D9
:102C70000E941909EC01F7FAF094F7F8F094C6CF26
:102C8000A70196010E9417374B015C010E94013891
:102C90006B017C010E9430389B01AC01C501B4017D
:102CA0000E9416374B015C012AE030E0B701A60113
:102CB000C8010E9411157C016EE2C8010E94190929
:102CC0008E0D9F1DC80FD91F20E030E040E251E477
:102CD000C501B4010E9437394B015C010E940138E3
:102CE0006B01F12CE12C2AE030E0B701A601C8010C
:102CF0000E941115C80FD91FC701B6010E943038B4
:102D00009B01AC01C501B4010E9416374B015C0167
:102D10007A948FEF7812D8CFCE01DF91CF911F91A7
:102D20000F91FF90EF90DF90CF90BF90AF909F906A
:102D30008F907F906F90089520E030E040E05FE357
:102D4000C701B6010E9417370E940138AB01BC01D0
:102D50002AE030E0C8010E941115C80FD91FDCCF4E
:102D6000CF92DF92EF92FF92CF93DF93CDB7DEB792
:102D70002E970FB6F894DEBF0FBECDBF80917901BC
:102D8000882309F406C383E194E00E946F1583E170
:102D900094E00E946F1565E172E083E194E00E9487
:102DA0008D1580910005882309F454C06EEF71E001
:102DB00083E194E00E948D1580917B01882309F4C2
:102DC00060C08091000581115CC06091FF0470E0DB
:102DD00090E080E00E94323820E030E040E85FE39D
:102DE0000E94173720E030E048EC52E40E94373967
:102DF00020E030E040E85BE30E9437396B017C0162
:102E000020E030E0A9010E94E238882374F120E03C
:102E100030E040E05FE3C701B6010E9417370E942F
:102E2000FA37F62E61ED71E083E194E00E9421090A
:102E30004AE050E06F2D83E194E00E9420156FEC92
:102E400071E083E194E00E948D1583E194E00E949B
:102E50005B0A1DC066EE71E083E194E00E948D156F
:102E600083E194E00E945B0AA7CF20E030E040E0DD
:102E70005FE3C701B6010E9416370E94FA37F62EAB
:102E8000D1CF6CEB71E083E194E00E948D1583E17A
:102E900094E00E945B0A6CEA71E083E194E00E9496
:102EA000210980910005811186C0809109059091CA
:102EB0000A05A0910B05B0910C05892B8A2B8B2B51
:102EC00009F472C00E94B0108091CC048A3008F4DA
:102ED00056C04AE050E06091CC0483E194E00E9447
:102EE000201568ED71E083E194E00E949F158091C8
:102EF000CB048A3008F44AC04AE050E06091CB0429
:102F000083E194E00E94201583E194E00E945B0A33
:102F100068ED71E083E194E00E949F158091CA04FE
:102F20008A30D8F14AE050E06091CA0483E194E02D
:102F30000E94201566EA71E083E194E00E948D15FD
:102F400083E194E00E945B0A8091CD048370D1F507
:102F500066E371E083E194E00E94210983E194E05B
:102F60000E945B0A2E960FB6F894DEBF0FBECDBF4F
:102F7000DF91CF91FF90EF90DF90CF90089566EDB5
:102F800071E083E194E00E949F15A3CF66ED71E0AC
:102F900083E194E00E949F15AFCF66ED71E083E17D
:102FA00094E00E949F15BECF6DE971E083E194E04B
:102FB0000E948D15C5CF64E971E083E194E00E9421
:102FC0008D15BECF67E871E083E194E00E948D1516
:102FD0008091CD0480FD22C08091CD0481FFB8CFC7
:102FE0006DE571E083E194E00E94210983E194E0C2
:102FF0000E945B0A8091C404823009F440C184308D
:1030000009F482C1813009F4F5C083E194E00E94A3
:103010006F1583E194E00E945B0A9ACF67E771E045
:1030200083E194E00E94210983E194E00E945B0A1D
:103030008091C404823009F453C0843009F495C0EF
:10304000813049F083E194E00E946F1583E194E0C0
:103050000E945B0AC1CF20E030E048EC52E460916E
:10306000F3047091F4048091F5049091F6040E94A9
:1030700037396B017C0120E030E0A9010E94E23881
:1030800088230CF120E030E040E05FE3C701B601A7
:103090000E9417370E94FA370E94323820E030E051
:1030A00048EC52E40E948837AB01BC0121E030E0DB
:1030B00083E194E00E94B51563E771E083E194E059
:1030C0000E942109BFCF20E030E040E05FE3C7016C
:1030D000B6010E9416370E94FA370E943238DECFBE
:1030E00020E030E048EC52E46091F7047091F8047D
:1030F0008091F9049091FA040E9437396B017C01A8
:1031000020E030E0A9010E94E23888230CF120E0A1
:1031100030E040E05FE3C701B6010E9417370E942C
:10312000FA370E94323820E030E048EC52E40E9446
:103130008837AB01BC0121E030E083E194E00E94DC
:10314000B5156FE671E083E194E00E9421097ACF22
:1031500020E030E040E05FE3C701B6010E9416378F
:103160000E94FA370E943238DECF20E030E048EC8F
:1031700052E46091EF047091F0048091F104909119
:10318000F2040E9437396B017C0120E030E0A90194
:103190000E94E23888230CF120E030E040E05FE359
:1031A000C701B6010E9417370E94FA370E943238D1
:1031B00020E030E048EC52E40E948837AB01BC01CB
:1031C00021E030E083E194E00E94B5156DE671E006
:1031D00083E194E00E94210935CF20E030E040E017
:1031E0005FE3C701B6010E9416370E94FA370E94BA
:1031F0003238DECF20E030E048EC52E46091E70462
:103200007091E8048091E9049091EA040E943739B2
:103210006B017C0120E030E0A9010E94E2388823A4
:103220000CF120E030E040E05FE3C701B6010E940E
:1032300017370E94FA370E94323820E030E048EC1D
:1032400052E40E948837AB01BC0121E030E083E109
:1032500094E00E94B51569E571E083E194E00E9475
:103260002109D3CE20E030E040E05FE3C701B601A2
:103270000E9416370E94FA370E943238DECF20E0D3
:1032800030E048EC52E46091EB047091EC048091E2
:10329000ED049091EE040E9437396B017C0120E02F
:1032A00030E0A9010E94E23888230CF120E030E0F0
:1032B00040E05FE3C701B6010E9417370E94FA376A
:1032C0000E94323820E030E048EC52E40E94883717
:1032D000AB01BC0121E030E083E194E00E94B51530
:1032E00065E571E083E194E00E9421098ECE20E043
:1032F00030E040E05FE3C701B6010E9416370E944C
:10330000FA370E943238DECF20E030E048EC52E459
:103310006091E3047091E4048091E5049091E604E7
:103320000E9437396B017C0120E030E0A9010E9446
:10333000E23888230CF120E030E040E05FE3C70191
:10334000B6010E9417370E94FA370E94323820E0F7
:1033500030E048EC52E40E948837AB01BC0121E028
:1033600030E083E194E00E94B51563E571E083E10C
:1033700094E00E94210949CE20E030E040E05FE384
:10338000C701B6010E9416370E94FA370E943238F0
:10339000DECF0E94B0108091000581112EC0809177
:1033A000090590910A05A0910B05B0910C05892B98
:1033B0008A2B8B2BE9F03091C6042091C7049091A1
:1033C000C8048091C904198240917B01442311F003
:1033D00041E0498349814D7F49831BC01F82188684
:1033E00019861A862BC01B861C861D861E8634C035
:1033F00030E020E090E080E0E6CF198280917B0110
:10340000811134C089818260898330E020E090E0BE
:1034100080E04091FF044A838B839C832D833E830D
:103420008091CD0480FFDACFE0EBF4E080818F83E0
:10343000818188878281898783818A878091CD0471
:1034400081FFD1CFE0EBF4E084818B8785818C878D
:1034500086818D8787818E872EE030E0AE014F5FB9
:103460005F4F60E082E00E94C6137CCD81E08983DB
:10347000C9CFCF92DF92EF92FF928091C404823045
:1034800009F4D2C0843009F497C1813029F0FF904B
:10349000EF90DF90CF90089541E06EE08EEC94E0E5
:1034A0000E945B0F20E030E048EC52E46091E704BA
:1034B0007091E8048091E9049091EA040E94373900
:1034C0006B017C0120E030E0A9010E94E2388823F2
:1034D0000CF441C020E030E040E05FE3C701B601FA
:1034E0000E9417370E94FA370E94323820E030E0FD
:1034F00048EC52E40E9488376B017C0120E030E008
:1035000040E251EC0E948337181654F420E030E07A
:1035100048EC52E4C701B6010E94E238882344F126
:1035200065EA72E08EEC94E00E949F1522E030E0A4
:10353000B701A6018EEC94E00E94B51541E060E071
:103540008EEC94E00E94160F6AED71E08EEC94E030
:103550000E949F159CCF20E030E040E05FE3C70170
:10356000B6010E9416370E94FA370E943238BECF49
:1035700020E030E040E251ECC701B6010E94E238A1
:1035800018164CF420E030E0A901C701B6010E94F2
:103590008337882374F120E030E0A901C701B60128
:1035A0000E94E238882354F020E030E040E251E409
:1035B000C701B6010E948337882324F120E030E060
:1035C00040E251E4C701B6010E94E238882354F07A
:1035D00020E030E048EC52E4C701B6010E94833796
:1035E0008823CCF061E371E08EEC94E00E94210925
:1035F000A5CF21E030E0B701A6018EEC94E00E9457
:10360000B5159CCF22E030E0B701A6018EEC94E026
:103610000E94B51593CF21E030E0B701A6018EECF2
:1036200094E00E94B5158ACF41E06EE08EEC94E004
:103630000E945B0F20E030E048EC52E46091EB0424
:103640007091EC048091ED049091EE040E94373962
:103650006B017C0120E030E0A9010E94E238882360
:103660000CF441C020E030E040E05FE3C701B60168
:103670000E9417370E94FA370E94323820E030E06B
:1036800048EC52E40E9488376B017C0120E030E076
:1036900040E251EC0E948337181654F420E030E0E9
:1036A00048EC52E4C701B6010E94E238882344F195
:1036B00065EA72E08EEC94E00E949F1522E030E013
:1036C000B701A6018EEC94E00E94B51541E060E0E0
:1036D0008EEC94E00E94160F6CED71E08EEC94E09D
:1036E0000E949F15D4CE20E030E040E05FE3C701A8
:1036F000B6010E9416370E94FA370E943238BECFB8
:1037000020E030E040E251ECC701B6010E94E2380F
:1037100018164CF420E030E0A901C701B6010E9460
:103720008337882374F120E030E0A901C701B60196
:103730000E94E238882354F020E030E040E251E477
:10374000C701B6010E948337882324F120E030E0CE
:1037500040E251E4C701B6010E94E238882354F0E8
:1037600020E030E048EC52E4C701B6010E94833704
:103770008823CCF06CE271E08EEC94E00E94210989
:10378000A5CF21E030E0B701A6018EEC94E00E94C5
:10379000B5159CCF22E030E0B701A6018EEC94E095
:1037A0000E94B51593CF21E030E0B701A6018EEC61
:1037B00094E00E94B5158ACF41E06EE08EEC94E073
:1037C0000E945B0F20E030E048EC52E46091E3049B
:1037D0007091E4048091E5049091E6040E943739E9
:1037E0006B017C0120E030E0A9010E94E2388823CF
:1037F0000CF443C020E030E040E05FE3C701B601D5
:103800000E9417370E94FA370E94323820E030E0D9
:1038100048EC52E40E9488376B017C0120E030E0E4
:1038200040E251E40E9483378823A4F120E030E095
:1038300040E251E4C701B6010E94E238882354F007
:1038400020E030E048EC52E4C701B6010E94833723
:1038500088237CF120E030E048EC52E4C701B60157
:103860000E94E238882374F121E030E0B701A6011C
:103870008EEC94E00E94B51515C020E030E040E0E9
:103880005FE3C701B6010E9416370E94FA370E9413
:103890003238BCCF23E030E0B701A6018EEC94E0D3
:1038A0000E94B5156FEA72E08EEC94E00E949F15BD
:1038B000EECD22E030E0B701A6018EEC94E00E944C
:1038C000B515F0CF66E271E08EEC94E00E9421091C
:1038D000E9CFCF92DF92EF92FF928091C4048230C1
:1038E00009F4D2C0843009F497C1813029F0FF90E7
:1038F000EF90DF90CF90089541E063E08EEC94E08C
:103900000E945B0F20E030E048EC52E46091F30449
:103910007091F4048091F5049091F6040E94373977
:103920006B017C0120E030E0A9010E94E23888238D
:103930000CF441C020E030E040E05FE3C701B60195
:103940000E9417370E94FA370E94323820E030E098
:1039500048EC52E40E9488376B017C0120E030E0A3
:1039600040E251EC0E948337181654F420E030E016
:1039700048EC52E4C701B6010E94E238882344F1C2
:1039800065EA72E08EEC94E00E949F1522E030E040
:10399000B701A6018EEC94E00E94B51541E060E00D
:1039A0008EEC94E00E94160F6AED71E08EEC94E0CC
:1039B0000E949F159CCF20E030E040E05FE3C7010C
:1039C000B6010E9416370E94FA370E943238BECFE5
:1039D00020E030E040E251ECC701B6010E94E2383D
:1039E00018164CF420E030E0A901C701B6010E948E
:1039F0008337882374F120E030E0A901C701B601C4
:103A00000E94E238882354F020E030E040E251E4A4
:103A1000C701B6010E948337882324F120E030E0FB
:103A200040E251E4C701B6010E94E238882354F015
:103A300020E030E048EC52E4C701B6010E94833731
:103A40008823CCF061E271E08EEC94E00E942109C1
:103A5000A5CF21E030E0B701A6018EEC94E00E94F2
:103A6000B5159CCF22E030E0B701A6018EEC94E0C2
:103A70000E94B51593CF21E030E0B701A6018EEC8E
:103A800094E00E94B5158ACF41E063E08EEC94E0AB
:103A90000E945B0F20E030E048EC52E46091F704B4
:103AA0007091F8048091F9049091FA040E943739DA
:103AB0006B017C0120E030E0A9010E94E2388823FC
:103AC0000CF441C020E030E040E05FE3C701B60104
:103AD0000E9417370E94FA370E94323820E030E007
:103AE00048EC52E40E9488376B017C0120E030E012
:103AF00040E251EC0E948337181654F420E030E085
:103B000048EC52E4C701B6010E94E238882344F130
:103B100065EA72E08EEC94E00E949F1522E030E0AE
:103B2000B701A6018EEC94E00E94B51541E060E07B
:103B30008EEC94E00E94160F6CED71E08EEC94E038
:103B40000E949F15D4CE20E030E040E05FE3C70143
:103B5000B6010E9416370E94FA370E943238BECF53
:103B600020E030E040E251ECC701B6010E94E238AB
:103B700018164CF420E030E0A901C701B6010E94FC
:103B80008337882374F120E030E0A901C701B60132
:103B90000E94E238882354F020E030E040E251E413
:103BA000C701B6010E948337882324F120E030E06A
:103BB00040E251E4C701B6010E94E238882354F084
:103BC00020E030E048EC52E4C701B6010E948337A0
:103BD0008823CCF06CE171E08EEC94E00E94210926
:103BE000A5CF21E030E0B701A6018EEC94E00E9461
:103BF000B5159CCF22E030E0B701A6018EEC94E031
:103C00000E94B51593CF21E030E0B701A6018EECFC
:103C100094E00E94B5158ACF41E063E08EEC94E019
:103C20000E945B0F20E030E048EC52E46091EF042A
:103C30007091F0048091F1049091F2040E94373960
:103C40006B017C0120E030E0A9010E94E23888236A
:103C50000CF443C020E030E040E05FE3C701B60170
:103C60000E9417370E94FA370E94323820E030E075
:103C700048EC52E40E9488376B017C0120E030E080
:103C800040E251E40E9483378823A4F120E030E031
:103C900040E251E4C701B6010E94E238882354F0A3
:103CA00020E030E048EC52E4C701B6010E948337BF
:103CB00088237CF120E030E048EC52E4C701B601F3
:103CC0000E94E238882374F121E030E0B701A601B8
:103CD0008EEC94E00E94B51515C020E030E040E085
:103CE0005FE3C701B6010E9416370E94FA370E94AF
:103CF0003238BCCF23E030E0B701A6018EEC94E06F
:103D00000E94B5156FEA72E08EEC94E00E949F1558
:103D1000EECD22E030E0B701A6018EEC94E00E94E7
:103D2000B515F0CF66E171E08EEC94E00E942109B8
:103D3000E9CFCF93DF93CDB7DEB7CE54D1090FB61D
:103D4000F894DEBF0FBECDBF789484B5826084BD89
:103D500084B5816084BD85B5826085BD85B581608F
:103D600085BDEEE6F0E080818160808301E810E0AF
:103D7000D8011C928C9182608C938C9181608C9381
:103D80006894EE24E7F8F12CF7018081816080834C
:103D9000E1EBF0E0808184608083E0EBF0E0808103
:103DA00081608083EAE7F0E08081846080838081A5
:103DB000826080838081816080838081806880834D
:103DC0001092C1007894E3E1F4E0A089B18982E027
:103DD0008C93A485B5851C92A685B78587E08C93C6
:103DE000108EA489B58986E08C93A289B3898C91C1
:103DF00080618C93A289B3898C9188608C93A2890D
:103E0000B3898C9180688C930288F389E02D80813E
:103E10008F7D808361E084E00E94DF0A61E084E0BE
:103E20000E948A0A61E089E00E94DF0A83E199E04A
:103E30009093310180933001E9E6F0E080818C7F3E
:103E400082608083E89A80E1D8018C93F701108228
:103E500081E08093970380EC9FE390939603809397
:103E600095039093870080938600809197038061EB
:103E70008C9361E089E00E94DF0AD7018C91806811
:103E80008C93109289001092880080919703806132
:103E9000F801808381E2F0E0E0E080935700E49154
:103EA000AAEAB3E0EC93E2E0F0E080935700E491FB
:103EB0001196EC931197E4E0F0E080935700849121
:103EC00012968C930E94C90F60ED77E080E090E03D
:103ED0000E94630B88E08093D90460E08EEC94E04C
:103EE0000E94860E8EEC94E00E94920F8EEC94E07D
:103EF0000E94890F61EC72E08EEC94E00E9421092F
:103F000041E060E08EEC94E00E945B0F6CEA72E0AE
:103F10008EEC94E00E94210942E060E08EEC94E097
:103F20000E945B0F67E972E08EEC94E00E94210929
:103F300043E060E08EEC94E00E945B0F62E872E088
:103F40008EEC94E00E9421090F2EF2EDEF2EF3E0AB
:103F5000FF2EF02D0F2EF2E1CF2EF4E0DF2EF02D0C
:103F60008701C8018E199F090E94A536D8018D933B
:103F70008D01AC15BD05A9F721E134E0E2EDF3E0D8
:103F800080E09191890FE217F307D9F7909111041E
:103F9000981709F446C0E4E3F1E023E731E0DF01DC
:103FA00080E09D91890FA217B307D9F78093730121
:103FB00024E731E08191D7018D937D01E217F3076A
:103FC000C9F70E94C41221E030E048E751E06CEFED
:103FD0008FE00E94C61388E198E20FB6F894A89586
:103FE000809360000FBE9093600021E030E042E1DA
:103FF00054E061E080E00E94C6130F2EF0EA4F2EDD
:10400000F3E05F2EF02D0F2EF8E92F2EF3E03F2E78
:10401000F02DFE0170962396FFAFEEAF23970C9420
:104020000E330E94C412D7CF2DB73EB72B963FAFA9
:104030002EAF2B97109279010E94A00B6B017C018F
:10404000B12C01E010E083E194E00E94D9090297CD
:1040500084F4B1103FC00E94A00B6C197D098E0939
:104060009F09B02E693C71058105910560F7B12E5D
:10407000EACFB1102FC083E194E00E94B7092896DF
:104080008FAF289783E194E00E94B70929968FAFFC
:10409000299728963FAD28972D963FAF2D972C96C0
:1040A0001FAE2C972D968EAC9FAC2D97882A64015D
:1040B00052E0C51AD1086BEFC61663E0D60608F4C5
:1040C00083C021E030E048E751E061E08FE00E94EA
:1040D000C61308C021E030E048E751E066E08FE019
:1040E0000E94C6132B962EAD3FAD2B970FB6F894BA
:1040F0003EBF0FBE2DBF0E94A00B6B017C01C09282
:104100001105D0921205E0921305F09214058091EA
:104110000D0590910E05A0910F05B0911005B70106
:10412000A601481B590B6A0B7B0B809109059091E6
:104130000A05A0910B05B0910C05481759076A07AD
:104140007B0710F40C94572E80910505909106057D
:10415000A0910705B09108050097A105B10511F4DC
:104160000C94572E40910105509102056091030572
:1041700070910405411551056105710511F40C9408
:10418000572EC0920D05D0920E05E0920F05F092C9
:10419000100520917B0121110C944A2E21E02093DF
:1041A0007B018093090590930A05A0930B05B093BA
:1041B0000C058091000581110C94572E8091FF040D
:1041C0000E9499110C94572E0E94A00B27966CAF59
:1041D0007DAF8EAF9FAF279784010F5F1F4FFF24E6
:1041E000F394E12C83E194E00E94D90980179107B0
:1041F000B0F4B1106FC00E94A00B27962CAD3DAD5E
:104200004EAD5FAD2797621B730B840B950BBF2CD4
:10421000653671058105910528F7BE2CE3CFB110F5
:1042200059C083E194E00E94B70924968FAF249788
:1042300083E194E00E94B7097C014DB75EB74C1949
:104240005D090FB6F8945EBF0FBE4DBF0DB71EB728
:104250000F5F1F4FC114D10411F40C947533580132
:10426000C8018C0D9D1D2F969FAF8EAF2F973801E3
:1042700083E194E00E94B709D3018D933D012F960D
:10428000EEADFFAD2F97EA17FB0791F783E194E0BE
:104290000E94B70928969FAD289729965FAD299768
:1042A000950F24966FAD2497960F9E0DD5012D91F5
:1042B0005D01920F6A167B06C9F7BB24B394981769
:1042C00091F021E030E048E751E065E08FE00E94A6
:1042D000C61308CF21E030E048E751E066E08FE008
:1042E0000E94C613FFCE24968FAD24978F70823024
:1042F00009F456C068F4882379F18130B1F121E0E6
:1043000030E048E751E062E08FE00E94C6133EC013
:10431000843009F41FC108F446C08E3081F7FF24B1
:10432000B2E0EB16F10409F404C2E3E0EE16F10486
:1043300009F449C2EA94EF2809F067C224E0C216E2
:10434000D10408F090C121E030E048E751E064E09A
:104350008FE00E94C6131AC021E030E042E154E031
:1043600060E080E00E94C613FFCF8DE4898388E47B
:104370008A8384E58B8387E48C8324E030E0AE017C
:104380004F5F5F4F60E081E00E94C6132B96EEAD59
:10439000FFAD2B970FB6F894FEBF0FBEEDBFABCEAF
:1043A0000E94B016F3CFFF24B3E0EB16F10409F43A
:1043B00061C08CF4F1E0EF16F10409F122E0E2169D
:1043C000F104A1F121E030E048E751E063E08FE043
:1043D0000E94C613DBCF34E0E316F10409F467C092
:1043E00045E0E416F10471F7B11093C021E030E02C
:1043F00048E751E064E08FE00E94C613C7CFA4EE07
:10440000B3E0FE0131968D91819323968EAD9FADE1
:104410002397E817F907B9F72FE030E0AE014F5FB7
:104420005F4F61E083E00E94C613B0CFF801A4EEB5
:10443000B3E0015F1F4F9FE0C916D10448F421E0AB
:1044400030E048E751E064E08FE00E94C6139ECF61
:1044500081918D930E171F07D9F70E9488140E942F
:10446000C41221E030E042E154E062E083E00E94C7
:10447000C6138CCFB11009C021E030E048E751E00D
:1044800064E08FE00E94C61381CFD8018C91811126
:104490000AC010927A0121E030E0A80163E083E0D5
:1044A0000E94C61373CF81E080937A01F4CFB110DC
:1044B00009C021E030E048E751E064E08FE00E946D
:1044C000C61364CFF801808180FF16C0809100057B
:1044D00081110AC081E08093000580917B018823CF
:1044E00019F080E00E94991121E030E0A80164E019
:1044F00083E00E94C6134ACF1092000580917B0191
:10450000882311F40C9487338091FF040E94991141
:10451000EBCF809100058823A1F021E030E0A801D5
:1045200065E083E00E94C613D8018C91811105C01B
:1045300010927B010E94991129CF91E090937B0109
:10454000F9CF21E030E048E751E06EEF8FE00E94C4
:10455000C6131CCFFF24B2E0EB16F10441F164F462
:10456000EA94EF28D9F021E030E048E751E063E039
:104570008FE00E94C6130ACF23E0E216F10409F48B
:1045800062C034E0E316F10471F728E030E040EB5C
:1045900054E064E085E00E94C613F8CE20E230E0EB
:1045A00042ED53E061E085E00E94C613EFCEA8EA39
:1045B000B3E08C9189838091A9038A83F201808181
:1045C0008B8381818C8382818D8383818E8384819F
:1045D0008F83858188878681898787818A87D101B2
:1045E0008C918B8711968C9111978C8712968C9158
:1045F00012978D8713968C9113978E8714968C91B2
:1046000014978F8715968C911597888B16968C9199
:104610001697898B17968C918A8B1B8A1C8A1D8A08
:104620001E8A80E68F8B8EE7888F8AEE898F81E4E1
:104630008A8F2AE130E0AE014F5F5F4F62E085E094
:104640000E94C613A3CE0E94A00BEEECF3E0908371
:1046500081837283638324E030E0AF0163E085E00F
:104660000E94C61393CED8015C9111964C9111977C
:10467000D52EC42E12963C91129713962C91F32EA0
:10468000E22EC6018E0D9F1D01978115944008F002
:1046900047C0EDB7FEB72596FFAFEEAF25973701C0
:1046A000F4E06F0E711C8DB79EB7861997090FB68F
:1046B000F8949EBF0FBE8DBFADB7BEB711964D012A
:1046C000EDB7FEB7518311964C93119712963C9318
:1046D000129713962C93ADB6BEB6F5E0AF0EB11C93
:1046E00010E000E0E016F10659F0C601800F911FBE
:1046F0000E94A536D5018D935D010F5F1F4FF2CF4C
:104700009301A40161E08EE00E94C6132596EEADF0
:10471000FFAD25970FB6F894FEBF0FBEEDBF36CEA6
:1047200021E030E048E751E064E08FE00E94C613EA
:104730002DCEF3E0CF16D10448F421E030E048E775
:1047400051E064E08FE00E94C61320CED801EC90C7
:1047500011968C91FE2CE82E6401B4E0CB1AD1089E
:10476000C40105978E0D9F1D8115944018F55801C1
:10477000F2E0AF0EB11C8701C8018E199F098C159C
:104780009D0578F4D5019D905D01C8010E94A53674
:10479000981621F0692DC8010E94AD360F5F1F4F9A
:1047A000EBCF21E030E042E154E062E08EE00E9495
:1047B000C613ECCD21E030E048E751E064E08FE043
:1047C0000E94C613E3CDB2E0CB16D10448F421E039
:1047D00030E048E751E064E08FE00E94C613D6CD98
:1047E000E2EDF3E0D8018C91878F11968C9180A334
:1047F0000E9488140E94C41221E030E042E154E09B
:1048000063E08EE00E94C613C1CD21E030E048E7AE
:1048100051E063E08FE00E94C613B8CD83E194E0DD
:104820000E94D909892B11F40C94383383E194E068
:104830000E94B709F3CFE091AD03EE2309F4CFC195
:10484000AEEAB3E08C918D3309F4B6C12FEA33E0C0
:1048500080E04E2FA1E0A80F4A1709F4AAC1F90180
:1048600091919F019D3311F08A2FF4CFE42FAA2359
:1048700009F4A2C122E0280FE21B4EEA53E0BE0178
:104880006F5D7F4F90E081559C4FBE2FFA013191B3
:10489000AF01FB013193BF0148175907B9F7EB2F5F
:1048A00041E250E04C0F5D1F4A0F511DDA011C928E
:1048B000EE23B9F0A22FB0E0A255BC4FCE01019675
:1048C000AC014F5F5F4F2FEF2E0F240F352F311D9F
:1048D0005E2F4D91FC014193CF01E217F307C9F719
:1048E000E52F21E030E02C0F3D1F2E0F311DF90187
:1048F0001082CE0101960E947F366C01990FEE085E
:10490000FF0883E194E00E946F1583E194E00E9428
:104910006F156AE771E183E194E00E9421096EEA74
:1049200073E083E194E00E949F1583E194E00E948C
:104930006F1583E194E00E945B0A60E771E183E117
:1049400094E00E942109BE016F5D7F4F83E194E0F6
:104950000E949F1583E194E00E946F1568E671E163
:1049600083E194E00E9421092AE030E0B701A6012A
:1049700083E194E00E94111511E083E194E00E942C
:104980005B0A6EED71E0CE0181960E940C3A892B94
:1049900049F063EE71E0CE0181960E940C3A892BBA
:1049A00009F054C183E194E00E946F1583E194E023
:1049B0000E946F1583E194E00E945B0A60E271E15E
:1049C00083E194E00E948D1568EF70E183E194E04B
:1049D0000E948D1564ED70E183E194E00E948D15D5
:1049E00083E194E00E945B0A66EA70E183E194E06F
:1049F0000E948D1564E870E183E194E00E948D15BA
:104A00006BE570E183E194E00E948D1583E194E011
:104A10000E945B0A6DE370E183E194E00E948D15D2
:104A20006FE070E183E194E00E948D1560EF7FE01C
:104A300083E194E00E948D1583E194E00E945B0A7B
:104A400068EC7FE083E194E00E948D1566E97FE0E9
:104A500083E194E00E948D1567E77FE083E194E0B5
:104A60000E948D1583E194E00E945B0A64E47FE07C
:104A700083E194E00E948D1561E27FE083E194E0A0
:104A80000E948D1569ED7EE083E194E00E948D1512
:104A900083E194E00E945B0A65EA7EE083E194E0B2
:104AA0000E948D1562E87EE083E194E00E948D15FE
:104AB0006BE37EE083E194E00E948D1583E194E056
:104AC0000E945B0A65E07EE083E194E00E948D1520
:104AD00060EE7DE083E194E00E948D1561EC7DE065
:104AE00083E194E00E948D1583E194E00E945B0ACB
:104AF00062EA7DE083E194E00E948D1561E77DE04C
:104B000083E194E00E948D156BE47DE083E194E005
:104B10000E948D1583E194E00E945B0A63E27DE0D0
:104B200083E194E00E948D1562E07DE083E194E0F2
:104B30000E948D1565EE7CE083E194E00E948D1566
:104B400083E194E00E945B0A68EA7CE083E194E000
:104B50000E948D1561E87CE083E194E00E948D1550
:104B600063E47CE083E194E00E948D1583E194E0AE
:104B70000E945B0A6CE17CE083E194E00E948D1569
:104B800083E194E00E946F156DED7BE083E194E09A
:104B90000E948D1565E97BE083E194E00E94210984
:104BA00083E194E00E945B0A83E194E00E945B0A47
:104BB000A2CAE42F442399F0AEEAB3E09E012F5D30
:104BC0003F4F8FEF8E0F90E081559C4F5E2F4D91A0
:104BD000F90141939F01A817B907C9F7E52F21E211
:104BE00030E02C0F3D1F2E0F311DF901108283E1A3
:104BF00094E00E946F1583E194E00E946F156AE7CC
:104C000071E183E194E00E9421096EEA73E083E19F
:104C100094E00E949F1583E194E00E946F1583E168
:104C200094E00E945B0A60E771E183E194E00E94F6
:104C30002109BE016F5D7F4F83E194E00E949F15C3
:104C4000C12CD12CE12CF12C10E097CE68EE71E054
:104C5000CE0181960E940C3A892B41F060EF71E001
:104C6000CE0181960E940C3A892B59F483E194E09D
:104C70000E946F1565E67BE083E194E00E942109C4
:104C8000FFCF68EF71E0CE0181960E940C3A892B2C
:104C900049F06DEF71E0CE0181960E940C3A892BAC
:104CA00009F007C483E194E00E946F1583E194E06A
:104CB0000E946F1583E194E00E945B0A67E37BE04A
:104CC00083E194E00E948D156EE17BE083E194E046
:104CD0000E94210983E194E00E945B0A0AEA13E042
:104CE000D8018D918D01803108F47CC340E150E002
:104CF000F8013197608183E194E00E94201565EA14
:104D000072E083E194E00E949F15B3E00D3A1B0727
:104D100039F783E194E00E945B0AEAEAF3E08081DC
:104D20008E3109F066C38091AB03853909F061C308
:104D30008091AC038F3009F05CC361E17BE083E1DB
:104D400094E00E948D156DED7AE083E194E00E947D
:104D50002109A8EAB3E06C918091A903762F682F0E
:104D600090E080E00E94303820E030E048EC52E4EF
:104D70000E948837AB01BC0122E030E083E194E07F
:104D80000E94B51583E194E00E946F1583E194E0E1
:104D90000E945B0AF2012481658170E090E080E06E
:104DA000CB0177276627922B2781622B2681722BD6
:104DB0000E948C0C64EC7AE083E194E00E9421096B
:104DC0000E94540E4AE050E0BC0183E194E00E944E
:104DD000281562EC7AE083E194E00E94210983E1E6
:104DE00094E00E945B0A0E945E0E0A9734F460EC25
:104DF0007AE083E194E00E9421090E945E0E4AE07D
:104E000050E0BC0183E194E00E9428156EEB7AE04B
:104E100083E194E00E94210983E194E00E945B0A0F
:104E20000E94660E0A9734F46CEB7AE083E194E01A
:104E30000E9421090E94660E4AE050E0BC0183E115
:104E400094E00E9428156AEB7AE083E194E00E94E6
:104E5000210983E194E00E945B0A0E947E0E0A977A
:104E600034F468EB7AE083E194E00E9421090E9427
:104E70007E0E4AE050E0BC0183E194E00E942815D8
:104E800066EB7AE083E194E00E94210983E194E0FB
:104E90000E945B0A0E94760E0A9734F464EB7AE073
:104EA00083E194E00E9421090E94760E4AE050E0DE
:104EB000BC0183E194E00E94281562EB7AE083E173
:104EC00094E00E94210983E194E00E945B0A0E9421
:104ED0006E0E0A9734F460EB7AE083E194E00E946E
:104EE00021090E946E0E4AE050E0BC0183E194E08B
:104EF0000E947B15D10114962C91149715966C91F4
:104F0000159770E090E080E0CB0177276627922B21
:104F100017962C911797622B16962C91722B0E9444
:104F20008C0C67E97AE083E194E00E9421090E94F9
:104F3000540E4AE050E0BC0183E194E00E94281541
:104F400065E97AE083E194E00E94210983E194E03D
:104F50000E945B0A0E945E0E0A9734F463E97AE0CD
:104F600083E194E00E9421090E945E0E4AE050E035
:104F7000BC0183E194E00E94281561E97AE083E1B5
:104F800094E00E94210983E194E00E945B0A0E9460
:104F9000660E0A9734F46FE87AE083E194E00E94A9
:104FA00021090E94660E4AE050E0BC0183E194E0D2
:104FB0000E9428156DE87AE083E194E00E942109BF
:104FC00083E194E00E945B0A0E947E0E0A9734F40B
:104FD0006BE87AE083E194E00E9421090E947E0E52
:104FE0004AE050E0BC0183E194E00E94281569E8A2
:104FF0007AE083E194E00E94210983E194E00E9439
:105000005B0A0E94760E0A9734F467E87AE083E13F
:1050100094E00E9421090E94760E4AE050E0BC0113
:1050200083E194E00E94281565E87AE083E194E04A
:105030000E94210983E194E00E945B0A0E946E0EA7
:105040000A9734F463E87AE083E194E00E9421094E
:105050000E946E0E4AE050E0BC0183E194E00E94A1
:105060007B1561E47AEE8EE790E60E948C0C6AE68E
:105070007AE083E194E00E9421090E94540E4AE004
:1050800050E0BC0183E194E00E94281568E67AE0D4
:1050900083E194E00E94210983E194E00E945B0A8D
:1050A0000E945E0E0A9734F466E67AE083E194E0AB
:1050B0000E9421090E945E0E4AE050E0BC0183E19B
:1050C00094E00E94281564E67AE083E194E00E946F
:1050D000210983E194E00E945B0A0E94660E0A9710
:1050E00034F462E67AE083E194E00E9421090E94B0
:1050F000660E4AE050E0BC0183E194E00E9428156E
:1051000060E67AE083E194E00E94210983E194E083
:105110000E945B0A0E947E0E0A9734F46EE57AE0E4
:1051200083E194E00E9421090E947E0E4AE050E053
:10513000BC0183E194E00E9428156CE57AE083E1EC
:1051400094E00E94210983E194E00E945B0A0E949E
:10515000760E0A9734F46AE57AE083E194E00E94DF
:1051600021090E94760E4AE050E0BC0183E194E000
:105170000E94281568E57AE083E194E00E94210905
:1051800083E194E00E945B0A0E946E0E0A9734F459
:1051900066E57AE083E194E00E9421090E946E0EA8
:1051A0004AE050E0BC0183E194E00E947B158091CD
:1051B0000005882309F424C166E37AE083E194E0E2
:1051C0000E948D1583E194E00E945B0A80917B012F
:1051D000882309F42CC180910005811128C16091B8
:1051E000FF0470E090E080E00E94323820E030E080
:1051F00040E85FE30E94173720E030E048EC52E4DB
:105200000E94373920E030E040E85BE30E94373904
:105210006B017C0120E030E0A9010E94E238882384
:105220000CF4F9C020E030E040E05FE3C701B601D4
:105230000E9417370E94FA37162F67EF79E083E153
:1052400094E00E9421094AE050E0612F83E194E05C
:105250000E94201565EF79E083E194E00E948D15AE
:1052600083E194E00E945B0A83E194E00E945B0A80
:1052700060EC79E083E194E00E94210960910505EA
:1052800070910605809107059091080520E63AEE99
:1052900040E050E00E94E536BA01A9012AE030E082
:1052A00083E194E00E94111565EB79E083E194E0DD
:1052B0000E948D1583E194E00E945B0A6CE979E01D
:1052C00083E194E00E94210960910105709102053B
:1052D000809103059091040520E63AEE40E050E00D
:1052E0000E94E536BA01A9012AE030E083E194E0AA
:1052F0000E94111561E979E083E194E00E948D1527
:1053000083E194E00E945B0A68E779E083E194E03E
:105310000E9421098091CD04837009F08FC063E75A
:1053200079E083E194E00E948D1583E194E00E948E
:105330005B0A6EE279E083E194E00E9421098091AA
:10534000C4048770813009F09BC066E279E083E194
:1053500094E00E948D1583E194E00E945B0A67EF60
:1053600078E083E194E00E94210940917601509118
:10537000770170E060E02AE030E083E194E00E9491
:10538000111564EF78E083E194E00E948D1583E1CC
:1053900094E00E945B0A6BED78E083E194E00E9468
:1053A0002109409174015091750170E060E02AE09C
:1053B00030E083E194E00E94111567ED78E083E12D
:1053C00094E00E948D1583E194E00E945B0A69EAF3
:1053D00078E083E194E00E94210983E194E00E9457
:1053E0005B0AE2CB66ED71E083E194E00E949F15D9
:1053F0007DCC67EF7AE083E194E00E948D15A3CC29
:1054000065E17AE083E194E00E948D1583E194E008
:105410000E945B0AD7CE20E030E040E05FE3C701A6
:10542000B6010E9416370E94FA37162F06CF69ED93
:1054300079E083E194E00E948D1516CF813039F434
:105440006AE679E083E194E00E948D156ECF8230A8
:1054500039F461E679E083E194E00E948D1565CF2F
:10546000833039F46BE479E083E194E00E948D1598
:105470005CCF67E479E083E194E00E948D1555CF1D
:10548000823039F46BE179E083E194E00E948D157C
:1054900062CF843039F464E179E083E194E00E94E2
:1054A0008D1559CF60E179E083E194E00E948D157C
:1054B00052CF62E072E0CE0181960E940C3A892BB5
:1054C00049F06EE072E0CE0181960E940C3A892B81
:1054D00009F046C0111110C083E194E00E946F15DD
:1054E0006AE978E083E194E00E94210983E194E095
:1054F0000E945B0A0C947B20C114D104E104F104E6
:1055000089F41092000583E194E00E946F1564E530
:1055100078E083E194E00E94210983E194E00E9415
:105520005B0A42CBCA94CD28CE28CF2871F481E003
:105530008093000583E194E00E946F1562E178E0BA
:1055400083E194E00E942109E8CF83E194E00E9486
:105550006F156BEF77E083E194E00E942109DDCFC6
:105560006AE172E0CE0181960E940C3A892B49F0E3
:1055700061E272E0CE0181960E940C3A892B09F01B
:1055800046C0111110C083E194E00E946F156CEECB
:1055900077E083E194E00E94210983E194E00E9496
:1055A0005B0A0C947B20C114D104E104F10489F45A
:1055B00010927A0183E194E00E946F1563EC77E02A
:1055C00083E194E00E94210983E194E00E945B0A58
:1055D000EBCACA94CD28CE28CF2871F481E08093FD
:1055E0007A0183E194E00E946F156CE977E083E132
:1055F00094E00E942109E8CF83E194E00E946F15B6
:1056000065E877E083E194E00E942109DDCF68E25C
:1056100072E0CE0181960E940C3A892B49F062E338
:1056200072E0CE0181960E940C3A892B09F0ABC042
:10563000111110C083E194E00E946F1566E777E0D6
:1056400083E194E00E94210983E194E00E945B0AD7
:105650000C947B20F5E6CF16D104E104F10408F0A8
:1056600041C083E194E00E946F156CE377E083E131
:1056700094E00E942109C114D104E104F10479F1FC
:105680009E2D8D2D7C2D662724E630E040E050E0F5
:105690000E94E5368FEF820F8093E4030E94881406
:1056A0000E94C41283E194E00E946F1567E177E0E5
:1056B00083E194E00E9421092AE030E0B701A601CD
:1056C00083E194E00E94111564E177E083E194E0C6
:1056D0000E94210983E194E00E945B0A65CA10924E
:1056E000E403DCCF6091FF0470E090E080E00E9472
:1056F000323820E030E040E85FE30E94173720E0D6
:1057000030E048EC52E40E94373920E030E040E8D5
:105710005BE30E9437396B017C0120E030E0A90196
:105720000E94E23888231CF120E030E040E05FE393
:10573000C701B6010E9417370E94FA37162F83E17E
:1057400094E00E946F1560EE76E083E194E00E94A1
:1057500021094AE050E0612F83E194E00E94201586
:105760006DED76E083E194E00E942109B3CF20E063
:1057700030E040E05FE3C701B6010E9416370E94A7
:10578000FA37162FDCCF6CE372E0CE0181960E94CF
:105790000C3A892B49F063E472E0CE0181960E94B5
:1057A0000C3A892B09F052C0111110C083E194E02A
:1057B0000E946F156EEC76E083E194E00E9421096F
:1057C00083E194E00E945B0A0C947B202FE9C216CF
:1057D00027E1D20621E0E206F10468F5A0E6BAEE80
:1057E000A70196010E94DA36E2EDF3E0938B848BF9
:1057F000758B668B0E9488140E94C41283E194E02A
:105800000E946F1567EA76E083E194E00E94210927
:105810002AE030E0B701A60183E194E00E9411156F
:105820006BE976E083E194E00E94210983E194E052
:105830000E945B0AB9C983E194E00E946F1560E59C
:1058400076E083E194E00E942109F0CF6AE472E0FF
:10585000CE0181960E940C3A892B49F062E572E0F4
:10586000CE0181960E940C3A892B09F052C0111189
:1058700010C083E194E00E946F1561E476E083E15B
:1058800094E00E94210983E194E00E945B0A0C9459
:105890007B203FE9C31637E1D30631E0E306F1048C
:1058A00068F5A0E6BAEEA70196010E94DA36E2EDAD
:1058B000F3E0978B808F718F628F0E9488140E9413
:1058C000C41283E194E00E946F1569E176E083E100
:1058D00094E00E9421092AE030E0B701A60183E1AB
:1058E00094E00E9411156DE076E083E194E00E945F
:1058F000210983E194E00E945B0A56C983E194E0A8
:105900000E946F1561EC75E083E194E00E9421092B
:10591000F0CF6AE572E0CE0181960E940C3A892BA5
:1059200049F066E672E0CE0181960E940C3A892B1E
:1059300009F071C0111110C083E194E00E946F154D
:1059400062EB75E083E194E00E94210983E194E039
:105950000E945B0A0C947B2044E0C416D104E1044D
:10596000F10408F04DC0C092ED030E9488140E941B
:10597000C412C114D104E104F10479F483E194E088
:105980000E946F1569E775E083E194E00E942109A8
:1059900083E194E00E945B0A07C951E0C516D10477
:1059A000E104F10459F483E194E00E946F1560E38F
:1059B00075E083E194E00E942109EACF62E0C61617
:1059C000D104E104F10459F483E194E00E946F15DD
:1059D00067EE74E083E194E00E942109D9CF83E06F
:1059E000C816D104E104F10499F683E194E00E9421
:1059F0006F1560E974E083E194E00E942109C8CF4B
:105A000083E194E00E946F1569E774E083E194E01C
:105A10000E942109BDCF62E772E0CE0181960E940B
:105A20000C3A892B49F06BE772E0CE0181960E9417
:105A30000C3A892B09F070C0111110C083E194E079
:105A40000E946F156AE674E083E194E00E942109E8
:105A500083E194E00E945B0A0C947B20D701C6018D
:105A600087709927AA27BB27AC01BD014150510976
:105A700061097109443051056105710508F041C0A3
:105A80000397A105B105E9F1C092EE030E948814C5
:105A90000E94C41291E0C916D104E104F10479F422
:105AA00083E194E00E946F1561E474E083E194E087
:105AB0000E94210983E194E00E945B0A75C8A2E07C
:105AC000CA16D104E104F10459F483E194E00E9480
:105AD0006F1565E174E083E194E00E942109EACF4B
