:100000000C941C010C949D030C9476030C944401F5
:100010000C9444010C9444010C9444010C9444014C
:100020000C9444010C9444010C9444010C9444013C
:100030000C9444010C944A050C9444010C94440122
:100040000C9425100C9444010C94EA030C94C40302
:100050000C9444010C9444010C9444010C9444010C
:100060000C941C040C94440108000000BE92244926
:10007000123EABAAAA2ABECDCCCC4C3E00000080DA
:10008000BEABAAAAAA3E00000000BF000000803F4D
:100090000000000000084178D3BB4387D1133D190D
:1000A0000E3CC3BD4282AD2B3E68EC8276BED98F3A
:1000B000E1A93E4C80EFFFBE01C4FF7F3F0000007E
:1000C00000002D2D2D2D2D002D2D2D2D002D2D2D14
:1000D0002D002D2D2D2D2D002D2D2D2D002D2D2DD7
:1000E0002D002D2D2D2D2D2D2D2D2D2D2D2D2D2D6D
:1000F0002D2D2D2D2D2D0020202020544F574552E1
:100100002047415244454E2020202000204D4F449E
:10011000554C415220485944524F504F4E4943206C
:10012000002D2D2D2D2D2D2D2D2D2D2D2D2D2D2D2C
:100130002D2D2D2D2D002D2D2D2D70726F6772659B
:100140007373206261722D2D2D2D0054696D6572BF
:100150003A202D2D3A2D2D3A2D2D206C65667400F8
:1001600054653A2D2D2D2D2D2D202054693A2D2DFD
:100170002D2D2D2D0057617465722070756D703AAC
:10018000202D2D2D2D2D2D2D2D007365727669635B
:1001900065206D6F646521002D2D3A2D2D3A2D2D92
:1001A0000039393A35393A3539206C6566740020A2
:1001B0006C6566740054653A2D2D2D2D2D2D202053
:1001C00054693A2D2D2D2D2D2D006F66662020208F
:1001D0002020006F6666202020202000313030254E
:1001E000006F6E20400000000008000201000003C4
:1001F00004070000000000000000000000002500CF
:1002000028002B0000000000240027002A0004041E
:1002100004040404040402020202020203030303AE
:10022000030301020408102040800102040810208A
:10023000010204081020151A11241FBECFEFD8E0C8
:10024000DEBFCDBF11E0A0E0B1E0ECECFBE302C00B
:1002500005900D92A83EB107D9F724E0A8EEB1E0D1
:1002600001C01D92A332B207E1F711E0CCE1D1E069
:1002700004C02197FE010E94D91DCB31D107C9F7D7
:100280000E946F100C94E41D0C9400000895CF920E
:10029000DF92EF92FF920F931F93CF93DF936C0146
:1002A0007A018B01C0E0D0E0CE15DF0581F0D801E6
:1002B0006D918D01D601ED91FC910190F081E02DC1
:1002C000C6010995892B11F02196EECF7E01C70159
:1002D000DF91CF911F910F91FF90EF90DF90CF9022
:1002E0000895FC01538D448D252F30E0842F90E03C
:1002F000821B930B541710F0CF9608950197089521
:10030000FC01918D828D981761F0828DDF01A80F1D
:10031000B11D5D968C91928D9F5F9F73928F90E03F
:1003200008958FEF9FEF0895FC01918D828D9817AE
:1003300031F0828DE80FF11D858D90E008958FEFEB
:100340009FEF0895FC01918D228D892F90E0805CB4
:100350009F4F821B91098F739927089588E593E039
:100360000E94A20121E0892B09F420E0822F089548
:10037000FC01848DDF01A80FB11DA35ABF4F2C9142
:10038000848D90E001968F739927848FA689B78911
:100390002C93A089B1898C91837080648C93938D08
:1003A000848D981306C00288F389E02D80818F7DAB
:1003B00080830895EF92FF920F931F93CF93DF9363
:1003C000EC0181E0888F9B8D8C8D981305C0E889A6
:1003D000F989808185FD26C0F62E0B8D10E00F5F18
:1003E0001F4F0F731127E02E8C8DE8120CC00FB633
:1003F00007FCFACFE889F989808185FFF5CFCE0126
:100400000E94B801F1CF8B8DFE01E80FF11DE35A78
:10041000FF4FF0829FB7F8940B8FEA89FB898081A8
:1004200080620AC09FB7F894EE89FF896083E889EB
:10043000F98980818370806480839FBF81E090E030
:10044000DF91CF911F910F91FF90EF900895CF937F
:10045000DF93EC01888D8823C9F0EA89FB898081CC
:1004600085FD05C0A889B9898C9186FD0FC00FB69E
:1004700007FCF5CF808185FFF2CFA889B9898C91DF
:1004800085FFEDCFCE010E94B801E7CFDF91CF917C
:10049000089580E090E0892B29F00E94AE0181113F
:1004A0000C940000089585ED8093BC008091BC0001
:1004B00084FDFCCF10923303089540912D02262F26
:1004C00030E0240F311D21323105DCF4209133035B
:1004D0002430C9F4FC0180E090E0861758F4309194
:1004E0002D022191DC01A55FBD4FA30FB11D2C93FF
:1004F0000196F3CF80912D02680F60932D0280E06A
:10050000089581E0089582E008950895089508957A
:10051000E0910A0280910902E81730F4F0E0E75117
:10052000FE4F808190E008958FEF9FEF08959091A6
:100530000A0280910902981750F4E92FF0E0E75180
:10054000FE4F208130E09F5F90930A0202C02FEFA0
:100550003FEFC90108958091090290E020910A02BD
:10056000821B91090895CF92DF92EF92FF920F9331
:100570001F93CF93DF937C01CB018A012091340339
:10058000222389F0EB016B01C40ED51ECC15DD05CD
:1005900069F06991D701ED91FC910190F081E02D16
:1005A000C7010995F3CF642F0E945D02C801DF9156
:1005B000CF911F910F91FF90EF90DF90CF90089512
:1005C000CF93DF931F92CDB7DEB7698320913403B9
:1005D0002223D1F020915703203240F021E030E077
:1005E000FC013383228380E090E015C080913503C5
:1005F000E82FF0E0EA5CFC4F998190838F5F809355
:1006000035038093570305C061E0CE0101960E9437
:100610005D0281E090E00F90DF91CF910895089501
:1006200021E001C0220F6A95EAF7DC011C962C93A9
:100630001C971A965C934E931997ED91FC91048444
:10064000F585E02D60E00994DC01ED91FC910684D4
:10065000F785E02D41E0099581E090E00895089547
:100660000895089580E090E00895F89481E08093E3
:10067000B602789408950E94DF1D0F931F93CF93C5
:10068000DF93062F0F70423019F440E0602F0EC048
:10069000142FEC0170E084E0759567958A95E1F779
:1006A000CE010E944B0F412F602FCE01DF91CF91E1
:1006B0001F910F910C944B0FFC0184858823A9F0A6
:1006C000218532852115310519F4611106C007C055
:1006D0002130310521F4611102C0858701C01586E2
:1006E0006585CF010E960C944B0E08951F920F92C4
:1006F0000FB60F9211242F933F934F935F936F93F5
:100700007F938F939F93AF93BF93EF93FF93E0916A
:100710000401F09105010995FF91EF91BF91AF910F
:100720009F918F917F916F915F914F913F912F9109
:100730000F900FBE0F901F9018951F920F920FB63B
:100740000F9211242F933F934F935F936F937F9357
:100750008F939F93AF93BF93EF93FF93E091020129
:10076000F09103010995FF91EF91BF91AF919F9196
:100770008F917F916F915F914F913F912F910F904A
:100780000FBE0F901F9018951F920F920FB60F92E9
:1007900011242F933F934F935F936F937F938F9386
:1007A0009F93AF93BF93EF93FF9388E593E00E94ED
:1007B000B801FF91EF91BF91AF919F918F917F9180
:1007C0006F915F914F913F912F910F900FBE0F90BE
:1007D0001F9018951F920F920FB60F9211242F930E
:1007E0008F939F93EF93FF93E0916803F0916903D8
:1007F0008081E0916E03F0916F0382FD12C09081C1
:10080000809171038F5F8F7320917203821751F073
:10081000E0917103F0E0E85AFC4F958F80937103EB
:1008200001C08081FF91EF919F918F912F910F9047
:100830000FBE0F901F9018951F920F920FB60F9238
:1008400011242F933F934F935F936F937F938F93D5
:100850009F93AF93BF93EF93FF938091B900887FED
:10086000803609F49CC068F5883209F45BC090F4C6
:10087000803109F454C038F4882309F4F6C0883074
:1008800009F44DC0F6C0883109F44CC0803209F437
:100890005DC0EFC0803409F468C048F4803309F4C7
:1008A00055C0883309F0E5C080933103D8C0803546
:1008B00009F44FC0883509F45DC0883409F0D9C007
:1008C000D6C0883909F4C7C0A8F4883709F467C0CE
:1008D00038F4883609F463C0803709F460C0C9C0B1
:1008E000883809F4B8C0803909F45FC0803809F04D
:1008F000C0C05BC0803B09F486C038F4803A09F47C
:1009000066C0883A09F47FC0B4C0803C09F4A7C02F
:10091000883C09F4A4C0883B09F48AC0AAC080912D
:100920000E0310C09091300380912F03981770F53B
:10093000E091300381E08E0F80933003F0E0E15FBF
:10094000FC4F80818093BB0085EC86C0809331038F
:100950008EC0E091300381E08E0F80933003809150
:10096000BB00F0E0E15FFC4F808390913003809109
:100970002F036EC0E091300381E08E0F809330032F
:100980008091BB00F0E0E15FFC4F808380913203F7
:1009900081116DC081E080930D0384EA61C083E022
:1009A0008093330310925102CFCF80915102803255
:1009B00008F051C0E091510281E08E0F8093510206
:1009C0008091BB00F0E0EF5CFD4F8083BDCF85ECF4
:1009D0008093BC001092330380915102803230F436
:1009E000E0915102F0E0EF5CFD4F10826091510206
:1009F00070E0E0912F02F091300281E392E00995DE
:100A00001092510236C084E08093330310922E027C
:100A100010922D02E0912B02F0912C020995809109
:100A20002D02811105C081E080932D0210920B02EE
:100A3000E0912E0281E08E0F80932E02F0E0E55FC0
:100A4000FD4F80818093BB0090912E0280912D02FA
:100A5000981708F479CF85E88093BC000AC085EC2C
:100A60008093BC001092330304C0109231030E94A3
:100A70005302FF91EF91BF91AF919F918F917F9121
:100A80006F915F914F913F912F910F900FBE0F90FB
:100A90001F9018951F920F920FB60F9211240F906E
:100AA0000FBE0F901F901895DC01ED91FC9106840C
:100AB000F785E02D40E00994DC01ED91FC91048480
:100AC000F585E02D6FEF099461E00E9454058BE3FA
:100AD0009FE10197F1F708950F931F93CF93DF9351
:100AE000EC01423018F08C8188608C834F836887DA
:100AF000222329F0413019F48C8184608C8364E6D0
:100B000070E080E090E00E94DF0F6C8164FD31C0F6
:100B1000E881F9810684F785E02D42E063E0CE01AB
:100B200009958BE496E40197F1F7E881F981068451
:100B3000F785E02D42E063E0CE01099503E512E080
:100B4000C8010197F1F7E881F9810684F785E02D66
:100B500042E063E0CE010995C8010197F1F7E88111
:100B6000F9810684F785E02D42E062E0CE01099527
:100B700017C06062CE010E9454058BE496E4019791
:100B8000F1F76C816062CE010E94540503E512E02A
:100B9000C8010197F1F76C816062CE010E94540593
:100BA000C8010197F1F76C816062CE010E94540583
:100BB0008BEE90E00197F1F784E08D836CE0CE013D
:100BC0000E945405CE010E94640582E08E8366E097
:100BD000CE010E945405CE01DF91CF911F910F915C
:100BE0000C945C05EF92FF920F931F93CF93DF93CA
:100BF000EC01062FF42EE22E8B85888B10920A02D0
:100C00001092090210923503109257031092330389
:100C100011E01093320310920D0361E082E10E9413
:100C20007B0F61E083E10E947B0F8091B9008E7F92
:100C30008093B9008091B9008D7F8093B90088E4DA
:100C40008093B80085E48093BC0085E892E090939F
:100C50002C0280932B0286E892E0909330028093DE
:100C60002F02888910933403809356031092350322
:100C7000109257030E94EF0D91E0811190E0998B43
:100C8000811105C085EF93E00E9497028E878989C4
:100C9000882339F01F861C8260E0CE010E960E94E8
:100CA0004B0E2E2D4F2D602FCE01DF91CF911F9136
:100CB0000F91FF90EF900C946C0560E085E094E05C
:100CC0000E94240386EC91E00C94700E1F93CF9346
:100CD000DF93EC01162F0E948D1A181739F0612F3F
:100CE000CE01DF91CF911F910C94951ADF91CF9196
:100CF0001F910895AF92BF92CF92DF92EF92FF9231
:100D00000F931F93CF93DF93CDB7DEB727970FB61F
:100D1000F894DEBF0FBECDBFEDB6FEB6E0911F0466
:100D2000F09120048E010F5F1F4F309721F4F801DE
:100D3000E352F44004C0D801AE1BBF0BFD01FA839F
:100D4000E983E981FA81D901D896EA17FB07B8F45B
:100D500087E0EBE7F1E0D80101900D928A95E1F789
:100D60006E01B8E0CB0ED11CF80161918F0188E5CE
:100D700093E00E94DA010C151D05B1F754C069011A
:100D8000F6E0CF0ED11CADB7BEB7AC19BD090FB69A
:100D9000F894BEBF0FBEADBF0DB71EB70F5F1F4F9C
:100DA0009DE311969C93F9013296D8011196FC931C
:100DB00011979CEF9C0D12969C9312978068139646
:100DC0008C93139714966C9314972115310551F059
:100DD000FA011596420F531FE417F50719F0819198
:100DE0008D93FACF2B5F3F4FF801319680E0AF0132
:100DF000401B510B4217530718F49191890FF7CFFD
:100E0000F801E20FF31F80835801C501801B910B8D
:100E10008C159D0540F4F50161915F0188E593E033
:100E20000E94DA01F2CF0FB6F894FEBE0FBEEDBEFF
:100E30000FB6F894FEBE0FBEEDBE27960FB6F8941F
:100E4000DEBF0FBECDBFDF91CF911F910F91FF90FD
:100E5000EF90DF90CF90BF90AF9008950F931F93C6
:100E6000CF93DF93CDB7DEB72E970FB6F894DEBFE2
:100E70000FBECDBF0091D9021091DA022091DB02A2
:100E80003091DC028091DD029091DE02A091DF02C0
:100E9000B091E002800F911FA21FB31F4091E102A9
:100EA0005091E2026091E3027091E402841B950B81
:100EB000A60BB70B8093B1029093B202A093B3023A
:100EC000B093B4025091D002511108C0012B022BF3
:100ED000032B21F04B2F3A2F292F04C080E020E074
:100EE00030E040E0198290917801992311F091E06F
:100EF00099839981552311F0926001C09D7F998358
:100F00009091CF029A834B833C832D838E83809173
:100F1000B50280FF0DC09091A8029F839091A90215
:100F200098879091AA0299879091AB029A8704C002
:100F30001F82188619861A8681FF0DC08091AC0227
:100F40008B878091AD028C878091AE028D878091D6
:100F5000AF028E8704C01B861C861D861E862EE06F
:100F600030E0AE014F5F5F4F60E082E00E947A06A2
:100F70002E960FB6F894DEBF0FBECDBFDF91CF9196
:100F80001F910F910895CF92DF92EF92FF9280917F
:100F9000B002823009F485C0843009F401C1813087
:100FA00009F04BC161E08EE00E947A0DC090BB0257
:100FB000D090BC02E090BD02F090BE0220E030E094
:100FC00040E251ECC701B6010E946B1B181654F4A5
:100FD00020E030E048EC52E4C701B6010E94CA1C90
:100FE00087FD0FC08BEC91E00E94700E6091BB02F8
:100FF0007091BC028091BD029091BE0242E050E02F
:1010000017C020E030E040E251ECC701B6010E9479
:10101000CA1C181684F420E030E0A901C701B6010B
:101020000E946B1B87FF07C041E050E0C701B6017B
:101030000E94720E2EC020E030E0A901C701B60167
:101040000E94CA1C87FD0DC020E030E040E251E460
:10105000C701B6010E946B1B87FF03C042E050E04E
:10106000E5CF20E030E040E251E4C701B6010E9444
:10107000CA1C87FD0AC020E030E048EC52E4C701FA
:10108000B6010E946B1B87FDCFCF8DED90E00E94D3
:101090005F0D60E085E094E00E94240386EC91E01F
:1010A000C6C061E08EE00E947A0DC090BF02D09071
:1010B000C002E090C102F090C20220E030E040E2C5
:1010C00051ECC701B6010E946B1B181654F420E0C6
:1010D00030E048EC52E4C701B6010E94CA1C87FD0B
:1010E0000FC08BEC91E00E94700E6091BF02709176
:1010F000C0028091C1029091C20242E050E017C04C
:1011000020E030E040E251ECC701B6010E94CA1C69
:10111000181684F420E030E0A901C701B6010E944E
:101120006B1B87FF07C041E050E0C701B6010E947A
:10113000720E2EC020E030E0A901C701B6010E9466
:10114000CA1C87FD0DC020E030E040E251E4C70139
:10115000B6010E946B1B87FF03C042E050E0E5CF61
:1011600020E030E040E251E4C701B6010E94CA1C11
:1011700087FD0AC020E030E048EC52E4C701B60128
:101180000E946B1B87FDCFCF88ED90E00E945F0D22
:1011900060E085E094E00E94240388EC91E047C081
:1011A00061E08EE00E947A0DC090B702D090B80244
:1011B000E090B902F090BA0220E030E040E251E461
:1011C000C701B6010E946B1B87FF03C043E050E0DC
:1011D00016C020E030E040E251E4C701B6010E94B1
:1011E000CA1C87FD11C020E030E048EC52E4C70182
:1011F000B6010E946B1B87FF07C042E050E0C701A9
:10120000B6010E94720E11C020E030E048EC52E4BA
:10121000C701B6010E94CA1C87FD03C041E050E02F
:10122000EECF82ED90E00E945F0D85ED91E0FF90A2
:10123000EF90DF90CF900C94700EFF90EF90DF90C6
:10124000CF900895CF92DF92EF92FF928091B002FB
:10125000823009F485C0843009F401C1813009F07D
:101260004BC161E083E00E947A0DC090C702D0902C
:10127000C802E090C902F090CA0220E030E040E2EB
:1012800051ECC701B6010E946B1B181654F420E004
:1012900030E048EC52E4C701B6010E94CA1C87FD49
:1012A0000FC08BEC91E00E94700E6091C7027091AC
:1012B000C8028091C9029091CA0242E050E017C072
:1012C00020E030E040E251ECC701B6010E94CA1CA8
:1012D000181684F420E030E0A901C701B6010E948D
:1012E0006B1B87FF07C041E050E0C701B6010E94B9
:1012F000720E2EC020E030E0A901C701B6010E94A5
:10130000CA1C87FD0DC020E030E040E251E4C70177
:10131000B6010E946B1B87FF03C042E050E0E5CF9F
:1013200020E030E040E251E4C701B6010E94CA1C4F
:1013300087FD0AC020E030E048EC52E4C701B60166
:101340000E946B1B87FDCFCF8DEC90E00E945F0D5C
:1013500060E085E094E00E94240386EC91E0C6C042
:1013600061E083E00E947A0DC090CB02D090CC0265
:10137000E090CD02F090CE0220E030E040E251EC6F
:10138000C701B6010E946B1B181654F420E030E030
:1013900048EC52E4C701B6010E94CA1C87FD0FC089
:1013A0008BEC91E00E94700E6091CB027091CC02A8
:1013B0008091CD029091CE0242E050E017C020E033
:1013C00030E040E251ECC701B6010E94CA1C181679
:1013D00084F420E030E0A901C701B6010E946B1B34
:1013E00087FF07C041E050E0C701B6010E94720EBE
:1013F0002EC020E030E0A901C701B6010E94CA1C3E
:1014000087FD0DC020E030E040E251E4C701B601A5
:101410000E946B1B87FF03C042E050E0E5CF20E055
:1014200030E040E251E4C701B6010E94CA1C87FDCA
:101430000AC020E030E048EC52E4C701B6010E9447
:101440006B1B87FDCFCF88EC90E00E945F0D60E0C2
:1014500085E094E00E94240388EC91E047C061E0BD
:1014600083E00E947A0DC090C302D090C402E09045
:10147000C502F090C60220E030E040E251E4C7012E
:10148000B6010E946B1B87FF03C043E050E016C00B
:1014900020E030E040E251E4C701B6010E94CA1CDE
:1014A00087FD11C020E030E048EC52E4C701B601EE
:1014B0000E946B1B87FF07C042E050E0C701B601E6
:1014C0000E94720E11C020E030E048EC52E4C701E7
:1014D000B6010E94CA1C87FD03C041E050E0EECF78
:1014E00082EC90E00E945F0D85ED91E0FF90EF901F
:1014F000DF90CF900C94700EFF90EF90DF90CF9024
:101500000895CF92DF92EF92FF929C0140E050E06D
:1015100060E472E48FE090E00E94A31A442755270C
:10152000A0EAB0E00E94C21A6B017C0124E130E025
:1015300040E050E00E94CD1A2115310581E04807B6
:10154000510520F481E0809355020BC082E0809326
:101550005502C701B60120EA30E040E050E00E94A9
:10156000CD1A3093540220935302809153029091EC
:101570005402909387008093860080915502806189
:1015800080938100FF90EF90DF90CF9008958F922D
:101590009F92AF92BF92CF92DF92EF92FF921F93F2
:1015A000CF93DF9390917801911105C09091D00273
:1015B000992309F4A8C0182F811118C089E00E944E
:1015C000400D809180008068809380001092890097
:1015D000109288008091550280618093810061E0C3
:1015E00084E00E947B0F1092E8018DC0C091E80159
:1015F000C81708F040C0D0E0E82EF12C812C912CC7
:1016000054018A94EC16FD0608F477C089E00E9424
:10161000400D80918000806880938000C0905302CC
:10162000D09054029E01AFEFB3E00E94EF1AA501E3
:1016300094010E94A31A44275527D6010E94C21A7A
:10164000DC01CB014AE0B695A795979587954A9519
:10165000D1F7909389008093880080915502806132
:10166000809381006FE070E080E090E00E94DF0FE7
:10167000A8952196C7CF8C1708F03FC0D0E0E82E80
:10168000F12C812C912C54018A94CE15DF05A8F100
:1016900089E00E94400D80918000806880938000E6
:1016A000C0905302D09054029E01AFEFB3E00E946D
:1016B000EF1AA50194010E94A31A44275527D601C9
:1016C0000E94C21ADC01CB012AE0B695A795979536
:1016D00087952A95D1F7909389008093880080910F
:1016E00055028061809381006FE070E080E090E0BF
:1016F0000E94DF0FA8952197C8CF60E084E00E9488
:101700007B0F1093E801DF91CF911F91FF90EF9035
:10171000DF90CF90BF90AF909F908F900895CF9320
:10172000DF938091680280936602809169028093C2
:10173000670280916A0280935E0280916B028093BF
:101740005F0280916C028093600280916D028093B1
:10175000610280916E028093620280916F02809399
:101760006302809170028093640280917102809381
:101770006502809172028093560280917302809379
:101780005702809174028093580280917502809371
:1017900059028091760280935A0280917702809359
:1017A0005B028091780280935C0280917902809341
:1017B0005D0280917A028093CF0260917B027091EA
:1017C0007C0280917D0290917E020E94D21D6093E6
:1017D000D5027093D6028093D7029093D80260917D
:1017E0007F027091800280918102909182020E941A
:1017F000D21D6093D1027093D2028093D302909352
:10180000D402809183028093B502809184028093F8
:10181000B00260918502709186027627672776274D
:1018200070937A016093790180E090E00E94181C27
:101830009B01AC0160E070E080E89FE30E94701BB8
:101840006093010470930204809303049093040452
:10185000C0918702D0918802DC27CD27DC27D09366
:101860000101C0930001CE010E94810A8091D00243
:10187000811186C04091D5025091D6026091D70265
:101880007091D8028091D1029091D202A091D3029E
:10189000B091D402452B462B472B69F40097A10544
:1018A000B10549F41092D9021092DA021092DB02CB
:1018B0001092DC0265C0892B8A2B8B2B79F4109255
:1018C000D9021092DA021092DB021092DC0281E05F
:1018D000809378018091CF020E94C70A8091D5023F
:1018E0009091D602A091D702B091D802892B8A2B71
:1018F0008B2B69F41092D9021092DA021092DB025B
:101900001092DC0280E00E94C70A10927801409198
:10191000D5025091D6026091D7027091D80241153C
:1019200051056105710589F18091D1029091D20232
:10193000A091D302B091D4020097A105B10529F17D
:10194000209178012223A1F04093D9025093DA022A
:101950006093DB027093DC0281E080937801CE011A
:101960000E94810A8091CF02DF91CF910C94C70A27
:101970008093D9029093DA02A093DB02B093DC0249
:1019800080E00E94C70A10927801DF91CF910895FC
:101990003FB7F8948091090390910A03A0910B033B
:1019A000B0910C0326B5A89B05C02F3F19F00196F6
:1019B000A11DB11D3FBFBA2FA92F982F8827820FD5
:1019C000911DA11DB11DBC01CD0142E0660F771F25
:1019D000881F991F4A95D1F70895009769F0FC0177
:1019E00001900020E9F73197AF01481B590BBC016A
:1019F00085E094E00C94470180E090E008958F9298
:101A00009F92AF92BF920F931F93CF93DF93CDB767
:101A1000DEB7A1970FB6F894DEBF0FBECDBF19A2F7
:101A2000423008F44AE08E010F5D1F4F842E912C46
:101A3000A12CB12CA50194010E94CD1AE62FB90169
:101A4000CA0101501109EA3014F4E05D01C0E95CFB
:101A5000D801EC93232B242B252B61F7C8010E947E
:101A6000ED0CA1960FB6F894DEBF0FBECDBFDF918F
:101A7000CF911F910F91BF90AF909F908F9008953D
:101A800090E0FC01EE5DFD4F2491FC01E25FFD4F13
:101A90008491882399F090E0880F991FFC01EC5FF6
:101AA000FD4FA591B491FC01E650FE4F85919491B4
:101AB0008FB7F894EC91E22BEC938FBF08950F93BE
:101AC0001F93CF93DF938C01C0E0D0E0F801EC0FBF
:101AD000FD1F6491662341F085E094E00E94240399
:101AE000892B11F02196F2CFCE01DF91CF911F917A
:101AF0000F9108950F931F93CF93DF93CDB7DEB768
:101B000028970FB6F894DEBF0FBECDBF00918601B7
:101B10001091870120918801309189010D831E83E6
:101B20002F83388700918A0110918B0120918C01BD
:101B300030918D0109831A832B833C8390910C048F
:101B4000691710F06FEF690F40910D04262F30E0F8
:101B5000FE01E20FF31F403121F4943011F4618152
:101B600001C06581680F606885E094E028960FB633
:101B7000F894DEBF0FBECDBFDF91CF911F910F91C3
:101B80000C945405EF92FF920F931F93CF93DF9322
:101B90008B01877098E0899FB0011124606485E013
:101BA00094E00E94540583E790E00197F1F7E80183
:101BB000085F1F4F8BE9E82EF12C699185E094E0D6
:101BC0000E942403C7010197F1F7C017D107A9F7B5
:101BD000DF91CF911F910F91FF90EF900895309179
:101BE0005703313208F04BC0809133038111FCCF91
:101BF0009091560322E02093330321E02093320397
:101C00002FEF209331031092300330932F03E6E33C
:101C1000F3E0AFE0B3E020E0321721F041914D93C3
:101C20002F5FFACF10920E0320910E03990F922B83
:101C300090930E0390910D03913061F410920D0377
:101C400090910E039093BB009091BC0093FDF8CF50
:101C500095EC01C095EE9093BC00909133039230C7
:101C6000E1F3909131039F3F79F08091310380320D
:101C700041F080913103803331F084E005C081E090
:101C800003C082E001C083E0109235031092570335
:101C9000109234030895FC0183818823C1F0962FAC
:101CA0006181609569236083828191E09093340320
:101CB00080935603109235031092570385EF93E0FB
:101CC0000E94E0020E94EF0D282F30E002C020E0C9
:101CD00030E081E090E0232B11F080E090E0089567
:101CE0000C94ED0C8F929F92AF92BF92CF92DF92A5
:101CF000EF92FF920F931F93CF93DF936B017C01C1
:101D0000142F9B01AC010E948C1D882319F08BEDD0
:101D100091E027C046015701E894B7F82FEF3FEF55
:101D20004FE75FE7C501B4010E948C1D81110DC012
:101D30002FEF3FEF4FE75FE7C501B4010E946B1B38
:101D400018161CF48FED91E00CC02FEF3FEF4FE71A
:101D50005FE4C701B6010E94CA1C181684F483EE22
:101D600091E0DF91CF911F910F91FF90EF90DF9065
:101D7000CF90BF90AF909F908F900C94ED0C2FEF71
:101D80003FEF4FE75FECC701B6010E946B1B87FD79
:101D9000E6CF20E030E0A901C701B6010E946B1B2D
:101DA00087FF0BC06DE285E094E00E942403EC0104
:101DB000F7FAF094F7F8F09402C0C0E0D0E000E049
:101DC00060E070E080E09FE3011740F420E030E045
:101DD00040E251E40E94701B0F5FF6CFA70196010D
:101DE0000E94FF1A6B017C010E94E91B4B015C0100
:101DF0004AE00E94FF0CC80FD91F1123B9F1C50199
:101E0000B4010E94181C9B01AC01C701B6010E94DD
:101E1000FE1A6B017C016EE285E094E00E942403CF
:101E2000C80FD91F20E030E040E251E4C701B601FD
:101E30000E941F1D4B015C010E94E91B6B01E12CFC
:101E4000F12C4AE0C701B6010E94FF0CC80FD91F50
:101E5000C701B6010E94181C9B01AC01C501B40169
:101E60000E94FE1A6B017C011150E1F6CE01DF9158
:101E7000CF911F910F91FF90EF90DF90CF90BF9087
:101E8000AF909F908F900895682F70E080E090E071
:101E90004AE00C94FF0CEF92FF920F931F93CF93A5
:101EA0008C01FC0184E0C0E060FF02C09589C92B71
:101EB0006695815031968111F7CF413011F4F801C8
:101EC0004489F8018585C82BC42B7801FEE0EF0E0C
:101ED000F11CF80162896C2BC7010E944B0EF801BE
:101EE000628960956C23C701CF911F910F91FF907C
:101EF000EF900C944B0E90E0FC01EA51FE4F2491C0
:101F0000FC01EE5DFD4F3491FC01E25FFD4FE49179
:101F1000EE2309F43CC0222339F1233091F038F448
:101F20002130A9F0223001F584B58F7D12C0273011
:101F300091F02830A1F02430B9F4809180008F7D99
:101F400003C0809180008F77809380000DC084B59E
:101F50008F7784BD09C08091B0008F7703C08091D6
:101F6000B0008F7D8093B000F0E0EE0FFF1FE650D1
:101F7000FE4FA591B4919FB7F894611104C08C9164
:101F80003095382302C0EC913E2B3C939FBF0895BF
:101F90008E3008F08E508770806480937C00809132
:101FA0007A00806480937A0080917A0086FDFCCF6D
:101FB000809178002091790090E0922B08958F9283
:101FC0009F92AF92BF92CF92DF92EF92FF926B01FE
:101FD0007C010E94C80C4B015C01C114D104E104D6
:101FE000F104F1F00E94C80CDC01CB0188199909B9
:101FF000AA09BB09883E9340A105B10570F321E011
:10200000C21AD108E108F10888EE880E83E0981E14
:10201000A11CB11CC114D104E104F10419F7DDCFF6
:10202000FF90EF90DF90CF90BF90AF909F908F90F8
:1020300008952FB7F894609105037091060380917D
:102040000703909108032FBF08951F920F920FB6B8
:102050000F9211242F933F938F939F93AF93BF932E
:102060008091050390910603A0910703B0910803A6
:1020700030911E0423E0230F2D3720F40196A11D7B
:10208000B11D05C026E8230F0296A11DB11D2093A6
:102090001E048093050390930603A0930703B09357
:1020A00008038091090390910A03A0910B03B0915A
:1020B0000C030196A11DB11D8093090390930A039F
:1020C000A0930B03B0930C03BF91AF919F918F919D
:1020D0003F912F910F900FBE0F901F901895CF93A7
:1020E000DF93CDB7DEB7A4970FB6F894DEBF0FBE6F
:1020F000CDBF789484B5826084BD84B5816084BD91
:1021000085B5826085BD85B5816085BD80916E0095
:10211000816080936E0010928100809181008260C6
:102120008093810080918100816080938100809103
:1021300080008160809380008091B10084608093F2
:10214000B1008091B00081608093B00080917A00EE
:10215000846080937A0080917A00826080937A0014
:1021600080917A00816080937A0080917A00806803
:1021700080937A001092C1007894E0916803F09106
:10218000690382E08083E0916403F091650310822B
:10219000E0916603F091670387E0808310927003FB
:1021A000E0916C03F0916D0386E08083E0916A0317
:1021B000F0916B03808180618083E0916A03F091EC
:1021C0006B03808188608083E0916A03F0916B03E8
:1021D000808180688083E0916A03F0916B03808145
:1021E0008F7D808384E00E94400D61E084E00E9446
:1021F0007B0F89E00E94400D85E393E090930301FB
:1022000080930201809169008C7F826080936900D5
:10221000E89A80E1809381001092800081E08093B1
:10222000550280EC9FE39093540280935302909365
:1022300087008093860081E18093810089E00E947D
:10224000400D80918000806880938000109289000A
:10225000109288008091550280618093810081E214
:10226000E0E0F0E080935700E491E093E502E2E0E3
:10227000F0E080935700E491E093E602E4E0F0E0C0
:102280008093570084918093E70220E044E064E16A
:1022900085E094E00E94F20585E094E00E945C05F0
:1022A00085E094E00E94640562E085E094E00E948D
:1022B00054050BE31FE1C8010197F1F781E291E0BA
:1022C0000E945F0D61E080E00E947A0D8CE091E059
:1022D0000E945F0D62E080E00E947A0D87EF90E03F
:1022E0000E945F0D63E080E00E947A0D82EE90E034
:1022F0000E945F0D6EE271E080E00E94C20D66E216
:1023000071E081E00E94C20D6EE171E082E00E9406
:10231000C20D66E171E083E00E94C20D6EE071E0E3
:1023200084E00E94C20D66E071E085E00E94C20D6B
:1023300060ED77E080E090E00E94DF0F85E094E0C0
:102340000E945C0585E094E00E94640562E085E0FF
:1023500094E00E945405C8010197F1F785E791E0E8
:102360000E945F0D61E080E00E947A0D80E691E0BE
:102370000E945F0D62E080E00E947A0D8BE491E0A4
:102380000E945F0D63E080E00E947A0D86E391E099
:102390000E945F0D98E6E92E92E0F92E00E010E031
:1023A000C8010E948D1AD7018D937D010F5F1F4FC9
:1023B00000341105A9F7E8E6F2E080E09191890F79
:1023C000B2E0E73AFB07D1F79091A702981303C058
:1023D0000E948F0B1EC0E6E3F1E0DF0180E09D91DB
:1023E000890F21E0A537B207D1F780937501A8E6E0
:1023F000B2E081918D9331E0E637F307D1F70E9487
:102400008F0B21E030E046E751E06CEF8FE00E9457
:102410007A0698E288E10FB6F894A8958093600058
:102420000FBE9093600021E030E04CEE52E061E09E
:1024300080E00E947A0633243394AE01405F5F4F00
:102440005C8F4B8F8091820190918301A0918401D8
:10245000B091850189A39AA3ABA3BCA3A89588E5F5
:1024600093E00E94A201181619060CF04EC088E5F0
:1024700093E00E9480018D3309F043C0ADB7BEB731
:10248000BE8FAD8F0E9419104B015C01F12C88E5C5
:1024900093E00E94A20102974CF4FF2009F404C5C6
:1024A00021E030E046E751E066E020C0F110F8CFCF
:1024B00088E593E00E948001482E88E593E00E9421
:1024C0008001582E48A21F8EAF8CB8A0A82A6501A3
:1024D000B2E0CB1AD108EBEFCE16E3E0DE0608F44B
:1024E000F4C421E030E046E751E061E08FE00E9473
:1024F0007A064D8D5E8D0FB6F8945EBF0FBE4DBF50
:1025000004C088E593E00E9480010E9419106B01CD
:102510007C016093E1027093E2028093E302909366
:10252000E4028091DD029091DE02A091DF02B09181
:10253000E00297018601081B190B2A0B3B0B409107
:10254000D9025091DA026091DB027091DC0204172B
:1025500015072607370708F44DC08C159D05AE05F5
:10256000BF0508F047C04091D5025091D602609156
:10257000D7027091D8024115510561057105D1F15D
:102580000091D1021091D2022091D3023091D40255
:10259000011511052105310569F1C092DD02D092C6
:1025A000DE02E092DF02F092E0028091780188235F
:1025B00071F00093D9021093DA022093DB0230937A
:1025C000DC0280E00E94C70A1092780120C030929D
:1025D00078014093D9025093DA026093DB02709342
:1025E000DC028091D002811112C08091CF020E9442
:1025F000C70A0DC0C816D906EA06FB0640F41092B9
:10260000DD021092DE021092DF021092E002809151
:10261000010390910203A0910303B0910403B70159
:10262000A601481B590B6A0B7B0B483E53406105C2
:10263000710508F4B7C3C0920103D0920203E0927F
:102640000303F09204031092F1021092F20210922E
:10265000F3021092F4021092ED021092EE02109228
:10266000EF021092F00204EF11E08EE00E94C80F1A
:102670004C01990FAA08BB088091F1029091F202D7
:10268000A091F302B091F402880E991EAA1EBB1EFF
:102690008092F1029092F202A092F302B092F402C0
:1026A0000150110911F704EF11E08FE00E94C80FEB
:1026B0006C01990FEE08FF088091ED029091EE02F7
:1026C000A091EF02B091F002C80ED91EEA1EFB1EC7
:1026D000C092ED02D092EE02E092EF02F092F00290
:1026E0000150110911F7C501B40124EF31E040E0B8
:1026F00050E00E94CD1A49015A012093F102309313
:10270000F2024093F3025093F402C701B60124EFA2
:1027100031E040E050E00E94CD1A29013A012093B7
:10272000ED023093EE024093EF025093F002C501A8
:10273000B4010E94181C9B01AC0160E070EC8FE7B3
:1027400094E40E94701B20E030E040E85FE30E94C8
:10275000FE1A0E94D71C8090010490900204A09061
:102760000304B0900404A50194010E941F1D2FE0F2
:102770003FEC4BE55BE30E94FF1A9B01AC0160E07C
:1027800070E080E89FE30E94701B6B017C01C30135
:10279000B2010E94181C9B01AC0160E070EC8FE755
:1027A00094E40E94701B20E030E040E85FE30E9468
:1027B000FE1A0E94D71C9B01AC01C501B4010E9406
:1027C0001F1D2FE03FEC4BE55BE30E94FF1A9B01CE
:1027D000AC0160E070E080E89FE30E94701B4B0159
:1027E0005C0120E030E0A901C701B6010E946B1B2B
:1027F000882399F123E333E948E853E4C701B6019C
:102800000E94FE1AC092C302D092C402E092C50296
:10281000F092C6026093C7027093C8028093C90207
:102820009093CA0220E030E040E151E40E941F1D75
:1028300020E030E040EA50E40E94701B20E030E0ED
:1028400040E052E40E94FF1A6093CB027093CC02E6
:102850008093CD029093CE0218C01092C3021092C2
:10286000C4021092C5021092C6021092C7021092C2
:10287000C8021092C9021092CA021092CB021092A2
:10288000CC021092CD021092CE0220E030E0A901DD
:10289000C501B4010E946B1B882399F123E333E93E
:1028A00048E853E4C501B4010E94FE1A8092B702C1
:1028B0009092B802A092B902B092BA026093BB02A1
:1028C0007093BC028093BD029093BE0220E030E082
:1028D00040E151E40E941F1D20E030E040EA50E456
:1028E0000E94701B20E030E040E052E40E94FF1A9A
:1028F0006093BF027093C0028093C1029093C202A2
:1029000018C01092B7021092B8021092B902109239
:10291000BA021092BB021092BC021092BD02109239
:10292000BE021092BF021092C0021092C102109219
:10293000C2028091B002823019F1843091F1E091AD
:10294000C7027091C8026091C9025091CA024091B9
:10295000BB023091BC022091BD029091BE02E09377
:10296000A8027093A9026093AA025093AB0240930D
:10297000AC023093AD022093AE029093AF0231C00F
:102980007091CB026091CC025091CD024091CE0269
:102990003091BF022091C0029091C1028091C20289
:1029A00010C07091C3026091C4025091C502409161
:1029B000C6023091B7022091B8029091B90280917D
:1029C000BA027093A8026093A9025093AA0240939E
:1029D000AB023093AC022093AD029093AE02809391
:1029E000AF0280917701882309F4E9C10E942E0784
:1029F0008091780160E0882309F456C08CE00E9441
:102A00007A0D8091D00281114CC081EE91E00E943C
:102A10005F0D6091CF0270E080E090E00E94181C92
:102A200020E030E040E85FE30E94FF1A20E030E061
:102A300048EC52E40E941F1D20E030E040E85BE3D8
:102A40000E941F1D6B017C0120E030E0A9010E9463
:102A5000CA1C20E030E040E05FE387FD05C0C7010D
:102A6000B6010E94FF1A04C0C701B6010E94FE1AF7
:102A70000E94E21B162F6A3018F48AEC91E004C021
:102A8000643660F48BEC91E00E94700E812F0E94FE
:102A9000440F8DEC91E00E94700E0DC08CED91E022
:102AA00008C083ED91E005C08CE00E947A0D8AECAD
:102AB00091E00E945F0D8091B502882309F44EC019
:102AC0008370833019F40E94220921C0823011F5ED
:102AD00061E083E00E947A0D8FEC91E00E94700E1D
:102AE0008091B002823039F0843069F0813079F41D
:102AF0000E945D060CC060E085E094E00E94240323
:102B000088EC91E002C084ED91E00E94700E0E947A
:102B1000C3072CC0813051F50E94220961E08EE08C
:102B20000E947A0D8FEC91E00E94700E8091B002AD
:102B3000823039F0843069F08130C1F40E945D0642
:102B400015C060E085E094E00E94240388EC91E0E9
:102B500002C084ED91E00E94700E08C061E080E048
:102B60000E947A0D85EB91E00E945F0D8091D0026A
:102B7000811182C08091D9029091DA02A091DB028A
:102B8000B091DC02892B8A2B8B2B09F46EC08090CC
:102B9000B1029090B202A090B302B090B402C5010D
:102BA000B40128EE33E040E050E00E94CD1A690104
:102BB0007A0120343E474540510508F04FC0C50119
:102BC000B40120E83EEE46E350E00E94CD1A209387
:102BD000F802C701B60120E13EE040E050E00E946B
:102BE000CD1A2CE330E040E050E00E94CD1A209353
:102BF000F7026093F60262E087E00E947A0D80910E
:102C0000F8028A3020F487ED91E00E94700E8091E6
:102C1000F8020E94440F89ED91E00E94700E8091AD
:102C2000F7028A3020F487ED91E00E94700E8091C7
:102C3000F7020E94440F89ED91E00E94700E80918E
:102C4000F6028A3020F487ED91E00E94700E8091A8
:102C5000F6020E94440F8FEA91E014C062E087E020
:102C60000E947A0D81EA91E00DC062E087E00E9447
:102C70007A0D88E991E006C062E087E00E947A0D53
:102C80008AE891E00E945F0DC090D902D090DA02EC
:102C9000E090DB02F090DC02C114D104E104F10405
:102CA000B9F16091B1027091B2028091B30290913A
:102CB000B4020E94181C4B015C01C701B6010E94BE
:102CC000181C9B01AC01C501B4010E94701B20E0DF
:102CD00030E048EC52E40E941F1D6B017C0120E0B3
:102CE00030E0A9010E94CA1C20E030E040E05FE330
:102CF00087FD05C0C701B6010E94FF1A04C0C701C5
:102D0000B6010E94FE1A0E94E21B6093F50203C006
:102D100084E68093F5021091F502812F65E00E9410
:102D2000C61D082F63E080E00E947A0DF12C0F157C
:102D300039F065E085E094E00E942403F394F7CF36
:102D40001436E8F5812F65E00E94C61D9230C9F067
:102D500018F4913051F004C09330A9F09430A9F0E8
:102D60008BEC91E00E94700E05C061E085E094E07C
:102D70000E942403F12C23E130E0201B310989015A
:102D800006C062E0F3CF63E0F1CF64E0EFCF8F2DB8
:102D900090E0801791079CF48BEC91E00E94700EFC
:102DA000F394F5CFC816D906EA06FB0640F4109254
:102DB0000103109202031092030310920403809106
:102DC000B602882311F11092B6029091D002809140
:102DD0007801911108C03092D0028823D9F080E0A8
:102DE0000E94C70A12C01092D002882331F030929C
:102DF00078018091CF020E94C70A809178018111E9
:102E000050C061E084E00E947B0F8091D002882353
:102E100009F447C0C090E102D090E202E090E302E2
:102E2000F090E4028091FD029091FE02A091FF02D9
:102E3000B0910003A7019601281B390B4A0B5B0BCD
:102E4000DA01C901843F9140A105B105A0F0C0920B
:102E5000FD02D092FE02E092FF02F092000360E0D9
:102E600084E00E947B0FC092F902D092FA02E092B5
:102E7000FB02F092FC028091F9029091FA02A0917B
:102E8000FB02B091FC02C81AD90AEA0AFB0A44E61E
:102E9000C416D104E104F10420F061E084E00E9452
:102EA0007B0F0E944902DACA0E941910DC01CB0193
:102EB00088199909AA09BB09FF24F394893C910553
:102EC000A105B10508F0E3CAE1CA0E9419103B014F
:102ED0004C0185010F5F1F4F88E593E00E94A2011E
:102EE0008017910798F4F110DBCA0E941910DC01D9
:102EF000CB0186199709A809B909FF24F3948536EF
:102F00009105A105B10540F7F12CE6CFF110C8CA33
:102F100088E593E00E948001682E88E593E00E9496
:102F200080018C012DB73EB72C193D090FB6F894DE
:102F30003EBF0FBE2DBF4DB75EB74F5F5F4F7A01EB
:102F4000C114D10489F04A0188E593E00E94800110
:102F5000D4018D934D01CD018E199F098C159D05CE
:102F600098F39924939401C0912C88E593E00E94F2
:102F70008001742C750C760C700E992051F0F701BD
:102F80009F012E193F092C153D0518F49191790EDA
:102F9000F7CF871531F021E030E046E751E065E0FA
:102FA000A5CA862D8F70823039F1A8F48823D9F014
:102FB000813009F02AC229A13AA14BA15CA1298341
:102FC0003A834B835C8324E030E0AE014F5F5F4F78
:102FD00060E081E020C2843009F4CCC080F08E3003
:102FE00009F43FC112C221E030E04CEE52E060E053
:102FF00080E00E947A06FFCF0E942E070EC21127A2
:103000000330110509F459C03CF40130110569F091
:1030100002301105D1F0F3C10430110509F45DC08F
:103020000530110509F488C0EAC1AAE7B2E0FE0143
:103030003196AF018D9181938B8D9C8D8E179F075B
:10304000C9F72FE030E061E075C09FE0C916D104F8
:1030500030F421E030E046E751E064E0DBC1F70105
:10306000AAE7B2E0C7010F9621912D93E817F9075F
:10307000D9F7E8E6F2E080E09191890FA2E0E73A23
:10308000FA07D1F78093A70288E6E82E82E0F82EAF
:1030900000E010E0F70161917F01C8010E9466061F
:1030A0000F5F1F4F00341105A9F70E948F0B21E01D
:1030B00030E04CEE52E062E03DC0992051F2D70181
:1030C0008C91811103C01092770102C03092770178
:1030D00021E030E0A70163E02DC0992009F4B9CFC9
:1030E000F701808180FF0EC08091D00281111EC047
:1030F0003092D002809178018823C1F080E00E9454
:10310000C70A14C01092D00280917801882331F050
:10311000309278018091CF020E94C70A8091780195
:10312000811104C061E084E00E947B0F21E030E067
:10313000A70164E083E06FC1992009F48ACF8091F0
:10314000D00221E030E0882389F0A70165E083E028
:103150000E947A06D7018C91811103C010927801E8
:1031600002C0309278010E94C70A57C146E751E079
:103170006EEF50C1112702301105C9F054F401302F
:10318000110509F03CC120E230E048E652E061E080
:1031900066C00330110509F453C00430110509F06D
:1031A0002EC128E030E048EA52E064E058C0809147
:1031B00066028983809167028A8380915E028B8395
:1031C00080915F028C83809160028D838091610287
:1031D0008E83809162028F838091630288878091C1
:1031E00064028987809165028A87809156028B8765
:1031F000809157028C87809158028D878091590267
:103200008E8780915A028F8780915B02888B809194
:103210005C02898B80915D028A8B1B8A1C8A1D8AC5
:103220001E8A8EE58F8B8FE6888F88EB898F8CEBDB
:103230008A8F2AE130E0AE014F5F5F4F62E00FC03E
:103240000E9419109093E8028093E9027093EA02B9
:103250006093EB0224E030E048EE52E063E085E06A
:10326000DAC011270230110509F464C003301105DA
:1032700009F48EC00130110509F0C1C0B4E0CB16CD
:10328000D10408F4E6CEF7016080718076246724CB
:103290007624508141810281138110270127102754
:1032A00032812381C301800F911F019781159440C2
:1032B00008F0CFCE4DB65EB6580164E0A60EB11C44
:1032C0008DB79EB78A199B090FB6F8949EBF0FBEA3
:1032D0008DBFADB7BEB711967D01EDB7FEB7518377
:1032E00011964C93119712963C93129713962C9328
:1032F0008DB69EB6F5E08F0E911CC12CD12CC01658
:10330000D10661F0C3018C0D9D1D0E948D1AD40160
:103310008D934D01BFEFCB1ADB0AF1CF9501A701C9
:1033200061E08EE00E947A060FB6F8945EBE0FBE92
:103330004DBE73C0E3E0CE16D10408F48ACED701A7
:10334000CD90DC90DC24CD24DC24B4E0AB1AB108B1
:10335000C60101978A0D9B1D8115944008F079CE16
:10336000F2E0EF0EF11C00E010E0D7016D917D015D
:10337000C8018C0D9D1D0E9466060F5F1F4F0A1528
:103380001B0598F321E030E04CEE52E062E035C0DE
:10339000B2E0CB16D10408F45CCEF70160816093F3
:1033A0008702818180938802E8E6F2E080E09191D3
:1033B000890F22E0E73AF207D1F78093A7028FE165
:1033C00090E00E946606D70111966C9180E290E031
:1033D0000E9466066091A7028FE390E00E94660655
:1033E000F701808191819827892798270E94810A77
:1033F00021E030E04CEE52E063E08EE00CC021E0D2
:1034000030E046E751E063E005C021E030E046E708
:1034100051E062E08FE00E947A062D8D3E8D0FB65E
:10342000F8943EBF0FBE2DBF70C8E8E5F3E01382ED
:10343000128288EE93E0A0E0B0E084839583A683B7
:10344000B78322E931E03183208325EC30E03587F2
:10345000248724EC30E03787268720EC30E0318B5E
:10346000208B21EC30E0338B228B22EC30E0358B4B
:10347000248B26EC30E0378B268B118E128E138E28
:10348000148EE5EFF3E01382128284839583A68382
:10349000B78384EA91E091838083E5E0F4E01382CE
:1034A000128286EB91E091838083108A8FEF878769
:1034B0001686118A87E283871486158612861186FE
:1034C00084E0828B82E0838B81E0848B80E1858B3A
:1034D00080E2868B80E4878B80E8808F40E050E03C
:1034E00063E0CF010E9410036091790170917A012D
:1034F00080E090E00E94181C9B01AC0160E070E04D
:1035000080E89FE30E94701B6093010470930204A3
:1035100080930304909304040895F999FECF92BD1B
:1035200081BDF89A992780B50895262FF999FECF85
:103530001FBA92BD81BD20BD0FB6F894FA9AF99AD0
:103540000FBE01960895052E97FB1EF400940E946D
:10355000BA1A57FD07D00E94CD1A07FC03D04EF4CB
:103560000C94BA1A50954095309521953F4F4F4F86
:103570005F4F089590958095709561957F4F8F4F1F
:103580009F4F08950E94EF1AA59F900DB49F900D34
:10359000A49F800D911D11240895A1E21A2EAA1B4B
:1035A000BB1BFD010DC0AA1FBB1FEE1FFF1FA217F3
:1035B000B307E407F50720F0A21BB30BE40BF50BF0
:1035C000661F771F881F991F1A9469F76095709579
:1035D000809590959B01AC01BD01CF010895A29FFC
:1035E000B001B39FC001A39F700D811D1124911DD7
:1035F000B29F700D811D1124911D08955058BB2755
:10360000AA270E94161B0C94901C0E94821C38F062
:103610000E94891C20F039F49F3F19F426F40C9481
:103620007F1C0EF4E095E7FB0C94791CE92F0E94B7
:10363000A11C58F3BA17620773078407950720F097
:1036400079F4A6F50C94C31C0EF4E0950B2EBA2F5A
:10365000A02D0B01B90190010C01CA01A001112498
:10366000FF27591B99F0593F50F4503E68F11A1644
:10367000F040A22F232F342F4427585FF3CF4695D5
:1036800037952795A795F0405395C9F77EF41F16F7
:10369000BA0B620B730B840BBAF09150A1F0FF0FC1
:1036A000BB1F661F771F881FC2F70EC0BA0F621FAD
:1036B000731F841F48F4879577956795B795F7959D
:1036C0009E3F08F0B0CF9395880F08F09927EE0F32
:1036D0009795879508950E94551C08F481E00895F8
:1036E0000E94841B0C94901C0E94891C58F00E941C
:1036F000821C40F029F45F3F29F00C94791C511191
:103700000C94C41C0C947F1C0E94A11C68F3992388
:10371000B1F3552391F3951B550BBB27AA276217CD
:103720007307840738F09F5F5F4F220F331F441FDA
:10373000AA1FA9F335D00E2E3AF0E0E832D091500E
:103740005040E695001CCAF72BD0FE2F29D0660FFB
:10375000771F881FBB1F261737074807AB07B0E83E
:1037600009F0BB0B802DBF01FF2793585F4F3AF044
:103770009E3F510578F00C94791C0C94C41C5F3F5B
:10378000E4F3983ED4F3869577956795B795F795CA
:103790009F5FC9F7880F911D9695879597F90895B2
:1037A000E1E0660F771F881FBB1F6217730784074E
:1037B000BA0720F0621B730B840BBA0BEE1F88F75D
:1037C000E09508950E94E91B6894B1110C94C41C03
:1037D00008950E94A91C88F09F5798F0B92F992747
:1037E000B751B0F0E1F0660F771F881F991F1AF0EC
:1037F000BA95C9F714C0B13091F00E94C31CB1E072
:1038000008950C94C31C672F782F8827B85F39F070
:10381000B93FCCF3869577956795B395D9F73EF484
:1038200090958095709561957F4F8F4F9F4F08952C
:10383000E89409C097FB3EF490958095709561954A
:103840007F4F8F4F9F4F9923A9F0F92F96E9BB2700
:103850009395F695879577956795B795F111F8CF7C
:10386000FAF4BB0F11F460FF1BC06F5F7F4F8F4FE7
:103870009F4F16C0882311F096E911C0772321F0DD
:103880009EE8872F762F05C0662371F096E8862F75
:1038900070E060E02AF09A95660F771F881FDAF7CC
:1038A000880F9695879597F90895990F0008550FF9
:1038B000AA0BE0E8FEEF16161706E807F907C0F0B6
:1038C00012161306E407F50798F0621B730B840BBE
:1038D000950B39F40A2661F0232B242B252B21F498
:1038E00008950A2609F4A140A6958FEF811D811D38
:1038F000089597F99F6780E870E060E008959FEF72
:1039000080EC089500240A94161617061806090676
:10391000089500240A941216130614060506089545
:10392000092E0394000C11F4882352F0BB0F40F4CD
:10393000BF2B11F460FF04C06F5F7F4F8F4F9F4F0D
:10394000089557FD9058440F551F59F05F3F71F08F
:103950004795880F97FB991F61F09F3F79F08795F6
:103960000895121613061406551FF2CF4695F1DF7F
:1039700008C0161617061806991FF1CF869571050F
:10398000610508940895E894BB2766277727CB0143
:1039900097F908950E94551C08F48FEF089516F0CA
:1039A0000C94911D0C947F1C68940C94791C0E94BB
:1039B000A91CA8F39923C1F3AEF3DF93CF931F9310
:1039C0000F93FF92C92FDD2788232AF02197660FD6
:1039D000771F881FDAF720E030E040E85FEB9FE3D5
:1039E000883920F0803E38F021968F770E94FF1AA8
:1039F000E8E6F0E004C00E94FF1AE5E9F0E00E946A
:103A00009F1D8B01BE01EC01FB2E6F57710975954F
:103A1000771F880B990B0E941A1C28E132E741E3BB
:103A20005FE30E94321DAF2D9801AE01FF900F9110
:103A30001F91CF91DF910E94161B0C94901C0E9445
:103A4000321D0C94901C0E94821C38F00E94891C2C
:103A500020F0952311F00C94791C0C947F1C1124F8
:103A60000C94C41C0E94A11C70F3959FC1F3950F88
:103A700050E0551F629FF001729FBB27F00DB11DF2
:103A8000639FAA27F00DB11DAA1F649F6627B00D82
:103A9000A11D661F829F2227B00DA11D621F739F6B
:103AA000B00DA11D621F839FA00D611D221F749F79
:103AB0003327A00D611D231F849F600D211D822FC0
:103AC000762F6A2F11249F5750409AF0F1F08823E7
:103AD0004AF0EE0FFF1FBB1F661F771F881F915014
:103AE0005040A9F79E3F510580F00C94791C0C942E
:103AF000C41C5F3FE4F3983ED4F3869577956795B1
:103B0000B795F795E7959F5FC1F7FE2B880F911D3D
:103B10009695879597F908950E94551C880B990BE7
:103B200008959F3F31F0915020F4879577956795E0
:103B3000B795880F911D9695879597F90895DF930E
:103B4000CF931F930F93FF92EF92DF927B018C0133
:103B5000689406C0DA2EEF010E94321DFE01E8943F
:103B6000A5912591359145915591A6F3EF010E94BC
:103B7000161BFE019701A801DA9469F7DF90EF9018
:103B8000FF900F911F91CF91DF910895991B79E0DC
:103B900004C0991F961708F0961B881F7A95C9F7DD
:103BA000809508956927962769277827872778279A
:103BB0000895EE0FFF1F0590F491E02D099481E028
:0C3BC00090E0F8940C94E41DF894FFCF02
:103BCC00EA014601460100001F1F1F000000000013
:103BDC001E1E1E00000000001C1C1C00000000002B
:103BEC001818180000000000101010000000060942
:103BFC0009060000000000C70000000000000000E3
:103C0C0000000000000000007F000DBBA0000DBBF9
:103C1C00A000010F6E01EA0000000000000000008F
:103C2C000000000000000000000000000000000088
:103C3C00000000000000FF01016E0F3D00038FFD2E
:103C4C00FF8E4D4854470040145400401050000063
:103C5C000000DA01470171012702A20180019401E1
:103C6C0000000000E002B30232038702AB029702AD
:103C7C008802000000002403470132033103F205DF
:103C8C0010035C033D034300460020200025002D5B
:103C9C002D2D2D002D4B0030003A006E616E006909
:083CAC006E66006F76660000F1
:00000001FF
