:100000000C94FE000C94CE0E0C94A70E0C942601BA
:100010000C9426010C9426010C9426010C942601C4
:100020000C9426010C9426010C9426010C942601B4
:100030000C9426010C9414100C9426010C942601A7
:100040000C945D0E0C9426010C942B0E0C94050E52
:100050000C9426010C9426010C9426010C94260184
:100060000C94F50E0C94260108000000BE92244961
:10007000123EABAAAA2ABECDCCCC4C3E00000080DA
:10008000BEABAAAAAA3E00000000BF000000803F4D
:100090000000000000084178D3BB4387D1133D190D
:1000A0000E3CC3BD4282AD2B3E68EC8276BED98F3A
:1000B000E1A93E4C80EFFFBE01C4FF7F3F0000007E
:1000C0000000000000080002010000030407000017
:1000D0000000000000002D2D2D2D2D2D2D2D2D2D5E
:1000E0002D2D2D2D2D2D2D2D2D2D0020202020547A
:1000F0004F5745522047415244454E202020200072
:10010000204D4F44554C415220485944524F504F76
:100110004E494320002D2D2D2D2D2D2D2D2D2D2DF6
:100120002D2D2D2D2D2D2D2D2D002D2D2D2D7072A4
:100130006F6772657373206261722D2D2D2D0054CF
:10014000696D65723A202D2D3A2D2D3A2D2D206C9A
:100150006566740054653A2D2D2D2D2D2D202054CB
:10016000693A2D2D2D2D2D2D00576174657220704B
:10017000756D703A202D2D2D2D2D2D2D2D00736593
:100180007276696365206D6F6465210054653A2D50
:100190002D2D2D2D2D202054693A2D2D2D2D2D2D39
:1001A000006F66662020202020006F6666202020D9
:1001B00020200031303025006F6E2040000000000C
:1001C00000250028002B0000000000240027002A42
:1001D00000040404040404040402020202020203F0
:1001E00003030303030102040810204080010204FA
:1001F000081020010204081020001E1011241FBE48
:10020000CFEFD8E0DEBFCDBF11E0A0E0B1E0EEEC73
:10021000FAE302C005900D92AE3EB107D9F724E093
:10022000AEEEB1E001C01D92A732B207E1F710E0D7
:10023000CEEFD0E004C02197FE010E945A1DCD3FB1
:10024000D107C9F70E9496100C94651D0C9400000C
:1002500090E0FC01EB51FE4F24918F529E4FFC0128
:100260008491882399F090E0880F991FFC01E9534D
:10027000FE4FA591B491FC01E354FE4F85919491FA
:100280008FB7F894EC91E22BEC938FBF08952091F7
:100290005C0381E0213208F044C080913803811171
:1002A000FCCF80915B0392E09093380391E09093B0
:1002B00037039FEF90933603109235032093340356
:1002C000ABE3B3E0E4E1F3E090E0291331C0109236
:1002D000130390911303880F892B8093130380914C
:1002E0001203813049F51092120380911303809319
:1002F000BB008091BC0083FDF8CF85EC8093BC00EF
:10030000809138038230E1F3809136038F3FB1F062
:10031000809136038032A1F080913603803391F0D2
:1003200084E010923A0310925C031092390308950E
:100330003D9131939F5FC9CF85EEE0CF80E0F1CF53
:1003400082E0EFCF83E0EDCFF89481E08093DF028D
:1003500078940895AF92BF92CF92DF92EF92FF927E
:100360000F931F93CF93DF936C017B018B01040FDD
:10037000151FEB015E01AE18BF08C017D10759F079
:100380006991D601ED91FC910190F081E02DC601BB
:100390000995892B79F7C501DF91CF911F910F91B5
:1003A000FF90EF90DF90CF90BF90AF900895FC0149
:1003B000538D448D252F30E0842F90E0821B930BCA
:1003C000541710F0CF96089501970895FC01918D70
:1003D000828D981761F0A28DAE0FBF2FB11D5D9673
:1003E0008C91928D9F5F9F73928F90E008958FEF15
:1003F0009FEF0895FC01918D828D981731F0828DC9
:10040000E80FF11D858D90E008958FEF9FEF08951F
:10041000FC01918D228D892F90E0805C9F4F821B83
:1004200091098F73992708958DE593E00E94080242
:1004300021E0892B09F420E0822F089580E090E0EC
:10044000892B29F00E94140281110C940000089558
:10045000FC01A48DA80FB92FB11DA35ABF4F2C9139
:10046000848D90E001968F739927848FA689B78930
:100470002C93A089B1898C91837080648C93938D27
:10048000848D981306C00288F389E02D80818F7DCA
:1004900080830895EF92FF920F931F93CF93DF9382
:1004A000EC0181E0888F9B8D8C8D98131AC0E889B0
:1004B000F989808185FF15C09FB7F894EE89FF897F
:1004C0006083E889F98980818370806480839FBF1D
:1004D00081E090E0DF91CF911F910F91FF90EF901D
:1004E0000895F62E0B8D10E00F5F1F4F0F7311272D
:1004F000E02E8C8D8E110CC00FB607FCFACFE88968
:10050000F989808185FFF5CFCE010E942802F1CFC5
:10051000EB8DEC0FFD2FF11DE35AFF4FF0829FB7DB
:10052000F8940B8FEA89FB8980818062CFCFCF93CB
:10053000DF93EC01888D8823B9F0AA89BB89E8890B
:10054000F9898C9185FD03C0808186FD0DC00FB6B1
:1005500007FCF7CF8C9185FFF2CF808185FFEDCF2F
:10056000CE010E942802E9CFDF91CF91089590E05B
:10057000FC01EE53FF4F2491FC01EB51FE4F3491EF
:10058000FC01EF52FE4FE491EE23C9F0222339F033
:10059000233001F1A8F4213019F1223029F1F0E0E3
:1005A000EE0FFF1FE354FE4FA591B4918FB7F8945F
:1005B000EC91611126C030953E233C938FBF089586
:1005C0002730A9F02830C9F0243049F78091800005
:1005D0008F7D03C0809180008F7780938000DFCF74
:1005E00084B58F7784BDDBCF84B58F7DFBCF8091C1
:1005F000B0008F778093B000D2CF8091B0008F7D14
:10060000F9CF3E2BDACF8E50806480937C008091AE
:100610007A00806480937A0080917A0086FDFCCF16
:10062000809178009091790008953FB7F894809177
:100630005D0290915E02A0915F02B091600226B5CA
:10064000A89B05C02F3F19F00196A11DB11D3FBF0A
:10065000BA2FA92F982F8827BC01CD01620F711DD9
:10066000811D911D42E0660F771F881F991F4A95D3
:10067000D1F708958F929F92AF92BF92CF92DF925F
:10068000EF92FF924B015C010E9415036B017C010C
:100690000E9415036C197D098E099F09683E7340FD
:1006A00081059105A8F321E0821A9108A108B108FB
:1006B00088EEC80E83E0D81EE11CF11C8114910461
:1006C000A104B10429F7FF90EF90DF90CF90BF9085
:1006D000AF909F908F9008952FB7F8946091590232
:1006E00070915A0280915B0290915C022FBF089535
:1006F000089585ED8093BC008091BC0084FDFCCF03
:1007000010923803089520913302260F3327331FA8
:1007100021323105ECF420913803FC0190E080E0B7
:10072000243069F082E00895A09133022191AC0158
:100730004F5E5D4FA40FB52FB11D2C930196861708
:1007400098F380913302680F6093330280E008953C
:1007500081E00895089508950895E0911002809130
:100760000F02E81730F4F0E0E151FE4F808190E095
:1007700008958FEF9FEF08959091100280910F02DE
:100780002FEF3FEF981748F4E92FF0E0E151FE4FCB
:10079000208130E09F5F90931002C90108958091FD
:1007A0000F0290911002891B990B0895CF92DF924E
:1007B000EF92FF920F931F93CF93DF937C01CB01B6
:1007C0008A0120913903222389F0EB016B01C40EC9
:1007D000D51ECC15DD0569F06991D701ED91FC912D
:1007E0000190F081E02DC7010995F3CF642F0E949D
:1007F0008303C801DF91CF911F910F91FF90EF907C
:10080000DF90CF900895CF93DF931F92CDB7DEB7DF
:100810006983209139032223F9F020915C0320326F
:1008200058F021E030E0FC013383228390E080E047
:100830000F90DF91CF91089580913A03E82FF0E077
:10084000E55CFC4F998190838F5F80933A0380939E
:100850005C0381E090E0ECCF61E0CE0101960E9464
:100860008303F7CF089521E001C0220F6A95EAF7CC
:10087000DC011C962C931C971A965C934E93199747
:10088000ED91FC910484F585E02D60E00994DC0194
:10089000ED91FC910684F785E02D41E0099581E01A
:1008A00090E008950F931F93CF93DF938C01D0E0D6
:1008B000C0E0F801EC0FFD1F6491662341F08AE06F
:1008C00094E00E944704892B11F02196F2CFCE01CB
:1008D000DF91CF911F910F910895DC01ED91FC9173
:1008E0000684F785E02D40E009940F931F93CF9382
:1008F000DF93CDB7DEB728970FB6F894DEBF0FBEF3
:10090000CDBF00917B0110917C0120917D01309140
:100910007E010D831E832F83388700917F01109104
:100920008001209181013091820109831A832B83F8
:100930003C8390911104691710F06FEF690F262F17
:1009400030E0409112042C0F3D1FF901403199F421
:10095000943089F46181680F60688AE094E0289699
:100960000FB6F894DEBF0FBECDBFDF91CF911F91C0
:100970000F910C946D046581EECFEF92FF920F936F
:100980001F93CF93DF938B0198E0899FB0011124CF
:1009900060648AE094E00E946D0483E790E0019730
:1009A000F1F7E801085F1F4F8BE9E82EF12C699100
:1009B0008AE094E00E944704C7010197F1F7C0174D
:1009C000D107A9F7DF91CF911F910F91FF90EF9081
:1009D0000895DC01ED91FC910484F585E02D6FEF25
:1009E000099461E00E946D048BE39FE10197F1F7A8
:1009F00008950F931F93CF93DF93EC01423018F0CB
:100A00008C8188608C834F836887222329F0413052
:100A100019F48C8184608C8364E670E080E090E05F
:100A20000E943A036C8164FD52C0E881F98106841A
:100A3000F785E02D42E063E0CE0109958BE496E472
:100A40000197F1F7E881F9810684F785E02D42E00E
:100A500063E0CE01099503E512E0C8010197F1F7C3
:100A6000E881F9810684F785E02D42E063E0CE015C
:100A70000995C8010197F1F7E881F9810684F785A6
:100A8000E02D42E062E0CE010995C8010197F1F73F
:100A90006C816062CE010E946D048BEE90E0019744
:100AA000F1F784E08D836CE0CE010E946D04CE01ED
:100AB0000E94F10482E08E8366E0CE010E946D0404
:100AC000CE01DF91CF911F910F910C94E9046062E8
:100AD000CE010E946D048BE496E40197F1F76C81DE
:100AE0006062CE010E946D0403E512E0C801019727
:100AF000F1F76C816062CE010E946D04C6CF08954B
:100B00000895089590E080E00895FC012381222358
:100B1000F1F0262F6181609562236083828191E0EC
:100B20009093390380935B0310923A0310925C0315
:100B30008AEF93E00E9403040E944701282F30E0CF
:100B400081E090E0232B11F090E080E0089530E008
:100B500020E0F6CFEF92FF920F931F93CF938C017B
:100B6000FC0184E0C0E0262F30E060FF02C09589E0
:100B7000C92BB90175956795815031968111F3CFD5
:100B8000413011F4F8014489F8016585C62BC42B66
:100B90007801FEE0EF0EF11CF80162896C2BC701B1
:100BA0000E948505F801628960956C23C701CF9189
:100BB0001F910F91FF90EF900C9485050F931F9359
:100BC000CF93DF93062F0F70423041F440E0602F47
:100BD000DF91CF911F910F910C94AA05142FEC0176
:100BE00070E084E0759567958A95E1F7CE010E94E3
:100BF000AA05412F602FCE01EBCFFC01848588230D
:100C0000A1F0218532852115310521F4611107C03C
:100C1000158606C021303105D9F76111F9CF8587D6
:100C20006585CF010E960C9485050895EF92FF928D
:100C30000F931F93CF93DF93EC01062FF42EE22E38
:100C40008B85888B1092100210920F0210923A033B
:100C500010925C031092380311E010933703109246
:100C6000120361E082E10E94B70261E083E10E9429
:100C7000B7028091B9008E7F8093B9008091B9004E
:100C80008D7F8093B90088E48093B80085E48093D9
:100C9000BC008AEA93E090933202809331028BEA9F
:100CA00093E090933602809335028889109339033C
:100CB00080935B0310923A0310925C030E944701F9
:100CC00081111CC0198B8AEF93E00E94BC038E87B0
:100CD0008989882339F01F861C8260E0CE010E9638
:100CE0000E9485052E2D4F2D602FCE01DF91CF91D3
:100CF0001F910F91FF90EF900C94F904198AE8CF9F
:100D0000CF92DF92EF92FF929C0150E040E060E4CE
:100D100072E48FE090E00E94241A44275527A0EA4D
:100D2000B0E00E94431A6B017C0124E130E040E016
:100D300050E00E944E1A2115310581E04807510507
:100D4000C8F481E0809366023093650220936402C8
:100D50008091640290916502909387008093860051
:100D600080916602806180938100FF90EF90DF9018
:100D7000CF90089582E080936602C701B60120EA11
:100D800030E040E050E00E944E1ADECF4F925F927A
:100D90006F927F928F929F92AF92BF92CF92DF928B
:100DA000EF92FF920F931F93CF939091780191113F
:100DB00004C09091FD029923D1F0C82F811127C062
:100DC00089E00E94280180918000806880938000E3
:100DD0001092890010928800809166028061809351
:100DE000810061E084E00E94B7021092EE01CF9191
:100DF0001F910F91FF90EF90DF90CF90BF90AF9039
:100E00009F908F907F906F905F904F90089520916A
:100E1000EE01281708F04AC0022F10E09801AFEF4A
:100E2000B3E00E94701A6B017C018C2E912C412C36
:100E3000512C32014A948016910608F483C089E04F
:100E40000E94280180918000806880938000A0909B
:100E50006402B0906502C701B601A30192010E942D
:100E6000241A44275527D5010E94431A4AE0969533
:100E70008795779567954A95D1F770938900609328
:100E80008800809166028061809381006FE070E04D
:100E900080E090E00E943A03A8950F5F1F4F8FEF0C
:100EA000C80E83E0D81EE11CF11CC5CF821708F0E4
:100EB00049C0022F10E09801AFEFB3E00E94701A12
:100EC0006B017C018C2E912C412C512C32014A94C7
:100ED00008151905B8F189E00E9428018091800069
:100EE000806880938000A0906402B0906502C70182
:100EF000B601A30192010E94241A44275527D50167
:100F00000E94431A2AE096958795779567952A95CA
:100F1000D1F77093890060938800809166028061A8
:100F2000809381006FE070E080E090E00E943A03DF
:100F3000A895015011098FEFC81A83E0D80AE1087B
:100F4000F108C6CF60E084E00E94B702C093EE01D2
:100F50004ECF8F929F92AF92BF92CF92DF92EF923D
:100F6000FF921F93CF93DF9380917D02809377024E
:100F700080917E028093780280917F0280936F023D
:100F8000809180028093700280918102809371022F
:100F90008091820280937202809183028093730217
:100FA00080918402809374028091850280937502FF
:100FB00080918602809376028091870280936702F7
:100FC00080918802809368028091890280936902EF
:100FD00080918A0280936A0280918B0280936B02D7
:100FE00080918C0280936C0280918D0280936D02BF
:100FF00080918E0280936E0210918F021093FC02FA
:10100000609190027091910280919202909193026E
:101010000E94531D4B015C018092020390920303D6
:10102000A0920403B092050360919402709195021E
:1010300080919602909197020E94531D6B017C0152
:10104000C092FE02D092FF02E0920003F0920103F0
:10105000809198028093D602809199028093CE026B
:1010600060919A0270919B0276276727762770938A
:101070007A016093790190E080E00E94991B9B01C6
:10108000AC0160E070E080E89FE30E94F11A609399
:101090000604709307048093080490930904C09198
:1010A0009C02D0919D02DC27CD27DC27D093010143
:1010B000C0930001CE010E9480068091FD02811143
:1010C00056C081149104A104B104C1F41092060326
:1010D0001092070310920803109209030E94C6069B
:1010E00010927801DF91CF911F91FF90EF90DF90E8
:1010F000CF90BF90AF909F908F900895C114D1046E
:10110000E104F10441F510920603109207031092D6
:1011100008031092090381E080937801812FDF9109
:10112000CF911F91FF90EF90DF90CF90BF90AF9045
:101130009F908F900C94C6068092060390920703AE
:10114000A0920803B092090381E080937801CE0158
:101150000E948006E3CF809178018111EDCFC0928B
:101160000603D0920703E0920803F092090380E09F
:10117000B5CFFC0101900020E9F73197AF01481B82
:10118000590BBC018AE094E00C94AA018F929F92C3
:10119000AF92BF920F931F93CF93DF93CDB7DEB77C
:1011A000A1970FB6F894DEBF0FBECDBF19A2423093
:1011B00008F44AE08E010F5D1F4F842E912CB12C54
:1011C000A12CA50194010E944E1AE62FB901CA0173
:1011D000EA30F4F4E05DD801EE938D01232B242B4B
:1011E000252B79F790E080E0109719F0CD010E944F
:1011F000B908A1960FB6F894DEBF0FBECDBFDF9140
:10120000CF911F910F91BF90AF909F908F900895B5
:10121000E95CE1CF0C94B90860E08AE094E00E94B8
:10122000470486EC91E00C940A094F925F926F920A
:101230007F928F929F92AF92BF92CF92DF92EF9266
:10124000FF92CF936B017C01842EAC019B010E9425
:101250000D1D882389F088EC91E0CF91FF90EF90ED
:10126000DF90CF90BF90AF909F908F907F906F90C6
:101270005F904F900C94B90826013701E89477F8F5
:101280002FEF3FEF4FE75FE7C301B2010E940D1D53
:1012900081110DC02FEF3FEF4FE75FE7C301B201B0
:1012A0000E94EC1A18161CF48CEC91E0D6CF2FEFAC
:1012B0003FEF4FE75FE4C701B6010E944B1C1816D1
:1012C0001CF480ED91E0C9CF2FEF3FEF4FE75FECCB
:1012D000C701B6010E94EC1A87FDF3CF20E030E091
:1012E000A901C701B6010E94EC1AB12CA12C87FFFD
:1012F0000AC06DE28AE094E00E9447045C01F7FABC
:10130000F094F7F8F094C82D60E070E080E09FE37F
:10131000912C20E030E040E251E40E94F11A9394D5
:101320009814B8F3A70196010E94801A2B013C0182
:101330000E946A1B6B017C010E94991B9B01AC01FE
:10134000C301B2010E947F1A2B013C014AE0C70190
:10135000B6010E94C6087C016EE28AE094E00E9419
:101360004704E80EF91EEA0CFB1CC15018F120E0FE
:1013700030E040E251E4C301B2010E94A01C2B0105
:101380003C010E946A1B4B01B12CA12C4AE0C50113
:10139000B4010E94C608E80EF91EC501B4010E94FE
:1013A000991B9B01AC01C301B2010E947F1A2B0162
:1013B0003C01DBCFC701CF91FF90EF90DF90CF9042
:1013C000BF90AF909F908F907F906F905F904F9065
:1013D0000895CF92DF92EF92FF928091CE028230F9
:1013E00009F489C0843009F404C1813009F047C18F
:1013F00061E08EE00E947504C090E402D090E502A6
:10140000E090E602F090E70220E030E040E251ECAC
:10141000C701B6010E94EC1A181654F420E030E01F
:1014200048EC52E4C701B6010E944B1C87FD1DC069
:101430008DED91E00E940A096091E4027091E5024D
:101440008091E6029091E70242E050E00E94150987
:1014500060E08AE094E00E94470486EC91E0FF900F
:10146000EF90DF90CF900C940A0920E030E040E24A
:1014700051ECC701B6010E944B1C181674F420E011
:1014800030E0A901C701B6010E94EC1A87FF05C030
:1014900041E050E0C701B601D9CF20E030E0A9011A
:1014A000C701B6010E944B1C87FD0CC020E030E054
:1014B00040E251E4C701B6010E94EC1A42E050E05C
:1014C00087FDE8CF20E030E040E251E4C701B601FB
:1014D0000E944B1C87FD0AC020E030E048EC52E43B
:1014E000C701B6010E94EC1A87FDD2CF87ED91E0CB
:1014F0000E940A09ADCF61E08EE00E947504C090A1
:10150000E802D090E902E090EA02F090EB0220E0DD
:1015100030E040E251ECC701B6010E94EC1A181607
:1015200054F420E030E048EC52E4C701B6010E94D8
:101530004B1C87FD18C08DED91E00E940A09609157
:10154000E8027091E9028091EA029091EB0242E098
:1015500050E00E94150960E08AE094E00E94470490
:1015600084ED91E07CCF20E030E040E251ECC70117
:10157000B6010E944B1C181674F420E030E0A9015B
:10158000C701B6010E94EC1A87FF05C041E050E098
:10159000C701B601DECF20E030E0A901C701B601E6
:1015A0000E944B1C87FD0CC020E030E040E251E47B
:1015B000C701B6010E94EC1A42E050E087FDE8CF77
:1015C00020E030E040E251E4C701B6010E944B1C2C
:1015D00087FD0AC020E030E048EC52E4C701B601C4
:1015E0000E94EC1A87FDD2CF87ED91E00E940A0994
:1015F000B2CF61E08EE00E947504C090E002D0900E
:10160000E102E090E202F090E30220E030E040E20C
:1016100051E4C701B6010E94EC1A43E050E087FD97
:1016200016C020E030E040E251E4C701B6010E945C
:101630004B1C87FD13C020E030E048EC52E4C701AA
:10164000B6010E94EC1A87FF09C042E050E0C701D2
:10165000B6010E94150982EE91E001CF20E030E052
:1016600048EC52E4C701B6010E944B1C41E050E037
:1016700087FFEDCF86ED91E00E940A09ECCFFF9045
:10168000EF90DF90CF900895CF92DF92EF92FF928C
:101690008091CE02823009F489C0843009F404C1FB
:1016A000813009F047C161E083E00E947504C09079
:1016B000F002D090F102E090F202F090F30220E00C
:1016C00030E040E251ECC701B6010E94EC1A181656
:1016D00054F420E030E048EC52E4C701B6010E9427
:1016E0004B1C87FD1DC08DED91E00E940A096091A1
:1016F000F0027091F1028091F2029091F30242E0C7
:1017000050E00E94150960E08AE094E00E944704DE
:1017100086EC91E0FF90EF90DF90CF900C940A0957
:1017200020E030E040E251ECC701B6010E944B1CC2
:10173000181674F420E030E0A901C701B6010E9438
:10174000EC1A87FF05C041E050E0C701B601D9CFD0
:1017500020E030E0A901C701B6010E944B1C87FDC3
:101760000CC020E030E040E251E4C701B6010E9425
:10177000EC1A42E050E087FDE8CF20E030E040E2A4
:1017800051E4C701B6010E944B1C87FD0AC020E04E
:1017900030E048EC52E4C701B6010E94EC1A87FD24
:1017A000D2CF87ED91E00E940A09ADCF61E083E0DE
:1017B0000E947504C090F402D090F502E090F60209
:1017C000F090F70220E030E040E251ECC701B601B2
:1017D0000E94EC1A181654F420E030E048EC52E471
:1017E000C701B6010E944B1C87FD18C08DED91E02A
:1017F0000E940A096091F4027091F5028091F6024C
:101800009091F70242E050E00E94150960E08AE002
:1018100094E00E94470484ED91E07CCF20E030E02A
:1018200040E251ECC701B6010E944B1C181674F43B
:1018300020E030E0A901C701B6010E94EC1A87FF41
:1018400005C041E050E0C701B601DECF20E030E046
:10185000A901C701B6010E944B1C87FD0CC020E006
:1018600030E040E251E4C701B6010E94EC1A42E0C8
:1018700050E087FDE8CF20E030E040E251E4C701CE
:10188000B6010E944B1C87FD0AC020E030E048EC06
:1018900052E4C701B6010E94EC1A87FDD2CF87ED52
:1018A00091E00E940A09B2CF61E083E00E947504D2
:1018B000C090EC02D090ED02E090EE02F090EF02CA
:1018C00020E030E040E251E4C701B6010E94EC1A8A
:1018D00043E050E087FD16C020E030E040E251E4F4
:1018E000C701B6010E944B1C87FD13C020E030E009
:1018F00048EC52E4C701B6010E94EC1A87FF09C008
:1019000042E050E0C701B6010E94150982EE91E065
:1019100001CF20E030E048EC52E4C701B6010E945C
:101920004B1C41E050E087FFEDCF86ED91E00E9437
:101930000A09ECCFFF90EF90DF90CF900895682FC9
:1019400070E090E080E04AE00C94C608AF92BF924D
:10195000CF92DF92EF92FF920F931F93CF93DF937B
:1019600000D000D000D01F92CDB7DEB7EDB6FEB6E6
:10197000E0912304F09124048E010F5F1F4F3097F4
:10198000E9F5F801E752F440FA83E983E981FA8145
:10199000D901D896EA17FB07B0F587E0E3E8F1E054
:1019A000D80101900D928A95E1F76E01B8E0CB0E57
:1019B000D11CF80161918F018DE593E00E944A02EC
:1019C000C016D106B1F70FB6F894FEBE0FBEEDBE3D
:1019D0000FB6F894FEBE0FBEEDBE27960FB6F89474
:1019E000DEBF0FBECDBFDF91CF911F910F91FF9052
:1019F000EF90DF90CF90BF90AF900895D801AE1BCD
:101A0000BF0BFD01C1CF6901F6E0CF0ED11CADB710
:101A1000BEB7AC19BD090FB6F894BEBF0FBEADBFBF
:101A20000DB71EB70F5F1F4F9DE311969C93F901F1
:101A30003296D8011196FC9311979CEF9C0D12964B
:101A40009C931297806813968C93139714966C93BB
:101A500014972115310551F0FA011596420F531FC5
:101A6000E417F50719F081918D93FACF2B5F3F4F63
:101A7000F801319680E0AF01401B510B421753072C
:101A800018F49191890FF7CF200F311FF90180834E
:101A90005801C501801B910B8C159D0508F093CF53
:101AA000D5016D915D018DE593E00E944A02F1CF71
:101AB0000F931F93CF93DF93CDB7DEB72E970FB65B
:101AC000F894DEBF0FBECDBF00910603109107034F
:101AD000209108033091090380910A0390910B0330
:101AE000A0910C03B0910D03800F911FA21FB31F93
:101AF00040910E0350910F036091100370911103F8
:101B0000841B950BA60BB70B8093D2029093D30244
:101B1000A093D402B093D5025091FD0251114EC052
:101B2000012B022B032B09F449C04B2F3A2F292FED
:101B3000198290917801992311F091E0998399810C
:101B4000552309F440C0926099839091FC029A83D6
:101B50004B833C832D838E838091D60280FF35C0DA
:101B60009091BE029F839091BF0298879091C0028E
:101B700099879091C1029A8781FF2CC08091C202FF
:101B80008B878091C3028C878091C4028D8780915E
:101B9000C5028E872EE030E0AE014F5F5F4F60E000
:101BA00082E00E94A60C2E960FB6F894DEBF0FBE00
:101BB000CDBFDF91CF911F910F91089580E020E07C
:101BC00030E040E0B5CF9D7FBFCF1F8218861986D9
:101BD0001A86D2CF1B861C861D861E86DBCF0E94EE
:101BE000601D1F93CF93DF93EC01162F0E940E1AF6
:101BF000181739F0612FCE01DF91CF911F910C940E
:101C0000161ADF91CF911F9108951F920F920FB670
:101C10000F9211242F933F934F935F936F937F9372
:101C20008F939F93AF93BF93EF93FF938DE593E0D3
:101C30000E942802FF91EF91BF91AF919F918F91E8
:101C40007F916F915F914F913F912F910F900FBEB8
:101C50000F901F9018951F920F920FB60F9211249C
:101C60002F938F939F93EF93FF93E0916D03F091E8
:101C70006E038081E0917303F091740382FD1BC0B9
:101C80009081809176038F5F8F7320917703821705
:101C900041F0E0917603F0E0E35AFC4F958F80939A
:101CA0007603FF91EF919F918F912F910F900FBE2F
:101CB0000F901F9018958081F4CF1F920F920FB64E
:101CC0000F9211242F933F938F939F93AF93BF93C2
:101CD0008091590290915A02A0915B02B0915C02EE
:101CE0003091580223E0230F2D3758F50196A11D9E
:101CF000B11D209358028093590290935A02A093E9
:101D00005B02B0935C0280915D0290915E02A091B3
:101D10005F02B09160020196A11DB11D80935D022A
:101D200090935E02A0935F02B0936002BF91AF9167
:101D30009F918F913F912F910F900FBE0F901F9009
:101D4000189526E8230F0296A11DB11DD2CF1F9230
:101D50000F920FB60F9211242F933F934F935F93DF
:101D60006F937F938F939F93AF93BF93EF93FF9363
:101D7000E0910401F09105010995FF91EF91BF9168
:101D8000AF919F918F917F916F915F914F913F9113
:101D90002F910F900FBE0F901F9018951F920F92CA
:101DA0000FB60F9211242F933F934F935F936F932E
:101DB0007F938F939F93AF93BF93EF93FF93E091A4
:101DC0000201F09103010995FF91EF91BF91AF914D
:101DD0009F918F917F916F915F914F913F912F9143
:101DE0000F900FBE0F901F9018951F920F920FB675
:101DF0000F9211242F933F934F935F936F937F9391
:101E00008F939F93AF93BF93EF93FF938091B9000C
:101E1000887F803609F44AC0F0F5883209F4A7C0FB
:101E200018F5803109F49BC0B8F4882309F4F9C08F
:101E3000883009F494C0FF91EF91BF91AF919F91C9
:101E40008F917F916F915F914F913F912F910F9063
:101E50000FBE0F901F901895883109F488C080320A
:101E600051F78093360314C0803409F49DC040F4C8
:101E70008033B9F38833F9F68093360385ECB0C02C
:101E8000803509F485C0883509F496C0883499F600
:101E90000E947903D0CF883909F48CC038F588378F
:101EA00029F050F4883611F0803729F683E08093CA
:101EB00038031092570257C0883809F47BC0803924
:101EC00019F0803809F0B7CF80915702803208F0BE
:101ED00071C0E091570281E08E0F8093570280918C
:101EE000BB00F0E0E95CFD4F80833DC0803B39F0F2
:101EF000E0F4803A09F479C0883A09F09CCF84E094
:101F0000809338031092340210923302E091310230
:101F1000F091320209958091330281110FC081E066
:101F2000809333021092110209C0803C09F4A6CFBD
:101F3000883C09F4A3CF883B09F07DCFE0913402BF
:101F400081E08E0F80933402F0E0EF5EFD4F8081E0
:101F50008093BB00909134028091330229C080911C
:101F600013038093BB0085EC8093BC0064CF9091F9
:101F7000350380913403981758F5E091350381E0DB
:101F80008E0F80933503F0E0EC5EFC4F8081E9CF4B
:101F9000E091350381E08E0F809335038091BB0083
:101FA000F0E0EC5EFC4F8083909135038091340328
:101FB0009817C8F285E8D8CFE091350381E08E0FFD
:101FC000809335038091BB00F0E0EC5EFC4F808392
:101FD0008091370381115CCF81E08093120384EA02
:101FE0008093BC001092380326CF85EC8093BC0010
:101FF0001092380380915702803230F4E0915702FA
:10200000F0E0E95CFD4F10826091570270E0E091D2
:102010003502F091360287E392E00995109257025B
:102020000ACF1092360334CF1F920F920FB60F9241
:1020300011240F900FBE0F901F901895EDE5F3E05F
:102040001382128288EE93E0A0E0B0E0848395834F
:10205000A683B78322E931E03183208325EC30E089
:102060003587248724EC30E03787268720EC30E062
:10207000318B208B21EC30E0338B228B22EC30E053
:10208000358B248B26EC30E0378B268B118E128E0D
:10209000138E148EEAEFF3E0138212828483958309
:1020A000A683B78384EA91E091838083EAE0F4E039
:1020B0001382128286EB91E091838083108A8FEFE6
:1020C00087871686118A87E283871486158612868B
:1020D000118684E0828B82E0838B81E0848B80E1B7
:1020E000858B80E2868B80E4878B80E8808F50E050
:1020F00040E063E0CF010E94330460917901709168
:102100007A0190E080E00E94991B9B01AC0160E0A5
:1021100070E080E89FE30E94F11A609306047093D8
:10212000070480930804909309040895CF93DF93E4
:10213000CDB7DEB7A5970FB6F894DEBF0FBECDBF03
:10214000789484B5826084BD84B5816084BD85B592
:10215000826085BD85B5816085BD80916E0081609E
:1021600080936E0010928100809181008260809344
:102170008100809181008160809381008091800046
:102180008160809380008091B10084608093B10071
:102190008091B00081608093B00080917A0084606B
:1021A00080937A0080917A00826080937A00809197
:1021B0007A00816080937A0080917A0080688093B1
:1021C0007A001092C1007894E0916D03F0916E0353
:1021D00082E08083E0916903F0916A031082E091CC
:1021E0006B03F0916C0387E0808310927503E0919C
:1021F0007103F091720386E08083E0916F03F091A8
:102200007003808180618083E0916F03F09170039F
:10221000808188608083E0916F03F09170038081FA
:1022200080688083E0916F03F091700380818F7DDF
:10223000808384E00E94280161E084E00E94B7026C
:1022400089E00E94280184EA91E090930301809341
:102250000201809169008C7F826080936900E89A16
:1022600080E1809381001092800081E0809366027B
:1022700080EC9FE3909365028093640290938700C3
:102280008093860081E18093810089E00E9428018B
:102290008091800080688093800010928900109265
:1022A00088008091660280618093810081E2F0E085
:1022B000E0E080935700E491E0936102E2E0F0E017
:1022C00080935700E491E0936202E4E0F0E08093B1
:1022D000570084918093630220E044E064E18AE047
:1022E00094E00E9416068AE094E00E94E9048AE0E5
:1022F00094E00E94F10462E08AE094E00E946D04A0
:102300000BE31FE1C8010197F1F785E191E00E941D
:10231000520461E080E00E94750480E091E00E9438
:10232000520462E080E00E9475048BEE90E00E940F
:10233000520463E080E00E94750486ED90E00E9404
:1023400052046EE271E080E00E94BD0466E271E03A
:1023500081E00E94BD046EE171E082E00E94BD0454
:1023600066E171E083E00E94BD046EE071E084E00C
:102370000E94BD0466E071E085E00E94BD0460ED4E
:1023800077E080E090E00E943A038AE094E00E94C7
:10239000E9048AE094E00E94F10462E08AE094E0BB
:1023A0000E946D04C8010197F1F789E691E00E944F
:1023B000520461E080E00E94750484E591E00E948F
:1023C000520462E080E00E9475048FE391E00E9475
:1023D000520463E080E00E9475048AE291E00E946A
:1023E00052042DE7E22E22E0F22E10E000E0C801B8
:1023F0000E940E1AD7018D937D010F5F1F4F00348D
:102400001105A9F72CEB32E09DE7292E92E0392E39
:1024100080E0F10191911F01890F2E173F07C9F745
:102420009091BC0298135AC30E94A90788E198E2D0
:102430000FB6F894A895809360000FBE909360004B
:1024400021E030E04DEB52E061E080E00E94A60C1C
:1024500020918A0130918B0140918C0150918D0126
:102460002AA33BA34CA35DA3AE01405F5F4F5C8FEB
:102470004B8FA8958DE593E00E9408021816190667
:102480004CF58DE593E00E94E6018D3309F01DC601
:102490008DB79EB79E8F8D8F0E946C034B015C01A0
:1024A000D12C8DE593E00E94080202970CF046C300
:1024B000DD2009F434C321E030E046E751E066E076
:1024C0008FE00E94A60C2D8D3E8D0FB6F8943EBF76
:1024D0000FBE2DBF0E946C036B017C01C0920E03E6
:1024E000D0920F03E0921003F092110380910A033F
:1024F00090910B03A0910C03B0910D0397018601FD
:10250000081B190B2A0B3B0B409106035091070344
:102510006091080370910903041715072607370710
:1025200008F4ECC58C159D05AE05BF0508F0E6C5A1
:1025300040910203509103036091040370910503DD
:10254000411551056105710509F4D8C50091FE02D8
:102550001091FF0220910003309101030115110534
:102560002105310509F4CAC5C0920A03D0920B03B4
:10257000E0920C03F0920D0380917801882309F416
:10258000A9C5009306031093070320930803309313
:10259000090380E00E94C606109278018091F8023B
:1025A0009091F902A091FA02B091FB02B701A60145
:1025B000481B590B6A0B7B0B483E53406105710564
:1025C00008F49FC6C092F802D092F902E092FA0293
:1025D000F092FB021092CA021092CB021092CC022F
:1025E0001092CD021092C6021092C7021092C80239
:1025F0001092C90204EF11E08EE00E940303092E3D
:10260000000CAA0BBB0B4091CA025091CB02609107
:10261000CC027091CD024C015D01840E951EA61E68
:10262000B71E8092CA029092CB02A092CC02B092C6
:10263000CD020150110901F704EF11E08FE00E9473
:102640000303092E000CAA0BBB0B4091C60250914C
:10265000C7026091C8027091C9026C017D01C40E6D
:10266000D51EE61EF71EC092C602D092C702E092A7
:10267000C802F092C9020150110901F7C501B40165
:1026800024EF31E040E050E00E944E1A49015A0127
:102690008092CA029092CB02A092CC02B092CD025C
:1026A000C701B60124EF31E040E050E00E944E1A2D
:1026B00029013A014092C6025092C7026092C802B4
:1026C0007092C902C501B4010E94991B9B01AC0123
:1026D00060E070EC8FE794E40E94F11A20E030E0B3
:1026E00040E85FE30E947F1A0E94581C8090060415
:1026F00090900704A0900804B0900904A5019401EB
:102700000E94A01C2FE03FEC4BE55BE30E94801A87
:102710009B01AC0160E070E080E89FE30E94F11A49
:102720006B017C01C301B2010E94991B9B01AC01AA
:1027300060E070EC8FE794E40E94F11A20E030E052
:1027400040E85FE30E947F1A0E94581C9B01AC0185
:10275000C501B4010E94A01C2FE03FEC4BE55BE3F8
:102760000E94801A9B01AC0160E070E080E89FE36A
:102770000E94F11A4B015C0120E030E0A901C70181
:10278000B6010E94EC1A882309F4C7C423E333E995
:1027900048E853E4C701B6010E947F1AC092EC02D8
:1027A000D092ED02E092EE02F092EF026093F0021E
:1027B0007093F1028093F2029093F30220E030E0F4
:1027C00040E151E40E94A01C20E030E040EA50E4E7
:1027D0000E94F11A20E030E040E052E40E94801AAA
:1027E0006093F4027093F5028093F6029093F702DF
:1027F00020E030E0A901C501B4010E94EC1A882351
:1028000009F4A4C423E333E948E853E4C501B4015F
:102810000E947F1A8092E0029092E102A092E2026E
:10282000B092E3026093E4027093E5028093E602C3
:102830009093E70220E030E040E151E40E94A01CC8
:1028400020E030E040EA50E40E94F11A20E030E05D
:1028500040E052E40E94801A6093E8027093E9021B
:102860008093EA029093EB028091CE02823009F4C9
:1028700086C4843009F494C47091F0026091F1022E
:102880005091F2024091F3023091E4022091E5026E
:102890009091E6028091E7027093BE026093BF02BE
:1028A0005093C0024093C1023093C2022093C302EE
:1028B0009093C4028093C50280917701882309F424
:1028C0002DC50E94580D8091780160E0882309F49D
:1028D00085C48CE00E9475048091FD0281117BC447
:1028E00088EB91E00E9452046091FC0270E090E05D
:1028F00080E00E94991B20E030E040E85FE30E9406
:10290000801A20E030E048EC52E40E94A01C20E055
:1029100030E040E85BE30E94A01C6B017C0120E0FA
:1029200030E0A9010E944B1C20E030E040E05FE372
:1029300087FD47C4C701B6010E94801A0E94631B2D
:10294000162F8CED91E01A3028F0143608F03EC4B2
:102950008DED91E00E940A09812F0E949F0C8FED5E
:1029600091E00E940A098091D602882309F485C467
:102970008370833009F038C40E94440B0E94E90937
:102980008091FD02811182C4C090D202D090D30206
:10299000E090D402F090D502C701B60120E83EEEE7
:1029A00046E350E00E944E1A2093D102C701B601BF
:1029B00028EE33E040E050E00E944E1ACA01B9010F
:1029C00020E13EE040E050E00E944E1A2CE330E06F
:1029D00040E050E00E944E1A2093D0026093CF0254
:1029E00062E087E00E9475048091D1028A3020F471
:1029F00084EE91E00E940A098091D1020E949F0C0E
:102A000086EE91E00E940A098091D0028A3020F47B
:102A100084EE91E00E940A098091D0020E949F0CEE
:102A200086EE91E00E940A098091CF028A3020F45C
:102A300084EE91E00E940A098091CF020E949F0CCF
:102A400088EE91E00E940A096091D2027091D3024F
:102A50008091D4029091D5020E94991B6B017C0158
:102A60006091060370910703809108039091090318
:102A70000E94991B9B01AC01C701B6010E94F11A8B
:102A800020E030E048EC52E40E94A01C6B017C0185
:102A900020E030E0A9010E944B1C20E030E040E043
:102AA0005FE387FDFCC3C701B6010E94801A0E9444
:102AB000631B062F862F65E00E94471DF82E63E0FA
:102AC00080E00E94750410E0F11609F4EDC365E0A2
:102AD0008AE094E00E9447041F5FF6CFE6E3F1E04E
:102AE00025E731E0DF0180E09D91890F2A173B0740
:102AF000D9F78093750186E791E0ADE7B2E02191C7
:102B00002D938E179F07D9F70E94A90721E030E087
:102B100046E751E06CEF8FE00E94A60C87CC0E9444
:102B20006C03681979098A099B09DD24D394693CEF
:102B300071058105910508F0B4CCB2CCD110BBCCA5
:102B40008DE593E00E94E601C82E8DE593E00E949A
:102B5000E60189A3C8A21F8E8F8C98A0882A5401F1
:102B6000A2E0AA1AB10821E030E046E751E061E0B6
:102B7000BBEFAB16B3E0BB0608F0A2CC0E946C031F
:102B80002B013C0184010F5F1F4F8DE593E00E94F4
:102B900008028017910788F4D1108DCC0E946C0335
:102BA0006419750986099709DD24D3946536710582
:102BB0008105910550F7D12CE8CFD1107CCC8DE563
:102BC00093E00E94E601582E8DE593E00E94E60115
:102BD0007C01EDB7FEB7EA19FB090FB6F894FEBF0A
:102BE0000FBEEDBF0DB71EB70F5F1F4FA114B1048D
:102BF00081F038018DE593E00E94E601D3018D93C9
:102C00003D01CD01801B910B8A159B0598F3DD24B6
:102C1000D3948DE593E00E94E601B9A1CB0EC50CDB
:102C2000CE0CDD2051F0F8019F01201B310B2A153D
:102C30003B0518F49191C90EF7CF8C1531F021E0C6
:102C400030E046E751E065E03BCC852D8F70823067
:102C500009F489C060F4882309F46AC0813009F45A
:102C600070C021E030E046E751E062E0D5C084303A
:102C700009F43EC108F481C08E3099F7FF2482E048
:102C8000E816F10409F4BAC193E0E916F10409F475
:102C9000E7C1EA94EF2809F07FC0B4E0AB16B104B5
:102CA00008F4B5C0F801C080D180DC24CD24DC2438
:102CB00050814181E280F380FE24EF24FE24928142
:102CC000838197012C0D3D1D215031092115344080
:102CD00008F09DC06DB67EB6470124E0820E911CBF
:102CE000ADB7BEB7A819B9090FB6F894BEBF0FBEED
:102CF000ADBF0DB71EB70F5F1F4F11965C93F80164
:102D0000418392838383E00EF11E5801C01AD10AD9
:102D1000AE14BF0409F466C1C6018A0D9B1D0E9452
:102D20000E1AD50114968C93BFEFAB1ABB0AF0CFE5
:102D300021E030E04DEB52E060E080E00E94A60C24
:102D4000FFCF2AA13BA14CA15DA129833A834B83EC
:102D50005C8324E030E0AE014F5F5F4F60E081E0D4
:102D60000E94A60C02C00E94580DED8DFE8D0FB67C
:102D7000F894FEBF0FBEEDBFADCBFF2433E0E316EA
:102D8000F10409F478C074F451E0E516F10451F14E
:102D900062E0E616F104B9F121E030E046E751E0E7
:102DA00063E03AC084E0E816F10409F475C095E0E8
:102DB000E916F10489F7DD2051F18091FD0221E04F
:102DC00030E0882309F490C0A80165E083E00E9408
:102DD000A60CF8018081811183C0109278010E94B5
:102DE000C606C3CFAFE8B2E0FE013196AF018D91C8
:102DF00081932B8D3C8D2E173F07C9F72FE030E0D4
:102E000061E083E0ADCF3FE0A316B10438F421E0E8
:102E100030E046E751E064E08FE0A2CFF801AFE890
:102E2000B2E0C8010F9621912D938E179F07D9F715
:102E3000EDE7F2E080E09191890FE215F305D9F713
:102E40008093BC028DE7E82E82E0F82E10E000E0CF
:102E5000D7016D917D01C8010E94F10D0F5F1F4FD9
:102E600000341105A9F70E94A90721E030E04DEBDD
:102E700052E062E0C6CFDD2051F2F801808181117D
:102E800007C01092770121E030E0A80163E0B9CFDC
:102E9000F1E0F0937701F7CFDD2009F4B8CFD80146
:102EA0008C9180FF13C08091FD0281110AC0B1E0B6
:102EB000B093FD0280917801882319F080E00E9490
:102EC000C60621E030E0A80164E09BCF1092FD022D
:102ED00080917801882309F497C28091FC02EFCF9A
:102EE000F1E0F09378017BCF46E751E06EEF94CFAD
:102EF000FF2422E0E216F104E1F05CF4EA94EF280A
:102F000009F04ACF20E230E04DE752E061E085E091
:102F100027CF53E0E516F10409F454C064E0E61647
:102F2000F10409F039CF28E030E04EEB52E064E0E4
:102F3000EECF809177028983809178028A83809195
:102F40006F028B83809170028C83809171028D83DC
:102F5000809172028E83809173028F8380917402BC
:102F60008887809175028987809176028A8780910F
:102F700067028B87809168028C87809169028D87B8
:102F800080916A028E8780916B028F8780916C029C
:102F9000888B80916D02898B80916E028A8B1B8A4F
:102FA0001C8A1D8A1E8A8EE58F8B8EE6888F85E6A9
:102FB000898F8AE88A8F2AE130E0AE014F5F5F4F48
:102FC00062E0A5CF0E946C039093790280937A020D
:102FD00070937B0260937C0224E030E049E752E08A
:102FE00063E095CF9401A80161E08EE00E94A60CF9
:102FF0000FB6F8947EBE0FBE6DBEB7CEE3E0AE1640
:10300000B10408F404CFD801AD90BC90BA24AB242D
:10301000BA246401B4E0CB1AD108E5E08E1A910815
:103020008A0C9B1C8114F4E09F0608F0F0CE0E5F22
:103030001F4FF12CE12CD8016D918D01C5018E0D32
:103040009F1D0E94F10DBFEFEB1AFB0AEC14FD046B
:1030500090F321E030E04DEB52E062E08EE080CE74
:10306000E2E0AE16B10408F4D2CED8016C916093C0
:103070009C0211968C9180939D02EDE7F2E080E036
:103080009191890FE215F305D9F78093BC028FE186
:1030900090E00E94F10DF801618180E290E00E94D1
:1030A000F10D6091BC028FE390E00E94F10DD80118
:1030B0008D919C919827892798270E94800621E06E
:1030C00030E04DEB52E063E0C9CF8DE593E00E9424
:1030D000E60100CA31E03093780140930603509333
:1030E000070360930803709309038091FD02811127
:1030F00055CA8091FC020E94C60650CAC816D9065D
:10310000EA06FB0608F04ACA10920A0310920B0363
:1031100010920C0310920D0341CA1092EC0210920F
:10312000ED021092EE021092EF021092F002109255
:10313000F1021092F2021092F3021092F402109235
:10314000F5021092F6021092F70252CB1092E002B2
:103150001092E1021092E2021092E3021092E40255
:103160001092E5021092E6021092E7021092E80235
:103170001092E9021092EA021092EB0275CB709164
:10318000F4026091F5025091F6024091F7023091FD
:10319000E8022091E9029091EA028091EB027CCB57
:1031A0007091EC026091ED025091EE024091EF02BD
:1031B0003091E0022091E1029091E2028091E302DD
:1031C0006BCBC701B6010E947F1AB8CB83EB91E0AD
:1031D0000E945204C8CB8AEA91E0FACF8CE00E94A8
:1031E000750481EA91E0F4CF823009F561E083E073
:1031F0000E94750487ED91E00E940A098091CE0239
:10320000823041F0843081F0813009F0B7CB0E94E8
:103210000C09B4CB60E08AE094E00E94470484ED9E
:1032200091E00E940A09AACB81EE91E0FACF8130A9
:1032300009F0A6CB0E94440B61E08EE00E94750469
:1032400087ED91E00E940A098091CE02823041F020
:10325000843081F0813009F093CB0E940C0990CB2F
:1032600060E08AE094E00E94470484ED91E00E94CF
:103270000A0986CB81EE91E0FACF61E080E00E94FE
:1032800075048CE891E00E9452047ACB62E087E0FA
:103290000E9475048EE791E00E945204D5CBC701CD
:1032A000B6010E947F1A03CC0436C0F5802F65E07A
:1032B0000E94471D923009F1B0F461E09130C1F0F5
:1032C0008DED91E00E940A09F12C23E130E0211BF1
:1032D00031098901F01611060CF58DED91E00E947F
:1032E0000A09F394F7CF933051F064E0943041F73A
:1032F0008AE094E00E944704E7CF62E0F9CF63E000
:10330000F7CFC816D906EA06FB0640F41092F80279
:103310001092F9021092FA021092FB028091DF02E1
:10332000882381F09091FD021092DF028091780154
:10333000911155C031E03093FD02882341F080E0C7
:103340000E94C6068091FD02882309F450C0C090F7
:103350000E03D0900F03E0901003F09011038091C2
:10336000DB029091DC02A091DD02B091DE02A701A8
:103370009601281B390B4A0B5B0BDA01C901843F0C
:103380009140A105B105A0F0C092DB02D092DC0211
:10339000E092DD02F092DE0260E084E00E94B7027B
:1033A000C092D702D092D802E092D902F092DA020B
:1033B0008091D7029091D802A091D902B091DA02FF
:1033C000C81AD90AEA0AFB0A44E6C416D104E10481
:1033D000F10468F061E084E00E94B70208C0109236
:1033E000FD028823B1F08091FC020E94C60680E0B5
:1033F00090E0892B09F43DC80E941402882309F447
:1034000033C80E94000030C861E084E00E94B70227
:1034100058CD61E084E00E94B70294CFF999FECFC5
:1034200092BD81BDF89A992780B50895262FF99904
:10343000FECF1FBA92BD81BD20BD0FB6F894FA9A97
:10344000F99A0FBE01960895052E97FB1EF400947D
:103450000E943B1A57FD07D00E944E1A07FC03D06A
:103460004EF40C943B1A50954095309521953F4F62
:103470004F4F5F4F089590958095709561957F4F60
:103480008F4F9F4F08950E94701AA59F900DB49F73
:10349000900DA49F800D911D11240895A1E21A2E74
:1034A000AA1BBB1BFD010DC0AA1FBB1FEE1FFF1FE8
:1034B000A217B307E407F50720F0A21BB30BE40B38
:1034C000F50B661F771F881F991F1A9469F760957F
:1034D0007095809590959B01AC01BD01CF01089539
:1034E000A29FB001B39FC001A39F700D811D112445
:1034F000911DB29F700D811D1124911D089550588A
:10350000BB27AA270E94971A0C94111C0E94031C27
:1035100038F00E940A1C20F039F49F3F19F426F479
:103520000C94001C0EF4E095E7FB0C94FA1BE92FB9
:103530000E94221C58F3BA17620773078407950785
:1035400020F079F4A6F50C94441C0EF4E0950B2EB3
:10355000BA2FA02D0B01B90190010C01CA01A001E5
:103560001124FF27591B99F0593F50F4503E68F140
:103570001A16F040A22F232F342F4427585FF3CF81
:10358000469537952795A795F0405395C9F77EF452
:103590001F16BA0B620B730B840BBAF09150A1F09B
:1035A000FF0FBB1F661F771F881FC2F70EC0BA0F21
:1035B000621F731F841F48F4879577956795B795A9
:1035C000F7959E3F08F0B0CF9395880F08F09927A4
:1035D000EE0F9795879508950E94D61B08F481E019
:1035E00008950E94051B0C94111C0E940A1C58F09F
:1035F0000E94031C40F029F45F3F29F00C94FA1B51
:1036000051110C94451C0C94001C0E94221C68F360
:103610009923B1F3552391F3951B550BBB27AA278B
:1036200062177307840738F09F5F5F4F220F331FC5
:10363000441FAA1FA9F335D00E2E3AF0E0E832D08D
:1036400091505040E695001CCAF72BD0FE2F29D090
:10365000660F771F881FBB1F261737074807AB0762
:10366000B0E809F0BB0B802DBF01FF2793585F4FD7
:103670003AF09E3F510578F00C94FA1B0C94451CCF
:103680005F3FE4F3983ED4F3869577956795B795B9
:10369000F7959F5FC9F7880F911D9695879597F9C4
:1036A0000895E1E0660F771F881FBB1F621773073D
:1036B0008407BA0720F0621B730B840BBA0BEE1F52
:1036C00088F7E09508950E946A1B6894B1110C94E4
:1036D000451C08950E942A1C88F09F5798F0B92F26
:1036E0009927B751B0F0E1F0660F771F881F991F37
:1036F0001AF0BA95C9F714C0B13091F00E94441C79
:10370000B1E008950C94441C672F782F8827B85F88
:1037100039F0B93FCCF3869577956795B395D9F78E
:103720003EF490958095709561957F4F8F4F9F4F98
:103730000895E89409C097FB3EF4909580957095A4
:1037400061957F4F8F4F9F4F9923A9F0F92F96E9ED
:10375000BB279395F695879577956795B795F11162
:10376000F8CFFAF4BB0F11F460FF1BC06F5F7F4FFF
:103770008F4F9F4F16C0882311F096E911C0772311
:1037800021F09EE8872F762F05C0662371F096E81A
:10379000862F70E060E02AF09A95660F771F881FE9
:1037A000DAF7880F9695879597F90895990F00088D
:1037B000550FAA0BE0E8FEEF16161706E807F90703
:1037C000C0F012161306E407F50798F0621B730B9E
:1037D000840B950B39F40A2661F0232B242B252B1F
:1037E00021F408950A2609F4A140A6958FEF811DC2
:1037F000811D089597F99F6780E870E060E0089563
:103800009FEF80EC089500240A94161617061806F8
:103810000906089500240A941216130614060506D4
:103820000895092E0394000C11F4882352F0BB0F65
:1038300040F4BF2B11F460FF04C06F5F7F4F8F4FC8
:103840009F4F089557FD9058440F551F59F05F3F03
:1038500071F04795880F97FB991F61F09F3F79F0B2
:1038600087950895121613061406551FF2CF469534
:10387000F1DF08C0161617061806991FF1CF8695B6
:103880007105610508940895E894BB27662777279A
:10389000CB0197F908950E94D61B08F48FEF089585
:1038A00016F00C94121D0C94001C68940C94FA1BD6
:1038B0000E942A1CA8F39923C1F3AEF3DF93CF93A0
:1038C0001F930F93FF92C92FDD2788232AF021979A
:1038D000660F771F881FDAF720E030E040E85FEBE3
:1038E0009FE3883920F0803E38F021968F770E9440
:1038F000801AE8E6F0E004C00E94801AE5E9F0E0F2
:103900000E94201D8B01BE01EC01FB2E6F57710937
:103910007595771F880B990B0E949B1B28E132E756
:1039200041E35FE30E94B31CAF2D9801AE01FF900D
:103930000F911F91CF91DF910E94971A0C94111C47
:103940000E94B31C0C94111C0E94031C38F00E94AE
:103950000A1C20F0952311F00C94FA1B0C94001C07
:1039600011240C94451C0E94221C70F3959FC1F3F6
:10397000950F50E0551F629FF001729FBB27F00D1D
:10398000B11D639FAA27F00DB11DAA1F649F662772
:10399000B00DA11D661F829F2227B00DA11D621FC1
:1039A000739FB00DA11D621F839FA00D611D221F7B
:1039B000749F3327A00D611D231F849F600D211D5F
:1039C000822F762F6A2F11249F5750409AF0F1F0E2
:1039D00088234AF0EE0FFF1FBB1F661F771F881F4B
:1039E00091505040A9F79E3F510580F00C94FA1B6E
:1039F0000C94451C5F3FE4F3983ED4F3869577958D
:103A00006795B795F795E7959F5FC1F7FE2B880FF0
:103A1000911D9695879597F908950E94D61B880B5E
:103A2000990B08959F3F31F0915020F48795779539
:103A30006795B795880F911D9695879597F9089585
:103A4000DF93CF931F930F93FF92EF92DF927B014F
:103A50008C01689406C0DA2EEF010E94B31CFE01AF
:103A6000E894A5912591359145915591A6F3EF01E3
:103A70000E94971AFE019701A801DA9469F7DF9076
:103A8000EF90FF900F911F91CF91DF910895991BB7
:103A900079E004C0991F961708F0961B881F7A9545
:103AA000C9F780950895692796276927782787277A
:103AB00078270895EE0FFF1F0590F491E02D0994EB
:0E3AC00081E090E0F8940C94651DF894FFCF1F
:103ACE00EA017803780300001F1F1F0000000000AA
:103ADE001E1E1E00000000001C1C1C00000000002A
:103AEE001818180000000000101010000000060941
:103AFE0009060000000000C70000000000000000E2
:103B0E0000000000000000007F000DBBA0000DBBF8
:103B1E00A000010F6E01EA0000000000000000008E
:103B2E000000000000000000000000000000000087
:103B3E00000000000000FF01016E0F004014540051
:103B4E004010503D00038FFDFF8E4D48544700003E
:103B5E0000004A02AA01D70197020802E601FA0103
:103B6E00000000000304D6038205AC03CF03BC03A0
:103B7E00AD03000000004704AA0182058105160668
:103B8E003304FD05DE0543006E616E00696E66004E
:103B9E006F76660046002D2D2D2D2D002020002540
:0E3BAE00002D4B0030003A00206C656674005C
:107E0000112484B714BE81FFF0D085E080938100F7
:107E100082E08093C00088E18093C10086E0809377
:107E2000C20080E18093C4008EE0C9D0259A86E02C
:107E300020E33CEF91E0309385002093840096BBD3
:107E4000B09BFECF1D9AA8958150A9F7CC24DD24C4
:107E500088248394B5E0AB2EA1E19A2EF3E0BF2EE7
:107E6000A2D0813461F49FD0082FAFD0023811F036
:107E7000013811F484E001C083E08DD089C08234E0
:107E800011F484E103C0853419F485E0A6D080C0E4
:107E9000853579F488D0E82EFF2485D0082F10E0AE
:107EA000102F00270E291F29000F111F8ED06801E7
:107EB0006FC0863521F484E090D080E0DECF843638
:107EC00009F040C070D06FD0082F6DD080E0C81688
:107ED00080E7D80618F4F601B7BEE895C0E0D1E017
:107EE00062D089930C17E1F7F0E0CF16F0E7DF06D8
:107EF00018F0F601B7BEE89568D007B600FCFDCFD4
:107F0000A601A0E0B1E02C9130E011968C91119780
:107F100090E0982F8827822B932B1296FA010C0160
:107F200087BEE89511244E5F5F4FF1E0A038BF0790
:107F300051F7F601A7BEE89507B600FCFDCF97BE46
:107F4000E89526C08437B1F42ED02DD0F82E2BD052
:107F50003CD0F601EF2C8F010F5F1F4F84911BD097
:107F6000EA94F801C1F70894C11CD11CFA94CF0C13
:107F7000D11C0EC0853739F428D08EE10CD085E9AC
:107F80000AD08FE07ACF813511F488E018D01DD067
:107F900080E101D065CF982F8091C00085FFFCCF94
:107FA0009093C60008958091C00087FFFCCF809118
:107FB000C00084FD01C0A8958091C6000895E0E648
:107FC000F0E098E1908380830895EDDF803219F02E
:107FD00088E0F5DFFFCF84E1DECF1F93182FE3DFCA
:107FE0001150E9F7F2DF1F91089580E0E8DFEE27F6
:047FF000FF270994CA
:027FFE00040479
:0400000300007E007B
:00000001FF
