:100000000C940E090C94D4330C94AD330C94360933
:100010000C9436090C9436090C9436090C94360964
:100020000C9436090C9436090C9436090C94360954
:100030000C9436090C94E7350C9436090C94360967
:100040000C9463330C9436090C942B330C940533C5
:100050000C9436090C9436090C9436090C94360924
:100060000C94FB330C94360908000000BE9224491E
:10007000123EABAAAA2ABECDCCCC4C3E00000080DA
:10008000BEABAAAAAA3E00000000BF000000803F4D
:100090000000000000084178D3BB4387D1133D190D
:1000A0000E3CC3BD4282AD2B3E68EC8276BED98F3A
:1000B000E1A93E4C80EFFFBE01C4FF7F3F0000007E
:1000C00000002D2D2D2D2D2D2D2D2D2D2D2D2D2DBA
:1000D0002D2D2D2D2D2D0020202020544F57455201
:1000E0002047415244454E2020202000204D4F44BF
:1000F000554C415220485944524F504F4E4943208D
:10010000002D2D2D2D2D2D2D2D2D2D2D2D2D2D2D4C
:100110002D2D2D2D2D004B002D2D2D2D2D0046008C
:100120002D2D2D2D0043002D2D2D2D004B002D2D7F
:100130002D2D2D0046002D2D2D2D0043002D2D2D74
:100140002D002D2D2D2D2D2D2D2D2D2D2D2D2D2D0C
:100150002D2D2D2D2D2D2D2D2D2D2D2D2D2D004BDE
:1001600000C2B04600C2B0430020202020696E7457
:1001700065726E616C203A20004B00C2B04600C22E
:10018000B043002020202065787465726E616C2079
:100190003A200054656D7065726174757265730004
:1001A0002D2D3A2D2D3A2D2D002D2D3A2D2D3A2D78
:1001B0002D00206C6566740030003A0030003A0073
:1001C00030002020202020202054696D6572203AC4
:1001D0002000202057617465722070756D70203A80
:1001E000206F6666002500202057617465722070BC
:1001F000756D70203A206F6E204020005365727636
:10020000696365206D6F6465203A2064697361627B
:100210006C65640053657276696365206D6F646513
:10022000203A20656E61626C6564002D2D2D2D2DA8
:100230002D2D2D2D2D2D5354415455532D2D2D2D18
:100240002D2D2D2D2D2D2D00000000002400270028
:100250002A0000000000250028002B0004040404EC
:100260000404040402020202020203030303030360
:10027000010204081020408001020408102001023D
:100280000408102000000008000201000003040719
:1002900000000000000000002D2D2D2D70726F67F2
:1002A00072657373206261722D2D2D2D0054696D5E
:1002B00065723A202D2D3A2D2D3A2D2D206C656634
:1002C000740054653A2D2D2D2D2D2D202054693A82
:1002D0002D2D2D2D2D2D0057617465722070756D9B
:1002E000703A202D2D2D2D2D2D2D2D00526573753D
:1002F0006C743A20756E6B6E6F776E20636F6D6DE8
:10030000616E642100526573756C743A20696E7673
:10031000616C69642076616C7565212050574D20B1
:100320006672657175656E6379206D757374206290
:10033000652067726561746572207468616E203033
:100340002E0020487A2E00526573756C743A205046
:10035000574D206672657175656E637920636861BB
:100360006E67656420746F2000526573756C743A13
:10037000206572726F722100526573756C743A2039
:10038000696E76616C69642076616C756521204EBA
:10039000544320626574612076616C7565206D75CB
:1003A0007374206265206772656174657220746879
:1003B000616E20302E00204B2E00526573756C74D8
:1003C0003A204E544320626574612076616C7565F5
:1003D000206368616E67656420746F2000526573E6
:1003E000756C743A206572726F7221005265737574
:1003F0006C743A20696E76616C69642076616C7504
:10040000652100526573756C743A2074656D706572
:1004100072617475726520756E69742073657420DD
:10042000746F204B656C76696E2E00526573756C27
:10043000743A2074656D70657261747572652075AB
:100440006E69742073657420746F204661687265EC
:100450006E686569742E00526573756C743A207409
:10046000656D706572617475726520756E69742052
:1004700073657420746F2043656C736975732E0007
:10048000526573756C743A206572726F72210052F6
:100490006573756C743A20696E76616C6964207658
:1004A000616C75652100526573756C743A207465D2
:1004B0006D70657261747572652073656E736F72AD
:1004C00020636F6E66696775726174696F6E20690B
:1004D000732073657420746F20626F746820657870
:1004E0007465726E616C20616E6420696E746572F1
:1004F0006E616C2073656E736F72732E005265733C
:10050000756C743A2074656D70657261747572658E
:100510002073656E736F7220636F6E6669677572A4
:100520006174696F6E2069732073657420746F2025
:10053000696E7465726E616C2073656E736F722084
:100540006F6E6C792E00526573756C743A20746509
:100550006D70657261747572652073656E736F720C
:1005600020636F6E66696775726174696F6E20696A
:10057000732073657420746F2065787465726E6182
:100580006C2073656E736F72206F6E6C792E0052E3
:100590006573756C743A2074656D706572617475FD
:1005A00072652073656E736F7220636F6E66696724
:1005B00075726174696F6E2069732073657420743D
:1005C0006F206E6F6E652E00526573756C743A20E5
:1005D0006572726F722100526573756C743A20698E
:1005E0006E76616C69642076616C75652120576157
:1005F0007465722070756D70206F66662D74696DFC
:1006000065206D757374206265206C65737320744A
:1006100068616E203731353832206D696E757465CA
:10062000732E00206D696E7574652873292E005233
:100630006573756C743A2077617465722070756D9E
:1006400070206F66662D74696D65206368616E67E2
:10065000656420746F2000526573756C743A206570
:1006600072726F722100526573756C743A20696EF4
:1006700076616C69642076616C75652120576174C0
:1006800065722070756D70206F6E2D74696D6520B8
:100690006D757374206265206C6573732074686176
:1006A0006E203731353832206D696E757465732E62
:1006B00000206D696E7574652873292E005265736C
:1006C000756C743A2077617465722070756D702056
:1006D0006F6E2D74696D65206368616E6765642057
:1006E000746F2000526573756C743A206572726F76
:1006F000722100252E00526573756C743A20696E64
:1007000076616C69642076616C756521205761742F
:1007100065722070756D70207370656564207265F8
:100720006D61696E732061742000252E005265731F
:10073000756C743A2077617465722070756D7020E5
:100740007370656564206368616E67656420746FAB
:1007500020004E6F74653A20706C65617365207778
:10076000616974207768696C6520746865207761B9
:100770007465722070756D70207370656564206992
:1007800073206368616E67696E672E0052657375CA
:100790006C743A206572726F722100526573756CC9
:1007A000743A20696E76616C69642076616C756557
:1007B0002100526573756C743A20726567756C61BF
:1007C0007220737461747573207570646174652030
:1007D000656E61626C65642E00526573756C743A67
:1007E00020726567756C6172207374617475732013
:1007F000757064617465732064697361626C6564AB
:100800002E00526573756C743A206572726F722196
:1008100000526573756C743A20696E76616C696418
:100820002076616C75652100526573756C743A2091
:1008300073657276696365206D6F646520656E61AE
:10084000626C65642C2077617465722070756D70C0
:100850002069732074656D706F7261727920747590
:10086000726E6564206F66662E00526573756C74D7
:100870003A2073657276696365206D6F64652064E4
:10088000697361626C65642C207761746572207095
:10089000756D7020697320636F6E74726F6C6C6518
:1008A00064206279207468652074696D65722E0019
:1008B000526573756C743A206572726F7221002DE7
:1008C0002D2D2D2D2D2D2D2D2D2D2D2D2D2D2D2D58
:1008D0002D2D2D2D2D2D2D2D2D2D2D2D2D2D2D2D48
:1008E0002D2D2D2D2D2D2D2D2D2D2D2D0020487A0A
:1008F00000202020202020202050574D20667265A7
:100900007175656E6379203A2000204B002020200D
:10091000202020204E544320626574612076616C53
:100920007565203A20004E2F41004B656C76696E4C
:100930000046616872656E686569740043656C7332
:1009400069757300202020202054656D70657261E8
:100950007475726520756E6974203A20004E2F41BF
:100960000065787465726E616C20616E6420696EDA
:100970007465726E616C00696E7465726E616C0094
:1009800065787465726E616C006E6F6E650054659B
:100990006D70657261747572652073656E736F72C8
:1009A000287329203A2000206D696E7574652873BC
:1009B0002900202057617465722070756D70206F5A
:1009C00066662D74696D65203A2000206D696E752C
:1009D0007465287329002020205761746572207087
:1009E000756D70206F6E2D74696D65203A20002042
:1009F0002020202057617465722070756D702073FF
:100A000074617465203A206F6666002500202020FE
:100A1000202057617465722070756D702073746149
:100A20007465203A206F6E20402000202020202076
:100A30002020202053657276696365206D6F6465A0
:100A4000203A2064697361626C6564002020202074
:100A5000202020202053657276696365206D6F64C5
:100A600065203A20656E61626C65640030003A0072
:100A700030003A003000200030002E0030002E0000
:100A800020202020202020204669726D7761726529
:100A90002064617465203A200030003A0030003A4A
:100AA000003000200030002E0030002E00202020DA
:100AB0002020202020417373656D626C7920646171
:100AC0007465203A200030003A0030003A003000CF
:100AD000200030002E0030002E002020202020207A
:100AE00020204861726477617265206461746520BA
:100AF0003A200020202020204861726477617265CE
:100B00002076657273696F6E203A20560028756EE4
:100B10006B6E6F776E206D6963726F636F6E747248
:100B20006F6C6C657229002841546D6567613332C2
:100B300038502900200030002020202020202020B4
:100B4000415652207369676E6174757265203A2050
:100B5000002D2D2D2D2D2D2D2D2D2D2D2D2D2D2DF2
:100B60002D2D2D2D2D494E464F2D2D2D2D2D2D2D3D
:100B70002D2D2D2D2D2D2D2D2D2D2D2D2D2D0052AD
:100B80006573756C743A2072657374617274696E02
:100B90006720636F6E74726F6C6C6572206E6F7716
:100BA0002C20706C6561736520776169742E002D4F
:100BB0002D2D2D2D2D2D2D2D2D2D2D2D2D2D2D2D65
:100BC0002D2D2D2D2D2D2D2D2D2D2D2D2D2D2D2D55
:100BD0002D2D2D2D2D2D2D2D2D2D2D2D2D2D2D2D45
:100BE0002D2D2D2D2D2D2D2D2D2D2D2D2D2D2D2D35
:100BF0002D2D2D2D2D2D004E6F74653A20736574AB
:100C000074696E677320617265206175746F6D61C0
:100C1000746963616C6C7920736176656420746FAC
:100C20002074686520696E7465726E616C2045453C
:100C300050524F4D2E002020202020202020202008
:100C4000202020202020583D343930205B487A5D18
:100C50002062792064656661756C742E0020202006
:100C60002070776D667265713D58203A2073657407
:100C70002077617465722070756D7020647269767A
:100C800065722050574D206672657175656E637987
:100C900020696E20486572747A2C00202020202064
:100CA0002020202020202020202020583D333935AE
:100CB00030205B4B5D2062792064656661756C74E1
:100CC0002E00202020206E7463626574613D5820E0
:100CD0003A207365742074656D7065726174757205
:100CE000652073656E736F72206265746120766132
:100CF0006C756520696E204B656C76696E2C0020E2
:100D000020202020202020202020202020202058AB
:100D10003D343A204B656C76696E2E0020202020F1
:100D2000202020202020202020202020583D323A42
:100D30002046616872656E686569742C0020202009
:100D400020202020202020202020202020583D313D
:100D50003A2043656C736975732028646566617514
:100D60006C74292C0020202074656D70756E697478
:100D70003D58203A207365742074656D706572610A
:100D80007475726520756E69742C002020202020F7
:100D90002020202020202020202020583D333A20D1
:100DA000626F74682065787465726E616C20616E24
:100DB0006420696E7465726E616C2E0020202020A4
:100DC000202020202020202020202020583D323AA2
:100DD00020696E7465726E616C2C002020202020CA
:100DE0002020202020202020202020583D313A2083
:100DF00065787465726E616C2C00202020202020A4
:100E000020202020202020202020583D303A206E15
:100E10006F6E65202864656661756C74292C00749A
:100E2000656D7073656E736F72733D58203A2073F1
:100E300065742074656D7065726174757265207378
:100E4000656E736F7220636F6E6669677572617429
:100E5000696F6E2C002020202020202020202020C0
:100E600020202020207768656E2073657420746FC1
:100E70002030207468652077617465722070756D0C
:100E800070206973207065726D616E656E746C7927
:100E9000207475726E6564206F6E2E0020202020F5
:100EA000202020202020202020202020583D302ECF
:100EB0002E2E3731353832205B6D696E5D2C002067
:100EC0002020206F666674696D653D58203A207356
:100ED00065742077617465722070756D70206F661F
:100EE000662D74696D6520696E206D696E75746517
:100EF000732C0020202020202020202020202020B3
:100F00002020207768656E2073657420746F203010
:100F1000207468652077617465722070756D70202B
:100F20006973207065726D616E656E746C79207482
:100F300075726E6564206F66662E0020202020206A
:100F40002020202020202020202020583D302E2E20
:100F50002E3731353832205B6D696E5D2C002020D4
:100F60002020206F6E74696D653D58203A207365AE
:100F7000742077617465722070756D70206F6E2DAE
:100F800074696D6520696E206D696E757465732C6A
:100F90000020202020202020202020202020202071
:100FA00020583D302E2E2E313030205B255D2E0016
:100FB000202070756D7073706565643D58203A200F
:100FC0007365742077617465722070756D7020731D
:100FD0007065656420696E2070657263656E7473F8
:100FE0002C00202020202020202020202020202015
:100FF0002020583D313A20656E61626C656420287E
:1010000064656661756C74292E00202020202020E4
:1010100020202020202020202020583D303A20640D
:10102000697361626C65642C002020202020737439
:10103000617475733D58203A207072696E74207225
:101040006567756C61722073746174757320757057
:1010500064617465732C0020202020202020202033
:1010600020202020202020583D313A20656E6162EA
:101070006C65642E002020202020202020202020AD
:101080002020202020583D303A2064697361626C32
:101090006564202864656661756C74292C0073652D
:1010A00072766963656D6F64653D58203A2073659B
:1010B000742073657276696365206D6F64652C00BA
:1010C000202020202020202020696E666F203A20DA
:1010D0007072696E7420636F6E74726F6C6C65727F
:1010E00020696E666F726D6174696F6E2E002020CC
:1010F0002020202072657374617274203A2072651A
:10110000737461727420636F6E74726F6C6C65724D
:101110002E0020202020202020202068656C7020B8
:101120003A207072696E7420746869732064657304
:101130006372697074696F6E2E002D2D2D2D2D2D0B
:101140002D2D2D2D2D2D2D2D2D2D2D2D2D2D2D2DCF
:101150002D2D2D2D2D2D2D2D2D2D2D2D48454C504A
:101160002D2D2D2D2D2D2D2D2D2D2D2D2D2D2D2DAF
:101170002D2D2D2D2D2D2D2D2D2D2D2D2D2D2D2D9F
:101180002D0056616C75653A2000436F6D6D616E80
:10119000643A2000496E7075743A20002D4B004669
:1011A0000043002D2D2D2D002D4B00460043002D1A
:1011B0002D2D2D0020002000736572766963652057
:1011C0006D6F646521002D2D3A2D2D3A2D2D0020B7
:1011D0006C6566740030003A0030003A003000540C
:1011E000653A2D2D2D2D2D2D202054693A2D2D2D94
:1011F0002D2D2D006F66662020202020006F666652
:10120000202020202000313030250025002000251E
:10121000002020006F6E20400000F13511241FBE19
:10122000CFEFD8E0DEBFCDBF12E0A0E0B1E0EEE14D
:10123000F3E702C005900D92AE39B107D9F725E06A
:10124000AEE9B2E001C01D92A530B207E1F719E0A6
:10125000CEE0D9E004C02197FE010E946A39CD306A
:10126000D107C9F70E943C1E0C948D390C940000E4
:10127000F89481E08093CE0478940895DC01ED9198
:10128000FC910190F081E02D09950895EF92FF9275
:101290000F931F93CF93DF93FB0164916623E9F0D3
:1012A0007F018C01D0E0C0E0D801ED91FC9101906C
:1012B000F081E02DC8010995892B39F02196FE01B6
:1012C000EE0DFF1D64916111EFCFCE01DF91CF9143
:1012D0001F910F91FF90EF900895D0E0C0E0F5CFFF
:1012E000CF92DF92EF92FF920F931F93CF93DF93F2
:1012F0004115510509F16A018C01E62EF72ED0E067
:10130000C0E0D7016D917D01D801ED91FC91019074
:10131000F081E02DC8010995892B21F02196CC168A
:10132000DD0679F7CE01DF91CF911F910F91FF90EC
:10133000EF90DF90CF900895EA01F4CFEFEFF3E064
:101340001382128288EE93E0A0E0B0E0848395835C
:10135000A683B7838AEB91E09183808385EC90E04C
:101360009587848784EC90E09787868780EC90E06F
:10137000918B808B81EC90E0938B828B82EC90E060
:10138000958B848B86EC90E0978B868B118E128EDA
:10139000138E148E0895FC01938D848D981720F47C
:1013A000891B990B019708952FE330E0291B310920
:1013B000820F932F911D0895FC01918D828D9817B6
:1013C00061F0A28DAE0FBF2FB11D5D968C91928DF5
:1013D0009F5F9F73928F90E008958FEF9FEF089526
:1013E000FC01918D828D981731F0828DE80FF11DEF
:1013F000858D90E008958FEF9FEF0895FC01918D0A
:10140000228D892F90E0805C9F4F821B91098F7302
:10141000992708958FEF93E00E94FE0921E0892B20
:1014200009F420E0822F0895FC01A48DA80FB92FA4
:10143000B11DA35ABF4F2C91848D90E001968F73FC
:101440009078848FA689B7892C93A089B1898C91D3
:10145000837080648C93938D848D98130895028893
:10146000F389E02D80818F7D8083F8CF0F931F93C8
:10147000CF93DF93EC0181E0888F9B8D8C8D981743
:10148000B1F0062F8B8D90E001968F739078182F16
:101490008C8D81131EC00FB607FCFACFE889F9893D
:1014A000808185FFF5CFCE010E94140AF1CFE88933
:1014B000F989808185FFE5CF9FB7F894EE89FF8990
:1014C0006083E889F98980818370806480839FBF0D
:1014D00010C0EB8DEC0FFD2FF11DE35AFF4F008381
:1014E0009FB7F8941B8FEA89FB8980818062808393
:1014F0009FBF81E090E0DF91CF911F910F91089500
:10150000CF93DF93EC01888D882371F0EA89FB8902
:1015100003C00FB607FE0BC0808185FDFACFA889F6
:10152000B9898C9186FFF5CFDF91CF9108958081A5
:1015300085FFECCFE889F989808185FFE7CFCE016F
:101540000E94140AE3CF80E090E0892B21F00E94F2
:101550000A0A811101C008950E940000FCCF90E0AA
:10156000FC01EC57FD4F2491FC01E059FD4F3491F3
:10157000845A9D4FFC0184918823A1F0211113C04E
:10158000E82FF0E0EE0FFF1FEE5AFD4FA591B4914A
:101590008FB7F894611134C09C91E32FE095E92353
:1015A000EC938FBF08952330A9F060F02730E1F06D
:1015B000283001F1243021F7E0E8F0E090819F7DB0
:1015C0009083DECF213061F02230D1F694B59F7D3B
:1015D00094BDD6CFE0E8F0E090819F779083D0CFA4
:1015E00094B59F7794BDCCCFE0EBF0E090819F77EE
:1015F0009083C6CFE0EBF0E090819F7D9083C0CFD9
:10160000EC91E32BEC93CDCFCF93DF9390E0FC01F3
:10161000E059FD4F2491845A9D4FFC018491882309
:1016200019F190E0880F991FFC01E85BFD4FA5912F
:10163000B491FC01EE5AFD4FC591D491662349F057
:101640006230A9F08FB7F894EC91E22BEC938FBF46
:101650000BC09FB7F8948C91E22FE0958E238C936A
:101660008881E823E8839FBFDF91CF9108959FB7DA
:10167000F8943C91822F809583238C93E881E22B10
:10168000E8839FBFF1CF8E3008F08E50209130015B
:1016900090E4299F900111248770822B80937C0015
:1016A000EAE7F0E0808180648083808186FDFDCF61
:1016B000809178009091790008958230910538F0FA
:1016C000880F991F880F991F05970197F1F70895C3
:1016D0003FB7F89480917D0390917E03A0917F03A2
:1016E000B091800326B5A89B05C02F3F19F0019645
:1016F000A11DB11D3FBFBA2FA92F982F8827BC016C
:10170000CD01620F711D811D911D660F771F881F0E
:10171000991F660F771F881F991F08958F929F92B8
:10172000AF92BF92CF92DF92EF92FF926B017C015A
:101730000E94680B4B015C01C114D104E104F10467
:1017400031F420C0C114D104E104F104D9F00E94A5
:10175000680B681979098A099B09683E73408105FD
:10176000910580F321E0C21AD108E108F10888EE62
:10177000880E83E0981EA11CB11CC114D104E104A1
:10178000F10429F7FF90EF90DF90CF90BF90AF90DA
:101790009F908F9008952FB7F8946091790370917E
:1017A0007A0380917B0390917C032FBF0895089565
:1017B00085ED8093BC00ECEBF0E0808184FDFDCFF3
:1017C000109252030895811104C085E88093BC00F3
:1017D000089585EC8093BC00089520912C03260F7A
:1017E0003327331F21323105F4F420915203243082
:1017F000E1F4662389F0A82FB92F90E080E0E09112
:101800002C032D91AC01465F5C4FE40FF52FF11DC9
:1018100020830196861798F380912C03680F6093BC
:101820002C0380E0089581E0089582E00895EEEFB2
:10183000F2E01382128288EE93E0A0E0B0E08483AD
:101840009583A683B78388EA91E091838083089586
:10185000089508950895E091FB028091FA02E81737
:1018600030F4F0E0E652FD4F808190E008958FEF74
:101870009FEF08959091FB028091FA02981758F417
:10188000E92FF0E0E652FD4F208130E09F5F90931A
:10189000FB02C90108952FEF3FEFFBCF8091FA02C1
:1018A0009091FB02891B990B0895CF92DF92EF92E2
:1018B000FF920F931F93CF93DF938C01CB016A01AB
:1018C0002091D9022223E9F04115510581F0EB0165
:1018D0007B01E40EF51E6991D801ED91FC91019018
:1018E000F081E02DC8010995CE15DF05A1F7C601ED
:1018F000DF91CF911F910F91FF90EF90DF90CF90EC
:101900000895642F0E94ED0BF2CFCF93DF931F92C7
:10191000CDB7DEB7FC0169839091D9029923F1F02C
:101920009091FC02903250F081E090E093838283AA
:1019300090E080E00F90DF91CF9108958091FD02BB
:10194000E82FF0E0E754FD4F998190838F5F8093FB
:10195000FD028093FC0281E090E0ECCF61E0CE01DB
:1019600001960E94ED0B81E090E0E4CF0895609332
:10197000B5027093B6028093B7029093B802645D8B
:101980007E4F8F4F9F4F6093B1027093B20280934E
:10199000B3029093B40282E090E09093B0028093FF
:1019A000AF020E94CB0B6093AB027093AC028093AA
:1019B000AD029093AE0208950F931F930E94CB0B3C
:1019C0000091AB021091AC022091AD023091AE02B9
:1019D000AB01BC01401B510B620B730B483E5340E3
:1019E0006105710518F14091B5025091B602609100
:1019F000B7027091B8024F5F5F4F6F4F7F4F4093B8
:101A0000B5025093B6026093B7027093B802D90141
:101A1000C80188519C4FAF4FBF4F8093AB0290934A
:101A2000AC02A093AD02B093AE02C8CF6091B502F4
:101A30007091B6028091B7029091B8021F910F91F8
:101A400008952F923F924F925F926F927F928F9262
:101A50009F92AF92BF92CF92DF92EF92FF920F933D
:101A60001F93CF93DF9300D000D01F92CDB7DEB786
:101A70004B015C018091A0029091A102A091A20271
:101A8000B091A30288159905AA05BB0509F4F3C016
:101A90000F2EFCE3CF2ED12CE12CF12CF02DC50123
:101AA000A70196010E945D36E4EAF2E06083CA0174
:101AB000B901A70196010E945D366093A502C50198
:101AC000B40120E13EE040E050E00E945D36CA01F2
:101AD000B90128E130E040E050E00E945D366093BB
:101AE000A602C501B40120E831E541E050E00E94C2
:101AF0005D3669017A01C982DA82EB82FC82CA0111
:101B0000B9016C5F7F4F8F4F9F4F27E030E040E07F
:101B100050E00E945D366F5F6093A70200E010E026
:101B2000980140E0512C412C0F2EFEE67F2EF02D27
:101B300066246394312C212C4D834D81E42FF0E0F9
:101B4000EE54F84FCF0183709927892B39F5CF01D7
:101B500064E670E00E945639892B29F5CF0160E9CF
:101B600071E00E945639892B19F5872D962DA32DEA
:101B7000B22D080F191F2A1F3B1FD901C801AA2720
:101B8000BB2749815A816B817C81481759076A07B5
:101B90007B0798F0ED81EF5FED83CFCF8DE691E08D
:101BA000A52DB42DE6CF872D962DA32DB22DE1CFF7
:101BB0008DE691E0A52DB42DDCCF4D814093AA0296
:101BC0008DE691E0A0E0B0E01E161F06D4F4CF0130
:101BD00083709927892B09F066C0CF0164E670E015
:101BE0000E945639892B09F063C0CF0160E971E08A
:101BF0000E945639892B09F060C08EE691E0A0E082
:101C0000B0E0081B190B2A0B3B0BC01AD10AE20AE1
:101C1000F30ACF0164E670E00E9456399C01CF01BF
:101C200060E971E00E94563960E0AF0143705527CA
:101C30007CE1A62FB0E0A856BE4F4C90512C712CE1
:101C4000612CC414D504E604F70438F0C418D50890
:101C5000E608F7086F5F6C30A8F1E4EAF2E06F5F26
:101C60006583C394C4828092A0029092A102A09244
:101C7000A202B092A3020F900F900F900F900F90BE
:101C8000DF91CF911F910F91FF90EF90DF90CF9058
:101C9000BF90AF909F908F907F906F905F904F908C
:101CA0003F902F9008958DE691E0A0E0B0E0A9CF9D
:101CB0008EE691E0A0E0B0E0A4CF8DE691E0A0E058
:101CC000B0E09FCF613009F0B4CF472E1E161F063B
:101CD0000CF0B4CF4115510509F0B0CF0F2EFDE146
:101CE0004F2EF02D2115310509F0A8CF0F2EFDE163
:101CF0004F2EF02D009709F4A1CF472E9FCF0E94C1
:101D0000DC0C0E94210D8091AA0290E08E54984F25
:101D100008950E94DC0C0E94210D8091A90290E0A0
:101D200008950E94DC0C0E94210D8091A80290E091
:101D300008950E94DC0C0E94210D8091A40290E085
:101D400008950E94DC0C0E94210D8091A50290E074
:101D500008950E94DC0C0E94210D8091A60290E063
:101D60000895FC01248131E03093D90220939F0231
:101D70001092FD021092FC028385682BE091FE0216
:101D8000F091FF020190F081E02D8EEF92E0099535
:101D90008091FC02813208F040C090915203911171
:101DA000FCCF30919F0292E09093520391E0909388
:101DB00054039FEF90935103109276038093750321
:101DC000882369F0E9EBF2E0A5E5B3E0815090E00B
:101DD00086549D4F21912D93E817F907D9F710925A
:101DE000770390917703832F880F892B8093770354
:101DF000809153038130C1F085EE8093BC008091C7
:101E000052038230E1F3809151038F3F31F0809192
:101E10005103803211F0809151031092FD02109213
:101E2000FC021092D902089510925303ABEBB0E07C
:101E3000ECEBF0E0809177038C93808183FDFACF07
:101E400085EC8093BC00DBCF0F931F93CF938C0165
:101E5000C62F0E94B10E6C2F6460C8010E94B10EA3
:101E600081E090E00E945D0B6C2F6B7FC8010E94A7
:101E7000B10E82E390E00E945D0BCF911F910F9114
:101E800008950F931F93CF93DF938C01D62FC42F08
:101E9000607F642B0E94240F80E1D89FB001112441
:101EA0006C2BC8010E94240FDF91CF911F910F91DD
:101EB000089541E00E94410F81E090E00895EF9283
:101EC000FF920F931F93CF93DF938C017A0167707A
:101ED000660F660F660F606440E00E94410FE701E5
:101EE00088E0E80EF11C6991D801ED91FC91019018
:101EF000F081E02DC8010995CE15DF05A1F7DF912E
:101F0000CF911F910F91FF90EF900895CF93DF93A2
:101F1000CDB7DEB728970FB6F894DEBF0FBECDBFA2
:101F200028E0EDE7F1E0DE01119601900D922A958F
:101F3000E1F7FC012185241710F44FEF420FE42F45
:101F4000F0E0EE0FFF1FEC0FFD1F2181620F6068B4
:101F500040E00E94410F28960FB6F894DEBF0FBEF6
:101F6000CDBFDF91CF91089540E062E00E94410F24
:101F700080ED97E00E945D0B089540E061E00E94D3
:101F8000410F80ED97E00E945D0B0895089590E069
:101F900080E00895EAEBF4E01382128280E991E098
:101FA0009183808387E2848384E1808784E08187D2
:101FB000128688E08387609177017091780190E0C4
:101FC00080E00E94A8379B01AC0160E070E080E8EF
:101FD0009FE30E9400376093A4047093A50480934C
:101FE000A6049093A7040895CF93DF931092FB0269
:101FF0001092FA021092FD021092FC02109252030B
:1020000081E0809354031092530361E082E10E94C7
:10201000AF0A61E083E10E94AF0AE9EBF0E0808162
:102020008E7F808380818D7F808388E48093B80059
:1020300085E48093BC0088E29CE090932B0380931E
:102040002A0389E29CE090932F0380932E03EAEB0E
:10205000F4E015828185823008F4A1C088E0809385
:10206000BF0462E370E080E090E00E948E0BCAEB58
:10207000D4E06B85CE010E94B10E68EE73E080E083
:1020800090E00E948E0B60E3CE010E94240F84E951
:1020900091E10E945D0B60E3CE010E94240F84E970
:1020A00091E10E945D0B60E3CE010E94240F86E95E
:1020B00090E00E945D0B60E2CE010E94240F6D81D2
:1020C000606240E0CE010E94410F84E08E8340E0D8
:1020D0006CE0CE010E94410FCE010E94BD0F82E054
:1020E0008F8340E066E0CE010E94410FCE010E9446
:1020F000B40F88E08B8760E0CE010E94B10ECE0164
:102100000E94BD0FCE010E94B40F61E071E0CE01CC
:102110000E94460941E060E0CE010E94860F6CEE0D
:1021200070E0CE010E94460942E060E0CE010E94CC
:10213000860F67ED70E0CE010E94460943E060E043
:10214000CE010E94860F62EC70E0CE010E9446092B
:1021500048E251E060E0CE010E945F0F40E251E0B2
:1021600061E0CE010E945F0F48E151E062E0CE01E4
:102170000E945F0F40E151E063E0CE010E945F0FDB
:1021800048E051E064E0CE010E945F0F40E051E082
:1021900065E0CE010E945F0FDF91CF91089590918D
:1021A000C404992309F45DCF813009F05ACF84E04B
:1021B0008093BF0456CF8F929F92AF92BF92CF92DF
:1021C000DF92EF92FF92C090F904D090FA04E09071
:1021D000FB04F090FC048091F5049091F604A0912A
:1021E000F704B091F8048C0D9D1DAE1DBF1D4091EC
:1021F000FD045091FE046091FF04709100056C0194
:102200007D01C41AD50AE60AF70AC092B204D09238
:10221000B304E092B404F092B504C701B60128EE0D
:1022200033E040E050E00E945D3649015A0180E40D
:1022300088168EE7980685E0A806B10488F083E644
:102240008093B8048BE38093B7048093B604FF9027
:10225000EF90DF90CF90BF90AF909F908F900895B8
:10226000C701B60120E83EEE46E350E00E945D362D
:102270002093B804C501B40120E13EE040E050E005
:102280000E945D362CE330E040E050E00E945D3675
:102290002093B7046093B604DACFCF92DF92EF9227
:1022A000FF929C0150E040E060E472E48FE090E037
:1022B0000E94333644275527A0EAB0E00E945236E8
:1022C0006B017C0124E130E040E050E00E945D368B
:1022D000822F932FA42FB52F009741E0A407B105BB
:1022E000C8F0009728E0A207B10570F10097A0445C
:1022F000B105D0F184E080938303C701B60120E0EB
:1023000034E140E050E00E945D3630938203209338
:10231000810308C081E080938303822F909382031E
:102320008093810380918103909182039093870031
:102330008093860080918303806180938100FF9069
:10234000EF90DF90CF90089582E080938303C701E0
:10235000B60120EA30E040E050E00E945D36309364
:10236000820320938103DECF83E080938303C70140
:10237000B60120E035E040E050E00E945D36309349
:10238000820320938103CECF3F924F925F926F9250
:102390007F928F929F92AF92BF92CF92DF92EF92F5
:1023A000FF920F931F93CF93DF9390917C01911134
:1023B00005C09091EC04992309F47AC0382E882343
:1023C00009F488C0C0909E02C81608F09CC0CC2DAD
:1023D000D0E0E82FF0E0EC17FD0708F463C0D12C43
:1023E000F12CE12CAFEFB3E0A70196010E94523629
:1023F0002B013C012FEFC21AD20AE20AF20AEC1BAF
:10240000FD0BA70196012E0F3F1F411D511D0E947C
:1024100052364B015C01C0E8D0E00F2EF8E8EF2EF9
:10242000F12CF02D0F2EF1E8CF2ED12CF02D61E004
:1024300089E00E94040B8881806888830091810371
:1024400010918203C301B2012FEF30E040E050E071
:102450000E94333644275527D8010E945236052E54
:102460005AE096958795779567955A95D1F7502DAF
:10247000F70171836083809183038061F60180831B
:102480006FE070E080E090E00E948E0BA895FFEF77
:102490004F0EF3E05F1E611C711C481459046A045E
:1024A0007B0429F660E084E00E94AF0A30929E022D
:1024B000DF91CF911F910F91FF90EF90DF90CF9020
:1024C000BF90AF909F908F907F906F905F904F9054
:1024D0003F90089561E089E00E94040BE0E8F0E09D
:1024E000808180688083109289001092880080919A
:1024F000830380618093810061E084E00E94AF0AE1
:1025000010929E02D5CF8C1568F6EC2DF0E0C82F06
:10251000D0E0EC17FD0730F2D12CF12CE12CAFEF1D
:10252000B3E0A70196010E9452362B013C01EC1B3F
:10253000FD0B2E1B3F0B410951090E9452364B01E6
:102540005C012FEF821A23E0920AA108B108C0E8CB
:10255000D0E00F2EF8E8EF2EF12CF02D0F2EF1E841
:10256000CF2ED12CF02D61E089E00E94040B8881F0
:10257000806888830091810310918203C301B201B6
:102580002FEF30E040E050E00E94333644275527DB
:10259000D8010E945236052E5AE096958795779578
:1025A00067955A95D1F7502DF7017183608380911B
:1025B00083038061F60180836FE070E080E090E04B
:1025C0000E948E0BA895FFEF4F1AF3E05F0A610897
:1025D0007108481459046A047B0429F663CF8F926A
:1025E0009F92AF92BF92CF92DF92EF92FF921F9392
:1025F000CF93DF93E4E9F3E0CEEBD3E088818083EF
:1026000089818183ECE8F3E08A8180838B818183F7
:102610008C8182838D8183838E8184838F81858366
:102620008885868389858783E4E8F3E08A858083CB
:102630008B8581838C8582838D8583838E8584833E
:102640008F85858388898683898987831A891093F2
:10265000EB048B898C88912CB12CA12C54019924EA
:102660008824B82A8E89882A8D89982A8092F10434
:102670009092F204A092F304B092F4048F89C88C73
:10268000D12CF12CE12C7601DD24CC24F82A8A8D82
:10269000C82A898DD82AC092ED04D092EE04E09227
:1026A000EF04F092F0048B8D8093B9048C8D8093AD
:1026B000B0046D8D8E8D762F682F709378016093A6
:1026C000770190E080E00E94A8379B01AC0160E0B8
:1026D00070E080E89FE30E9400376093A404709349
:1026E000A5048093A6049093A7049F8D88A1D92F59
:1026F000C82FD0937601C0937501CE010E944D1171
:102700008091EC0481114AC081149104A104B104A8
:10271000F9F4CD28CE28CF2871F01092F50410924C
:10272000F6041092F7041092F80480E00E94C4119D
:1027300010927C0138C01092F5041092F6041092A9
:10274000F7041092F8040E94C41110927C012BC06F
:10275000C114D104E104F10491F51092F504109232
:10276000F6041092F7041092F80481E080937C0143
:10277000812F0E94C41117C08092F5049092F60434
:10278000A092F704B092F80481E080937C01CE011E
:102790000E944D11812F0E94C41105C080E00E944B
:1027A000C41110927C01DF91CF911F91FF90EF90A7
:1027B000DF90CF90BF90AF909F908F9008958091C1
:1027C0007C018111D9CFC092F504D092F604E09239
:1027D000F704F092F80480E00E94C41110927C018A
:1027E000E2CF8F929F92AF92BF92CF92DF92EF9201
:1027F000FF920F931F93CF93DF9300D000D000D0B0
:102800001F92CDB7DEB7EDB6FEB6CDB6DEB6A0915F
:102810000105B0910205109709F444C0FE013196FC
:10282000EA1BFB0BFA83E983E981FA81D901D89687
:10283000EA17FB07E8F587E0E5E8F1E0DE0111962D
:1028400001900D928A95E1F78E010F5F1F4F5E0197
:1028500088E0A80EB11CD8016D918D018FEF93E037
:102860000E94360AA016B106B1F70FB6F894DEBE84
:102870000FBECDBE0FB6F894FEBE0FBEEDBE2796BE
:102880000FB6F894DEBF0FBECDBFDF91CF911F9181
:102890000F91FF90EF90DF90CF90BF90AF909F90FF
:1028A0008F900895FE01E450F540FA83E983BCCF90
:1028B0004901B6E08B0E911CEDB7FEB7E819F90996
:1028C0000FB6F894FEBF0FBEEDBFADB7BEB7119601
:1028D0005D018D019DE39183D9011296F501B183CC
:1028E0009CEF980D92838068838364832115310562
:1028F00099F0FA01C5010596420F531F6191DC0161
:102900006D93CD01E417F507C9F72B5F3F4F80E0CA
:102910002230310518F40DC02B5F3F4FF501319681
:1029200080E09191890FAF01401B510B4217530773
:10293000C0F32A0D3B1DF90180838114910469F0D5
:102940008501A80CB91CD8016D918D018FEF93E022
:102950000E94360A0A151B05B1F70FB6F894DEBEC1
:102960000FBECDBE87CFFF920F931F93CF93DF9300
:102970000EEB13E02DEF33E0F80180E09191890F29
:10298000E217F307D9F78093FD03D0E0C0E0F80128
:10299000F1908F01CE010E941D36F81621F06F2DA7
:1029A000CE010E9425362196C034D10581F7DF91F2
:1029B000CF911F910F91FF9008958F929F92AF92A8
:1029C000BF92EF92FF920F931F93CF93DF93CDB7F8
:1029D000DEB7A1970FB6F894DEBF0FBECDBF7C0166
:1029E000CB01BA0119A2223040F08E010F5D1F4FBA
:1029F000822E912CB12CA12C0BC02AE0F6CFE95CE1
:102A0000D801EE938D01611571058105910569F07D
:102A1000A50194010E945D36E62F622F732F842F4B
:102A2000952FEA3064F7E05DEBCF109711F1FD01CF
:102A300001900020E9F73197AF014A1B5B0BD701EA
:102A4000ED91FC910280F381E02DB801C701099559
:102A5000A1960FB6F894DEBF0FBECDBFDF91CF9128
:102A60001F910F91FF90EF90BF90AF909F908F902C
:102A7000089590E080E0ECCF2115310549F4DC01A8
:102A8000ED91FC910190F081E02D642F099508955E
:102A90000E94DD1408959A01462F50E070E060E036
:102AA0000E943C150895CF92DF92EF92FF920F9310
:102AB0001F93CF93DF93EC019A014115510579F4EF
:102AC000E881F9810190F081E02D0995DF91CF91A6
:102AD0001F910F91FF90EF90DF90CF9008954A30B3
:102AE000510509F56B01072E000CEE08FF08FF20C9
:102AF00094F46DE20E943E098C0144275527BA01E7
:102B00004C195D096E097F092AE0CE010E94DD148F
:102B1000800F911FDBCFAB01770F660B770B2AE09D
:102B20000E94DD14D3CFAB01770F660B770B0E94A9
:102B3000DD14CCCFDC01ED91FC910280F381E02D1E
:102B400042E050E068EC71E0099508950F931F93FF
:102B5000CF93DF93EC010E9453158C01CE010E94AC
:102B60009A15800F911FDF91CF911F910F910895BA
:102B70000F931F93CF93DF93EC010E9446098C01C2
:102B8000CE010E949A15800F911FDF91CF911F9166
:102B90000F9108956115710581F0FB0101900020EE
:102BA000E9F73197AF01461B570BDC01ED91FC9122
:102BB0000280F381E02D0995089590E080E008956A
:102BC0006F927F928F929F92AF92BF92CF92DF923D
:102BD000EF92FF920F931F93CF93DF938C016A01C3
:102BE0007B01622EAB019601CB01B6010E941C391C
:102BF00081114BC046015701E894B7F82FEF3FEF22
:102C00004FE75FE7C501B4010E941C3981110AC07A
:102C10002FEF3FEF4FE75FE7C501B4010E94FB369E
:102C20001816D4F12FEF3FEF4FE75FE4C701B6016D
:102C30000E945A381816BCF12FEF3FEF4FE75FECB8
:102C4000C701B6010E94FB368823A4F120E030E0E2
:102C5000A901C701B6010E94FB36D0E0C0E088237D
:102C600084F1662009F493C060E070E080E09FE3A7
:102C7000712C20E030E040E251E40E94003721E076
:102C8000270D621641F1722EF4CF6BEC71E0C80192
:102C90000E94CA15EC016BC06FEC71E0C8010E9484
:102CA000CA15EC0164C063ED71E0C8010E94CA1549
:102CB000EC015DC063ED71E0C8010E94CA15EC0132
:102CC00056C06DE2C8010E943E09EC01F7FAF0948B
:102CD000F7F8F094C6CFA70196010E948F364B01FA
:102CE0005C010E9479376B017C010E94A8379B012F
:102CF000AC01C501B4010E948E364B015C012AE093
:102D000030E0B701A601C8010E943C157C016EE2CB
:102D1000C8010E943E098E0D9F1DC80FD91F20E0DB
:102D200030E040E251E4C501B4010E94AF384B01EC
:102D30005C010E9479376B01F12CE12C2AE030E034
:102D4000B701A601C8010E943C15C80FD91FC701D1
:102D5000B6010E94A8379B01AC01C501B4010E94D5
:102D60008E364B015C017A948FEF7812D8CFCE016A
:102D7000DF91CF911F910F91FF90EF90DF90CF9057
:102D8000BF90AF909F908F907F906F90089520E0BC
:102D900030E040E05FE3C701B6010E948F360E9439
:102DA0007937AB01BC012AE030E0C8010E943C1534
:102DB000C80FD91FDCCFCF92DF92EF92FF92CF9353
:102DC000DF93CDB7DEB72E970FB6F894DEBF0FBEF8
:102DD000CDBF80917A01882309F406C38FEF93E079
:102DE0000E949A158FEF93E00E949A156BE272E0B1
:102DF0008FEF93E00E94B8158091EC04882309F4CA
:102E000054C064E172E08FEF93E00E94B8158091A6
:102E10007C01882309F460C08091EC0481115CC0BE
:102E20006091EB0470E090E080E00E94AA3720E01F
:102E300030E040E85FE30E948F3620E030E048EC6D
:102E400052E40E94AF3820E030E040E85BE30E94AB
:102E5000AF386B017C0120E030E0A9010E945A38B4
:102E6000882374F120E030E040E05FE3C701B60161
:102E70000E948F360E947237F62E67EE71E08FEF58
:102E800093E00E9446094AE050E06F2D8FEF93E0F7
:102E90000E944B1565EE71E08FEF93E00E94B8152C
:102EA0008FEF93E00E94800A1DC06CEF71E08FEFFE
:102EB00093E00E94B8158FEF93E00E94800AA7CF9D
:102EC00020E030E040E05FE3C701B6010E948E36AB
:102ED0000E947237F62ED1CF62ED71E08FEF93E052
:102EE0000E94B8158FEF93E00E94800A62EC71E0B7
:102EF0008FEF93E00E9446098091EC04811186C017
:102F00008091F5049091F604A091F704B091F80433
:102F1000892B8A2B8B2B09F472C00E94DB108091C5
:102F2000B8048A3008F456C04AE050E06091B80412
:102F30008FEF93E00E944B156EEB71E08FEF93E003
:102F40000E9446098091B7048A3008F44AC04AE0DA
:102F500050E06091B7048FEF93E00E944B158FEF24
:102F600093E00E94800A6AEB71E08FEF93E00E9489
:102F700046098091B6048A30D8F14AE050E0609169
:102F8000B6048FEF93E00E944B1562EB71E08FEF78
:102F900093E00E94B8158FEF93E00E94800A809121
:102FA000B9048370D1F562E471E08FEF93E00E9481
:102FB00046098FEF93E00E94800A2E960FB6F89490
:102FC000DEBF0FBECDBFDF91CF91FF90EF90DF90BE
:102FD000CF90089560EC71E08FEF93E00E94460976
:102FE000A3CF6CEB71E08FEF93E00E944609AFCF67
:102FF00068EB71E08FEF93E00E944609BECF69EA6B
:1030000071E08FEF93E00E94B815C5CF60EA71E0E0
:103010008FEF93E00E94B815BECF63E971E08FEFA8
:1030200093E00E94B8158091B90480FD22C0809180
:10303000B90481FFB8CF69E671E08FEF93E00E9499
:1030400046098FEF93E00E94800A8091B00482309D
:1030500009F440C1843009F482C1813009F4F5C01B
:103060008FEF93E00E949A158FEF93E00E94800A01
:103070009ACF63E871E08FEF93E00E9446098FEFEB
:1030800093E00E94800A8091B004823009F453C01A
:10309000843009F495C0813049F08FEF93E00E94AD
:1030A0009A158FEF93E00E94800AC1CF20E030E0B4
:1030B00048EC52E46091DF047091E0048091E104F7
:1030C0009091E2040E94AF386B017C0120E030E077
:1030D000A9010E945A3888230CF120E030E040E03A
:1030E0005FE3C701B6010E948F360E9472370E94CB
:1030F000AA3720E030E048EC52E40E940037AB01F0
:10310000BC0121E030E08FEF93E00E94E0156FE713
:1031100071E08FEF93E00E944609BFCF20E030E0DE
:1031200040E05FE3C701B6010E948E360E9472370D
:103130000E94AA37DECF20E030E048EC52E46091F4
:10314000E3047091E4048091E5049091E6040E9408
:10315000AF386B017C0120E030E0A9010E945A38B1
:1031600088230CF120E030E040E05FE3C701B601C6
:103170000E948F360E9472370E94AA3720E030E00A
:1031800048EC52E40E940037AB01BC0121E030E082
:103190008FEF93E00E94E0156BE771E08FEF93E013
:1031A0000E9446097ACF20E030E040E05FE3C701AB
:1031B000B6010E948E360E9472370E94AA37DECF77
:1031C00020E030E048EC52E46091DB047091DC04D4
:1031D0008091DD049091DE040E94AF386B017C0188
:1031E00020E030E0A9010E945A3888230CF120E049
:1031F00030E040E05FE3C701B6010E948F360E94D5
:1032000072370E94AA3720E030E048EC52E40E9476
:103210000037AB01BC0121E030E08FEF93E00E946A
:10322000E01569E771E08FEF93E00E94460935CF22
:1032300020E030E040E05FE3C701B6010E948E3637
:103240000E9472370E94AA37DECF20E030E048ECBF
:1032500052E46091D3047091D4048091D50490918C
:10326000D6040E94AF386B017C0120E030E0A90158
:103270000E945A3888230CF120E030E040E05FE300
:10328000C701B6010E948F360E9472370E94AA378A
:1032900020E030E048EC52E40E940037AB01BC0172
:1032A00021E030E08FEF93E00E94E01565E671E0E9
:1032B0008FEF93E00E944609D3CE20E030E040E05B
:1032C0005FE3C701B6010E948E360E9472370E94EA
:1032D000AA37DECF20E030E048EC52E46091D7041A
:1032E0007091D8048091D9049091DA040E94AF388B
:1032F0006B017C0120E030E0A9010E945A3888234C
:103300000CF120E030E040E05FE3C701B6010E942D
:103310008F360E9472370E94AA3720E030E048ECD6
:1033200052E40E940037AB01BC0121E030E08FEF96
:1033300093E00E94E01561E671E08FEF93E00E9458
:1033400046098ECE20E030E040E05FE3C701B601E1
:103350000E948E360E9472370E94AA37DECF20E08C
:1033600030E048EC52E46091CF047091D004809139
:10337000D1049091D2040E94AF386B017C0120E00F
:1033800030E0A9010E945A3888230CF120E030E097
:1033900040E05FE3C701B6010E948F360E9472379A
:1033A0000E94AA3720E030E048EC52E40E94003747
:1033B000AB01BC0121E030E08FEF93E00E94E0150B
:1033C0006FE571E08FEF93E00E94460949CE20E05F
:1033D00030E040E05FE3C701B6010E948E360E94F4
:1033E00072370E94AA37DECF0E94DB108091EC0476
:1033F00081112EC08091F5049091F604A091F704FC
:10340000B091F804892B8A2B8B2BE9F03091B20410
:103410002091B3049091B4048091B5041982409135
:103420007C01442311F041E0498349814D7F498368
:103430001BC01F82188619861A862BC01B861C8605
:103440001D861E8634C030E020E090E080E0E6CFAC
:10345000198280917C01811134C0898182608983C5
:1034600030E020E090E080E04091EB044A838B83E1
:103470009C832D833E838091B90480FFDACFECE9F1
:10348000F4E080818F83818188878281898783812D
:103490008A878091B90481FFD1CFECE9F4E084817F
:1034A0008B8785818C8786818D8787818E872EE0AB
:1034B00030E0AE014F5F5F4F60E082E00E94F113A9
:1034C0007CCD81E08983C9CFCF92DF92EF92FF92CA
:1034D0008091B004823009F4B0C0843009F453C143
:1034E000813029F0FF90EF90DF90CF90089541E078
:1034F0006EE08AEB94E00E94860F20E030E048EC1A
:1035000052E46091D3047091D4048091D5049091D9
:10351000D6040E94AF386B017C0120E030E0A901A5
:103520000E945A3888230CF460C020E030E040E06C
:103530005FE3C701B6010E948F360E9472370E9476
:10354000AA3720E030E048EC52E40E9400376B01DB
:103550007C0120E030E040E251EC0E945A3818161D
:1035600054F420E030E0A901C701B6010E94FB3607
:1035700088230CF447C020E030E0A901C701B60160
:103580000E945A38882354F020E030E040E251E4B1
:10359000C701B6010E94FB368823ECF120E030E041
:1035A00040E251E4C701B6010E945A38882354F022
:1035B00020E030E048EC52E4C701B6010E94FB363F
:1035C000882394F16DE371E08AEB94E00E94460950
:1035D00041E060E08AEB94E00E94410F6BE371E010
:1035E0008AEB94E00E9446097DCF20E030E040E085
:1035F0005FE3C701B6010E948E360E9472370E94B7
:10360000AA379FCF21E030E0B701A6018AEB94E012
:103610000E94E015DDCF22E030E0B701A6018AEB81
:1036200094E00E94E015D4CF21E030E0B701A6017C
:103630008AEB94E00E94E015CBCF41E06EE08AEB8C
:1036400094E00E94860F20E030E048EC52E4609164
:10365000D7047091D8048091D9049091DA040E9423
:10366000AF386B017C0120E030E0A9010E945A389C
:1036700088230CF460C020E030E040E05FE3C70145
:10368000B6010E948F360E9472370E94AA3720E04E
:1036900030E048EC52E40E9400376B017C0120E0EE
:1036A00030E040E251EC0E945A38181654F420E001
:1036B00030E0A901C701B6010E94FB3688230CF453
:1036C00047C020E030E0A901C701B6010E945A3886
:1036D000882354F020E030E040E251E4C701B60115
:1036E0000E94FB368823ECF120E030E040E251E418
:1036F000C701B6010E945A38882354F020E030E018
:1037000048EC52E4C701B6010E94FB36882394F1CD
:1037100066E371E08AEB94E00E94460941E060E0D4
:103720008AEB94E00E94410F64E371E08AEB94E03D
:103730000E944609D7CE20E030E040E05FE3C701B9
:10374000B6010E948E360E9472370E94AA379FCF20
:1037500021E030E0B701A6018AEB94E00E94E01579
:10376000DDCF22E030E0B701A6018AEB94E00E94B1
:10377000E015D4CF21E030E0B701A6018AEB94E058
:103780000E94E015CBCF41E06EE08AEB94E00E940E
:10379000860F20E030E048EC52E46091CF04709155
:1037A000D0048091D1049091D2040E94AF386B0173
:1037B0007C0120E030E0A9010E945A3888230CF4F3
:1037C00043C020E030E040E05FE3C701B6010E9463
:1037D0008F360E9472370E94AA3720E030E048EC12
:1037E00052E40E9400376B017C0120E030E040E2AF
:1037F00051E40E94FB368823A4F120E030E040E24F
:1038000051E4C701B6010E945A38882354F020E0E1
:1038100030E048EC52E4C701B6010E94FB36882331
:103820007CF120E030E048EC52E4C701B6010E9490
:103830005A38882374F121E030E0B701A6018AEB01
:1038400094E00E94E01515C020E030E040E05FE326
:10385000C701B6010E948E360E9472370E94AA37B5
:10386000BCCF23E030E0B701A6018AEB94E00E94D0
:10387000E0156CE271E08AEB94E00E94460932CEDA
:1038800022E030E0B701A6018AEB94E00E94E01547
:10389000F0CF6EE271E08AEB94E00E944609E9CF36
:1038A000CF92DF92EF92FF928091B004823009F4C0
:1038B000B0C0843009F453C1813029F0FF90EF90FB
:1038C000DF90CF90089541E063E08AEB94E00E949E
:1038D000860F20E030E048EC52E46091DF04709104
:1038E000E0048091E1049091E2040E94AF386B0102
:1038F0007C0120E030E0A9010E945A3888230CF4B2
:1039000060C020E030E040E05FE3C701B6010E9404
:103910008F360E9472370E94AA3720E030E048ECD0
:1039200052E40E9400376B017C0120E030E040E26D
:1039300051EC0E945A38181654F420E030E0A901E6
:10394000C701B6010E94FB3688230CF447C020E073
:1039500030E0A901C701B6010E945A38882354F00B
:1039600020E030E040E251E4C701B6010E94FB369E
:103970008823ECF120E030E040E251E4C701B601D9
:103980000E945A38882354F020E030E048EC52E49A
:10399000C701B6010E94FB36882394F167E271E00B
:1039A0008AEB94E00E94460941E060E08AEB94E0F3
:1039B0000E94410F65E271E08AEB94E00E944609A3
:1039C0007DCF20E030E040E05FE3C701B6010E9418
:1039D0008E360E9472370E94AA379FCF21E030E0D6
:1039E000B701A6018AEB94E00E94E015DDCF22E04A
:1039F00030E0B701A6018AEB94E00E94E015D4CF35
:103A000021E030E0B701A6018AEB94E00E94E015C6
:103A1000CBCF41E063E08AEB94E00E94860F20E088
:103A200030E048EC52E46091E3047091E40480914A
:103A3000E5049091E6040E94AF386B017C0120E020
:103A400030E0A9010E945A3888230CF460C020E0BD
:103A500030E040E05FE3C701B6010E948F360E946C
:103A600072370E94AA3720E030E048EC52E40E940E
:103A700000376B017C0120E030E040E251EC0E9415
:103A80005A38181654F420E030E0A901C701B601F5
:103A90000E94FB3688230CF447C020E030E0A901E7
:103AA000C701B6010E945A38882354F020E030E064
:103AB00040E251E4C701B6010E94FB368823ECF1D5
:103AC00020E030E040E251E4C701B6010E945A38DC
:103AD000882354F020E030E048EC52E4C701B601FE
:103AE0000E94FB36882394F160E271E08AEB94E057
:103AF0000E94460941E060E08AEB94E00E94410F99
:103B00006EE171E08AEB94E00E944609D7CE20E096
:103B100030E040E05FE3C701B6010E948E360E94AC
:103B200072370E94AA379FCF21E030E0B701A6018B
:103B30008AEB94E00E94E015DDCF22E030E0B7018F
:103B4000A6018AEB94E00E94E015D4CF21E030E09A
:103B5000B701A6018AEB94E00E94E015CBCF41E0CB
:103B600063E08AEB94E00E94860F20E030E048ECAE
:103B700052E46091DB047091DC048091DD0490914B
:103B8000DE040E94AF386B017C0120E030E0A90127
:103B90000E945A3888230CF443C020E030E040E013
:103BA0005FE3C701B6010E948F360E9472370E9400
:103BB000AA3720E030E048EC52E40E9400376B0165
:103BC0007C0120E030E040E251E40E94FB36882393
:103BD000A4F120E030E040E251E4C701B6010E94C8
:103BE0005A38882354F020E030E048EC52E4C70112
:103BF000B6010E94FB3688237CF120E030E048ECDF
:103C000052E4C701B6010E945A38882374F121E0BA
:103C100030E0B701A6018AEB94E00E94E01515C0E0
:103C200020E030E040E05FE3C701B6010E948E363D
:103C30000E9472370E94AA37BCCF23E030E0B70160
:103C4000A6018AEB94E00E94E01566E171E08AEB40
:103C500094E00E94460932CE22E030E0B701A6018E
:103C60008AEB94E00E94E015F0CF68E171E08AEB06
:103C700094E00E944609E9CFCF93DF93CDB7DEB73A
:103C8000CC54D1090FB6F894DEBF0FBECDBF7894E7
:103C900084B5826084BD84B5816084BD85B5826051
:103CA00085BD85B5816085BDEEE6F0E080818160EF
:103CB000808301E810E0D8011C928C9182608C9383
:103CC0008C9181608C936894EE24E7F8F12CF701D5
:103CD000808181608083E1EBF0E08081846080837B
:103CE000E0EBF0E0808181608083EAE7F0E08081B2
:103CF0008460808380818260808380818160808312
:103D00008081806880831092C1007894EFEFF3E0A7
:103D1000A089B18982E08C93A485B5851C92A68583
:103D2000B78587E08C93108EA489B58986E08C9343
:103D3000A289B3898C9180618C93A289B3898C917B
:103D400088608C93A289B3898C9180688C93028857
:103D5000F389E02D80818F7D8083DD24D394D09200
:103D6000300161E084E00E94040B61E084E00E9485
:103D7000AF0A61E089E00E94040B60E089E00E94E4
:103D8000AF0A88E399E09093320180933101E9E62C
:103D9000F0E080818C7F82608083E89A80E1D801A6
:103DA0008C93F7011082D092830380EC9FE3909371
:103DB0008203809381039093870080938600809193
:103DC000830380618C9361E089E00E94040BD7013A
:103DD0008C9180688C931092890010928800809159
:103DE00083038061F801808381E2F0E0E0E080936A
:103DF0005700E491A6E9B3E0EC93E2E0F0E08093B1
:103E00005700E4911196EC931197E4E0F0E0809371
:103E10005700849112968C930E94F40F60ED77E026
:103E200080E090E00E948E0B88E08093C50460E003
:103E30008AEB94E00E94B10E8AEB94E00E94BD0FE1
:103E40008AEB94E00E94B40F67ED72E08AEB94E095
:103E50000E94460941E060E08AEB94E00E94860FF0
:103E600062EC72E08AEB94E00E94460942E060E076
:103E70008AEB94E00E94860F6DEA72E08AEB94E090
:103E80000E94460943E060E08AEB94E00E94860FBE
:103E900068E972E08AEB94E00E9446090F2EFEEB7F
:103EA000EF2EF3E0FF2EF02D0F2EFEEFCF2EF3E0DE
:103EB000DF2EF02D8701C8018E199F090E941D3643
:103EC000D8018D938D01AC15BD05A9F72DEF33E019
:103ED000EEEBF3E080E09191890FE217F307D9F759
:103EE0009091FD03981709F440C0E5E3F1E024E761
:103EF00031E0DF0180E09D91890FA217B307D9F768
:103F00008093740125E731E08191D7018D937D0184
:103F1000E217F307C9F70E94EF1221E030E049E70A
:103F200051E06CEF8FE00E94F11388E198E20FB648
:103F3000F894A895809360000FBE9093600021E0F4
:103F400030E04EEF53E061E080E00E94F1130F2E6D
:103F5000FEEB4F2EF3E05F2EF02DFE0170962396C0
:103F6000FFAFEEAF23970C947A320E94EF12DDCFB1
:103F70002DB63EB610927A010E94CB0B6B017C01EC
:103F8000B12C01E010E08FEF93E00E94FE09029750
:103F900084F4B1103FC00E94CB0B6C197D098E09CF
:103FA0009F09B02E693C71058105910560F7B12E1E
:103FB000EACFB1102FC08FEF93E00E94DC09269664
:103FC0008FAF26978FEF93E00E94DC0927968FAF83
:103FD00027972696FFAD26972B96FFAF2B972A960D
:103FE0001FAE2A972B96EEACFFAC2B97E82A670101
:103FF00032E0C31AD1084BEFC41643E0D40608F4EC
:104000007FC021E030E049E751E061E08FE00E94AD
:10401000F11308C021E030E049E751E066E08FE0AD
:104020000E94F1130FB6F8943EBE0FBE2DBE0E9443
:10403000CB0B6B017C01C092FD04D092FE04E09298
:10404000FF04F09200058091F9049091FA04A09188
:10405000FB04B091FC04B701A601481B590B6A0B85
:104060007B0B8091F5049091F604A091F704B09138
:10407000F804481759076A077B0710F40C94E42DDD
:104080008091F1049091F204A091F304B091F404B2
:104090000097A105B10511F40C94E42D4091ED04B5
:1040A0005091EE046091EF047091F00441155105B8
:1040B0006105710511F40C94E42DC092F904D092BD
:1040C000FA04E092FB04F092FC0420917C0121119F
:1040D0000C94D72D21E020937C018093F5049093DC
:1040E000F604A093F704B093F8048091EC048111D6
:1040F0000C94E42D8091EB040E94C4110C94E42DE7
:104100000E94CB0B3B014C0187010F5F1F4FA12C7D
:104110008FEF93E00E94FE098017910788F4B11099
:104120006AC00E94CB0B6619770988099909BB24DC
:10413000B394653671058105910550F7BA2CE8CF27
:10414000B11059C08FEF93E00E94DC0924968FAF25
:1041500024978FEF93E00E94DC098C018DB79EB706
:104160008C199D090FB6F8949EBF0FBE8DBFADB7D9
:10417000BEB711964D01C114D10411F40C94ED3267
:104180005D01FD01EC0DFD1D2996FFAFEEAF2997F6
:104190003D018FEF93E00E94DC09D3018D933D0137
:1041A0002996EEADFFAD2997EA17FB0791F78FEF40
:1041B00093E00E94DC0926969FAD269727964FAD87
:1041C0002797940F24965FAD2497950F900FD501F4
:1041D0002D915D01920F6A167B06C9F7BB24B3943B
:1041E000981791F021E030E049E751E065E08FE079
:1041F0000E94F11317CF21E030E049E751E066E07B
:104200008FE00E94F1130ECF24968FAD24978F700C
:10421000823009F450C068F4882369F18130A1F13B
:1042200021E030E049E751E062E08FE00E94F113C5
:104230003CC0843009F415C108F440C08E3081F7C9
:1042400011270230110509F4FAC10330110509F4F0
:1042500040C20130110509F05DC2F4E0CF16D1046F
:1042600008F087C121E030E049E751E064E08FE0E9
:104270000E94F1131AC021E030E04EEF53E060E0FD
:1042800080E00E94F113FFCF8DE4898388E48A8364
:1042900084E58B8387E48C8324E030E0AE014F5FBC
:1042A0005F4F60E081E00E94F1130FB6F8943EBECC
:1042B0000FBE2DBEBCCE0E94DB16F7CF11270330F8
:1042C000110509F45EC07CF401301105F1F00230F3
:1042D000110591F121E030E049E751E063E08FE022
:1042E0000E94F113E2CF0430110509F467C00530D4
:1042F000110581F7B11094C021E030E049E751E0A9
:1043000064E08FE00E94F113D0CFA0EDB3E0FE0196
:1043100031968D91819323962EAD3FAD2397E21771
:10432000F307B9F72FE030E0AE014F5F5F4F61E078
:1043300083E00E94F113B9CFF401A0EDB3E04FE0A8
:10434000840E911C3FE0C316D10448F421E030E014
:1043500049E751E064E08FE00E94F113A6CF81911C
:104360008D938E169F06D9F70E94B3140E94EF1208
:1043700021E030E04EEF53E062E083E00E94F11371
:1043800094CFB11009C021E030E049E751E064E08A
:104390008FE00E94F11389CFD4018C9181110AC062
:1043A00010927B0121E030E0A40163E083E00E94F1
:1043B000F1137BCF81E080937B01F4CFB11009C072
:1043C00021E030E049E751E064E08FE00E94F11322
:1043D0006CCFF401808180FF16C08091EC048111C4
:1043E0000AC081E08093EC0480917C01882319F05D
:1043F00080E00E94C41121E030E0A40164E083E089
:104400000E94F11352CF1092EC0480917C0188231A
:1044100011F40C94FF328091EB040E94C411EBCF95
:104420008091EC048823A1F021E030E0A40165E054
:1044300083E00E94F113D4018C91811105C0109288
:104440007C010E94C41131CF91E090937C01F9CF9F
:1044500021E030E049E751E06EEF8FE00E94F11378
:1044600024CF11270230110529F164F40130110520
:10447000C9F021E030E049E751E063E08FE00E94BD
:10448000F11313CF0330110509F463C00430110593
:1044900081F728E030E04CE954E064E085E00E94D8
:1044A000F11303CF20E230E0A20161E085E00E9439
:1044B000F113FBCEE4E9F3E08081898380919503D9
:1044C0008A83ACE8B3E08C918B8380918D038C83DD
:1044D00080918E038D8380918F038E8380919003D2
:1044E0008F8380919103888780919203898780913F
:1044F00093038A87E4E8F3E080818B8780918503CA
:104500008C87809186038D87809187038E87809129
:1045100088038F8780918903888B80918A03898B98
:1045200080918B038A8B1B8A1C8A1D8A1E8A80E6D7
:104530008F8B8AEB888F88E2898F85E88A8F2AE1C2
:1045400030E0AE014F5F5F4F62E085E00E94F11303
:10455000ACCE0E94CB0BEAEBF3E0908381837283B5
:10456000638324E030E0AF0163E085E00E94F11353
:104570009CCED4015C9111964C911197D52EC42EEE
:1045800012963C91129713962C91B32EA22EC6012F
:104590008A0D9B1D01978115944008F047C0EDB727
:1045A000FEB72596FFAFEEAF25973501F4E06F0E0D
:1045B000711C8DB79EB7861997090FB6F8949EBFE8
:1045C0000FBE8DBFADB7BEB711964D01EDB7FEB7AB
:1045D000518311964C93119712963C931297139610
:1045E0002C93EDB6FEB6F5E0EF0EF11C10E000E006
:1045F000A016B10659F0C601800F911F0E941D360A
:10460000D7018D937D010F5F1F4FF2CF9301A4015E
:1046100061E08EE00E94F1132596EEADFFAD259787
:104620000FB6F894FEBF0FBEEDBF3FCE21E030E0E5
:1046300049E751E064E08FE00E94F11336CEF3E0E9
:10464000CF16D10448F421E030E049E751E064E0BE
:104650008FE00E94F11329CED4010C9111968C9118
:10466000102F082F6701B4E0CB1AD108C7010597B6
:10467000800F911F8115944018F5F2E08F0E911C68
:104680007801C701801B910B8C159D0580F4D40126
:10469000BD904D01C7010E941D36B81621F06B2D4B
:1046A000C7010E942536BFEFEB1AFB0AEACF21E0D3
:1046B00030E04EEF53E062E08EE00E94F113F5CD62
:1046C00021E030E049E751E064E08FE00E94F1131F
:1046D000ECCDE2E0CE16D10448F421E030E049E729
:1046E00051E064E08FE00E94F113DFCDD4018C91A2
:1046F000F201878F11968C9180A30E94B3140E94BF
:10470000EF1221E030E04EEF53E063E08EE00E94D4
:10471000F113CBCD21E030E049E751E063E08FE0D9
:104720000E94F113C2CD8FEF93E00E94FE09892B06
:1047300011F40C94A4328FEF93E00E94DC09F3CFC4
:10474000E0919903EE2309F4CFC1AAE9B3E08C917B
:104750008D3309F4B6C12BE933E080E04E2FA1E0A0
:10476000A80F4A1709F4AAC1F90191919F019D333D
:1047700011F08A2FF4CFE42FAA2309F4A2C122E07A
:10478000280FE21B4AE953E0BE016F5D7F4F90E0C6
:1047900085569C4FBE2FFA013191AF01FB01319339
:1047A000BF0148175907B9F7EB2F41E250E04C0F12
:1047B0005D1F4A0F511DDA011C92EE23B9F0A22FA2
:1047C000B0E0A656BC4FCE010196AC014F5F5F4FE3
:1047D0002FEF2E0F240F352F311D5E2F4D91FC0131
:1047E0004193CF01E217F307C9F7E52F21E030E04D
:1047F0002C0F3D1F2E0F311DF9011082CE010196A5
:104800000E94F7356C01990FEE08FF088FEF93E0D7
:104810000E949A158FEF93E00E949A1564E971E166
:104820008FEF93E00E9446096AE973E08FEF93E00F
:104830000E94CA158FEF93E00E949A158FEF93E0C4
:104840000E94800A6AE871E18FEF93E00E944609B6
:10485000BE016F5D7F4F8FEF93E00E94CA158FEF0F
:1048600093E00E949A1562E871E18FEF93E00E9455
:1048700046092AE030E0B701A6018FEF93E00E94DD
:104880003C1511E08FEF93E00E94800A67ED71E024
:10489000CE0181960E948439892B49F06CED71E03C
:1048A000CE0181960E948439892B09F054C18FEF83
:1048B00093E00E949A158FEF93E00E949A158FEF74
:1048C00093E00E94800A6AE371E18FEF93E00E9417
:1048D000B81562E171E18FEF93E00E94B8156EEEBA
:1048E00070E18FEF93E00E94B8158FEF93E00E9484
:1048F000800A60EC70E18FEF93E00E94B8156EE9DA
:1049000070E18FEF93E00E94B81565E770E18FEFDB
:1049100093E00E94B8158FEF93E00E94800A67E54C
:1049200070E18FEF93E00E94B81569E270E18FEFBC
:1049300093E00E94B8156AE070E18FEF93E00E9467
:10494000B8158FEF93E00E94800A62EE7FE08FEF50
:1049500093E00E94B81560EB7FE08FEF93E00E9438
:10496000B81561E97FE08FEF93E00E94B8158FEFF3
:1049700093E00E94800A6EE57FE08FEF93E00E9453
:10498000B8156BE37FE08FEF93E00E94B81563EFFB
:104990007EE08FEF93E00E94B8158FEF93E00E94C6
:1049A000800A6FEB7EE08FEF93E00E94B8156CE910
:1049B0007EE08FEF93E00E94B81565E57EE08FEF13
:1049C00093E00E94B8158FEF93E00E94800A6FE198
:1049D0007EE08FEF93E00E94B8156AEF7DE08FEFE5
:1049E00093E00E94B8156BED7DE08FEF93E00E949D
:1049F000B8158FEF93E00E94800A6CEB7DE08FEF9B
:104A000093E00E94B8156BE87DE08FEF93E00E9481
:104A1000B81565E67DE08FEF93E00E94B8158FEF43
:104A200093E00E94800A6DE37DE08FEF93E00E94A7
:104A3000B8156CE17DE08FEF93E00E94B8156FEF41
:104A40007CE08FEF93E00E94B8158FEF93E00E9417
:104A5000800A62EC7CE08FEF93E00E94B8156BE96E
:104A60007CE08FEF93E00E94B8156DE57CE08FEF5E
:104A700093E00E94B8158FEF93E00E94800A66E3EE
:104A80007CE08FEF93E00E94B8158FEF93E00E94D7
:104A90009A1567EF7BE08FEF93E00E94B8156FEAFD
:104AA0007BE08FEF93E00E9446098FEF93E00E9436
:104AB000800A8FEF93E00E94800AB9CAE42F442352
:104AC00099F0AAE9B3E09E012F5D3F4F8FEF8E0F63
:104AD00090E085569C4F5E2F4D91F90141939F01C7
:104AE000A817B907C9F7E52F21E230E02C0F3D1FC9
:104AF0002E0F311DF90110828FEF93E00E949A155D
:104B00008FEF93E00E949A1564E971E18FEF93E0D3
:104B10000E9446096AE973E08FEF93E00E94CA158C
:104B20008FEF93E00E949A158FEF93E00E94800A26
:104B30006AE871E18FEF93E00E944609BE016F5D64
:104B40007F4F8FEF93E00E94CA15C12CD12CE12C2E
:104B5000F12C10E097CE61EE71E0CE0181960E94BB
:104B60008439892B41F069EE71E0CE0181960E9473
:104B70008439892B59F48FEF93E00E949A156FE7DF
:104B80007BE08FEF93E00E944609FFCF61EF71E079
:104B9000CE0181960E948439892B49F066EF71E03D
:104BA000CE0181960E948439892B09F006C48FEFCB
:104BB00093E00E949A158FEF93E00E949A158FEF71
:104BC00093E00E94800A61E57BE08FEF93E00E9412
:104BD000B81568E37BE08FEF93E00E9446098FEF02
:104BE00093E00E94800A06E913E0D8018D918D01BF
:104BF000803108F47BC340E150E0F80131976081D7
:104C00008FEF93E00E944B1564E37BE08FEF93E01E
:104C10000E944609B3E009391B0739F78FEF93E08B
:104C20000E94800AE6E9F3E080818E3109F065C3D5
:104C300080919703853909F060C3809198038F3084
:104C400009F05BC367E27BE08FEF93E00E94B81549
:104C500063EF7AE08FEF93E00E944609A4E9B3E0A6
:104C60006C9180919503762F682F90E080E00E94F0
:104C7000A83720E030E048EC52E40E940037AB0156
:104C8000BC0122E030E08FEF93E00E94E0158FEF4F
:104C900093E00E949A158FEF93E00E94800A209182
:104CA00090036091910370E090E080E0CB01772762
:104CB0006627922B20919303622B20919203722BF3
:104CC0000E94B70C6AED7AE08FEF93E00E944609EC
:104CD0000E947F0E4AE050E0BC018FEF93E00E94FB
:104CE000531568ED7AE08FEF93E00E9446098FEF4D
:104CF00093E00E94800A0E94890E0A9734F466EDC0
:104D00007AE08FEF93E00E9446090E94890E4AE004
:104D100050E0BC018FEF93E00E94531564ED7AE000
:104D20008FEF93E00E9446098FEF93E00E94800A84
:104D30000E94910E0A9734F462ED7AE08FEF93E0CF
:104D40000E9446090E94910E4AE050E0BC018FEF9C
:104D500093E00E94531560ED7AE08FEF93E00E949C
:104D600046098FEF93E00E94800A0E94A90E0A97DD
:104D700034F46EEC7AE08FEF93E00E9446090E94D3
:104D8000A90E4AE050E0BC018FEF93E00E9453155A
:104D90006CEC7AE08FEF93E00E9446098FEF93E08E
:104DA0000E94800A0E94A10E0A9734F46AEC7AE00D
:104DB0008FEF93E00E9446090E94A10E4AE050E066
:104DC000BC018FEF93E00E94531568EC7AE08FEFFF
:104DD00093E00E9446098FEF93E00E94800A0E94B0
:104DE000990E0A9734F466EC7AE08FEF93E00E9414
:104DF00046090E94990E4AE050E0BC018FEF93E013
:104E00000E94A615209188036091890370E090E0CC
:104E100080E0CB0177276627922B20918B03622BB2
:104E200020918A03722B0E94B70C6DEA7AE08FEF13
:104E300093E00E9446090E947F0E4AE050E0BC01C8
:104E40008FEF93E00E9453156BEA7AE08FEF93E0C7
:104E50000E9446098FEF93E00E94800A0E94890E0B
:104E60000A9734F469EA7AE08FEF93E00E944609EA
:104E70000E94890E4AE050E0BC018FEF93E00E944F
:104E8000531567EA7AE08FEF93E00E9446098FEFAF
:104E900093E00E94800A0E94910E0A9734F465EA1A
:104EA0007AE08FEF93E00E9446090E94910E4AE05B
:104EB00050E0BC018FEF93E00E94531563EA7AE063
:104EC0008FEF93E00E9446098FEF93E00E94800AE3
:104ED0000E94A90E0A9734F461EA7AE08FEF93E01A
:104EE0000E9446090E94A90E4AE050E0BC018FEFE3
:104EF00093E00E9453156FE97AE08FEF93E00E94F0
:104F000046098FEF93E00E94800A0E94A10E0A9743
:104F100034F46DE97AE08FEF93E00E9446090E9435
:104F2000A10E4AE050E0BC018FEF93E00E945315C0
:104F30006BE97AE08FEF93E00E9446098FEF93E0F0
:104F40000E94800A0E94990E0A9734F469E97AE077
:104F50008FEF93E00E9446090E94990E4AE050E0CC
:104F6000BC018FEF93E00E94A61565E878E28AEB1A
:104F700090E60E94B70C60E87AE08FEF93E00E9421
:104F800046090E947F0E4AE050E0BC018FEF93E09B
:104F90000E9453156EE77AE08FEF93E00E94460976
:104FA0008FEF93E00E94800A0E94890E0A9734F4E2
:104FB0006CE77AE08FEF93E00E9446090E94890E29
:104FC0004AE050E0BC018FEF93E00E9453156AE77E
:104FD0007AE08FEF93E00E9446098FEF93E00E9402
:104FE000800A0E94910E0A9734F468E77AE08FEF06
:104FF00093E00E9446090E94910E4AE050E0BC01F5
:105000008FEF93E00E94531566E77AE08FEF93E00D
:105010000E9446098FEF93E00E94800A0E94A90E29
:105020000A9734F464E77AE08FEF93E00E94460930
:105030000E94A90E4AE050E0BC018FEF93E00E946D
:10504000531562E77AE08FEF93E00E9446098FEFF5
:1050500093E00E94800A0E94A10E0A9734F460E750
:105060007AE08FEF93E00E9446090E94A10E4AE089
:1050700050E0BC018FEF93E00E9453156EE67AE09A
:105080008FEF93E00E9446098FEF93E00E94800A21
:105090000E94990E0A9734F46CE67AE08FEF93E061
:1050A0000E9446090E94990E4AE050E0BC018FEF31
:1050B00093E00E94A6158091EC04882309F424C192
:1050C0006CE47AE08FEF93E00E94B8158FEF93E0E5
:1050D0000E94800A80917C01882309F42CC1809170
:1050E000EC04811128C16091EB0470E090E080E055
:1050F0000E94AA3720E030E040E85FE30E948F364C
:1051000020E030E048EC52E40E94AF3820E030E08C
:1051100040E85BE30E94AF386B017C0120E030E0A7
:10512000A9010E945A3888230CF4F9C020E030E02D
:1051300040E05FE3C701B6010E948F360E947237DC
:10514000162F6DE07AE08FEF93E00E9446094AE067
:1051500050E0612F8FEF93E00E944B156BE07AE0F7
:105160008FEF93E00E94B8158FEF93E00E94800AC2
:105170008FEF93E00E94800A66ED79E08FEF93E075
:105180000E9446096091F1047091F2048091F30449
:105190009091F40420E63AEE40E050E00E945D3643
:1051A000BA01A9012AE030E08FEF93E00E943C159C
:1051B0006BEC79E08FEF93E00E94B8158FEF93E0EE
:1051C0000E94800A62EB79E08FEF93E00E9446092B
:1051D0006091ED047091EE048091EF049091F004E1
:1051E00020E63AEE40E050E00E945D36BA01A901A7
:1051F0002AE030E08FEF93E00E943C1567EA79E007
:105200008FEF93E00E94B8158FEF93E00E94800A21
:105210006EE879E08FEF93E00E9446098091B9042F
:10522000837009F08FC069E879E08FEF93E00E9406
:10523000B8158FEF93E00E94800A64E479E08FEF65
:1052400093E00E9446098091B0048770813009F094
:105250009BC06CE379E08FEF93E00E94B8158FEF6D
:1052600093E00E94800A6DE079E08FEF93E00E9466
:105270004609409177015091780170E060E02AE0A2
:1052800030E08FEF93E00E943C156AE079E08FEF09
:1052900093E00E94B8158FEF93E00E94800A61EFBF
:1052A00078E08FEF93E00E9446094091750150919C
:1052B000760170E060E02AE030E08FEF93E00E943A
:1052C0003C156DEE78E08FEF93E00E94B8158FEFFC
:1052D00093E00E94800A6FEB78E08FEF93E00E94EA
:1052E00046098FEF93E00E94800AE3CB66E37BE000
:1052F0008FEF93E00E9446097ECC6DE07BE08FEF5C
:1053000093E00E94B815A4CC6BE27AE08FEF93E0B3
:105310000E94B8158FEF93E00E94800AD7CE20E05C
:1053200030E040E05FE3C701B6010E948E360E9484
:105330007237162F06CF6FEE79E08FEF93E00E9461
:10534000B81516CF813039F460E879E08FEF93E03B
:105350000E94B8156ECF823039F467E779E08FEF9D
:1053600093E00E94B81565CF833039F461E679E0A7
:105370008FEF93E00E94B8155CCF6DE579E08FEF79
:1053800093E00E94B81555CF823039F461E379E09B
:105390008FEF93E00E94B81562CF843039F46AE24F
:1053A00079E08FEF93E00E94B81559CF66E279E07B
:1053B0008FEF93E00E94B81552CF6BEF71E0CE01F2
:1053C00081960E948439892B49F067E072E0CE0112
:1053D00081960E948439892B09F046C0111110C0B2
:1053E0008FEF93E00E949A1560EB78E08FEF93E0E7
:1053F0000E9446098FEF93E00E94800A0C941720C8
:10540000C114D104E104F10489F41092EC048FEF8B
:1054100093E00E949A156AE678E08FEF93E00E948D
:1054200046098FEF93E00E94800A43CBCA94CD28AF
:10543000CE28CF2871F481E08093EC048FEF93E0C5
:105440000E949A1568E278E08FEF93E00E94460987
:10545000E8CF8FEF93E00E949A1561E178E08FEF3B
:1054600093E00E944609DDCF63E172E0CE018196B0
:105470000E948439892B49F06AE172E0CE0181965D
:105480000E948439892B09F046C0111110C08FEF9A
:1054900093E00E949A1562E078E08FEF93E00E941B
:1054A00046098FEF93E00E94800A0C941720C114E4
:1054B000D104E104F10489F410927B018FEF93E0B1
:1054C0000E949A1569ED77E08FEF93E00E944609FC
:1054D0008FEF93E00E94800AECCACA94CD28CE28B0
:1054E000CF2871F481E080937B018FEF93E00E94DD
:1054F0009A1562EB77E08FEF93E00E944609E8CFC0
:105500008FEF93E00E949A156BE977E08FEF93E0BD
:105510000E944609DDCF61E272E0CE0181960E94D1
:105520008439892B49F06BE272E0CE0181960E94AA
:105530008439892B09F0ACC0111110C08FEF93E0B2
:105540000E949A156CE877E08FEF93E00E9446097D
:105550008FEF93E00E94800A0C941720F5E6CF1697
:10556000D104E104F10408F042C08FEF93E00E94FF
:105570009A1562E577E08FEF93E00E944609C11427
:10558000D104E104F10481F19E2D8D2D7C2D66273F
:1055900024E630E040E050E00E945D368FEF820F5D
:1055A000D20152968C930E94B3140E94EF128FEF97
:1055B00093E00E949A156DE277E08FEF93E00E94EE
:1055C00046092AE030E0B701A6018FEF93E00E9480
:1055D0003C156AE277E08FEF93E00E9446098FEF77
:1055E00093E00E94800A65CAF201128ADCCF6091C2
:1055F000EB0470E090E080E00E94AA3720E030E009
:1056000040E85FE30E948F3620E030E048EC52E44F
:105610000E94AF3820E030E040E85BE30E94AF3802
:105620006B017C0120E030E0A9010E945A388823F8
:105630001CF120E030E040E05FE3C701B6010E94CA
:105640008F360E947237162F8FEF93E00E949A15C3
:1056500066EF76E08FEF93E00E9446094AE050E063
:10566000612F8FEF93E00E944B1563EF76E08FEF91
:1056700093E00E944609B3CF20E030E040E05FE3D2
:10568000C701B6010E948E360E947237162FDCCFFA
:1056900065E372E0CE0181960E948439892B49F03E
:1056A0006CE372E0CE0181960E948439892B09F067
:1056B00058C0111110C08FEF93E00E949A1564EE4C
:1056C00076E08FEF93E00E9446098FEF93E00E940F
:1056D000800A0C941720FFE9CF16F7E1DF06F1E00E
:1056E000EF06F10498F5A0E6BAEEA70196010E9434
:1056F0005236D20153969C93539754968C93549759
:1057000055967C93559756966C930E94B3140E94BD
:10571000EF128FEF93E00E949A156DEB76E08FEF1A
:1057200093E00E9446092AE030E0B701A6018FEF1E
:1057300093E00E943C1561EB76E08FEF93E00E94CE
:1057400046098FEF93E00E94800AB3C98FEF93E080
:105750000E949A1566E676E08FEF93E00E94460974
:10576000F0CF63E472E0CE0181960E948439892BE8
:1057700049F06BE472E0CE0181960E948439892B56
:1057800009F051C0111110C08FEF93E00E949A15DB
:1057900067E576E08FEF93E00E9446098FEF93E094
:1057A0000E94800A0C941720BFE9CB16B7E1DB06F4
:1057B000B1E0EB06F10460F5A0E6BAEEA7019601B0
:1057C0000E945236F201978B808F718F628F0E94F8
:1057D000B3140E94EF128FEF93E00E949A156FE2CC
:1057E00076E08FEF93E00E9446092AE030E0B701AF
:1057F000A6018FEF93E00E943C1563E276E08FEF05
:1058000093E00E9446098FEF93E00E94800A51C9FD
:105810008FEF93E00E949A1567ED75E08FEF93E0AC
:105820000E944609F0CF63E572E0CE0181960E94A6
:105830008439892B49F06FE572E0CE0181960E9490
:105840008439892B09F072C0111110C08FEF93E0D9
:105850000E949A1568EC75E08FEF93E00E9446096C
:105860008FEF93E00E94800A0C941720F4E0CF168B
:10587000D104E104F10408F04EC0D2015B96CC9251
:105880000E94B3140E94EF12C114D104E104F10488
:1058900079F48FEF93E00E949A156FE875E08FEF2F
:1058A00093E00E9446098FEF93E00E94800A01C9AD
:1058B000B1E0CB16D104E104F10459F48FEF93E089
:1058C0000E949A1566E475E08FEF93E00E94460906
:1058D000EACFE2E0CE16D104E104F10459F48FEFEF
:1058E00093E00E949A156DEF74E08FEF93E00E94B1
:1058F0004609D9CFF3E0CF16D104E104F10499F6BB
:105900008FEF93E00E949A1566EA74E08FEF93E0C0
:105910000E944609C8CF8FEF93E00E949A156FE866
:1059200074E08FEF93E00E944609BDCF6BE672E012
:10593000CE0181960E948439892B49F064E772E098
:10594000CE0181960E948439892B09F071C0111112
:1059500010C08FEF93E00E949A1560E874E08FEF1B
:1059600093E00E9446098FEF93E00E94800A0C9416
:105970001720D701C60187709927AA27BB27AC013A
:10598000BD0141505109610971094430510561055A
:10599000710508F042C00397A105B105F1F1D201EC
:1059A0005C96CC920E94B3140E94EF12B1E0CB1629
:1059B000D104E104F10479F48FEF93E00E949A1589
:1059C00067E574E08FEF93E00E9446098FEF93E064
:1059D0000E94800A6EC8E2E0CE16D104E104F10410
:1059E00059F48FEF93E00E949A156BE274E08FEF09
:1059F00093E00E944609EACFF4E0CF16D104E10417
:105A0000F10421F78FEF93E00E949A1563E074E0B0
:105A10008FEF93E00E944609D9CF8FEF93E00E9469
:105A20009A156CEE73E08FEF93E00E944609CECF9B
:105A30006DE772E0CE0181960E948439892B49F08E
:105A400065E872E0CE0181960E948439892B09F0C5
:105A50004AC0111110C08FEF93E00E949A156DEDAE
:105A600073E08FEF93E00E9446098FEF93E00E946E
:105A7000800A0C941720C114D104E104F10441F10F
:105A8000D2015D96DC925D975E96CC920E94B31433
:105A90000E94EF128FEF93E00E949A156AEB73E079
:105AA0008FEF93E00E9446092AE030E0B701A6019B
:105AB0008FEF93E00E943C1566EB73E08FEF93E06D
:105AC0000E9446098FEF93E00E94800A0C945925AA
:105AD0008FEF93E00E949A1568E773E08FEF93E0F1
