:100000000C94B4000C94B2070C948B070C94DC0095
:100010000C94DC000C94DC000C94DC000C94DC00F0
:100020000C94DC000C94DC000C94DC000C94DC00E0
:100030000C94DC000C94DC000C94DC000C94DC00D0
:100040000C94540A0C94DC000C944E020C94D907C6
:100050000C94DC000C94DC000C94DC000C94DC00B0
:100060000C9411030C94DC0008000000BE9224499B
:10007000123EABAAAA2ABECDCCCC4C3E00000080DA
:10008000BEABAAAAAA3E00000000BF000000803F4D
:100090000000000000084178D3BB4387D1133D190D
:1000A0000E3CC3BD4282AD2B3E68EC8276BED98F3A
:1000B000E1A93E4C80EFFFBE01C4FF7F3F0000007E
:1000C00000002D2D2D2D2D2D2D2D2D2D2D2D2D2DBA
:1000D0002D2D2D2D2D2D0020544F574552204741B9
:1000E0005244454E2056312E30322000204D4F4490
:1000F000554C415220485944524F504F4E4943208D
:10010000002D2D2D2D2D2D2D2D2D2D2D2D2D2D2D4C
:100110002D2D2D2D2D0000000008000201000003F0
:10012000040700000000000000000000000025009F
:1001300028002B0000000000240027002A000404EF
:10014000040404040404020202020202030303037F
:10015000030301020408102040800102040810205B
:100160000102040810208F1111241FBECFEFD8E028
:10017000DEBFCDBF11E0A0E0B1E0E6EBF9E202C0E6
:1001800005900D92A635B107D9F723E0A6E5B1E0B9
:1001900001C01D92AA35B207E1F710E0C4EBD0E030
:1001A00004C02197FE010E94CE14C33BD107C9F7BA
:1001B0000E949E0A0C94D9140C940000FC01538DEB
:1001C000448D252F30E0842F90E0821B930B541731
:1001D00010F0CF96089501970895FC01918D828DBE
:1001E000981761F0828DDF01A80FB11D5D968C918B
:1001F000928D9F5F9F73928F90E008958FEF9FEF96
:100200000895FC01918D828D981731F0828DE80F51
:10021000F11D858D90E008958FEF9FEF0895FC010B
:10022000918D228D892F90E0805C9F4F821B9109D8
:100230008F739927089580E090E0892B29F00E9420
:100240007F0781110C940000089585ED8093BC0018
:100250008091BC0084FDFCCF10926602089540910D
:100260009B01262F30E0240F311D21323105DCF4B3
:10027000209166022430C9F4FC0180E090E08617EA
:1002800058F430919B012191DC01A758BE4FA30F78
:10029000B11D2C930196F3CF80919B01680F609361
:1002A0009B0180E0089581E0089582E0089508951B
:1002B00008950895E091780180917701E81730F46E
:1002C000F0E0E95AFE4F808190E008958FEF9FEFB4
:1002D00008959091780180917701981750F4E92F53
:1002E000F0E0E95AFE4F208130E09F5F9093780163
:1002F00002C02FEF3FEFC90108958091770190E090
:1003000020917801821B91090895CF92DF92EF929C
:10031000FF920F931F93CF93DF937C01CB018A0150
:1003200020916702222389F0EB016B01C40ED51ED8
:10033000CC15DD0569F06991D701ED91FC91019033
:10034000F081E02DC7010995F3CF642F0E942F01A2
:10035000C801DF91CF911F910F91FF90EF90DF9037
:10036000CF900895CF93DF931F92CDB7DEB7698307
:10037000209167022223D1F020918A02203240F09E
:1003800021E030E0FC013383228380E090E015C05F
:1003900080916802E82FF0E0E759FD4F9981908342
:1003A0008F5F8093680280938A0205C061E0CE016E
:1003B00001960E942F0181E090E00F90DF91CF9194
:1003C000089521E001C0220F6A95EAF7DC011C962E
:1003D0002C931C971A965C934E931997ED91FC9170
:1003E0000484F585E02D60E00994DC01ED91FC9139
:1003F0000684F785E02D41E0099581E090E00895BD
:1004000008950895089580E090E008950F931F9354
:10041000CF93DF93062F0F70423019F440E0602F26
:100420000EC0142FEC0170E084E0759567958A95F5
:10043000E1F7CE010E942109412F602FCE01DF910B
:10044000CF911F910F910C942109FC018485882381
:10045000A9F0218532852115310519F4611106C0F5
:1004600007C02130310521F4611102C0858701C028
:1004700015866585CF010E960C94FC080895F894B6
:1004800081E080930F0280910E01882329F08091F2
:10049000FD0190E00E949E09789408951F920F92AA
:1004A0000FB60F9211242F938F939F93EF93FF9387
:1004B000E0919B02F0919C028081E091A102F09179
:1004C000A20282FD12C090818091A4028F5F8F737F
:1004D0002091A502821751F0E091A402F0E0E557C7
:1004E000FD4F958F8093A40201C08081FF91EF9111
:1004F0009F918F912F910F900FBE0F901F90189585
:10050000FC01848DDF01A80FB11DA35ABF4F2C91B0
:10051000848D90E001968F739927848FA689B7897F
:100520002C93A089B1898C91837080648C93938D76
:10053000848D981306C00288F389E02D80818F7D19
:1005400080830895EF92FF920F931F93CF93DF93D1
:10055000EC0181E0888F9B8D8C8D981305C0E88914
:10056000F989808185FD26C0F62E0B8D10E00F5F86
:100570001F4F0F731127E02E8C8DE8120CC00FB6A1
:1005800007FCFACFE889F989808185FFF5CFCE0194
:100590000E948002F1CF8B8DFE01E80FF11DE35A1E
:1005A000FF4FF0829FB7F8940B8FEA89FB89808117
:1005B00080620AC09FB7F894EE89FF896083E8895A
:1005C000F98980818370806480839FBF81E090E09F
:1005D000DF91CF911F910F91FF90EF900895CF93EE
:1005E000DF93EC01888D8823C9F0EA89FB8980813B
:1005F00085FD05C0A889B9898C9186FD0FC00FB60D
:1006000007FCF5CF808185FFF2CFA889B9898C914D
:1006100085FFEDCFCE010E948002E7CFDF91CF9121
:1006200008951F920F920FB60F9211242F933F93AC
:100630004F935F936F937F938F939F93AF93BF93EA
:10064000EF93FF938091B900887F803609F49CC0B6
:1006500068F5883209F45BC090F4803109F454C025
:1006600038F4882309F4F6C0883009F44DC0F6C088
:10067000883109F44CC0803209F45DC0EFC0803489
:1006800009F468C048F4803309F455C0883309F090
:10069000E5C080936402D8C0803509F44FC0883526
:1006A00009F45DC0883409F0D9C0D6C0883909F48E
:1006B000C7C0A8F4883709F467C038F4883609F44D
:1006C00063C0803709F460C0C9C0883809F4B8C075
:1006D000803909F45FC0803809F0C0C05BC0803B3E
:1006E00009F486C038F4803A09F466C0883A09F4FF
:1006F0007FC0B4C0803C09F4A7C0883C09F4A4C002
:10070000883B09F48AC0AAC08091410210C0909130
:10071000630280916202981770F5E091630281E0B4
:100720008E0F80936302F0E0EE5BFD4F808180933B
:10073000BB0085EC86C0809364028EC0E0916302AA
:1007400081E08E0F809363028091BB00F0E0EE5B4E
:10075000FD4F808390916302809162026EC0E091B0
:10076000630281E08E0F809363028091BB00F0E012
:10077000EE5BFD4F80838091650281116DC081E049
:100780008093400284EA61C083E080936602109205
:10079000BF01CFCF8091BF01803208F051C0E091FE
:1007A000BF0181E08E0F8093BF018091BB00F0E01C
:1007B000E156FE4F8083BDCF85EC8093BC00109244
:1007C00066028091BF01803230F4E091BF01F0E019
:1007D000E156FE4F10826091BF0170E0E0919D01F3
:1007E000F0919E018FE991E009951092BF0136C00A
:1007F00084E08093660210929C0110929B01E0912C
:100800009901F0919A01099580919B01811105C090
:1008100081E080939B0110927901E0919C0181E03D
:100820008E0F80939C01F0E0E758FE4F808180930B
:10083000BB0090919C0180919B01981708F479CF9F
:1008400085E88093BC000AC085EC8093BC001092C0
:10085000660204C0109264020E942501FF91EF918C
:10086000BF91AF919F918F917F916F915F914F91C8
:100870003F912F910F900FBE0F901F901895DC01A4
:10088000ED91FC910684F785E02D40E009940F93EB
:100890001F93CF93DF93EC01423018F08C81886076
:1008A0008C834F836887222329F0413019F48C818F
:1008B00084608C8364E670E080E090E00E940E0A21
:1008C0006C8164FD31C0E881F9810684F785E02DF3
:1008D00042E063E0CE0109958BE496E40197F1F7DD
:1008E000E881F9810684F785E02D42E063E0CE01DE
:1008F000099503E512E0C8010197F1F7E881F98154
:100900000684F785E02D42E063E0CE010995C80139
:100910000197F1F7E881F9810684F785E02D42E03F
:1009200062E0CE01099517C06062CE010E943F04CB
:100930008BE496E40197F1F76C816062CE010E942E
:100940003F0403E512E0C8010197F1F76C81606292
:10095000CE010E943F04C8010197F1F76C816062EB
:10096000CE010E943F048BEE90E00197F1F784E006
:100970008D836CE0CE010E943F0461E0CE010E94B5
:100980003F048BE39FE10197F1F782E08E8366E0FD
:10099000CE010E943F04E881F9810484F585E02DB1
:1009A0006FEFCE01DF91CF911F910F910994EF92DC
:1009B000FF920F931F93CF93DF93EC01062FF42E3A
:1009C000E22E8B85888B109278011092770110921D
:1009D000680210928A021092660211E0109365027A
:1009E0001092400261E082E10E94510961E083E1DE
:1009F0000E9451098091B9008E7F8093B900809147
:100A0000B9008D7F8093B90088E48093B80085E4B5
:100A10008093BC0087E591E090939A0180939901BF
:100A200088E591E090939E0180939D0188891093C1
:100A30006702809389021092680210928A020E94D3
:100A4000A00891E0811190E0998B811105C088E2A6
:100A500093E00E9469018E878989882339F01F8677
:100A60001C8260E0CE010E960E94FC082E2D4F2DB8
:100A7000602FCE01DF91CF911F910F91FF90EF90EA
:100A80000C9447041F93CF93DF93EC01162F0E9421
:100A90000712181739F0612FCE01DF91CF911F9106
:100AA0000C940F12DF91CF911F910895AF92BF92D6
:100AB000CF92DF92EF92FF920F931F93CF93DF932A
:100AC000CDB7DEB7CDB6DEB6790196E0E90EF11C02
:100AD000ADB7BEB7AE19BF090FB6F894BEBF0FBE13
:100AE000ADBF0DB71EB70F5F1F4F9DE311969C93CF
:100AF000F9013296D8011196FC9311979CEF9E0D47
:100B000012969C931297806813968C931397149661
:100B10006C9314972115310551F0FA011596420F87
:100B2000531FE417F50719F081918D93FACF2B5FCE
:100B30003F4FF801319680E0AF01401B510B421747
:100B4000530718F49191890FF7CFF801E20FF31FC3
:100B500080835801C501801B910B8E159F0540F4C1
:100B6000F50161915F018BE892E00E94A202F2CF51
:100B70000FB6F894DEBE0FBECDBEDF91CF911F91B0
:100B80000F91FF90EF90DF90CF90BF90AF900895BE
:100B9000CF92DF92EF92FF920F931F93CF93DF9349
:100BA000CDB7DEB72E970FB6F894DEBF0FBECDBF20
:100BB000C0900B02D0900C02E0900D02F0900E025B
:100BC0008091070290910802A0910902B0910A0257
:100BD0000091100210911102209112023091130223
:100BE0005091060251110CC08C0D9D1DAE1DBF1DF4
:100BF000801B910BA20BB30B4B2F3A2F292F04C054
:100C000080E020E030E040E0198290910E019923CD
:100C100011F091E099839981552311F0926001C000
:100C20009D7F99839091FD019A834B833C832D8313
:100C30008E838091F4018F838091F5018887809164
:100C4000F60189878091F7018A878091F8018B8767
:100C50008091F9018C878091FA018D878091FB0149
:100C60008E872EE030E0AE014F5F5F4F60E082E0A4
:100C70000E9456052E960FB6F894DEBF0FBECDBF6C
:100C8000DF91CF911F910F91FF90EF90DF90CF9068
:100C90000895EF92FF920F931F93CF9390910E01BF
:100CA000911105C090910602992309F444C0C82F00
:100CB00081110BC060E089E00E94510961E084E08D
:100CC0000E9451091092560136C0809156018C172E
:100CD000A0F40091560110E0EC2EF12CE016F10684
:100CE00020F1C8010E949E096FE070E080E090E072
:100CF0000E940E0A0F5F1F4FF1CF80915601C81757
:100D0000A0F40091560110E0EC2EF12C0E151F05F9
:100D100060F0C8010E949E096FE070E080E090E002
:100D20000E940E0A01501109F1CF60E084E00E9498
:100D30005109C0935601CF911F910F91FF90EF90F1
:100D400008950F931F938091D4018093D2018091D5
:100D5000D5018093D3018091D6018093CA018091FF
:100D6000D7018093CB018091D8018093CC018091F1
:100D7000D9018093CD018091DA018093CE018091D9
:100D8000DB018093CF018091DC018093D0018091C1
:100D9000DD018093D1018091DE018093C2018091B9
:100DA000DF018093C3018091E0018093C4018091B1
:100DB000E1018093C5018091E2018093C601809199
:100DC000E3018093C7018091E4018093C801809181
:100DD000E5018093C9018091E6018093FD01809136
:100DE000FD010E9449066091E7017091E801809140
:100DF000E9019091EA010E94C7148B019C01609364
:100E0000FE017093FF0180930002909301026091B4
:100E1000EB017091EC018091ED019091EE010E9447
:100E2000C7146093020270930302809304029093AC
:100E3000050240910E01442349F0009307021093EC
:100E400008022093090230930A0208C06093070247
:100E5000709308028093090290930A028091F00136
:100E60008093FC016091F1017091F2017627672770
:100E700076277093100160930F0180E090E00E944C
:100E800001139B01AC0160E070E080E89FE30E94E9
:100E90008F126093340370933503809336039093DD
:100EA00037031F910F9108950895CF92DF92EF922B
:100EB000FF920F931F93CF93DF936C017A018B0105
:100EC000C0E0D0E0CE15DF0581F0D8016D918D0135
:100ED000D601ED91FC910190F081E02DC6010995BC
:100EE000892B11F02196EECF7E01C701DF91CF91C2
:100EF0001F910F91FF90EF90DF90CF9008958BE8B6
:100F000092E00E940F0121E0892B09F420E0822F5A
:100F100008950E94D4141F920F920FB60F921124BD
:100F20002F933F934F935F936F937F938F939F93F1
:100F3000AF93BF93EF93FF93E0910201F091030110
:100F40000995FF91EF91BF91AF919F918F917F9103
:100F50006F915F914F913F912F910F900FBE0F9026
:100F60001F9018951F920F920FB60F9211242F9376
:100F70003F934F935F936F937F938F939F93AF9321
:100F8000BF93EF93FF93E0910001F0910101099568
:100F9000FF91EF91BF91AF919F918F917F916F9151
:100FA0005F914F913F912F910F900FBE0F901F9027
:100FB00018951F920F920FB60F9211242F933F9303
:100FC0004F935F936F937F938F939F93AF93BF9351
:100FD000EF93FF938BE892E00E948002FF91EF91E4
:100FE000BF91AF919F918F917F916F915F914F9141
:100FF0003F912F910F900FBE0F901F9018953FB704
:10100000F8948091560390915703A0915803B091A2
:10101000590326B5A89B05C02F3F19F00196A11DC5
:10102000B11D3FBFBA2FA92F982F8827820F911D7E
:10103000A11DB11DBC01CD0142E0660F771F881FC5
:10104000991F4A95D1F7089590E0FC01EE5AFE4FA2
:101050002491FC01E25CFE4F8491882399F090E09A
:10106000880F991FFC01EC5CFE4FA591B491FC0127
:10107000E65DFE4F859194918FB7F894EC91E22B49
:10108000EC938FBF08950F931F93CF93DF938C0141
:10109000C0E0D0E0F801EC0FFD1F6491662341F041
:1010A00088E393E00E94F501892B11F02196F2CF9D
:1010B000CE01DF91CF911F910F910895CF93DF93D0
:1010C000CDB7DEB728970FB6F894DEBF0FBECDBF01
:1010D000409115015091160160911701709118010E
:1010E0004D835E836F8378874091190150911A0177
:1010F00060911B0170911C0149835A836B837C832F
:1011000020913F03821710F08FEF820F3091400340
:1011100090E0FE01E80FF91F303121F4243011F482
:10112000618101C06581606888E393E028960FB60D
:10113000F894DEBF0FBECDBFDF91CF910C943F047A
:1011400030918A02313208F04BC0809166028111E1
:10115000FCCF9091890222E02093660221E0209347
:1011600065022FEF209364021092630230936202B3
:10117000E9E6F2E0A2E4B2E020E0321721F041918A
:101180004D932F5FFACF1092410220914102990FA7
:10119000922B9093410290914002913061F4109211
:1011A0004002909141029093BB009091BC0093FD4E
:1011B000F8CF95EC01C095EE9093BC00909166023B
:1011C0009230E1F3909164029F3F79F08091640244
:1011D000803241F080916402803331F084E005C0B8
:1011E00081E003C082E001C083E0109268021092A7
:1011F0008A02109267020895FC0183818823C1F05E
:10120000962F6181609569236083828191E090933C
:101210006702809389021092680210928A0288E223
:1012200093E00E94B2010E94A008282F30E002C083
:1012300020E030E081E090E0232B11F080E090E0AE
:101240000895EF92FF920F931F93CF938C01FC01AF
:1012500084E0C0E060FF02C09589C92B669581508B
:1012600031968111F7CF413011F4F8014489F8012A
:101270008585C82BC42B7801FEE0EF0EF11CF80128
:1012800062896C2BC7010E94FC08F8016289609595
:101290006C23C701CF911F910F91FF90EF900C9499
:1012A000FC0890E0FC01EA5EFE4F2491FC01EE5A3E
:1012B000FE4F3491FC01E25CFE4FE491EE2309F411
:1012C0003CC0222339F1233091F038F42130A9F0C9
:1012D000223001F584B58F7D12C0273091F028307F
:1012E000A1F02430B9F4809180008F7D03C08091FB
:1012F00080008F77809380000DC084B58F7784BD88
:1013000009C08091B0008F7703C08091B0008F7DBD
:101310008093B000F0E0EE0FFF1FE65DFE4FA59159
:10132000B4919FB7F894611104C08C913095382323
:1013300002C0EC913E2B3C939FBF0895CF93DF9367
:10134000EC0189E00E942408209711F460E004C0B9
:10135000CF3FD10531F461E089E0DF91CF910C946A
:101360005109EFE1F1E0E491E330F9F048F4E130C4
:10137000B9F0E230A1F584B5806284BDC8BD34C047
:10138000E730E9F0E83019F1E43049F58091800068
:10139000806280938000D0938B00C0938A0024C029
:1013A00084B5806884BDC7BD1FC0809180008068FF
:1013B00080938000D0938900C093880015C08091ED
:1013C000B00080688093B000C093B3000DC08091DE
:1013D000B00080628093B000C093B40005C0C038F4
:1013E000D1050CF0B8CFB2CFDF91CF9108958E30F8
:1013F00008F08E508770806480937C0080917A0022
:10140000806480937A0080917A0086FDFCCF809181
:1014100078002091790090E0922B08958F929F920E
:10142000AF92BF92CF92DF92EF92FF926B017C015D
:101430000E94FF074B015C01C114D104E104F104D7
:10144000F1F00E94FF07DC01CB0188199909AA0974
:10145000BB09883E9340A105B10570F321E0C21A93
:10146000D108E108F10888EE880E83E0981EA11CDF
:10147000B11CC114D104E104F10419F7DDCFFF90D0
:10148000EF90DF90CF90BF90AF909F908F90089596
:101490002FB7F894609152037091530380915403D5
:1014A000909155032FBF08951F920F920FB60F9280
:1014B00011242F933F938F939F93AF93BF9380916A
:1014C000520390915303A0915403B091550330916E
:1014D000510323E0230F2D3720F40196A11DB11DE8
:1014E00005C026E8230F0296A11DB11D20935103CC
:1014F0008093520390935303A0935403B0935503E6
:101500008091560390915703A0915803B0915903CD
:101510000196A11DB11D8093560390935703A0938C
:101520005803B0935903BF91AF919F918F913F9111
:101530002F910F900FBE0F901F901895CF93DF93B0
:10154000CDB7DEB7A2970FB6F894DEBF0FBECDBF02
:10155000789484B5826084BD84B5816084BD85B58E
:10156000826085BD85B5816085BD80916E0081609A
:1015700080936E0010928100809181008260809340
:101580008100809181008160809381008091800042
:101590008160809380008091B10084608093B1006D
:1015A0008091B00081608093B00080917A00846067
:1015B00080937A0080917A00826080937A00809193
:1015C0007A00816080937A0080917A0080688093AD
:1015D0007A001092C1007894E0919B02F0919C02F5
:1015E00082E08083E0919702F09198021082E0916E
:1015F0009902F0919A0287E080831092A302E09111
:101600009F02F091A00286E08083E0919D02F0911C
:101610009E02808180618083E0919D02F0919E0214
:10162000808188608083E0919D02F0919E0280819C
:1016300080688083E0919D02F0919E0280818F7D81
:10164000808384E00E94240889E00E9424088FE3BC
:1016500092E09093010180930001809169008C7F5A
:10166000826080936900E89A81E2E0E0F0E0809394
:101670005700E491E0931402E2E0F0E08093570019
:10168000E491E0931502E4E0F0E080935700849148
:101690008093160234EDE32E31E0F32E00E010E0EB
:1016A000C8010E940712D7018D937D010F5F1F4F64
:1016B00000321105A9F723EF31E0E4EDF1E080E01D
:1016C0009191890F2E173F07D9F79091F301981345
:1016D00003C00E94A10664C01092D20186E68093E6
:1016E000D3011092CA011092CB011092CC0110923A
:1016F000CD018DE58093CE019AEC9093CF019EEBC6
:101700009093D0019DE09093D1011092C20110926C
:10171000C3011092C4011092C5018093C6018CEAE6
:101720008093C70187E58093C80183E28093C90154
:101730008FE78093FD018091FD010E94490680EAB8
:101740009BEBADE0B0E08093FE019093FF01A0938E
:101750000002B09301028093020290930302A093CF
:101760000402B09305028093070290930802A093AD
:101770000902B0930A0281E08093FC018EE69FE0AB
:101780009093100180930F018CE29BEBA4E8B9E3E6
:101790008093340390933503A0933603B0933703BB
:1017A00020E044E064E188E393E00E94D7046FEF17
:1017B00088E393E00E94250261E088E393E00E94C1
:1017C0003F040BE31FE1C8010197F1F762E088E3F2
:1017D00093E00E943F04C8010197F1F781E091E096
:1017E0000E94430881E00E945E088CEE90E00E9417
:1017F000430882E00E945E0887ED90E00E94430863
:1018000083E00E945E0882EC90E00E94430860E45E
:1018100088E393E00E943F0483E790E00197F1F7AB
:1018200004E011E09CE0E92E91E0F92E2BE9C22EB4
:10183000D12CF80161918F0188E393E00E94F501BA
:10184000C6010197F1F7E016F10699F781E0809360
:101850000E0198E288E10FB6F894A8958093600095
:101860000FBE9093600021E030E04BE152E061E078
:1018700080E00E945605CE010E969C8F8B8F809142
:10188000110190911201A0911301B09114018F8F59
:1018900098A3A9A3BAA3A8950E94480A609310022E
:1018A0007093110280931202909313028BE892E0DE
:1018B0000E940F01181619067CF58BE892E00E9431
:1018C000ED008D3329F52DB63EB60E94480A6B0116
:1018D0007C0110E08BE892E00E940F0102970CF06F
:1018E00095C2112309F4CFC221E030E04CE051E071
:1018F00066E005C021E030E04CE051E061E08FE0BF
:101900000E9456050FB6F8943EBE0FBE2DBE04C011
:101910008BE892E00E94ED0080910F0281111092FD
:101920000F02C0901002D0901102E0901202F090CD
:10193000130280910B0290910C02A0910D02B091C4
:101940000E0297018601081B190B2A0B3B0B4091D5
:101950000702509108026091090270910A0204176F
:1019600015072607370708F443C08C159D05AE05FB
:10197000BF05F0F5C0920B02D0920C02E0920D026E
:10198000F0920E028091060281113FC080910E01FB
:101990008823B1F08091020290910302A091040289
:1019A000B09105028093070290930802A093090268
:1019B000B0930A0280E00E94490610920E0125C0F1
:1019C000B1E0B0930E018091FE019091FF01A091D2
:1019D0000002B09101028093070290930802A09345
:1019E0000902B0930A028091FD010E9449060DC0D0
:1019F000C816D906EA06FB0640F410920B021092B4
:101A00000C0210920D0210920E0280913C029091F5
:101A10003D02A0913E02B0913F02B701A601481BD2
:101A2000590B6A0B7B0B483E53406105710508F466
:101A3000DDC1C0923C02D0923D02E0923E02F092A3
:101A40003F02109220021092210210922202109264
:101A5000230210921C0210921D0210921E0210927C
:101A60001F0208EE13E08EE00E94F7094C01990F67
:101A7000AA08BB088091200290912102A091220225
:101A8000B0912302880E991EAA1EBB1E80922002CE
:101A900090922102A0922202B092230201501109D9
:101AA00011F708EE13E08FE00E94F7096C01990F1F
:101AB000EE08FF0880911C0290911D02A0911E0269
:101AC000B0911F02C80ED91EEA1EFB1EC0921C0256
:101AD000D0921D02E0921E02F0921F0201501109E5
:101AE00011F7C501B40128EE33E040E050E00E9458
:101AF000A51449015A0120932002309321024093FA
:101B0000220250932302C701B60128EE33E040E0E1
:101B100050E00E94A51429013A0120931C02309341
:101B20001D0240931E0250931F02C501B4010E9482
:101B300001139B01AC0160E070EC8FE794E40E941C
:101B40008F1220E030E040E85FE30E941D120E9407
:101B5000BB138090340390903503A0903603B0906F
:101B60003703A50194010E9403142FE03FEC4BE5DD
:101B70005BE30E941E129B01AC0160E070E080E814
:101B80009FE30E948F126B017C01C301B2010E948E
:101B900001139B01AC0160E070EC8FE794E40E94BC
:101BA0008F1220E030E040E85FE30E941D120E94A7
:101BB000BB139B01AC01C501B4010E9403142FE0CB
:101BC0003FEC4BE55BE30E941E129B01AC0160E021
:101BD00070E080E89FE30E948F124B015C0120E0DF
:101BE00030E0A901C701B6010E948A12882399F149
:101BF00023E333E948E853E4C701B6010E941D120C
:101C0000C0923002D0923102E0923202F09233025E
:101C100060933402709335028093360290933702BA
:101C200020E030E040E151E40E94031420E030E085
:101C300040EA50E40E948F1220E030E040E052E49D
:101C40000E941E12609338027093390280933A0208
:101C500090933B0218C01092300210923102109201
:101C60003202109233021092340210923502109216
:101C700036021092370210923802109239021092F6
:101C80003A0210923B0220E030E0A901C501B40104
:101C90000E948A12882399F123E333E948E853E448
:101CA000C501B4010E941D12809224029092250267
:101CB000A0922602B0922702609328027093290214
:101CC00080932A0290932B0220E030E040E151E41F
:101CD0000E94031420E030E040EA50E40E948F129A
:101CE00020E030E040E052E40E941E1260932C029B
:101CF00070932D0280932E0290932F0218C01092A1
:101D000024021092250210922602109227021092AD
:101D100028021092290210922A0210922B0210928D
:101D20002C0210922D0210922E0210922F028091FE
:101D3000FC01823019F1843091F1E091340270910C
:101D4000350260913602509137024091280230915D
:101D5000290220912A0290912B02E093F4017093C2
:101D6000F5016093F6015093F7014093F801309329
:101D7000F9012093FA019093FB0131C07091380270
:101D80006091390250913A0240913B0230912C020D
:101D900020912D0290912E0280912F0210C07091FF
:101DA0003002609131025091320240913302309101
:101DB000240220912502909126028091270270939F
:101DC000F4016093F5015093F6014093F7013093CD
:101DD000F8012093F9019093FA018093FB0180911F
:101DE0000D01882381F00E94C8050DC0C816D906D0
:101DF000EA06FB0640F410923C0210923D0210925B
:101E00003E0210923F020E941B0145CD11116CCD84
:101E10008BE892E00E94ED00682E8BE892E00E9431
:101E2000ED00782E6E8E1D8ECD8CDE8CC80ED11CF2
:101E300026019FEF491A590AA2E0CA1AD108BBEF3E
:101E4000CB16B3E0DB0608F055CD0E94480A4B01E3
:101E50005C0111C0111148CD0E94480ADC01CB0180
:101E600088199909AA09BB0911E085369105A105D0
:101E7000B10508F410E08BE892E00E940F01841590
:101E8000950588F4E7CF0E94480ADC01CB018C1944
:101E90009D09AE09BF0911E0893C9105A105B10575
:101EA00008F018CD16CD11111FCD8BE892E00E94DD
:101EB000ED00882E8BE892E00E94ED008C01EDB7DA
:101EC000FEB7EC19FD090FB6F894FEBF0FBEEDBFCB
:101ED0008DB79EB701967C01C114D10489F05C01D5
:101EE0008BE892E00E94ED00D5018D935D01CD015C
:101EF0008E199F098C159D0598F3BB24B39401C0DE
:101F0000B12C8BE892E00E94ED00962C970C980C77
:101F1000900EBB2051F0F7019F012E193F092C159F
:101F20003D0518F49191990EF7CF891531F021E014
:101F300030E04CE051E065E0E2CC882D8F708230DB
:101F400039F1A8F48823D9F0813009F0E2C18F8DEE
:101F500098A1A9A1BAA189839A83AB83BC8324E009
:101F600030E0AE014F5F5F4F60E081E0C9CC84306C
:101F700009F4B6C080F08E3009F429C1CAC121E04D
:101F800030E04BE152E060E080E00E945605FFCF78
:101F90000E94C805B7CC11270330110509F459C0B8
:101FA0003CF40130110569F002301105D1F0ABC1EC
:101FB0000430110509F45EC00530110509F471C043
:101FC000A2C1A6EEB1E0FE013196AF018D918193E1
:101FD0008B8D9C8D8E179F07C9F72DE030E061E057
:101FE0005EC09DE0C916D10430F421E030E04CE041
:101FF00051E064E084CCF701A6EEB1E0C7010D9694
:1020000021912D93E817F907D9F7E4EDF1E080E08D
:102010009191890FA1E0E33FFA07D1F78093F30193
:1020200084EDE82E81E0F82E00E010E0F7016191E8
:102030007F01C8010E9442050F5F1F4F003211054A
:10204000A9F70E94A10621E030E04BE152E062E0F6
:1020500026C0BB2051F2D7018C91811103C0109290
:102060000D0103C0B1E0B0930D0121E030E0A70104
:1020700063E015C0BB2009F4B8CFF701808181115E
:1020800007C0109206028091FD010E94490603C01C
:10209000F1E0F093060221E030E0A70164E083E084
:1020A0002FCCBB2009F4A1CF8091060221E030E0C3
:1020B000882391F0A70165E083E00E945605D701CF
:1020C0008C91811103C010920E0103C0B1E0B09356
:1020D0000E010E94490616CC4CE051E06EEF0FCC89
:1020E000112702301105C9F054F40130110509F02F
:1020F0000AC120E230E044ED51E061E066C0033007
:10210000110509F453C00430110509F0FCC028E0A2
:1021100030E044EF51E064E058C08091D2018983FF
:102120008091D3018A838091CA018B838091CB01F6
:102130008C838091CC018D838091CD018E838091A1
:10214000CE018F838091CF0188878091D0018987CC
:102150008091D1018A878091C2018B878091C301D0
:102160008C878091C4018D878091C5018E87809175
:10217000C6018F878091C701888B8091C801898BA8
:102180008091C9018A8B1B8A1C8A1D8A1E8AEEE5F2
:10219000EF8BF5E4F88F21E7298F6BE96A8F2AE14D
:1021A00030E0AE014F5F5F4F62E00FC00E94480A0F
:1021B00090931702809318027093190260931A0289
:1021C00024E030E047E152E063E085E099CB11275D
:1021D0000130110529F00230110509F465C093C0E2
:1021E00084E0C816D10408F400CFD701AD90BC90AC
:1021F0001197BA24AB24BA245C9111964C91119793
:1022000012960D911C9113971027012710271296F3
:102210003C91129713962C91C501800F911F019745
:102220008115944008F0E1CE4DB65EB63801E4E089
:102230006E0E711C8DB79EB7861997090FB6F8946C
:102240009EBF0FBE8DBFADB7BEB711967D01EDB776
:10225000FEB7518311964C93119712963C931297A7
:1022600013962C938DB69EB6F5E08F0E911CC12C63
:10227000D12CC016D10661F0C5018C0D9D1D0E94A8
:102280000712D4018D934D01BFEFCB1ADB0AF1CFBA
:102290009301A70161E08EE00E9456050FB6F89405
:1022A0005EBE0FBE4DBE2ECBE3E0CE16D10408F4C9
:1022B0009CCED701CD90DC90DC24CD24DC245201CF
:1022C000B5E0AB1AB108C5018C0D9D1D813094405D
:1022D00008F08BCEF2E0EF0EF11C00E010E0D70129
:1022E0006D917D01C8018C0D9D1D0E9442050F5FFF
:1022F0001F4F0A151B0598F321E030E04BE152E037
:1023000062E08EE0FDCA21E030E04CE051E063E0A5
:10231000F6CA21E030E04CE051E062E0F0CAEBE8C0
:10232000F2E01382128288EE93E0A0E0B0E08483B2
:102330009583A683B78321E231E03183208325ECA6
:1023400030E03587248724EC30E03787268720EC7F
:1023500030E0318B208B21EC30E0338B228B22EC70
:1023600030E0358B248B26EC30E0378B268B118EBA
:10237000128E138E148EE8E2F3E0138212828483AD
:102380009583A683B78383E391E091838083E8E319
:10239000F3E01382128285E491E091838083108AB6
:1023A0008FEF87871686118A87E2838714861586C2
:1023B0001286118684E0828B82E0838B81E0848B9D
:1023C00080E1858B80E2868B80E4878B80E8808F3C
:1023D00040E050E063E0CF010E94E10160910F0115
:1023E0007091100180E090E00E9401139B01AC010C
:1023F00060E070E080E89FE30E948F1260933403F6
:102400007093350380933603909337030895F999B9
:10241000FECF92BD81BDF89A992780B50895262FE9
:10242000F999FECF1FBA92BD81BD20BD0FB6F894B9
:10243000FA9AF99A0FBE019608955058BB27AA2719
:102440000E9435120C9479130E946B1338F00E948D
:10245000721320F039F49F3F19F426F40C9468139A
:102460000EF4E095E7FB0C946213E92F0E948A13A7
:1024700058F3BA17620773078407950720F079F4B9
:10248000A6F50C94AC130EF4E0950B2EBA2FA02DEC
:102490000B01B90190010C01CA01A0011124FF2711
:1024A000591B99F0593F50F4503E68F11A16F0400C
:1024B000A22F232F342F4427585FF3CF469537950B
:1024C0002795A795F0405395C9F77EF41F16BA0BD0
:1024D000620B730B840BBAF09150A1F0FF0FBB1F7E
:1024E000661F771F881FC2F70EC0BA0F621F731FC7
:1024F000841F48F4879577956795B795F7959E3F24
:1025000008F0B0CF9395880F08F09927EE0F9795B4
:10251000879508950E943E1308F481E008950E9473
:10252000A3120C9479130E94721358F00E946B133B
:1025300040F029F45F3F29F00C94621351110C9480
:10254000AD130C9468130E948A1368F39923B1F3B6
:10255000552391F3951B550BBB27AA2762177307C9
:10256000840738F09F5F5F4F220F331F441FAA1F5D
:10257000A9F335D00E2E3AF0E0E832D09150504019
:10258000E695001CCAF72BD0FE2F29D0660F771FC7
:10259000881FBB1F261737074807AB07B0E809F0AD
:1025A000BB0B802DBF01FF2793585F4F3AF09E3F32
:1025B000510578F00C9462130C94AD135F3FE4F373
:1025C000983ED4F3869577956795B795F7959F5F75
:1025D000C9F7880F911D9695879597F90895E1E0C1
:1025E000660F771F881FBB1F621773078407BA0720
:1025F00020F0621B730B840BBA0BEE1F88F7E0957B
:102600000895E89409C097FB3EF4909580957095E5
:1026100061957F4F8F4F9F4F9923A9F0F92F96E92E
:10262000BB279395F695879577956795B795F111A3
:10263000F8CFFAF4BB0F11F460FF1BC06F5F7F4F40
:102640008F4F9F4F16C0882311F096E911C0772352
:1026500021F09EE8872F762F05C0662371F096E85B
:10266000862F70E060E02AF09A95660F771F881F2A
:10267000DAF7880F9695879597F90895990F0008CE
:10268000550FAA0BE0E8FEEF16161706E807F90744
:10269000C0F012161306E407F50798F0621B730BDF
:1026A000840B950B39F40A2661F0232B242B252B60
:1026B00021F408950A2609F4A140A6958FEF811D03
:1026C000811D089597F99F6780E870E060E00895A4
:1026D0009FEF80EC089500240A941616170618063A
:1026E0000906089500240A94121613061406050616
:1026F0000895092E0394000C11F4882352F0BB0FA7
:1027000040F4BF2B11F460FF04C06F5F7F4F8F4F09
:102710009F4F089557FD9058440F551F59F05F3F44
:1027200071F04795880F97FB991F61F09F3F79F0F3
:1027300087950895121613061406551FF2CF469575
:10274000F1DF08C0161617061806991FF1CF8695F7
:102750007105610508940895E894BB2766277727DB
:10276000CB0197F9089516F00C9470140C9468132B
:1027700068940C9462130E949213A8F39923C1F3F6
:10278000AEF3DF93CF931F930F93FF92C92FDD27F3
:1027900088232AF02197660F771F881FDAF720E039
:1027A00030E040E85FEB9FE3883920F0803E38F06E
:1027B00021968F770E941E12E8E6F0E004C00E9486
:1027C0001E12E5E9F0E00E947E148B01BE01EC01CF
:1027D000FB2E6F5771097595771F880B990B0E9417
:1027E000031328E132E741E35FE30E941614AF2DA3
:1027F0009801AE01FF900F911F91CF91DF910E9440
:1028000035120C9479130E9416140C9479130E94BB
:102810006B1338F00E94721320F0952311F00C9482
:1028200062130C94681311240C94AD130E948A1344
:1028300070F3959FC1F3950F50E0551F629FF00113
:10284000729FBB27F00DB11D639FAA27F00DB11D2C
:10285000AA1F649F6627B00DA11D661F829F2227B5
:10286000B00DA11D621F739FB00DA11D621F839F3C
:10287000A00D611D221F749F3327A00D611D231F12
:10288000849F600D211D822F762F6A2F11249F5760
:1028900050409AF0F1F088234AF0EE0FFF1FBB1F63
:1028A000661F771F881F91505040A9F79E3F510522
:1028B00080F00C9462130C94AD135F3FE4F3983EE8
:1028C000D4F3869577956795B795F795E7959F5FCC
:1028D000C1F7FE2B880F911D9695879597F908955E
:1028E0009F3F31F0915020F4879577956795B79584
:1028F000880F911D9695879597F90895DF93CF934B
:102900001F930F93FF92EF92DF927B018C016894EB
:1029100006C0DA2EEF010E941614FE01E894A5917C
:102920002591359145915591A6F3EF010E943512FD
:10293000FE019701A801DA9469F7DF90EF90FF900C
:102940000F911F91CF91DF910895A1E21A2EAA1B3A
:10295000BB1BFD010DC0AA1FBB1FEE1FFF1FA2174F
:10296000B307E407F50720F0A21BB30BE40BF50B4C
:10297000661F771F881F991F1A9469F760957095D5
:10298000809590959B01AC01BD01CF010895692709
:10299000962769277827872778270895EE0FFF1F46
:1029A0000590F491E02D099481E090E0F8940C9466
:0629B000D914F894FFCFDA
:1029B600540754070609090600000000FF01016ECE
:1029C6000F4D48544700401454004010500000007A
:1029D60000A2025507DE00EF020F01ED0001010023
:1029E600000000B2018501030259017D0169015A07
:1029F6000100000000F501550703020202D704E1B9
:062A06000125020602009A
:107E0000112484B714BE81FFF0D085E080938100F7
:107E100082E08093C00088E18093C10086E0809377
:107E2000C20080E18093C4008EE0C9D0259A86E02C
:107E300020E33CEF91E0309385002093840096BBD3
:107E4000B09BFECF1D9AA8958150A9F7CC24DD24C4
:107E500088248394B5E0AB2EA1E19A2EF3E0BF2EE7
:107E6000A2D0813461F49FD0082FAFD0023811F036
:107E7000013811F484E001C083E08DD089C08234E0
:107E800011F484E103C0853419F485E0A6D080C0E4
:107E9000853579F488D0E82EFF2485D0082F10E0AE
:107EA000102F00270E291F29000F111F8ED06801E7
:107EB0006FC0863521F484E090D080E0DECF843638
:107EC00009F040C070D06FD0082F6DD080E0C81688
:107ED00080E7D80618F4F601B7BEE895C0E0D1E017
:107EE00062D089930C17E1F7F0E0CF16F0E7DF06D8
:107EF00018F0F601B7BEE89568D007B600FCFDCFD4
:107F0000A601A0E0B1E02C9130E011968C91119780
:107F100090E0982F8827822B932B1296FA010C0160
:107F200087BEE89511244E5F5F4FF1E0A038BF0790
:107F300051F7F601A7BEE89507B600FCFDCF97BE46
:107F4000E89526C08437B1F42ED02DD0F82E2BD052
:107F50003CD0F601EF2C8F010F5F1F4F84911BD097
:107F6000EA94F801C1F70894C11CD11CFA94CF0C13
:107F7000D11C0EC0853739F428D08EE10CD085E9AC
:107F80000AD08FE07ACF813511F488E018D01DD067
:107F900080E101D065CF982F8091C00085FFFCCF94
:107FA0009093C60008958091C00087FFFCCF809118
:107FB000C00084FD01C0A8958091C6000895E0E648
:107FC000F0E098E1908380830895EDDF803219F02E
:107FD00088E0F5DFFFCF84E1DECF1F93182FE3DFCA
:107FE0001150E9F7F2DF1F91089580E0E8DFEE27F6
:047FF000FF270994CA
:027FFE00040479
:0400000300007E007B
:00000001FF
