:100000000C94B4000C94F4070C94CD070C94DC0011
:100010000C94DC000C94DC000C94DC000C94DC00F0
:100020000C94DC000C94DC000C94DC000C94DC00E0
:100030000C94DC000C94DC000C94DC000C94DC00D0
:100040000C94960A0C94DC000C944E020C941B0841
:100050000C94DC000C94DC000C94DC000C94DC00B0
:100060000C9411030C94DC0008000000BE9224499B
:10007000123EABAAAA2ABECDCCCC4C3E00000080DA
:10008000BEABAAAAAA3E00000000BF000000803F4D
:100090000000000000084178D3BB4387D1133D190D
:1000A0000E3CC3BD4282AD2B3E68EC8276BED98F3A
:1000B000E1A93E4C80EFFFBE01C4FF7F3F0000007E
:1000C00000002D2D2D2D2D2D2D2D2D2D2D2D2D2DBA
:1000D0002D2D2D2D2D2D0020544F574552204741B9
:1000E0005244454E2056312E30322000204D4F4490
:1000F000554C415220485944524F504F4E4943208D
:10010000002D2D2D2D2D2D2D2D2D2D2D2D2D2D2D4C
:100110002D2D2D2D2D0000000008000201000003F0
:10012000040700000000000000000000000025009F
:1001300028002B0000000000240027002A000404EF
:10014000040404040404020202020202030303037F
:10015000030301020408102040800102040810205B
:10016000010204081020D21111241FBECFEFD8E0E5
:10017000DEBFCDBF11E0A0E0B1E0ECE3FAE202C0E7
:1001800005900D92AC35B107D9F723E0ACE5B1E0AD
:1001900001C01D92A436B207E1F710E0C4EBD0E035
:1001A00004C02197FE010E941115C33BD107C9F776
:1001B0000E94E00A0C941C150C940000FC01538D65
:1001C000448D252F30E0842F90E0821B930B541731
:1001D00010F0CF96089501970895FC01918D828DBE
:1001E000981761F0828DDF01A80FB11D5D968C918B
:1001F000928D9F5F9F73928F90E008958FEF9FEF96
:100200000895FC01918D828D981731F0828DE80F51
:10021000F11D858D90E008958FEF9FEF0895FC010B
:10022000918D228D892F90E0805C9F4F821B9109D8
:100230008F739927089580E090E0892B29F00E9420
:10024000C10781110C940000089585ED8093BC00D6
:100250008091BC0084FDFCCF10926C020895409107
:10026000A101262F30E0240F311D21323105DCF4AD
:1002700020916C022430C9F4FC0180E090E08617E4
:1002800058F43091A1012191DC01A158BE4FA30F78
:10029000B11D2C930196F3CF8091A101680F60935B
:1002A000A10180E0089581E0089582E00895089515
:1002B00008950895E0917E0180917D01E81730F462
:1002C000F0E0E35AFE4F808190E008958FEF9FEFBA
:1002D000089590917E0180917D01981750F4E92F47
:1002E000F0E0E35AFE4F208130E09F5F90937E0163
:1002F00002C02FEF3FEFC901089580917D0190E08A
:1003000020917E01821B91090895CF92DF92EF9296
:10031000FF920F931F93CF93DF937C01CB018A0150
:1003200020916D02222389F0EB016B01C40ED51ED2
:10033000CC15DD0569F06991D701ED91FC91019033
:10034000F081E02DC7010995F3CF642F0E942F01A2
:10035000C801DF91CF911F910F91FF90EF90DF9037
:10036000CF900895CF93DF931F92CDB7DEB7698307
:1003700020916D022223D1F020919002203240F092
:1003800021E030E0FC013383228380E090E015C05F
:1003900080916E02E82FF0E0E159FD4F9981908342
:1003A0008F5F80936E028093900205C061E0CE0162
:1003B00001960E942F0181E090E00F90DF91CF9194
:1003C000089521E001C0220F6A95EAF7DC011C962E
:1003D0002C931C971A965C934E931997ED91FC9170
:1003E0000484F585E02D60E00994DC01ED91FC9139
:1003F0000684F785E02D41E0099581E090E00895BD
:1004000008950895089580E090E008950F931F9354
:10041000CF93DF93062F0F70423019F440E0602F26
:100420000EC0142FEC0170E084E0759567958A95F5
:10043000E1F7CE010E946309412F602FCE01DF91C9
:10044000CF911F910F910C946309FC01848588233F
:10045000A9F0218532852115310519F4611106C0F5
:1004600007C02130310521F4611102C0858701C028
:1004700015866585CF010E960C943E090895F89473
:1004800081E08093150280910E01882329F08091EC
:10049000030290E00E94E009789408951F920F9261
:1004A0000FB60F9211242F938F939F93EF93FF9387
:1004B000E091A102F091A2028081E091A702F09167
:1004C000A80282FD12C090818091AA028F5F8F7373
:1004D0002091AB02821751F0E091AA02F0E0EF56B2
:1004E000FD4F958F8093AA0201C08081FF91EF910B
:1004F0009F918F912F910F900FBE0F901F90189585
:10050000FC01848DDF01A80FB11DA35ABF4F2C91B0
:10051000848D90E001968F739927848FA689B7897F
:100520002C93A089B1898C91837080648C93938D76
:10053000848D981306C00288F389E02D80818F7D19
:1005400080830895EF92FF920F931F93CF93DF93D1
:10055000EC0181E0888F9B8D8C8D981305C0E88914
:10056000F989808185FD26C0F62E0B8D10E00F5F86
:100570001F4F0F731127E02E8C8DE8120CC00FB6A1
:1005800007FCFACFE889F989808185FFF5CFCE0194
:100590000E948002F1CF8B8DFE01E80FF11DE35A1E
:1005A000FF4FF0829FB7F8940B8FEA89FB89808117
:1005B00080620AC09FB7F894EE89FF896083E8895A
:1005C000F98980818370806480839FBF81E090E09F
:1005D000DF91CF911F910F91FF90EF900895CF93EE
:1005E000DF93EC01888D8823C9F0EA89FB8980813B
:1005F00085FD05C0A889B9898C9186FD0FC00FB60D
:1006000007FCF5CF808185FFF2CFA889B9898C914D
:1006100085FFEDCFCE010E948002E7CFDF91CF9121
:1006200008951F920F920FB60F9211242F933F93AC
:100630004F935F936F937F938F939F93AF93BF93EA
:10064000EF93FF938091B900887F803609F49CC0B6
:1006500068F5883209F45BC090F4803109F454C025
:1006600038F4882309F4F6C0883009F44DC0F6C088
:10067000883109F44CC0803209F45DC0EFC0803489
:1006800009F468C048F4803309F455C0883309F090
:10069000E5C080936A02D8C0803509F44FC0883520
:1006A00009F45DC0883409F0D9C0D6C0883909F48E
:1006B000C7C0A8F4883709F467C038F4883609F44D
:1006C00063C0803709F460C0C9C0883809F4B8C075
:1006D000803909F45FC0803809F0C0C05BC0803B3E
:1006E00009F486C038F4803A09F466C0883A09F4FF
:1006F0007FC0B4C0803C09F4A7C0883C09F4A4C002
:10070000883B09F48AC0AAC08091470210C090912A
:10071000690280916802981770F5E091690281E0A2
:100720008E0F80936902F0E0E85BFD4F808180933B
:10073000BB0085EC86C080936A028EC0E09169029E
:1007400081E08E0F809369028091BB00F0E0E85B4E
:10075000FD4F808390916902809168026EC0E091A4
:10076000690281E08E0F809369028091BB00F0E006
:10077000E85BFD4F808380916B0281116DC081E049
:100780008093460284EA61C083E080936C021092F9
:10079000C501CFCF8091C501803208F051C0E091F2
:1007A000C50181E08E0F8093C5018091BB00F0E010
:1007B000EB55FE4F8083BDCF85EC8093BC0010923B
:1007C0006C028091C501803230F4E091C501F0E007
:1007D000EB55FE4F10826091C50170E0E091A301DE
:1007E000F091A40185EA91E009951092C50136C007
:1007F00084E080936C021092A2011092A101E0911A
:100800009F01F091A00109958091A101811105C07E
:1008100081E08093A10110927F01E091A20181E02B
:100820008E0F8093A201F0E0E158FE4F808180930B
:10083000BB009091A2018091A101981708F479CF93
:1008400085E88093BC000AC085EC8093BC001092C0
:100850006C0204C010926A020E942501FF91EF9180
:10086000BF91AF919F918F917F916F915F914F91C8
:100870003F912F910F900FBE0F901F901895DC01A4
:10088000ED91FC910684F785E02D40E009940F93EB
:100890001F93CF93DF93EC01423018F08C81886076
:1008A0008C834F836887222329F0413019F48C818F
:1008B00084608C8364E670E080E090E00E94500ADF
:1008C0006C8164FD31C0E881F9810684F785E02DF3
:1008D00042E063E0CE0109958BE496E40197F1F7DD
:1008E000E881F9810684F785E02D42E063E0CE01DE
:1008F000099503E512E0C8010197F1F7E881F98154
:100900000684F785E02D42E063E0CE010995C80139
:100910000197F1F7E881F9810684F785E02D42E03F
:1009200062E0CE01099517C06062CE010E943F04CB
:100930008BE496E40197F1F76C816062CE010E942E
:100940003F0403E512E0C8010197F1F76C81606292
:10095000CE010E943F04C8010197F1F76C816062EB
:10096000CE010E943F048BEE90E00197F1F784E006
:100970008D836CE0CE010E943F0461E0CE010E94B5
:100980003F048BE39FE10197F1F782E08E8366E0FD
:10099000CE010E943F04E881F9810484F585E02DB1
:1009A0006FEFCE01DF91CF911F910F910994EF92DC
:1009B000FF920F931F93CF93DF93EC01062FF42E3A
:1009C000E22E8B85888B10927E0110927D01109211
:1009D0006E021092900210926C0211E010936B0262
:1009E0001092460261E082E10E94930961E083E196
:1009F0000E9493098091B9008E7F8093B900809105
:100A0000B9008D7F8093B90088E48093B80085E4B5
:100A10008093BC0087E591E09093A00180939F01B3
:100A200088E591E09093A4018093A30188891093B5
:100A30006D0280938F0210926E02109290020E94BB
:100A4000E20891E0811190E0998B811105C08EE25E
:100A500093E00E9469018E878989882339F01F8677
:100A60001C8260E0CE010E960E943E092E2D4F2D75
:100A7000602FCE01DF91CF911F910F91FF90EF90EA
:100A80000C9447041F93CF93DF93EC01162F0E9421
:100A90004A12181739F0612FCE01DF91CF911F91C3
:100AA0000C945212DF91CF911F910895AF92BF9293
:100AB000CF92DF92EF92FF920F931F93CF93DF932A
:100AC000CDB7DEB727970FB6F894DEBF0FBECDBF08
:100AD000EDB6FEB6E0916003F09161038E010F5F09
:100AE0001F4F309721F4F801E456F34004C0D801B9
:100AF000AE1BBF0BFD01FA83E983E981FA81D901BD
:100B0000D896EA17FB07B8F487E0E1E1F1E0D801F5
:100B100001900D928A95E1F76E01B8E0CB0ED11CE1
:100B2000F80161918F0181E992E00E94A2020C1507
:100B30001D05B1F754C06901F6E0CF0ED11CADB769
:100B4000BEB7AC19BD090FB6F894BEBF0FBEADBF9E
:100B50000DB71EB70F5F1F4F9DE311969C93F901D0
:100B60003296D8011196FC9311979CEF9C0D12962A
:100B70009C931297806813968C93139714966C939A
:100B800014972115310551F0FA011596420F531FA4
:100B9000E417F50719F081918D93FACF2B5F3F4F42
:100BA000F801319680E0AF01401B510B421753070B
:100BB00018F49191890FF7CFF801E20FF31F8083AA
:100BC0005801C501801B910B8C159D0540F4F50162
:100BD00061915F0181E992E00E94A202F2CF0FB61B
:100BE000F894FEBE0FBEEDBE0FB6F894FEBE0FBE6B
:100BF000EDBE27960FB6F894DEBF0FBECDBFDF91D6
:100C0000CF911F910F91FF90EF90DF90CF90BF9009
:100C1000AF900895CF92DF92EF92FF920F931F93C0
:100C2000CF93DF93CDB7DEB72E970FB6F894DEBF24
:100C30000FBECDBFC0901102D0901202E0901302FF
:100C4000F090140280910D0290910E02A0910F027B
:100C5000B091100200911602109117022091180213
:100C60003091190250910C0251110CC08C0D9D1D38
:100C7000AE1DBF1D801B910BA20BB30B4B2F3A2F48
:100C8000292F04C080E020E030E040E019829091FC
:100C90000E01992311F091E099839981552311F068
:100CA000926001C09D7F9983909103029A834B8348
:100CB0003C832D838E838091FA018F838091FB0189
:100CC00088878091FC0189878091FD018A878091C6
:100CD000FE018B878091FF018C87809100028D87B8
:100CE000809101028E872EE030E0AE014F5F5F4FB2
:100CF00060E082E00E9456052E960FB6F894DEBFA3
:100D00000FBECDBFDF91CF911F910F91FF90EF905C
:100D1000DF90CF900895EF92FF920F931F93CF93A0
:100D200090910E01911105C090910C02992309F444
:100D300044C0C82F81110BC060E089E00E94930974
:100D400061E084E00E94930910925C0136C08091BA
:100D50005C018C17A0F400915C0110E0EC2EF12CEA
:100D6000E016F10620F1C8010E94E0096FE070E092
:100D700080E090E00E94500A0F5F1F4FF1CF8091FA
:100D80005C01C817A0F400915C0110E0EC2EF12C7E
:100D90000E151F0560F0C8010E94E0096FE070E0C9
:100DA00080E090E00E94500A01501109F1CF60E00C
:100DB00084E00E949309C0935C01CF911F910F9131
:100DC000FF90EF9008950F931F938091DA01809325
:100DD000D8018091DB018093D9018091DC0180935F
:100DE000D0018091DD018093D1018091DE0180935B
:100DF000D2018091DF018093D3018091E001809343
:100E0000D4018091E1018093D5018091E20180932A
:100E1000D6018091E3018093D7018091E401809312
:100E2000C8018091E5018093C9018091E60180931A
:100E3000CA018091E7018093CB018091E801809302
:100E4000CC018091E9018093CD018091EA018093EA
:100E5000CE018091EB018093CF018091EC018093D2
:100E60000302809103020E948B066091ED01709154
:100E7000EE018091EF019091F0010E940A158B0123
:100E80009C01609304027093050280930602909384
:100E900007026091F1017091F2018091F30190914C
:100EA000F4010E940A15609308027093090280936E
:100EB0000A0290930B0240910E01442349F00093E3
:100EC0000D0210930E0220930F023093100208C0FF
:100ED00060930D0270930E0280930F0290931002A4
:100EE0008091F601809302026091F7017091F80100
:100EF0007627672776277093100160930F0180E0B3
:100F000090E00E9444139B01AC0160E070E080E837
:100F10009FE30E94D21260933A0370933B03809345
:100F20003C0390933D031F910F9108950895CF9234
:100F3000DF92EF92FF920F931F93CF93DF936C0199
:100F40007A018B01C0E0D0E0CE15DF0581F0D80139
:100F50006D918D01D601ED91FC910190F081E02D14
:100F6000C6010995892B11F02196EECF7E01C701AC
:100F7000DF91CF911F910F91FF90EF90DF90CF9075
:100F8000089581E992E00E940F0121E0892B09F484
:100F900020E0822F08950E9417151F920F920FB61E
:100FA0000F9211242F933F934F935F936F937F93EF
:100FB0008F939F93AF93BF93EF93FF93E0910201C1
:100FC000F09103010995FF91EF91BF91AF919F912E
:100FD0008F917F916F915F914F913F912F910F90E2
:100FE0000FBE0F901F9018951F920F920FB60F9281
:100FF00011242F933F934F935F936F937F938F931E
:101000009F93AF93BF93EF93FF93E0910001F09113
:1010100001010995FF91EF91BF91AF919F918F9140
:101020007F916F915F914F913F912F910F900FBEE4
:101030000F901F9018951F920F920FB60F921124C8
:101040002F933F934F935F936F937F938F939F93D0
:10105000AF93BF93EF93FF9381E992E00E948002E8
:10106000FF91EF91BF91AF919F918F917F916F9180
:101070005F914F913F912F910F900FBE0F901F9056
:1010800018953FB7F89480915C0390915D03A0910F
:101090005E03B0915F0326B5A89B05C02F3F19F0F2
:1010A0000196A11DB11D3FBFBA2FA92F982F8827E8
:1010B000820F911DA11DB11DBC01CD0142E0660F43
:1010C000771F881F991F4A95D1F7089590E0FC017A
:1010D000EE5AFE4F2491FC01E25CFE4F849188237E
:1010E00099F090E0880F991FFC01EC5CFE4FA591F0
:1010F000B491FC01E65DFE4F859194918FB7F89411
:10110000EC91E22BEC938FBF08950F931F93CF9335
:10111000DF938C01C0E0D0E0F801EC0FFD1F64917B
:10112000662341F08EE393E00E94F501892B11F0D4
:101130002196F2CFCE01DF91CF911F910F910895AB
:10114000CF93DF93CDB7DEB728970FB6F894DEBF05
:101150000FBECDBF40911C0150911D0160911E0139
:1011600070911F014D835E836F83788740912001CA
:1011700050912101609122017091230149835A838A
:101180006B837C8320914503821710F08FEF820FD1
:101190003091460390E0FE01E80FF91F303121F451
:1011A000243011F4618101C0658160688EE393E0B1
:1011B00028960FB6F894DEBF0FBECDBFDF91CF915A
:1011C0000C943F0430919002313208F04BC0809172
:1011D0006C028111FCCF90918F0222E020936C026F
:1011E00021E020936B022FEF20936A021092690294
:1011F00030936802EFE6F2E0A8E4B2E020E03217B4
:1012000021F041914D932F5FFACF10924702209128
:101210004702990F922B909347029091460291308A
:1012200061F410924602909147029093BB00909116
:10123000BC0093FDF8CF95EC01C095EE9093BC00F7
:1012400090916C029230E1F390916A029F3F79F0A5
:1012500080916A02803241F080916A02803331F0DD
:1012600084E005C081E003C082E001C083E0109209
:101270006E021092900210926D020895FC0183811B
:101280008823C1F0962F61816095692360838281F4
:1012900091E090936D0280938F0210926E021092F3
:1012A00090028EE293E00E94B2010E94E208282F91
:1012B00030E002C020E030E081E090E0232B11F02C
:1012C00080E090E00895EF92FF920F931F93CF93E9
:1012D0008C01FC0184E0C0E060FF02C09589C92B4D
:1012E0006695815031968111F7CF413011F4F801A4
:1012F0004489F8018585C82BC42B7801FEE0EF0EE8
:10130000F11CF80162896C2BC7010E943E09F801AB
:10131000628960956C23C701CF911F910F91FF9057
:10132000EF900C943E0990E0FC01EA5EFE4F2491A0
:10133000FC01EE5AFE4F3491FC01E25CFE4FE49159
:10134000EE2309F43CC0222339F1233091F038F424
:101350002130A9F0223001F584B58F7D12C02730ED
:1013600091F02830A1F02430B9F4809180008F7D75
:1013700003C0809180008F77809380000DC084B57A
:101380008F7784BD09C08091B0008F7703C08091B2
:10139000B0008F7D8093B000F0E0EE0FFF1FE65DA0
:1013A000FE4FA591B4919FB7F894611104C08C9140
:1013B0003095382302C0EC913E2B3C939FBF08959B
:1013C000CF93DF93EC0189E00E946608209711F427
:1013D00060E004C0CF3FD10531F461E089E0DF91E6
:1013E000CF910C949309EFE1F1E0E491E330F9F04F
:1013F00048F4E130B9F0E230A1F584B5806284BDF3
:10140000C8BD34C0E730E9F0E83019F1E43049F5FF
:1014100080918000806280938000D0938B00C09385
:101420008A0024C084B5806884BDC7BD1FC0809178
:101430008000806880938000D0938900C0938800EA
:1014400015C08091B00080688093B000C093B30055
:101450000DC08091B00080628093B000C093B40052
:1014600005C0C038D1050CF0B8CFB2CFDF91CF9115
:1014700008958E3008F08E508770806480937C00D1
:1014800080917A00806480937A0080917A0086FD52
:10149000FCCF809178002091790090E0922B089504
:1014A0008F929F92AF92BF92CF92DF92EF92FF9274
:1014B0006B017C010E9441084B015C01C114D10405
:1014C000E104F104F1F00E944108DC01CB0188192C
:1014D0009909AA09BB09883E9340A105B10570F39B
:1014E00021E0C21AD108E108F10888EE880E83E0F5
:1014F000981EA11CB11CC114D104E104F10419F718
:10150000DDCFFF90EF90DF90CF90BF90AF909F9096
:101510008F9008952FB7F8946091580370915903F4
:1015200080915A0390915B032FBF08951F920F92F1
:101530000FB60F9211242F933F938F939F93AF93E6
:10154000BF938091580390915903A0915A03B09191
:101550005B033091570323E0230F2D3720F40196CE
:10156000A11DB11D05C026E8230F0296A11DB11DC6
:10157000209357038093580390935903A0935A03E1
:10158000B0935B0380915C0390915D03A0915E0337
:10159000B0915F030196A11DB11D80935C039093F0
:1015A0005D03A0935E03B0935F03BF91AF919F91E2
:1015B0008F913F912F910F900FBE0F901F90189514
:1015C000CF93DF93CDB7DEB7A2970FB6F894DEBF07
:1015D0000FBECDBF789484B5826084BD84B5816030
:1015E00084BD85B5826085BD85B5816085BD8091EE
:1015F0006E00816080936E00109281008091810066
:10160000826080938100809181008160809381005D
:10161000809180008160809380008091B10084601F
:101620008093B1008091B00081608093B000809180
:101630007A00846080937A0080917A00826080933F
:101640007A0080917A00816080937A0080917A009C
:10165000806880937A001092C1007894E091A10292
:10166000F091A20282E08083E0919D02F0919E02BF
:101670001082E0919F02F091A00287E08083109297
:10168000A902E091A502F091A60286E08083E09194
:10169000A302F091A402808180618083E091A30283
:1016A000F091A402808188608083E091A302F09190
:1016B000A402808180688083E091A302F091A4025B
:1016C00080818F7D808384E00E94660889E00E948B
:1016D00066088FE392E0909301018093000180916E
:1016E00069008C7F826080936900E89A81E2E0E083
:1016F000F0E080935700E491E0931A02E2E0F0E01A
:1017000080935700E491E0931B02E4E0F0E08093C3
:101710005700849180931C023AEDE32E31E0F32EC2
:1017200000E010E0C8010E944A12D7018D937D01AC
:101730000F5F1F4F00321105A9F729EF31E0EAEDE5
:10174000F1E080E09191890F2E173F07D9F7909132
:10175000F901981303C00E94E30664C01092D801F7
:1017600086E68093D9011092D0011092D101109297
:10177000D2011092D3018DE58093D4019AEC90931D
:10178000D5019EEB9093D6019DE09093D7011092E6
:10179000C8011092C9011092CA011092CB01809326
:1017A000CC018CEA8093CD0187E58093CE0183E262
:1017B0008093CF018FE780930302809103020E9400
:1017C0008B0680EA9BEBADE0B0E08093040290933F
:1017D0000502A0930602B09307028093080290933B
:1017E0000902A0930A02B0930B0280930D0290931A
:1017F0000E02A0930F02B093100281E080930202C8
:101800008EE69FE09093100180930F018CE29BEB9A
:10181000A4E8B9E380933A0390933B03A0933C037D
:10182000B0933D0320E044E064E18EE393E00E9446
:10183000D7046FEF8EE393E00E94250261E08EE310
:1018400093E00E943F040BE31FE1C8010197F1F709
:1018500062E08EE393E00E943F04C8010197F1F734
:1018600081E091E00E94850881E00E94A0088CEE52
:1018700090E00E94850882E00E94A00887ED90E039
:101880000E94850883E00E94A00882EC90E00E94FC
:10189000850860E48EE393E00E943F0483E790E0D4
:1018A0000197F1F704E011E09CE0E92E91E0F92EB8
:1018B0002BE9C22ED12CF80161918F018EE393E0C8
:1018C0000E94F501C6010197F1F7E016F10699F7BC
:1018D00081E080930E0198E288E10FB6F894A89514
:1018E000809360000FBE9093600021E030E041E201
:1018F00052E061E080E00E945605CE010E969C8F7A
:101900008B8F8091180190911901A0911A01B091CB
:101910001B018F8F98A3A9A3BAA3A8950E948A0A36
:101920006093160270931702809318029093190225
:1019300081E992E00E940F01181619067CF581E9F1
:1019400092E00E94ED008D3329F52DB63EB60E943F
:101950008A0A6B017C0110E081E992E00E940F018C
:1019600002970CF095C2112309F4CFC221E030E0B8
:101970004CE051E066E005C021E030E04CE051E091
:1019800061E08FE00E9456050FB6F8943EBE0FBE90
:101990002DBE04C081E992E00E94ED008091150205
:1019A000811110921502C0901602D0901702E0909B
:1019B0001802F09019028091110290911202A091E8
:1019C0001302B091140297018601081B190B2A0B10
:1019D0003B0B40910D0250910E0260910F027091ED
:1019E0001002041715072607370708F443C08C15A3
:1019F0009D05AE05BF05F0F5C0921102D09212020E
:101A0000E0921302F092140280910C0281113FC007
:101A100080910E018823B1F0809108029091090213
:101A2000A0910A02B0910B0280930D0290930E02D6
:101A3000A0930F02B093100280E00E948B061092D8
:101A40000E0125C0B1E0B0930E0180910402909187
:101A50000502A0910602B091070280930D029093B7
:101A60000E02A0930F02B0931002809103020E9415
:101A70008B060DC0C816D906EA06FB0640F4109284
:101A8000110210921202109213021092140280910D
:101A9000420290914302A0914402B0914502B701E5
:101AA000A601481B590B6A0B7B0B483E534061054E
:101AB000710508F4DDC1C0924202D0924302E09267
:101AC0004402F092450210922602109227021092D0
:101AD00028021092290210922202109223021092E0
:101AE00024021092250208EE13E08EE00E94390ACB
:101AF0004C01990FAA08BB088091260290912702F9
:101B0000A0912802B0912902880E991EAA1EBB1E20
:101B10008092260290922702A0922802B092290277
:101B20000150110911F708EE13E08FE00E94390A05
:101B30006C01990FEE08FF08809122029091230218
:101B4000A0912402B0912502C80ED91EEA1EFB1EE8
:101B5000C0922202D0922302E0922402F092250247
:101B60000150110911F7C501B40128EE33E040E03E
:101B700050E00E94E81449015A0120932602309354
:101B800027024093280250932902C701B60128EE8C
:101B900033E040E050E00E94E81429013A0120932C
:101BA0002202309323024093240250932502C50160
:101BB000B4010E9444139B01AC0160E070EC8FE71C
:101BC00094E40E94D21220E030E040E85FE30E94FB
:101BD00060120E94FE1380903A0390903B03A09005
:101BE0003C03B0903D03A50194010E9446142FE0F0
:101BF0003FEC4BE55BE30E9461129B01AC0160E0AE
:101C000070E080E89FE30E94D2126B017C01C30167
:101C1000B2010E9444139B01AC0160E070EC8FE7BD
:101C200094E40E94D21220E030E040E85FE30E949A
:101C300060120E94FE139B01AC01C501B4010E9419
:101C400046142FE03FEC4BE55BE30E9461129B01E1
:101C5000AC0160E070E080E89FE30E94D2124B018B
:101C60005C0120E030E0A901C701B6010E94CD125D
:101C7000882399F123E333E948E853E4C701B60127
:101C80000E946012C0923602D0923702E09238026F
:101C9000F092390260933A0270933B0280933C02C7
:101CA00090933D0220E030E040E151E40E94461470
:101CB00020E030E040EA50E40E94D21220E030E020
:101CC00040E052E40E94611260933E0270933F0232
:101CD000809340029093410218C0109236021092F5
:101CE0003702109238021092390210923A02109282
:101CF0003B0210923C0210923D0210923E02109262
:101D00003F02109240021092410220E030E0A9010F
:101D1000C501B4010E94CD12882399F123E333E970
:101D200048E853E4C501B4010E94601280922A027F
:101D300090922B02A0922C02B0922D0260932E0260
:101D400070932F02809330029093310220E030E0B4
:101D500040E151E40E94461420E030E040EA50E4C3
:101D60000E94D21220E030E040E052E40E94611272
:101D70006093320270933302809334029093350261
:101D800018C010922A0210922B0210922C0210926C
:101D90002D0210922E0210922F02109230021092F9
:101DA00031021092320210923302109234021092D9
:101DB000350280910202823019F1843091F1E09174
:101DC0003A0270913B0260913C0250913D02409179
:101DD0002E0230912F022091300290913102E09337
:101DE000FA017093FB016093FC015093FD01409355
:101DF000FE013093FF01209300029093010231C055
:101E000070913E0260913F02509140024091410228
:101E10003091320220913302909134028091350248
:101E200010C0709136026091370250913802409193
:101E3000390230912A0220912B0290912C0280913C
:101E40002D027093FA016093FB015093FC014093C3
:101E5000FD013093FE012093FF01909300028093D7
:101E6000010280910D01882381F00E940A060DC0B5
:101E7000C816D906EA06FB0640F4109242021092F8
:101E8000430210924402109245020E941B0145CD6C
:101E900011116CCD81E992E00E94ED00682E81E97C
:101EA00092E00E94ED00782E6E8E1D8ECD8CDE8C21
:101EB000C80ED11C26019FEF491A590AA2E0CA1A7E
:101EC000D108BBEFCB16B3E0DB0608F055CD0E947E
:101ED0008A0A4B015C0111C0111148CD0E948A0A87
:101EE000DC01CB0188199909AA09BB0911E08536E3
:101EF0009105A105B10508F410E081E992E00E9486
:101F00000F018415950588F4E7CF0E948A0ADC0149
:101F1000CB018C199D09AE09BF0911E0893C9105DF
:101F2000A105B10508F018CD16CD11111FCD81E91D
:101F300092E00E94ED00882E81E992E00E94ED007F
:101F40008C01EDB7FEB7EC19FD090FB6F894FEBF92
:101F50000FBEEDBF8DB79EB701967C01C114D104B1
:101F600089F05C0181E992E00E94ED00D5018D933A
:101F70005D01CD018E199F098C159D0598F3BB2439
:101F8000B39401C0B12C81E992E00E94ED00962C3F
:101F9000970C980C900EBB2051F0F7019F012E1961
:101FA0003F092C153D0518F49191990EF7CF89152D
:101FB00031F021E030E04CE051E065E0E2CC882DEA
:101FC0008F70823039F1A8F48823D9F0813009F07C
:101FD000E3C18F8D98A1A9A1BAA189839A83AB830C
:101FE000BC8324E030E0AE014F5F5F4F60E081E0F2
:101FF000C9CC843009F4B6C080F08E3009F429C110
:10200000CBC121E030E041E252E060E080E00E949C
:102010005605FFCF0E940A06B7CC112703301105E1
:1020200009F459C03CF40130110569F00230110582
:10203000D1F0ACC10430110509F45EC005301105C2
:1020400009F471C0A3C1ACEEB1E0FE013196AF015D
:102050008D9181938B8D9C8D8E179F07C9F72DE0F5
:1020600030E061E05EC09DE0C916D10430F421E0AB
:1020700030E04CE051E064E084CCF701ACEEB1E03C
:10208000C7010D9621912D93E817F907D9F7EAEDCD
:10209000F1E080E09191890FA1E0E93FFA07D1F7E3
:1020A0008093F9018AEDE82E81E0F82E00E010E03F
:1020B000F70161917F01C8010E9442050F5F1F4F28
:1020C00000321105A9F70E94E30621E030E041E269
:1020D00052E062E026C0BB2051F2D7018C91811101
:1020E00003C010920D0103C0B1E0B0930D0121E0D7
:1020F00030E0A70163E015C0BB2009F4B8CFF701B9
:102100008081811107C010920C02809103020E940D
:102110008B0603C0F1E0F0930C0221E030E0A70150
:1021200064E083E02FCCBB2009F4A1CF80910C02A6
:1021300021E030E0882391F0A70165E083E00E9470
:102140005605D7018C91811103C010920E0103C076
:10215000B1E0B0930E010E948B0616CC4CE051E02A
:102160006EEF0FCC112702301105C9F054F4013085
:10217000110509F00BC120E230E04AED51E061E0C9
:1021800066C00330110509F453C00430110509F08D
:10219000FDC028E030E04AEF51E064E058C0809193
:1021A000D80189838091D9018A838091D0018B8362
:1021B0008091D1018C838091D2018D838091D30154
:1021C0008E838091D4018F838091D50188878091FF
:1021D000D60189878091D7018A878091C8018B8732
:1021E0008091C9018C878091CA018D878091CB0134
:1021F0008E878091CC018F878091CD01888B8091D3
:10220000CE01898B8091CF018A8B1B8A1C8A1D8A03
:102210001E8AEEE5EF8BF6E4F88F27E6298F67EB51
:102220006A8F2AE130E0AE014F5F5F4F62E00FC07E
:102230000E948A0A90931D0280931E0270931F02CF
:102240006093200224E030E04DE152E063E085E05D
:1022500099CB11270130110529F00230110509F43D
:1022600065C094C084E0C816D10408F400CFD7013B
:10227000AD90BC901197BA24AB24BA245C9111960E
:102280004C91119712960D911C91139710270127CD
:10229000102712963C91129713962C91C501800F2E
:1022A000911F01978115944008F0E1CE4DB65EB6BE
:1022B0003801E4E06E0E711C8DB79EB78619970940
:1022C0000FB6F8949EBF0FBE8DBFADB7BEB71196C7
:1022D0007D01EDB7FEB7518311964C93119712967D
:1022E0003C93129713962C938DB69EB6F5E08F0E05
:1022F000911CC12CD12CC016D10661F0C5018C0DEA
:102300009D1D0E944A12D4018D934D01BFEFCB1A3F
:10231000DB0AF1CF9301A70161E08EE00E94560530
:102320000FB6F8945EBE0FBE4DBE2ECBE3E0CE16C8
:10233000D10408F49CCED701CD90DC90DC24CD24D0
:10234000DC245201B5E0AB1AB108C60101978A0D31
:102350009B1D8115944008F08ACEF2E0EF0EF11C2F
:1023600000E010E0D7016D917D01C8018C0D9D1D2D
:102370000E9442050F5F1F4F0A151B0598F321E0CD
:1023800030E041E252E062E08EE0FCCA21E030E061
:102390004CE051E063E0F5CA21E030E04CE051E070
:1023A00062E0EFCAE1E9F2E01382128288EE93E084
:1023B000A0E0B0E084839583A683B78328E231E070
:1023C0003183208325EC30E03587248724EC30E00E
:1023D0003787268720EC30E0318B208B21EC30E0F2
:1023E000338B228B22EC30E0358B248B26EC30E0D3
:1023F000378B268B118E128E138E148EEEE2F3E045
:102400001382128284839583A683B7838AE391E043
:1024100091838083EEE3F3E0138212828CE491E0F7
:1024200091838083108A8FEF87871686118A87E2CF
:102430008387148615861286118684E0828B82E05B
:10244000838B81E0848B80E1858B80E2868B80E4C6
:10245000878B80E8808F40E050E063E0CF010E94EE
:10246000E10160910F017091100180E090E00E9405
:1024700044139B01AC0160E070E080E89FE30E94A0
:10248000D21260933A0370933B0380933C03909382
:102490003D030895F999FECF92BD81BDF89A992721
:1024A00080B50895262FF999FECF1FBA92BD81BD40
:1024B00020BD0FB6F894FA9AF99A0FBE01960895C6
:1024C0005058BB27AA270E9478120C94BC130E9474
:1024D000AE1338F00E94B51320F039F49F3F19F481
:1024E00026F40C94AB130EF4E095E7FB0C94A513C3
:1024F000E92F0E94CD1358F3BA17620773078407B8
:10250000950720F079F4A6F50C94EF130EF4E095FE
:102510000B2EBA2FA02D0B01B90190010C01CA019D
:10252000A0011124FF27591B99F0593F50F4503E48
:1025300068F11A16F040A22F232F342F4427585F3A
:10254000F3CF469537952795A795F0405395C9F752
:102550007EF41F16BA0B620B730B840BBAF091500A
:10256000A1F0FF0FBB1F661F771F881FC2F70EC0A9
:10257000BA0F621F731F841F48F48795779567957C
:10258000B795F7959E3F08F0B0CF9395880F08F068
:102590009927EE0F9795879508950E94811308F467
:1025A00081E008950E94E6120C94BC130E94B513BA
:1025B00058F00E94AE1340F029F45F3F29F00C94CC
:1025C000A51351110C94F0130C94AB130E94CD136E
:1025D00068F39923B1F3552391F3951B550BBB2752
:1025E000AA2762177307840738F09F5F5F4F220F97
:1025F000331F441FAA1FA9F335D00E2E3AF0E0E88E
:1026000032D091505040E695001CCAF72BD0FE2FD7
:1026100029D0660F771F881FBB1F2617370748076B
:10262000AB07B0E809F0BB0B802DBF01FF27935823
:102630005F4F3AF09E3F510578F00C94A5130C942F
:10264000F0135F3FE4F3983ED4F386957795679552
:10265000B795F7959F5FC9F7880F911D9695879558
:1026600097F90895E1E0660F771F881FBB1F621777
:1026700073078407BA0720F0621B730B840BBA0B35
:10268000EE1F88F7E0950895E89409C097FB3EF4A3
:1026900090958095709561957F4F8F4F9F4F9923AF
:1026A000A9F0F92F96E9BB279395F695879577952D
:1026B0006795B795F111F8CFFAF4BB0F11F460FFED
:1026C0001BC06F5F7F4F8F4F9F4F16C0882311F045
:1026D00096E911C0772321F09EE8872F762F05C059
:1026E000662371F096E8862F70E060E02AF09A95F4
:1026F000660F771F881FDAF7880F9695879597F9E9
:102700000895990F0008550FAA0BE0E8FEEF161682
:102710001706E807F907C0F012161306E407F507D5
:1027200098F0621B730B840B950B39F40A2661F049
:10273000232B242B252B21F408950A2609F4A140EC
:10274000A6958FEF811D811D089597F99F6780E8F9
:1027500070E060E008959FEF80EC089500240A94F3
:102760001616170618060906089500240A9412166C
:102770001306140605060895092E0394000C11F49F
:10278000882352F0BB0F40F4BF2B11F460FF04C04C
:102790006F5F7F4F8F4F9F4F089557FD9058440FA5
:1027A000551F59F05F3F71F04795880F97FB991FB0
:1027B00061F09F3F79F0879508951216130614066D
:1027C000551FF2CF4695F1DF08C0161617061806FA
:1027D000991FF1CF86957105610508940895E894D5
:1027E000BB2766277727CB0197F9089516F00C943D
:1027F000B3140C94AB1368940C94A5130E94D513D6
:10280000A8F39923C1F3AEF3DF93CF931F930F93F4
:10281000FF92C92FDD2788232AF02197660F771FA3
:10282000881FDAF720E030E040E85FEB9FE388396B
:1028300020F0803E38F021968F770E946112E8E602
:10284000F0E004C00E946112E5E9F0E00E94C114CA
:102850008B01BE01EC01FB2E6F5771097595771F37
:10286000880B990B0E94461328E132E741E35FE3AE
:102870000E945914AF2D9801AE01FF900F911F9146
:10288000CF91DF910E9478120C94BC130E945914CE
:102890000C94BC130E94AE1338F00E94B51320F0C4
:1028A000952311F00C94A5130C94AB1311240C94E4
:1028B000F0130E94CD1370F3959FC1F3950F50E074
:1028C000551F629FF001729FBB27F00DB11D639FE2
:1028D000AA27F00DB11DAA1F649F6627B00DA11D88
:1028E000661F829F2227B00DA11D621F739FB00D2E
:1028F000A11D621F839FA00D611D221F749F33279E
:10290000A00D611D231F849F600D211D822F762F36
:102910006A2F11249F5750409AF0F1F088234AF013
:10292000EE0FFF1FBB1F661F771F881F915050407F
:10293000A9F79E3F510580F00C94A5130C94F01359
:102940005F3FE4F3983ED4F3869577956795B79506
:10295000F795E7959F5FC1F7FE2B880F911D969520
:10296000879597F908959F3F31F0915020F487950E
:1029700077956795B795880F911D9695879597F9E7
:102980000895DF93CF931F930F93FF92EF92DF92FF
:102990007B018C01689406C0DA2EEF010E94591465
:1029A000FE01E894A5912591359145915591A6F3A5
:1029B000EF010E947812FE019701A801DA9469F7ED
:1029C000DF90EF90FF900F911F91CF91DF910895CD
:1029D000A1E21A2EAA1BBB1BFD010DC0AA1FBB1F23
:1029E000EE1FFF1FA217B307E407F50720F0A21B95
:1029F000B30BE40BF50B661F771F881F991F1A9402
:102A000069F760957095809590959B01AC01BD012B
:102A1000CF01089569279627692778278727782780
:102A20000895EE0FFF1F0590F491E02D099481E0C9
:0C2A300090E0F8940C941C15F894FFCF73
:102A3C00960796070609090600000000FF01016EC3
:102A4C000F3D00038FFDFF8E4D485447004014543A
:102A5C000040105000000000A2029707DE00EF02B9
:102A6C000F01ED00010100000000B201850103021D
:102A7C0059017D0169015A0100000000F501970719
:0C2A8C0003020202D704E1012502060249
:107E0000112484B714BE81FFF0D085E080938100F7
:107E100082E08093C00088E18093C10086E0809377
:107E2000C20080E18093C4008EE0C9D0259A86E02C
:107E300020E33CEF91E0309385002093840096BBD3
:107E4000B09BFECF1D9AA8958150A9F7CC24DD24C4
:107E500088248394B5E0AB2EA1E19A2EF3E0BF2EE7
:107E6000A2D0813461F49FD0082FAFD0023811F036
:107E7000013811F484E001C083E08DD089C08234E0
:107E800011F484E103C0853419F485E0A6D080C0E4
:107E9000853579F488D0E82EFF2485D0082F10E0AE
:107EA000102F00270E291F29000F111F8ED06801E7
:107EB0006FC0863521F484E090D080E0DECF843638
:107EC00009F040C070D06FD0082F6DD080E0C81688
:107ED00080E7D80618F4F601B7BEE895C0E0D1E017
:107EE00062D089930C17E1F7F0E0CF16F0E7DF06D8
:107EF00018F0F601B7BEE89568D007B600FCFDCFD4
:107F0000A601A0E0B1E02C9130E011968C91119780
:107F100090E0982F8827822B932B1296FA010C0160
:107F200087BEE89511244E5F5F4FF1E0A038BF0790
:107F300051F7F601A7BEE89507B600FCFDCF97BE46
:107F4000E89526C08437B1F42ED02DD0F82E2BD052
:107F50003CD0F601EF2C8F010F5F1F4F84911BD097
:107F6000EA94F801C1F70894C11CD11CFA94CF0C13
:107F7000D11C0EC0853739F428D08EE10CD085E9AC
:107F80000AD08FE07ACF813511F488E018D01DD067
:107F900080E101D065CF982F8091C00085FFFCCF94
:107FA0009093C60008958091C00087FFFCCF809118
:107FB000C00084FD01C0A8958091C6000895E0E648
:107FC000F0E098E1908380830895EDDF803219F02E
:107FD00088E0F5DFFFCF84E1DECF1F93182FE3DFCA
:107FE0001150E9F7F2DF1F91089580E0E8DFEE27F6
:047FF000FF270994CA
:027FFE00040479
:0400000300007E007B
:00000001FF
