:100000000C941C010C94EC0E0C94C50E0C94440141
:100010000C9444010C9444010C9444010C9444014C
:100020000C9444010C9444010C9444010C9444013C
:100030000C9444010C9432100C9444010C9444012F
:100040000C947B0E0C9444010C94490E0C94230EDA
:100050000C9444010C9444010C9444010C9444010C
:100060000C94130F0C94440108000000BE92244924
:10007000123EABAAAA2ABECDCCCC4C3E00000080DA
:10008000BEABAAAAAA3E00000000BF000000803F4D
:100090000000000000084178D3BB4387D1133D190D
:1000A0000E3CC3BD4282AD2B3E68EC8276BED98F3A
:1000B000E1A93E4C80EFFFBE01C4FF7F3F0000007E
:1000C00000002D2D2D2D2D002D2D2D2D002D2D2D14
:1000D0002D002D2D2D2D2D002D2D2D2D002D2D2DD7
:1000E0002D000000000800020100000304070000CA
:1000F0000000000000002D2D2D2D2D2D2D2D2D2D3E
:100100002D2D2D2D2D2D2D2D2D2D00202020205459
:100110004F5745522047415244454E202020200051
:10012000204D4F44554C415220485944524F504F56
:100130004E494320002D2D2D2D2D2D2D2D2D2D2DD6
:100140002D2D2D2D2D2D2D2D2D002D2D2D2D707284
:100150006F6772657373206261722D2D2D2D0054AF
:10016000696D65723A202D2D3A2D2D3A2D2D206C7A
:100170006566740054653A2D2D2D2D2D2D202054AB
:10018000693A2D2D2D2D2D2D00576174657220702B
:10019000756D703A202D2D2D2D2D2D2D2D00736573
:1001A0007276696365206D6F646521002D2D3A2D8F
:1001B0002D3A2D2D0039393A35393A3539206C65CB
:1001C000667400206C6566740054653A2D2D2D2DE3
:1001D0002D2D202054693A2D2D2D2D2D2D006F66AB
:1001E000662020202020006F66662020202020002E
:1001F00031303025006F6E204000000000002500E7
:1002000028002B0000000000240027002A0004041E
:1002100004040404040402020202020203030303AE
:10022000030301020408102040800102040810208A
:100230000102040810203C1011241FBECFEFD8E0AB
:10024000DEBFCDBF11E0A0E0B1E0E8E7FBE302C014
:1002500005900D92A03FB107D9F724E0A0EFB1E0DF
:1002600001C01D92AA32B207E1F711E0CCE1D1E062
:1002700004C02197FE010E94AF1DCB31D107C9F701
:100280000E94B4100C94BA1D0C94000090E0FC0184
:10029000EE5DFD4F2491825F9D4FFC018491882388
:1002A00099F090E0880F991FFC01EC5FFD4FA5913C
:1002B000B491FC01E650FE4F859194918FB7F8946C
:1002C000EC91E22BEC938FBF089520915F0381E0C6
:1002D000213208F044C080913B038111FCCF809112
:1002E0005E0392E090933B0391E090933A039FEF7B
:1002F000909339031092380320933703AEE3B3E0B1
:10030000E7E1F3E090E0291331C0109216039091D9
:100310001603880F892B8093160380911503813073
:1003200049F510921503809116038093BB008091CC
:10033000BC0083FDF8CF85EC8093BC0080913B032B
:100340008230E1F3809139038F3FB1F0809139031E
:100350008032A1F080913903803391F084E01092D3
:100360003D0310925F0310923C0308953D91319339
:100370009F5FC9CF85EEE0CF80E0F1CF82E0EFCF85
:1003800083E0EDCFF89481E08093E20278940895C1
:10039000AF92BF92CF92DF92EF92FF920F931F9393
:1003A000CF93DF936C017B018B01040F151FEB01D1
:1003B0005E01AE18BF08C017D10759F06991D60188
:1003C000ED91FC910190F081E02DC6010995892BFA
:1003D00079F7C501DF91CF911F910F91FF90EF90B9
:1003E000DF90CF90BF90AF900895FC01538D448D66
:1003F000252F30E0842F90E0821B930B541710F0D0
:10040000CF96089501970895FC01918D828D9817DC
:1004100061F0A28DAE0FBF2FB11D5D968C91928DB4
:100420009F5F9F73928F90E008958FEF9FEF0895E5
:10043000FC01918D828D981731F0828DE80FF11DAE
:10044000858D90E008958FEF9FEF0895FC01918DC9
:10045000228D892F90E0805C9F4F821B91098F73C2
:100460009927089580E693E00E94260221E0892BD7
:1004700009F420E0822F089580E090E0892B29F094
:100480000E94320281110C9400000895FC01A48D99
:10049000A80FB92FB11DA35ABF4F2C91848D90E0A6
:1004A00001968F739927848FA689B7892C93A08989
:1004B000B1898C91837080648C93938D848D981313
:1004C00006C00288F389E02D80818F7D80830895A6
:1004D000EF92FF920F931F93CF93DF93EC0181E094
:1004E000888F9B8D8C8D98131AC0E889F98980813B
:1004F00085FF15C09FB7F894EE89FF896083E8896E
:10050000F98980818370806480839FBF81E090E05F
:10051000DF91CF911F910F91FF90EF900895F62EEC
:100520000B8D10E00F5F1F4F0F731127E02E8C8D86
:100530008E110CC00FB607FCFACFE889F9898081CB
:1005400085FFF5CFCE010E944602F1CFEB8DEC0F77
:10055000FD2FF11DE35AFF4FF0829FB7F8940B8FE8
:10056000EA89FB8980818062CFCFCF93DF93EC0152
:10057000888D8823B9F0AA89BB89E889F9898C918B
:1005800085FD03C0808186FD0DC00FB607FCF7CF47
:100590008C9185FFF2CF808185FFEDCFCE010E9447
:1005A0004602E9CFDF91CF91089590E0FC01EE5132
:1005B000FF4F2491FC01EE5DFD4F3491FC01E25FA1
:1005C000FD4FE491EE23C9F0222339F0233001F1ED
:1005D000A8F4213019F1223029F1F0E0EE0FFF1FCD
:1005E000E650FE4FA591B4918FB7F894EC9161114C
:1005F00026C030953E233C938FBF08952730A9F045
:100600002830C9F0243049F7809180008F7D03C0E5
:10061000809180008F7780938000DFCF84B58F77C3
:1006200084BDDBCF84B58F7DFBCF8091B0008F7709
:100630008093B000D2CF8091B0008F7DF9CF3E2B58
:10064000DACF8E50806480937C0080917A00806441
:1006500080937A0080917A0086FDFCCF80917800AB
:100660009091790008953FB7F89480915F0290913E
:100670006002A0916102B091620226B5A89B05C0FC
:100680002F3F19F00196A11DB11D3FBFBA2FA92F11
:10069000982F8827BC01CD01620F711D811D911D0E
:1006A00042E0660F771F881F991F4A95D1F708957A
:1006B0008F929F92AF92BF92CF92DF92EF92FF9272
:1006C0004B015C010E9433036B017C010E943303E8
:1006D0006C197D098E099F09683E7340810591055B
:1006E000A8F321E0821A9108A108B10888EEC80E8B
:1006F00083E0D81EE11CF11C81149104A104B10413
:1007000029F7FF90EF90DF90CF90BF90AF909F9030
:100710008F9008952FB7F89460915B0270915C02FE
:1007200080915D0290915E022FBF0895089585ED3E
:100730008093BC008091BC0084FDFCCF10923B03F1
:10074000089520913502260F3327331F21323105BA
:10075000ECF420913B03FC0190E080E0243069F050
:1007600082E00895A09135022191AC014D5E5D4F6C
:10077000A40FB52FB11D2C930196861798F3809185
:100780003502680F6093350280E0089581E0089596
:10079000089508950895E091120280911102E817DA
:1007A00030F4F0E0EF50FE4F808190E008958FEF3D
:1007B0009FEF089590911202809111022FEF3FEF69
:1007C000981748F4E92FF0E0EF50FE4F208130E019
:1007D0009F5F90931202C901089580911102909138
:1007E0001202891B990B0895CF92DF92EF92FF922C
:1007F0000F931F93CF93DF937C01CB018A0120914C
:100800003C03222389F0EB016B01C40ED51ECC15ED
:10081000DD0569F06991D701ED91FC910190F081BE
:10082000E02DC7010995F3CF642F0E94A103C801F1
:10083000DF91CF911F910F91FF90EF90DF90CF90BC
:100840000895CF93DF931F92CDB7DEB769832091D0
:100850003C032223F9F020915F03203258F021E07D
:1008600030E0FC013383228390E080E00F90DF9141
:10087000CF91089580913D03E82FF0E0E25CFC4FBA
:10088000998190838F5F80933D0380935F0381E024
:1008900090E0ECCF61E0CE0101960E94A103F7CF7A
:1008A000089521E001C0220F6A95EAF7DC011C9649
:1008B0002C931C971A965C934E931997ED91FC918B
:1008C0000484F585E02D60E00994DC01ED91FC9154
:1008D0000684F785E02D41E0099581E090E00895D8
:1008E0000F931F93CF93DF938C01D0E0C0E0F8010A
:1008F000EC0FFD1F6491662341F08DE094E00E94AF
:100900006504892B11F02196F2CFCE01DF91CF91B2
:100910001F910F910895DC01ED91FC910684F785FC
:10092000E02D40E009940F931F93CF93DF93CDB751
:10093000DEB728970FB6F894DEBF0FBECDBF00918B
:100940007B0110917C0120917D0130917E010D830E
:100950001E832F83388700917F01109180012091A1
:1009600081013091820109831A832B833C8390910A
:100970001404691710F06FEF690F262F30E04091D3
:1009800015042C0F3D1FF901403199F4943089F47E
:100990006181680F60688DE094E028960FB6F89446
:1009A000DEBF0FBECDBFDF91CF911F910F910C9491
:1009B0008B046581EECFEF92FF920F931F93CF933D
:1009C000DF938B0198E0899FB001112460648DE072
:1009D00094E00E948B0483E790E00197F1F7E8012F
:1009E000085F1F4F8BE9E82EF12C69918DE094E0B0
:1009F0000E946504C7010197F1F7C017D107A9F755
:100A0000DF91CF911F910F91FF90EF900895DC013E
:100A1000ED91FC910484F585E02D6FEF099461E080
:100A20000E948B048BE39FE10197F1F708950F93E8
:100A30001F93CF93DF93EC01423018F08C818860D4
:100A40008C834F836887222329F0413019F48C81ED
:100A500084608C8364E670E080E090E00E9458033C
:100A60006C8164FD52C0E881F9810684F785E02D30
:100A700042E063E0CE0109958BE496E40197F1F73B
:100A8000E881F9810684F785E02D42E063E0CE013C
:100A9000099503E512E0C8010197F1F7E881F981B2
:100AA0000684F785E02D42E063E0CE010995C80198
:100AB0000197F1F7E881F9810684F785E02D42E09E
:100AC00062E0CE010995C8010197F1F76C8160627F
:100AD000CE010E948B048BEE90E00197F1F784E049
:100AE0008D836CE0CE010E948B04CE010E940F0525
:100AF00082E08E8366E0CE010E948B04CE01DF91FE
:100B0000CF911F910F910C9407056062CE010E9456
:100B10008B048BE496E40197F1F76C816062CE015F
:100B20000E948B0403E512E0C8010197F1F76C8184
:100B30006062CE010E948B04C6CF08950895089587
:100B400090E080E00895FC0123812223F1F0262F1C
:100B50006181609562236083828191E090933C0380
:100B600080935E0310923D0310925F038DEF93E03C
:100B70000E9421040E946501282F30E081E090E06E
:100B8000232B11F090E080E0089530E020E0F6CFD4
:100B9000EF92FF920F931F93CF938C01FC0184E09F
:100BA000C0E0262F30E060FF02C09589C92BB90153
:100BB00075956795815031968111F3CF413011F4CD
:100BC000F8014489F8016585C62BC42B7801FEE045
:100BD000EF0EF11CF80162896C2BC7010E94A3057E
:100BE000F801628960956C23C701CF911F910F9125
:100BF000FF90EF900C94A3050F931F93CF93DF9377
:100C0000062F0F70423041F440E0602FDF91CF910A
:100C10001F910F910C94C805142FEC0170E084E033
:100C2000759567958A95E1F7CE010E94C805412F19
:100C3000602FCE01EBCFFC0184858823A1F02185B4
:100C400032852115310521F4611107C0158606C0D2
:100C500021303105D9F76111F9CF85876585CF013D
:100C60000E960C94A3050895EF92FF920F931F9395
:100C7000CF93DF93EC01062FF42EE22E8B85888B29
:100C8000109212021092110210923D0310925F0313
:100C900010923B0311E010933A031092150361E0A8
:100CA00082E10E94D50261E083E10E94D502809139
:100CB000B9008E7F8093B9008091B9008D7F8093B9
:100CC000B90088E48093B80085E48093BC0088EC88
:100CD00093E0909334028093330289EC93E09093F5
:100CE000380280933702888910933C0380935E0317
:100CF00010923D0310925F030E94650181111CC098
:100D0000198B8DEF93E00E94DA038E8789898823FF
:100D100039F01F861C8260E0CE010E960E94A3056A
:100D20002E2D4F2D602FCE01DF91CF911F910F916E
:100D3000FF90EF900C941705198AE8CFCF92DF92BD
:100D4000EF92FF929C0150E040E060E472E48FE09B
:100D500090E00E94791A44275527A0EAB0E00E944B
:100D6000981A6B017C0124E130E040E050E00E94E1
:100D7000A31A2115310581E048075105C8F481E027
:100D80008093680230936702209366028091660226
:100D9000909167029093870080938600809168020B
:100DA000806180938100FF90EF90DF90CF90089555
:100DB00082E080936802C701B60120EA30E040E09B
:100DC00050E00E94A31ADECF4F925F926F927F9203
:100DD0008F929F92AF92BF92CF92DF92EF92FF924B
:100DE0000F931F93CF9390917801911104C090912C
:100DF00000039923D1F0C82F811127C089E00E94F8
:100E00004601809180008068809380001092890064
:100E1000109288008091680280618093810061E077
:100E200084E00E94D5021092F001CF911F910F91A2
:100E3000FF90EF90DF90CF90BF90AF909F908F90FA
:100E40007F906F905F904F9008952091F001281748
:100E500008F04AC0022F10E09801AFEFB3E00E9403
:100E6000C51A6B017C018C2E912C412C512C320126
:100E70004A948016910608F483C089E00E944601D6
:100E800080918000806880938000A0906602B0907E
:100E90006702C701B601A30192010E94791A442793
:100EA0005527D5010E94981A4AE09695879577951F
:100EB00067954A95D1F77093890060938800809177
:100EC00068028061809381006FE070E080E090E0D4
:100ED0000E945803A8950F5F1F4F8FEFC80E83E045
:100EE000D81EE11CF11CC5CF821708F049C0022FA3
:100EF00010E09801AFEFB3E00E94C51A6B017C01CE
:100F00008C2E912C412C512C32014A940815190534
:100F1000B8F189E00E94460180918000806880934A
:100F20008000A0906602B0906702C701B601A301DD
:100F300092010E94791A44275527D5010E94981AD8
:100F40002AE096958795779567952A95D1F77093BE
:100F5000890060938800809168028061809381009D
:100F60006FE070E080E090E00E945803A895015087
:100F700011098FEFC81A83E0D80AE108F108C6CF3B
:100F800060E084E00E94D502C093F0014ECF8F92C2
:100F90009F92AF92BF92CF92DF92EF92FF921F93F8
:100FA000CF93DF9380917F028093790280918002BA
:100FB00080937A02809181028093710280918202F3
:100FC00080937202809183028093730280918402E5
:100FD00080937402809185028093750280918602CD
:100FE00080937602809187028093770280918802B5
:100FF00080937802809189028093690280918A02AD
:1010000080936A0280918B0280936B0280918C02A4
:1010100080936C0280918D0280936D0280918E028C
:1010200080936E0280918F0280936F028091900274
:1010300080937002109191021093FF0260919202CE
:101040007091930280919402909195020E94A81D44
:101050004B015C018092050390920603A092070366
:10106000B092080360919602709197028091980265
:10107000909199020E94A81D6B017C01C09201030E
:10108000D0920203E0920303F092040380919A024B
:101090008093D90280919B028093D00260919C0240
:1010A00070919D0276276727762770937A01609367
:1010B000790190E080E00E94EE1B9B01AC0160E0B2
:1010C00070E080E89FE30E94461B609309047093E0
:1010D0000A0480930B0490930C04C0919E02D0915B
:1010E0009F02DC27CD27DC27D0930101C0930001AC
:1010F000CE010E949E0680910003811156C081148A
:101100009104A104B104C1F41092090310920A03DE
:1011100010920B0310920C030E94E40610927801C7
:10112000DF91CF911F91FF90EF90DF90CF90BF9014
:10113000AF909F908F900895C114D104E104F10401
:1011400041F51092090310920A0310920B031092BA
:101150000C0381E080937801812FDF91CF911F9163
:10116000FF90EF90DF90CF90BF90AF909F908F90C7
:101170000C94E4068092090390920A03A0920B0358
:10118000B0920C0381E080937801CE010E949E060C
:10119000E3CF809178018111EDCFC0920903D09205
:1011A0000A03E0920B03F0920C0380E0B5CFFC0140
:1011B00001900020E9F73197AF01481B590BBC01A2
:1011C0008DE094E00C94C8018F929F92AF92BF92F1
:1011D0000F931F93CF93DF93CDB7DEB7A1970FB6D1
:1011E000F894DEBF0FBECDBF19A2423008F44AE02A
:1011F0008E010F5D1F4F842E912CB12CA12CA501C7
:1012000094010E94A31AE62FB901CA01EA30F4F44E
:10121000E05DD801EE938D01232B242B252B79F74C
:1012200090E080E0109719F0CD010E94D708A196B8
:101230000FB6F894DEBF0FBECDBFDF91CF911F91E7
:101240000F91BF90AF909F908F900895E95CE1CF90
:101250000C94D70860E08DE094E00E94650486EC71
:1012600091E00C9428094F925F926F927F928F9237
:101270009F92AF92BF92CF92DF92EF92FF92CF9365
:101280006B017C01842EAC019B010E94621D8823AE
:1012900089F088EC91E0CF91FF90EF90DF90CF90B4
:1012A000BF90AF909F908F907F906F905F904F9086
:1012B0000C94D70826013701E89477F82FEF3FEF19
:1012C0004FE75FE7C301B2010E94621D81110DC0AB
:1012D0002FEF3FEF4FE75FE7C301B2010E94411BD1
:1012E00018161CF48CEC91E0D6CF2FEF3FEF4FE7B0
:1012F0005FE4C701B6010E94A01C18161CF480ED23
:1013000091E0C9CF2FEF3FEF4FE75FECC701B60188
:101310000E94411B87FDF3CF20E030E0A901C70107
:10132000B6010E94411BB12CA12C87FF0AC06DE2BF
:101330008DE094E00E9465045C01F7FAF094F7F800
:10134000F094C82D60E070E080E09FE3912C20E0F5
:1013500030E040E251E40E94461B93949814B8F3A5
:10136000A70196010E94D51A2B013C010E94BF1BC8
:101370006B017C010E94EE1B9B01AC01C301B20119
:101380000E94D41A2B013C014AE0C701B6010E9419
:10139000E4087C016EE28DE094E00E946504E80EB2
:1013A000F91EEA0CFB1CC15018F120E030E040E2CD
:1013B00051E4C301B2010E94F51C2B013C010E94C3
:1013C000BF1B4B01B12CA12C4AE0C501B4010E9406
:1013D000E408E80EF91EC501B4010E94EE1B9B0152
:1013E000AC01C301B2010E94D41A2B013C01DBCF36
:1013F000C701CF91FF90EF90DF90CF90BF90AF905B
:101400009F908F907F906F905F904F900895CF92B4
:10141000DF92EF92FF928091D002823009F489C06E
:10142000843009F404C1813009F047C161E08EE0E5
:101430000E949304C090E702D090E802E090E90295
:10144000F090EA0220E030E040E251ECC701B60142
:101450000E94411B181654F420E030E048EC52E49E
:10146000C701B6010E94A01C87FD1DC088ED91E058
:101470000E9428096091E7027091E8028091E902D8
:101480009091EA0242E050E00E94330960E08DE072
:1014900094E00E94650486EC91E0FF90EF90DF906D
:1014A000CF900C94280920E030E040E251ECC701D5
:1014B000B6010E94A01C181674F420E030E0A901C7
:1014C000C701B6010E94411B87FF05C041E050E003
:1014D000C701B601D9CF20E030E0A901C701B601AC
:1014E0000E94A01C87FD0CC020E030E040E251E4E7
:1014F000C701B6010E94411B42E050E087FDE8CFE2
:1015000020E030E040E251E4C701B6010E94A01C97
:1015100087FD0AC020E030E048EC52E4C701B60184
:101520000E94411B87FDD2CF8DED90E00E94700498
:10153000ADCF61E08EE00E949304C090EB02D090AA
:10154000EC02E090ED02F090EE0220E030E040E2AC
:1015500051ECC701B6010E94411B181654F420E05B
:1015600030E048EC52E4C701B6010E94A01C87FDA0
:1015700018C088ED91E00E9428096091EB027091FB
:10158000EC028091ED029091EE0242E050E00E9468
:10159000330960E08DE094E00E94650484ED91E001
:1015A0007CCF20E030E040E251ECC701B6010E9460
:1015B000A01C181674F420E030E0A901C701B601A0
:1015C0000E94411B87FF05C041E050E0C701B60102
:1015D000DECF20E030E0A901C701B6010E94A01CC7
:1015E00087FD0CC020E030E040E251E4C701B601C5
:1015F0000E94411B42E050E087FDE8CF20E030E050
:1016000040E251E4C701B6010E94A01C87FD0AC058
:1016100020E030E048EC52E4C701B6010E94411BD3
:1016200087FDD2CF88ED90E00E947004B2CF61E0D8
:101630008EE00E949304C090E302D090E402E09018
:10164000E502F090E60220E030E040E251E4C7011C
:10165000B6010E94411B43E050E087FD16C020E028
:1016600030E040E251E4C701B6010E94A01C87FDB2
:1016700013C020E030E048EC52E4C701B6010E94FC
:10168000411B87FF09C042E050E0C701B6010E943C
:1016900033098AEE91E001CF20E030E048EC52E4DB
:1016A000C701B6010E94A01C41E050E087FFEDCFCA
:1016B00082ED90E00E947004ECCFFF90EF90DF90FD
:1016C000CF900895CF92DF92EF92FF928091D00257
:1016D000823009F489C0843009F404C1813009F0F2
:1016E00047C161E083E00E949304C090F302D09070
:1016F000F402E090F502F090F60220E030E040E2E3
:1017000051ECC701B6010E94411B181654F420E0A9
:1017100030E048EC52E4C701B6010E94A01C87FDEE
:101720001DC088ED91E00E9428096091F30270913C
:10173000F4028091F5029091F60242E050E00E949E
:10174000330960E08DE094E00E94650486ED91E04D
:10175000FF90EF90DF90CF900C94280920E030E0CC
:1017600040E251ECC701B6010E94A01C181674F4A7
:1017700020E030E0A901C701B6010E94411B87FFAC
:1017800005C041E050E0C701B601D9CF20E030E00C
:10179000A901C701B6010E94A01C87FD0CC020E072
:1017A00030E040E251E4C701B6010E94411B42E033
:1017B00050E087FDE8CF20E030E040E251E4C7018F
:1017C000B6010E94A01C87FD0AC020E030E048EC72
:1017D00052E4C701B6010E94411B87FDD2CF8DECB8
:1017E00090E00E947004ADCF61E083E00E9493041A
:1017F000C090F702D090F802E090F902F090FA025F
:1018000020E030E040E251ECC701B6010E94411BEC
:10181000181654F420E030E048EC52E4C701B60159
:101820000E94A01C87FD18C088ED91E00E94280945
:101830006091F7027091F8028091F9029091FA029A
:1018400042E050E00E94330960E08DE094E00E94A5
:1018500065048AED91E07CCF20E030E040E251EC7D
:10186000C701B6010E94A01C181674F420E030E0F5
:10187000A901C701B6010E94411B87FF05C041E0D5
:1018800050E0C701B601DECF20E030E0A901C7017A
:10189000B6010E94A01C87FD0CC020E030E040E2B1
:1018A00051E4C701B6010E94411B42E050E087FDB0
:1018B000E8CF20E030E040E251E4C701B6010E94E9
:1018C000A01C87FD0AC020E030E048EC52E4C701CC
:1018D000B6010E94411B87FDD2CF88EC90E00E94A8
:1018E0007004B2CF61E083E00E949304C090EF02E5
:1018F000D090F002E090F102F090F20220E030E0AF
:1019000040E251E4C701B6010E94411B43E050E0B0
:1019100087FD16C020E030E040E251E4C701B60187
:101920000E94A01C87FD13C020E030E048EC52E488
:10193000C701B6010E94411B87FF09C042E050E089
:10194000C701B6010E9433098EED91E001CF20E07E
:1019500030E048EC52E4C701B6010E94A01C41E00F
:1019600050E087FFEDCF82EC90E00E947004ECCF56
:10197000FF90EF90DF90CF900895682F70E090E097
:1019800080E04AE00C94E408AF92BF92CF92DF92DD
:10199000EF92FF920F931F93CF93DF9300D000D06D
:1019A00000D01F92CDB7DEB7EDB6FEB6E0912604AB
:1019B000F09127048E010F5F1F4F3097E9F5F80172
:1019C000EA52F440FA83E983E981FA81D901D89691
:1019D000EA17FB07B0F587E0E3E8F1E0D8010190F2
:1019E0000D928A95E1F76E01B8E0CB0ED11CF8019B
:1019F00061918F0180E693E00E946802C016D106D3
:101A0000B1F70FB6F894FEBE0FBEEDBE0FB6F89458
:101A1000FEBE0FBEEDBE27960FB6F894DEBF0FBE1A
:101A2000CDBFDF91CF911F910F91FF90EF90DF908D
:101A3000CF90BF90AF900895D801AE1BBF0BFD01B2
:101A4000C1CF6901F6E0CF0ED11CADB7BEB7AC195E
:101A5000BD090FB6F894BEBF0FBEADBF0DB71EB720
:101A60000F5F1F4F9DE311969C93F9013296D801A9
:101A70001196FC9311979CEF9C0D12969C931297D4
:101A8000806813968C93139714966C931497211572
:101A9000310551F0FA011596420F531FE417F5076F
:101AA00019F081918D93FACF2B5F3F4FF80131965A
:101AB00080E0AF01401B510B4217530718F491917E
:101AC000890FF7CF200F311FF90180835801C5011D
:101AD000801B910B8C159D0508F093CFD5016D915E
:101AE0005D0180E693E00E946802F1CF0F931F939F
:101AF000CF93DF93CDB7DEB72E970FB6F894DEBF46
:101B00000FBECDBF0091090310910A0320910B0372
:101B100030910C0380910D0390910E03A0910F035F
:101B2000B0911003800F911FA21FB31F40911103AA
:101B3000509112036091130370911403841B950B51
:101B4000A60BB70B8093D5029093D602A093D70231
:101B5000B093D8025091000351114EC0012B022BBB
:101B6000032B09F449C04B2F3A2F292F198290914A
:101B70007801992311F091E099839981552309F413
:101B800040C0926099839091FF029A834B833C837B
:101B90002D838E838091D90280FF35C09091C00241
:101BA0009F839091C10298879091C20299879091EA
:101BB000C3029A8781FF2CC08091C4028B878091D9
:101BC000C5028C878091C6028D878091C7028E875F
:101BD0002EE030E0AE014F5F5F4F60E082E00E9498
:101BE000C40C2E960FB6F894DEBF0FBECDBFDF91AA
:101BF000CF911F910F91089580E020E030E040E008
:101C0000B5CF9D7FBFCF1F82188619861A86D2CF87
:101C10001B861C861D861E86DBCF0E94B51D1F936A
:101C2000CF93DF93EC01162F0E94631A181739F037
:101C3000612FCE01DF91CF911F910C946B1ADF9130
:101C4000CF911F9108951F920F920FB60F921124FA
:101C50002F933F934F935F936F937F938F939F93B4
:101C6000AF93BF93EF93FF9380E693E00E94460209
:101C7000FF91EF91BF91AF919F918F917F916F9164
:101C80005F914F913F912F910F900FBE0F901F903A
:101C900018951F920F920FB60F9211242F938F93C6
:101CA0009F93EF93FF93E0917003F0917103808114
:101CB000E0917603F091770382FD1BC090818091C3
:101CC00079038F5F8F7320917A03821741F0E0913F
:101CD0007903F0E0E05AFC4F958F80937903FF91F0
:101CE000EF919F918F912F910F900FBE0F901F90AA
:101CF00018958081F4CF1F920F920FB60F92112486
:101D00002F933F938F939F93AF93BF9380915B02E9
:101D100090915C02A0915D02B0915E0230915A02F6
:101D200023E0230F2D3758F50196A11DB11D2093F7
:101D30005A0280935B0290935C02A0935D02B09381
:101D40005E0280915F0290916002A0916102B09169
:101D500062020196A11DB11D80935F029093600203
:101D6000A0936102B0936202BF91AF919F918F9156
:101D70003F912F910F900FBE0F901F90189526E85E
:101D8000230F0296A11DB11DD2CF1F920F920FB645
:101D90000F9211242F933F934F935F936F937F93F1
:101DA0008F939F93AF93BF93EF93FF93E0910401C1
:101DB000F09105010995FF91EF91BF91AF919F912E
:101DC0008F917F916F915F914F913F912F910F90E4
:101DD0000FBE0F901F9018951F920F920FB60F9283
:101DE00011242F933F934F935F936F937F938F9320
:101DF0009F93AF93BF93EF93FF93E0910201F09114
:101E000003010995FF91EF91BF91AF919F918F9140
:101E10007F916F915F914F913F912F910F900FBEE6
:101E20000F901F9018951F920F920FB60F921124CA
:101E30002F933F934F935F936F937F938F939F93D2
:101E4000AF93BF93EF93FF938091B900887F803663
:101E500009F44AC0F0F5883209F4A7C018F58031BA
:101E600009F49BC0B8F4882309F4F9C0883009F458
:101E700094C0FF91EF91BF91AF919F918F917F910E
:101E80006F915F914F913F912F910F900FBE0F90E7
:101E90001F901895883109F488C0803251F78093DB
:101EA000390314C0803409F49DC040F48033B9F381
:101EB0008833F9F68093390385ECB0C0803509F496
:101EC00085C0883509F496C0883499F60E94970336
:101ED000D0CF883909F48CC038F5883729F050F410
:101EE000883611F0803729F683E080933B03109207
:101EF000590257C0883809F47BC0803919F08038FE
:101F000009F0B7CF80915902803208F071C0E0919A
:101F1000590281E08E0F809359028091BB00F0E05E
:101F2000E75CFD4F80833DC0803B39F0E0F4803AB0
:101F300009F479C0883A09F09CCF84E080933B0390
:101F40001092360210923502E0913302F091340281
:101F500009958091350281110FC081E0809335028F
:101F60001092130209C0803C09F4A6CF883C09F402
:101F7000A3CF883B09F07DCFE091360281E08E0F40
:101F800080933602F0E0ED5EFD4F80818093BB00D0
:101F9000909136028091350229C08091160380937A
:101FA000BB0085EC8093BC0064CF90913803809196
:101FB0003703981758F5E091380381E08E0F80932E
:101FC0003803F0E0E95EFC4F8081E9CFE09138030F
:101FD00081E08E0F809338038091BB00F0E0E95ED2
:101FE000FC4F808390913803809137039817C8F293
:101FF00085E8D8CFE091380381E08E0F80933803D5
:102000008091BB00F0E0E95EFC4F808380913A0351
:1020100081115CCF81E08093150384EA8093BC003A
:1020200010923B0326CF85EC8093BC0010923B03BB
:1020300080915902803230F4E0915902F0E0E75C7F
:10204000FD4F10826091590270E0E0913702F091EB
:10205000380289E392E00995109259020ACF109252
:10206000390334CF1F920F920FB60F9211240F90A5
:102070000FBE0F901F901895E0E6F3E013821282D6
:1020800088EE93E0A0E0B0E084839583A683B783D5
:1020900022E931E03183208325EC30E03587248745
:1020A00024EC30E03787268720EC30E0318B208B22
:1020B00021EC30E0338B228B22EC30E0358B248B0B
:1020C00026EC30E0378B268B118E128E138E148EF9
:1020D000EDEFF3E01382128284839583A683B783A6
:1020E00084EA91E091838083EDE0F4E01382128230
:1020F00086EB91E091838083108A8FEF8787168625
:10210000118A87E28387148615861286118684E0F9
:10211000828B82E0838B81E0848B80E1858B80E2FF
:10212000868B80E4878B80E8808F50E040E063E01E
:10213000CF010E9451046091790170917A0190E081
:1021400080E00E94EE1B9B01AC0160E070E080E843
:102150009FE30E94461B6093090470930A048093D6
:102160000B0490930C040895CF93DF93CDB7DEB7A3
:10217000A5970FB6F894DEBF0FBECDBF789484B597
:10218000826084BD84B5816084BD85B5826085BD73
:1021900085B5816085BD80916E00816080936E0001
:1021A00010928100809181008260809381008091F3
:1021B00081008160809381008091800081608093A4
:1021C00080008091B10084608093B1008091B00064
:1021D00081608093B00080917A00846080937A005F
:1021E00080917A00826080937A0080917A00816089
:1021F00080937A0080917A00806880937A001092B0
:10220000C1007894E0917003F091710382E08083C3
:10221000E0916C03F0916D031082E0916E03F091F8
:102220006F0387E0808310927803E0917403F0914C
:10223000750386E08083E0917203F09173038081DF
:1022400080618083E0917203F091730380818860E4
:102250008083E0917203F0917303808180688083B2
:10226000E0917203F091730380818F7D808384E01D
:102270000E94460161E084E00E94D50289E00E944C
:10228000460182EC91E090930301809302018091DA
:1022900069008C7F826080936900E89A80E1809376
:1022A00081001092800081E08093680280EC9FE3BF
:1022B00090936702809366029093870080938600D4
:1022C00081E18093810089E00E9446018091800035
:1022D000806880938000109289001092880080911D
:1022E000680280618093810081E2F0E0E0E0809309
:1022F0005700E491E0936302E2E0F0E0809357003E
:10230000E491E0936402E4E0F0E08093570084916C
:102310008093650220E044E064E18DE094E00E9457
:1023200034068DE094E00E9407058DE094E00E9461
:102330000F0562E08DE094E00E948B040BE31FE147
:10234000C8010197F1F785E391E00E94700461E014
:1023500080E00E94930480E291E00E94700462E0B9
:1023600080E00E9493048BE091E00E94700463E09F
:1023700080E00E94930486EF90E00E9470046EE279
:1023800071E080E00E94DB0466E271E081E00E947F
:10239000DB046EE171E082E00E94DB0466E171E043
:1023A00083E00E94DB046EE071E084E00E94DB04C5
:1023B00066E071E085E00E94DB0460ED77E080E09C
:1023C00090E00E9458038DE094E00E9407058DE0A4
:1023D00094E00E940F0562E08DE094E00E948B047F
:1023E000C8010197F1F789E891E00E94700461E06B
:1023F00080E00E94930484E791E00E94700462E010
:1024000080E00E9493048FE591E00E94700463E0F5
:1024100080E00E9493048AE491E00E9470042FE718
:10242000E22E22E0F22E10E000E0C8010E94631AC2
:10243000D7018D937D010F5F1F4F00341105A9F760
:102440009FE7292E92E0392E80E0F10191911F0142
:10245000890FFEEB2F16F2E03F06B9F79091BE020E
:1024600098137DC30E94C70788E198E20FB6F894DD
:10247000A895809360000FBE9093600021E030E04B
:102480004FEB52E061E080E00E94C40C20918A0191
:1024900030918B0140918C0150918D012AA33BA377
:1024A0004CA35DA3AE01405F5F4F5C8F4B8FA8953F
:1024B00080E693E00E942602181619064CF580E685
:1024C00093E00E9404028D3309F041C68DB79EB798
:1024D0009E8F8D8F0E948A034B015C01D12C80E678
:1024E00093E00E94260202970CF069C3DD2009F4F4
:1024F00057C321E030E046E751E066E08FE00E94FC
:10250000C40C2D8D3E8D0FB6F8943EBF0FBE2DBF6F
:102510000E948A036B017C01C0921103D0921203C6
:10252000E0921303F092140380910D0390910E0337
:10253000A0910F03B091100397018601081B190B9E
:102540002A0B3B0B4091090350910A0360910B0346
:1025500070910C03041715072607370708F410C6F7
:102560008C159D05AE05BF0508F00AC64091050310
:1025700050910603609107037091080341155105BE
:102580006105710509F4FCC5009101031091020376
:102590002091030330910403011511052105310534
:1025A00009F4EEC5C0920D03D0920E03E0920F0322
:1025B000F092100380917801882309F4CDC500932F
:1025C000090310930A0320930B0330930C0380E05C
:1025D0000E94E406109278018091FB029091FC0227
:1025E000A091FD02B091FE02B701A601481B590B54
:1025F0006A0B7B0B483E53406105710508F4D3C656
:10260000C092FB02D092FC02E092FD02F092FE0228
:102610001092CC021092CD021092CE021092CF02F4
:102620001092C8021092C9021092CA021092CB02F4
:1026300004EF11E08EE00E942103092E000CAA0B8A
:10264000BB0B4091CC025091CD026091CE027091B3
:10265000CF024C015D01840E951EA61EB71E80920E
:10266000CC029092CD02A092CE02B092CF02015045
:10267000110901F704EF11E08FE00E942103092EF8
:10268000000CAA0BBB0B4091C8025091C90260918B
:10269000CA027091CB026C017D01C40ED51EE61EEC
:1026A000F71EC092C802D092C902E092CA02F0920C
:1026B000CB020150110901F7C501B40124EF31E04B
:1026C00040E050E00E94A31A49015A018092CC02D6
:1026D0009092CD02A092CE02B092CF02C701B60175
:1026E00024EF31E040E050E00E94A31A29013A01B2
:1026F0004092C8025092C9026092CA027092CB0204
:10270000C501B4010E94EE1B9B01AC0160E070ECBE
:102710008FE794E40E94461B20E030E040E85FE34E
:102720000E94D41A0E94AD1C8090090490900A0463
:10273000A0900B04B0900C04A50194010E94F51C1C
:102740002FE03FEC4BE55BE30E94D51A9B01AC0107
:1027500060E070E080E89FE30E94461B6B017C0113
:10276000C301B2010E94EE1B9B01AC0160E070EC62
:102770008FE794E40E94461B20E030E040E85FE3EE
:102780000E94D41A0E94AD1C9B01AC01C501B4018A
:102790000E94F51C2FE03FEC4BE55BE30E94D51A4D
:1027A0009B01AC0160E070E080E89FE30E94461B63
:1027B0004B015C0120E030E0A901C701B6010E9495
:1027C000411B882309F4EBC423E333E948E853E4CD
:1027D000C701B6010E94D41AC092EF02D092F00253
:1027E000E092F102F092F2026093F3027093F4022D
:1027F0008093F5029093F60220E030E040E151E44E
:102800000E94F51C20E030E040EA50E40E94461BA4
:1028100020E030E040E052E40E94D51A6093F702D5
:102820007093F8028093F9029093FA0220E030E06E
:10283000A901C501B4010E94411B882309F4C8C441
:1028400023E333E948E853E4C501B4010E94D41AF4
:102850008092E3029092E402A092E502B092E60236
:102860006093E7027093E8028093E9029093EA0292
:1028700020E030E040E151E40E94F51C20E030E02F
:1028800040EA50E40E94461B20E030E040E052E481
:102890000E94D51A6093EB027093EC028093ED02D4
:1028A0009093EE028091D002823009F4AAC4843061
:1028B00009F4B8C47091F3026091F4025091F502EA
:1028C0004091F6023091E7022091E8029091E902EE
:1028D0008091EA027093C0026093C1025093C202D9
:1028E0004093C3023093C4022093C5029093C60262
:1028F0008093C70280917701882309F461C50E9403
:10290000760D8091780160E0882309F4A9C48CE0F9
:102910000E9493048091000381119FC485EF91E090
:102920000E9470046091FF0270E090E080E00E94DD
:10293000EE1B20E030E040E85FE30E94D51A20E083
:1029400030E048EC52E40E94F51C20E030E040E822
:102950005BE30E94F51C6B017C0120E030E0A901E3
:102960000E94A01C20E030E040E05FE387FD6BC4E4
:10297000C701B6010E94D51A0E94B81B162F87ED19
:1029800091E01A3028F0143608F062C488ED91E026
:102990000E942809812F0E94BD0C82EE91E00E94C6
:1029A00028098091D902882309F4A9C4837083304F
:1029B00009F05CC40E94620B0E94070A8091000328
:1029C0008111B4C48091090390910A03A0910B0373
:1029D000B0910C03892B8A2B8B2B09F4A0C4809017
:1029E000D5029090D602A090D702B090D802C5012F
:1029F000B40128EE33E040E050E00E94A31A6901E0
:102A00007A01F0E4CF16FEE7DF06F5E0EF06F10409
:102A100008F07EC4C501B40120E83EEE46E350E074
:102A20000E94A31A2093D402C701B60120E13EE020
:102A300040E050E00E94A31A2CE330E040E050E078
:102A40000E94A31A2093D3026093D20262E087E02F
:102A50000E9493048091D4028A3020F48CEE91E09D
:102A60000E9428098091D4020E94BD0C8EEE91E054
:102A70000E9428098091D3028A3020F48CEE91E0E4
:102A80000E9428098091D3020E94BD0C8EEE91E035
:102A90000E9428098091D2028A3020F48CEE91E0C5
:102AA0000E9428098091D2020E94BD0C83EC91E023
:102AB0000E947004C0900903D0900A03E0900B03B9
:102AC000F0900C03C114D104E104F10409F43AC4F8
:102AD0006091D5027091D6028091D7029091D80270
:102AE0000E94EE1B4B015C01C701B6010E94EE1B68
:102AF0009B01AC01C501B4010E94461B20E030E0FF
:102B000048EC52E40E94F51C6B017C0120E030E0AF
:102B1000A9010E94A01C20E030E040E05FE387FDB7
:102B20000CC4C701B6010E94D51A0E94B81B60935D
:102B3000D1020091D102802F65E00E949C1DF82EE9
:102B400063E080E00E94930410E0F11609F4FEC3F4
:102B500065E08DE094E00E9465041F5FF6CFE6E338
:102B6000F1E025E731E0DF0180E09D91890F2A1730
:102B70003B07D9F78093750186E791E0AFE7B2E0B4
:102B800021912D938E179F07D9F70E94C70721E047
:102B900030E046E751E06CEF8FE00E94C40C64CC5B
:102BA0000E948A03681979098A099B09DD24D39454
:102BB000693C71058105910508F091CC8FCCD1104D
:102BC00098CC80E693E00E940402C82E80E693E051
:102BD0000E94040289A3C8A21F8E8F8C98A0882A05
:102BE0005401A2E0AA1AB10821E030E046E751E022
:102BF00061E0BBEFAB16B3E0BB0608F07FCC0E94F0
:102C00008A032B013C0184010F5F1F4F80E693E094
:102C10000E9426028017910788F4D1106ACC0E9486
:102C20008A036419750986099709DD24D3946536EA
:102C300071058105910550F7D12CE8CFD11059CC01
:102C400080E693E00E940402582E80E693E00E9402
:102C500004027C01EDB7FEB7EA19FB090FB6F89440
:102C6000FEBF0FBEEDBF0DB71EB70F5F1F4FA11404
:102C7000B10481F0380180E693E00E940402D301A0
:102C80008D933D01CD01801B910B8A159B0598F317
:102C9000DD24D39480E693E00E940402B9A1CB0E18
:102CA000C50CCE0CDD2051F0F8019F01201B310B2B
:102CB0002A153B0518F49191C90EF7CF8C1531F008
:102CC00021E030E046E751E065E018CC852D8F70BB
:102CD000823009F489C060F4882309F46AC0813025
:102CE00009F470C021E030E046E751E062E0D5C071
:102CF000843009F43EC108F481C08E3099F7FF2476
:102D000082E0E816F10409F4BAC193E0E916F1048F
:102D100009F4E7C1EA94EF2809F07FC0B4E0AB16EC
:102D2000B10408F4B5C0F801C080D180DC24CD2402
:102D3000DC2450814181E280F380FE24EF24FE24D4
:102D40009281838197012C0D3D1D21503109211560
:102D5000344008F09DC06DB67EB6470124E0820E77
:102D6000911CADB7BEB7A819B9090FB6F894BEBF8C
:102D70000FBEADBF0DB71EB70F5F1F4F11965C930F
:102D8000F801418392838383E00EF11E5801C01A3B
:102D9000D10AAE14BF0409F466C1C6018A0D9B1D99
:102DA0000E94631AD50114968C93BFEFAB1ABB0A2D
:102DB000F0CF21E030E04FEB52E060E080E00E9495
:102DC000C40CFFCF2AA13BA14CA15DA129833A836A
:102DD0004B835C8324E030E0AE014F5F5F4F60E0E7
:102DE00081E00E94C40C02C00E94760DED8DFE8D24
:102DF0000FB6F894FEBF0FBEEDBF8ACBFF2433E0C1
:102E0000E316F10409F478C074F451E0E516F10416
:102E100051F162E0E616F104B9F121E030E046E755
:102E200051E063E03AC084E0E816F10409F475C0AB
:102E300095E0E916F10489F7DD2051F18091000356
:102E400021E030E0882309F490C0A80165E083E028
:102E50000E94C40CF8018081811183C01092780116
:102E60000E94E406C3CFA1E9B2E0FE013196AF01B2
:102E70008D9181932B8D3C8D2E173F07C9F72FE045
:102E800030E061E083E0ADCF3FE0A316B10438F459
:102E900021E030E046E751E064E08FE0A2CFF801A6
:102EA000A1E9B2E0C8010F9621912D93E817F90727
:102EB000D9F7EFE7F2E080E09191890F2E163F06F7
:102EC000D9F78093BE028FE7E82E82E0F82E10E05B
:102ED00000E0D7016D917D01C8010E940F0E0F5FC8
:102EE0001F4F00341105A9F70E94C70721E030E009
:102EF0004FEB52E062E0C6CFDD2051F2F801808155
:102F0000811107C01092770121E030E0A80163E051
:102F1000B9CFF1E0F0937701F7CFDD2009F4B8CF16
:102F2000D8018C9180FF13C08091000381110AC0E9
:102F3000B1E0B093000380917801882319F080E01C
:102F40000E94E40621E030E0A80164E09BCF1092EB
:102F5000000380917801882309F4ABC28091FF02BD
:102F6000EFCFF1E0F09378017BCF46E751E06EEFD1
:102F700094CFFF2422E0E216F104E1F05CF4EA943D
:102F8000EF2809F04ACF20E230E04FE752E061E05D
:102F900085E027CF53E0E516F10409F454C064E05E
:102FA000E616F10409F039CF28E030E040EC52E0B9
:102FB00064E0EECF80917902898380917A028A83DE
:102FC000809171028B83809172028C838091730255
:102FD0008D83809174028E83809175028F8380919E
:102FE00076028887809177028987809178028A8724
:102FF000809169028B8780916A028C8780916B0235
:103000008D8780916C028E8780916D028F87809171
:103010006E02888B80916F02898B809170028A8BFF
:103020001B8A1C8A1D8A1E8A8EE58F8B8DE9888FEC
:1030300087E3898F81EC8A8F2AE130E0AE014F5F10
:103040005F4F62E0A5CF0E948A0390937B0280933A
:103050007C0270937D0260937E0224E030E04BE7B7
:1030600052E063E095CF9401A80161E08EE00E94F8
:10307000C40C0FB6F8947EBE0FBE6DBEB7CEE3E0B3
:10308000AE16B10408F404CFD801AD90BC90BA24B8
:10309000AB24BA246401B4E0CB1AD108E5E08E1A5F
:1030A00091088A0C9B1C8114F4E09F0608F0F0CE76
:1030B0000E5F1F4FF12CE12CD8016D918D01C501E0
:1030C0008E0D9F1D0E940F0EBFEFEB1AFB0AEC1432
:1030D000FD0490F321E030E04FEB52E062E08EE03F
:1030E00080CEE2E0AE16B10408F4D2CED8016C91E5
:1030F00060939E0211968C9180939F02EFE7F2E01D
:1031000080E09191890FB2E0EE3BFB07D1F780930D
:10311000BE028FE190E00E940F0EF801618180E213
:1031200090E00E940F0E6091BE028FE390E00E943B
:103130000F0ED8018D919C919827892798270E947E
:103140009E0621E030E04FEB52E063E0C8CF80E61E
:1031500093E00E940402DCC931E03093780140938F
:10316000090350930A0360930B0370930C0380913F
:103170000003811131CA8091FF020E94E4062CCA2B
:10318000C816D906EA06FB0608F026CA10920D03F7
:1031900010920E0310920F03109210031DCA10928A
:1031A000EF021092F0021092F1021092F2021092CD
:1031B000F3021092F4021092F5021092F6021092AD
:1031C000F7021092F8021092F9021092FA022ECB36
:1031D0001092E3021092E4021092E5021092E602CD
:1031E0001092E7021092E8021092E9021092EA02AD
:1031F0001092EB021092EC021092ED021092EE028D
:1032000051CB7091F7026091F8025091F902409110
:10321000FA023091EB022091EC029091ED02809144
:10322000EE0258CB7091EF026091F0025091F102E2
:103230004091F2023091E3022091E4029091E50284
:103240008091E60247CBC701B6010E94D41A94CB05
:1032500080EF91E00E947004A4CB87EE91E0FACF5A
:103260008CE00E9493048EED91E0F4CF823009F55A
:1032700061E083E00E94930484EE91E00E942809BB
:103280008091D002823041F0843081F0813009F0A9
:1032900093CB0E942A0990CB60E08DE094E00E94DD
:1032A000650484ED91E00E94280986CB89EE91E0C7
:1032B000FACF813009F082CB0E94620B61E08EE090
:1032C0000E94930484EE91E00E9428098091D0022C
:1032D000823041F0843081F0813009F06FCB0E9460
:1032E0002A096CCB60E08DE094E00E94650484EDD7
:1032F00091E00E94280962CB89EE91E0FACF61E06B
:1033000080E00E94930489EC91E00E94700456CB07
:1033100062E087E00E94930485EB91E0C9CB62E014
:1033200087E00E9493048CEA91E0C2CB62E087E0E0
:103330000E9493048EE991E0BBCBC701B6010E94C5
:10334000D41AF3CB84E68093D102F3CB0436C0F5D4
:10335000802F65E00E949C1D923009F1B0F461E07D
:103360009130C1F088ED91E00E942809F12C23E111
:1033700030E0211B31098901F01611060CF588EDAA
:1033800091E00E942809F394F7CF933051F064E064
:10339000943041F78DE094E00E946504E7CF62E04D
:1033A000F9CF63E0F7CFC816D906EA06FB0640F46A
:1033B0001092FB021092FC021092FD021092FE028B
:1033C0008091E202882381F0909100031092E20242
:1033D00080917801911155C031E03093000388232A
:1033E00041F080E00E94E40680910003882309F404
:1033F00050C0C0901103D0901203E0901303F090DE
:1034000014038091DE029091DF02A091E002B0915E
:10341000E102A7019601281B390B4A0B5B0BDA016D
:10342000C901843F9140A105B105A0F0C092DE0220
:10343000D092DF02E092E002F092E10260E084E0EC
:103440000E94D502C092DA02D092DB02E092DC0246
:10345000F092DD028091DA029091DB02A091DC0211
:10346000B091DD02C81AD90AEA0AFB0A44E6C4167A
:10347000D104E104F10468F061E084E00E94D50227
:1034800008C0109200038823C9F08091FF020E94B7
:10349000E40680E090E0892B11F40C9457120E940E
:1034A0003202882311F40C9452120E9400000C94F2
:1034B000521261E084E00E94D50244CD61E084E0D4
:1034C0000E94D50291CFF999FECF92BD81BDF89AA5
:1034D000992780B50895262FF999FECF1FBA92BD7E
:1034E00081BD20BD0FB6F894FA9AF99A0FBE0196E5
:1034F0000895052E97FB1EF400940E94901A57FD24
:1035000007D00E94A31A07FC03D04EF40C94901A23
:1035100050954095309521953F4F4F4F5F4F0895FF
:1035200090958095709561957F4F8F4F9F4F08952F
:103530000E94C51AA59F900DB49F900DA49F800D69
:10354000911D11240895A1E21A2EAA1BBB1BFD0197
:103550000DC0AA1FBB1FEE1FFF1FA217B307E40772
:10356000F50720F0A21BB30BE40BF50B661F771FCA
:10357000881F991F1A9469F76095709580959095AA
:103580009B01AC01BD01CF010895A29FB001B39F83
:10359000C001A39F700D811D1124911DB29F700D5C
:1035A000811D1124911D08955058BB27AA270E9400
:1035B000EC1A0C94661C0E94581C38F00E945F1C88
:1035C00020F039F49F3F19F426F40C94551C0EF4A6
:1035D000E095E7FB0C944F1CE92F0E94771C58F3F1
:1035E000BA17620773078407950720F079F4A6F5E8
:1035F0000C94991C0EF4E0950B2EBA2FA02D0B0104
:10360000B90190010C01CA01A0011124FF27591B27
:1036100099F0593F50F4503E68F11A16F040A22F2D
:10362000232F342F4427585FF3CF4695379527959E
:10363000A795F0405395C9F77EF41F16BA0B620B9D
:10364000730B840BBAF09150A1F0FF0FBB1F661FE4
:10365000771F881FC2F70EC0BA0F621F731F841F27
:1036600048F4879577956795B795F7959E3F08F04D
:10367000B0CF9395880F08F09927EE0F979587950F
:1036800008950E942B1C08F481E008950E945A1BA3
:103690000C94661C0E945F1C58F00E94581C40F05D
:1036A00029F45F3F29F00C944F1C51110C949A1C83
:1036B0000C94551C0E94771C68F39923B1F3552391
:1036C00091F3951B550BBB27AA2762177307840735
:1036D00038F09F5F5F4F220F331F441FAA1FA9F3CB
:1036E00035D00E2E3AF0E0E832D091505040E695B9
:1036F000001CCAF72BD0FE2F29D0660F771F881F1A
:10370000BB1F261737074807AB07B0E809F0BB0B0C
:10371000802DBF01FF2793585F4F3AF09E3F510520
:1037200078F00C944F1C0C949A1C5F3FE4F3983E85
:10373000D4F3869577956795B795F7959F5FC9F709
:10374000880F911D9695879597F90895E1E0660F8A
:10375000771F881FBB1F621773078407BA0720F003
:10376000621B730B840BBA0BEE1F88F7E09508956C
:103770000E94BF1B6894B1110C949A1C08950E947A
:103780007F1C88F09F5798F0B92F9927B751B0F058
:10379000E1F0660F771F881F991F1AF0BA95C9F7D5
:1037A00014C0B13091F00E94991CB1E008950C94BE
:1037B000991C672F782F8827B85F39F0B93FCCF371
:1037C000869577956795B395D9F73EF49095809552
:1037D000709561957F4F8F4F9F4F0895E89409C072
:1037E00097FB3EF490958095709561957F4F8F4F34
:1037F0009F4F9923A9F0F92F96E9BB279395F6954A
:10380000879577956795B795F111F8CFFAF4BB0FC7
:1038100011F460FF1BC06F5F7F4F8F4F9F4F16C02B
:10382000882311F096E911C0772321F09EE8872FB5
:10383000762F05C0662371F096E8862F70E060E071
:103840002AF09A95660F771F881FDAF7880F9695EA
:10385000879597F90895990F0008550FAA0BE0E88E
:10386000FEEF16161706E807F907C0F01216130642
:10387000E407F50798F0621B730B840B950B39F482
:103880000A2661F0232B242B252B21F408950A26E8
:1038900009F4A140A6958FEF811D811D089597F928
:1038A0009F6780E870E060E008959FEF80EC0895E6
:1038B00000240A941616170618060906089500240F
:1038C0000A9412161306140605060895092E039489
:1038D000000C11F4882352F0BB0F40F4BF2B11F4FD
:1038E00060FF04C06F5F7F4F8F4F9F4F089557FD5C
:1038F0009058440F551F59F05F3F71F04795880F5E
:1039000097FB991F61F09F3F79F0879508951216F4
:1039100013061406551FF2CF4695F1DF08C01616A0
:1039200017061806991FF1CF869571056105089451
:103930000895E894BB2766277727CB0197F9089568
:103940000E942B1C08F48FEF089516F00C94671D4D
:103950000C94551C68940C944F1C0E947F1CA8F377
:103960009923C1F3AEF3DF93CF931F930F93FF928D
:10397000C92FDD2788232AF02197660F771F881F1C
:10398000DAF720E030E040E85FEB9FE3883920F091
:10399000803E38F021968F770E94D51AE8E6F0E055
:1039A00004C00E94D51AE5E9F0E00E94751D8B0164
:1039B000BE01EC01FB2E6F5771097595771F880BBF
:1039C000990B0E94F01B28E132E741E35FE30E947C
:1039D000081DAF2D9801AE01FF900F911F91CF915F
:1039E000DF910E94EC1A0C94661C0E94081D0C9436
:1039F000661C0E94581C38F00E945F1C20F0952322
:103A000011F00C944F1C0C94551C11240C949A1C0E
:103A10000E94771C70F3959FC1F3950F50E0551FDE
:103A2000629FF001729FBB27F00DB11D639FAA2713
:103A3000F00DB11DAA1F649F6627B00DA11D661F62
:103A4000829F2227B00DA11D621F739FB00DA11D83
:103A5000621F839FA00D611D221F749F3327A00D3D
:103A6000611D231F849F600D211D822F762F6A2FD9
:103A700011249F5750409AF0F1F088234AF0EE0F3E
:103A8000FF1FBB1F661F771F881F91505040A9F76B
:103A90009E3F510580F00C944F1C0C949A1C5F3F84
:103AA000E4F3983ED4F3869577956795B795F795A7
:103AB000E7959F5FC1F7FE2B880F911D969587951F
:103AC00097F908950E942B1C880B990B08959F3F2E
:103AD00031F0915020F4879577956795B795880FC9
:103AE000911D9695879597F90895DF93CF931F932E
:103AF0000F93FF92EF92DF927B018C01689406C0D6
:103B0000DA2EEF010E94081DFE01E894A59125918F
:103B1000359145915591A6F3EF010E94EC1AFE01F3
:103B20009701A801DA9469F7DF90EF90FF900F9169
:103B30001F91CF91DF910895991B79E004C0991FDF
:103B4000961708F0961B881F7A95C9F780950895F7
:103B50006927962769277827872778270895EE0F02
:103B6000FF1F0590F491E02D099481E090E0F89416
:083B70000C94BA1DF894FFCF7C
:103B7800EA019603960300001F1F1F0000000000C3
:103B88001E1E1E00000000001C1C1C00000000007F
:103B98001818180000000000101010000000060996
:103BA80009060000000000C7000000000000000037
:103BB80000000000000000007F000DBBA0000DBB4E
:103BC800A000010F6E01EA000000000000000000E4
:103BD80000000000000000000000000000000000DD
:103BE800000000000000FF01016E0F0040145400A7
:103BF8004010503D00038FFDFF8E4D485447000094
:103C080000006802C801F501B50226020402180284
:103C1800000000002104F403A005CA03ED03DA0341
:103C2800CB03000000006504C801A0059F05340609
:103C380051041B06FC0543006E616E00696E660048
:103C48006F766600460043202000462020004B2067
:103C5800200025002D2D2D2D002D4B0030003A0081
:107E0000112484B714BE81FFF0D085E080938100F7
:107E100082E08093C00088E18093C10086E0809377
:107E2000C20080E18093C4008EE0C9D0259A86E02C
:107E300020E33CEF91E0309385002093840096BBD3
:107E4000B09BFECF1D9AA8958150A9F7CC24DD24C4
:107E500088248394B5E0AB2EA1E19A2EF3E0BF2EE7
:107E6000A2D0813461F49FD0082FAFD0023811F036
:107E7000013811F484E001C083E08DD089C08234E0
:107E800011F484E103C0853419F485E0A6D080C0E4
:107E9000853579F488D0E82EFF2485D0082F10E0AE
:107EA000102F00270E291F29000F111F8ED06801E7
:107EB0006FC0863521F484E090D080E0DECF843638
:107EC00009F040C070D06FD0082F6DD080E0C81688
:107ED00080E7D80618F4F601B7BEE895C0E0D1E017
:107EE00062D089930C17E1F7F0E0CF16F0E7DF06D8
:107EF00018F0F601B7BEE89568D007B600FCFDCFD4
:107F0000A601A0E0B1E02C9130E011968C91119780
:107F100090E0982F8827822B932B1296FA010C0160
:107F200087BEE89511244E5F5F4FF1E0A038BF0790
:107F300051F7F601A7BEE89507B600FCFDCF97BE46
:107F4000E89526C08437B1F42ED02DD0F82E2BD052
:107F50003CD0F601EF2C8F010F5F1F4F84911BD097
:107F6000EA94F801C1F70894C11CD11CFA94CF0C13
:107F7000D11C0EC0853739F428D08EE10CD085E9AC
:107F80000AD08FE07ACF813511F488E018D01DD067
:107F900080E101D065CF982F8091C00085FFFCCF94
:107FA0009093C60008958091C00087FFFCCF809118
:107FB000C00084FD01C0A8958091C6000895E0E648
:107FC000F0E098E1908380830895EDDF803219F02E
:107FD00088E0F5DFFFCF84E1DECF1F93182FE3DFCA
:107FE0001150E9F7F2DF1F91089580E0E8DFEE27F6
:047FF000FF270994CA
:027FFE00040479
:0400000300007E007B
:00000001FF
