:100000000C948A000C9492070C946B070C94B20029
:100010000C94B2000C94B2000C94B2000C94B20098
:100020000C94B2000C94B2000C94B2000C94B20088
:100030000C94B2000C94B2000C94B2000C94B20078
:100040000C94480A0C94B2000C94DF070C94B90786
:100050000C94B2000C94B2000C94B2000C94B20058
:100060000C9411080C94B20008000000BE922449C0
:10007000123EABAAAA2ABECDCCCC4C3E00000080DA
:10008000BEABAAAAAA3E00000000BF000000803F4D
:100090000000000000084178D3BB4387D1133D190D
:1000A0000E3CC3BD4282AD2B3E68EC8276BED98F3A
:1000B000E1A93E4C80EFFFBE01C4FF7F3F0000007E
:1000C0000000000000080002010000030407000017
:1000D00000000000000000000000250028002B00A8
:1000E00000000000240027002A0004040404040483
:1000F00004040202020202020303030303030102D7
:1001000004081020408001020408102001020408A5
:100110001020390E11241FBECFEFD8E0DEBFCDBFB7
:1001200011E0A0E0B1E0EAE6F2E202C005900D9233
:10013000A233B107D9F722E0A2E3B1E001C01D92DA
:10014000A13DB207E1F710E0CAE8D0E004C0219772
:10015000FE010E942811C938D107C9F70E94920AEE
:100160000C9433110C9400000895CF92DF92EF921B
:10017000FF920F931F93CF93DF936C017A018B0152
:10018000C0E0D0E0CE15DF0581F0D8016D918D0182
:10019000D601ED91FC910190F081E02DC601099509
:1001A000892B11F02196EECF7E01C701DF91CF910F
:1001B0001F910F91FF90EF90DF90CF900895FC0179
:1001C000538D448D252F30E0842F90E0821B930BBC
:1001D000541710F0CF96089501970895FC01918D62
:1001E000828D981761F0828DDF01A80FB11D5D9699
:1001F0008C91928D9F5F9F73928F90E008958FEF07
:100200009FEF0895FC01918D828D981731F0828DBA
:10021000E80FF11D858D90E008958FEF9FEF089511
:10022000FC01918D228D892F90E0805C9F4F821B75
:1002300091098F73992708958BE192E00E94100134
:1002400021E0892B09F420E0822F0895FC01848DA0
:10025000DF01A80FB11DA35ABF4F2C91848D90E0F0
:1002600001968F739927848FA689B7892C93A089CB
:10027000B1898C91837080648C93938D848D981355
:1002800006C00288F389E02D80818F7D80830895E8
:10029000EF92FF920F931F93CF93DF93EC0181E0D6
:1002A000888F9B8D8C8D981305C0E889F989808192
:1002B00085FD26C0F62E0B8D10E00F5F1F4F0F73CC
:1002C0001127E02E8C8DE8120CC00FB607FCFACF78
:1002D000E889F989808185FFF5CFCE010E9426014A
:1002E000F1CF8B8DFE01E80FF11DE35AFF4FF08235
:1002F0009FB7F8940B8FEA89FB89808180620AC0DE
:100300009FB7F894EE89FF896083E889F989808135
:100310008370806480839FBF81E090E0DF91CF9104
:100320001F910F91FF90EF900895CF93DF93EC0111
:10033000888D8823C9F0EA89FB89808185FD05C005
:10034000A889B9898C9186FD0FC00FB607FCF5CF3F
:10035000808185FFF2CFA889B9898C9185FFEDCF87
:10036000CE010E942601E7CFDF91CF91089580E072
:1003700090E0892B29F00E941C0181110C9400004F
:10038000089585ED8093BC008091BC0084FDFCCF76
:1003900010927B01089540915701262F30E0240FE1
:1003A000311D21323105DCF420917B012430C9F468
:1003B000FC0180E090E0861758F4309157012191BC
:1003C000DC01A95CBE4FA30FB11D2C930196F3CFA6
:1003D00080915701680F6093570180E0089581E094
:1003E000089582E0089508958FEF9FEF08958FEFAD
:1003F0009FEF08958091360190E091958195910944
:100400000895CF93DF93CB01EA01642F0E94CB01C3
:10041000CE01DF91CF910895CF93DF931F92CDB797
:10042000DEB7698361E0CE0101960E94CB0181E0D5
:1004300090E00F90DF91CF910895089580E090E0D3
:100440000895F89481E08093160280910601882334
:1004500029F08091040290E00E94A7097894089501
:100460000E942E11CF92DF92EF92FF920F931F9373
:10047000CF93DF93CDB7DEB7742F952F0DB71EB78F
:10048000A9014A5F5F4FADB7BEB7A41BB50B0FB64E
:10049000F894BEBF0FBEADBFEDB7FEB731960F2EBD
:1004A000FDE3FF2EF02D1196FC92D9011296B18337
:1004B000ACEFA40FA2838058838364832115310598
:1004C00091F0C72ED92E8DB79EB706967601E20E13
:1004D000F31ECE14DF0439F0D6016D916D01DC01FD
:1004E0006D93CD01F6CF2B5F3F4FDF01119680E07A
:1004F000BD016E1B7F0B6217730718F49D91890F66
:10050000F7CFDF01A20FB31F8C93BF018BE192E005
:100510000E94B5000FB6F8941EBF0FBE0DBFDF914D
:10052000CF911F910F91FF90EF90DF90CF900895A2
:10053000CF92DF92EF92FF920F931F93CF93DF93AF
:10054000CDB7DEB72E970FB6F894DEBF0FBECDBF86
:10055000C0901202D0901302E0901402F0901502A5
:1005600080910E0290910F02A0911002B0911102A1
:1005700000911702109118022091190230911A026D
:1005800050910D0251110CC08C0D9D1DAE1DBF1D53
:10059000801B910BA20BB30B4B2F3A2F292F04C0BA
:1005A00080E020E030E040E019829091060199233C
:1005B00011F091E099839981552311F0926001C067
:1005C0009D7F9983909104029A834B833C832D8372
:1005D0008E838091D7018F838091D8018887809105
:1005E000D90189878091DA018A878091DB018B8725
:1005F0008091DC018C878091DD018D878091DE0107
:100600008E872EE030E0AE014F5F5F4F60E082E00A
:100610000E9432022E960FB6F894DEBF0FBECDBFF9
:10062000DF91CF911F910F91FF90EF90DF90CF90CE
:1006300008951F93CF93DF93EC01162F0E948A0E2B
:10064000181739F0612FCE01DF91CF911F910C94D3
:10065000920EDF91CF911F9108958F929F92AF924A
:10066000BF92CF92DF92EF92FF920F931F93CF939F
:10067000DF93C82FD0E000E010E0C017D10761F190
:10068000C8010E94A7090E94170A4B015C018FE074
:10069000C82ED12CE12CF12C0E94170ADC01CB01D1
:1006A00088199909AA09BB09883E9340A105B1059B
:1006B00098F321E0C21AD108E108F10888EE880E0B
:1006C00083E0981EA11CB11CC114D104E104F10403
:1006D00019F70F5F1F4FD1CFCE01DF91CF911F913F
:1006E0000F91FF90EF90DF90CF90BF90AF909F90D1
:1006F0008F900C94A7090F931F938091B40180935E
:10070000B2018091B5018093B3018091B6018093CD
:10071000AA018091B7018093AB018091B8018093C9
:10072000AC018091B9018093AD018091BA018093B1
:10073000AE018091BB018093AF018091BC01809399
:10074000B0018091BD018093B1018091BE01809381
:10075000A2018091BF018093A3018091C001809389
:10076000A4018091C1018093A5018091C201809371
:10077000A6018091C3018093A7018091C401809359
:10078000A8018091C5018093A9018091C601809341
:100790000402809104020E942D036091C7017091B0
:1007A000C8018091C9019091CA010E9421118B0159
:1007B0009C01609305027093060280930702909358
:1007C00008026091CB017091CC018091CD01909194
:1007D000CE010E9421116093090270930A02809356
:1007E0000B0290930C0240910601442349F00093C0
:1007F0000E0210930F02209310023093110208C0D2
:1008000060930E0270930F02809310029093110276
:100810008091D0018093DF016091D1017091D2016C
:10082000762767277627709308016093070180E099
:1008300090E00E947F0F9B01AC0160E070E080E8D7
:100840009FE30E940D0F6093B8027093B9028093EA
:10085000BA029093BB021F910F9108952F923F927D
:100860004F925F926F927F928F929F92AF92BF92C0
:10087000CF92DF92EF92FF920F931F93CF93DF936C
:10088000CDB7DEB7C650D2400FB6F894DEBF0FBE6C
:10089000CDBF4DB65EB60E943C0A4B015C0110E034
:1008A0008BE192E00E94100102970CF044C01123EA
:1008B00091F121E030E040E051E066E005C021E048
:1008C00030E040E051E061E08FE00E9432020FB67C
:1008D000F8945EBE0FBE4DBE0FB6F8945EBE0FBE5E
:1008E0004DBECA5FDD4F0FB6F894DEBF0FBECDBF61
:1008F000DF91CF911F910F91FF90EF90DF90CF90FC
:10090000BF90AF909F908F907F906F905F904F902F
:100910003F902F9008950E943C0ADC01CB0188197A
:100920009909AA09BB0911E0893C9105A105B10506
:1009300008F0B6CFB4CF1111BCCF8BE192E00E948A
:10094000EE00782E8BE192E00E94EE00382ED72C3C
:10095000C12CC80ED11C96012F5F3F4FCB5FDD4FDE
:1009600039832883C550D24032E0C31AD1084BEFF7
:10097000C41643E0D40608F0A2CF0E943C0A4B0103
:100980005C0111C0111195CF0E943C0ADC01CB0122
:1009900088199909AA09BB0911E085369105A105B5
:1009A000B10508F410E08BE192E00E941001CB5FEA
:1009B000DD4FE881F981C550D2408E179F0710F3B3
:1009C000111177CF8BE192E00E94EE00682E8BE14F
:1009D00092E00E94EE008C012DB73EB72C193D0924
:1009E0000FB6F8943EBF0FBE2DBF4DB75EB74F5F39
:1009F0005F4F7A01C114D10489F05A018BE192E072
:100A00000E94EE00F50181935F01CF018E199F09CD
:100A10008C159D0598F3BB24B39401C0B12C8BE1D8
:100A200092E00E94EE00730C760C700EBB2051F029
:100A3000F7019F012E193F092C153D0518F49191DE
:100A4000790EF7CF871531F021E030E040E051E03A
:100A500065E03ACF862D8F70823059F1C8F4882333
:100A6000F9F0813009F031C28091090190910A01B9
:100A7000A0910B01B0910C0189839A83AB83BC8355
:100A800024E030E0AE014F5F5F4F60E081E01DCFBA
:100A9000843009F4C0C080F08E3009F433C115C22F
:100AA00021E030E041EA51E060E080E00E94320263
:100AB000FFCF0E9498020BCF11270330110509F4D4
:100AC0005AC03CF40130110569F002301105D1F033
:100AD000F6C10430110509F45FC00530110509F4B1
:100AE00072C0EDC1A6ECB1E0FE013196CE010E96CA
:100AF000AF012D912193E817F907D9F72DE030E0E8
:100B000061E05FC0BB2021F0FCE0CF16D10430F4DF
:100B100021E030E040E051E064E0D6CEF701A6EC01
:100B2000B1E0C7010D9621912D93E817F907D9F788
:100B300094EBE92E91E0F92EF70180E09191890F75
:100B400021E0E33DF207D1F78093D30100E010E00C
:100B5000F70161917F01C8010E9419030F5F1F4FC8
:100B600000321105A9F70E947B0321E030E041EA41
:100B700051E062E026C0BB2059F2F701808181116B
:100B800003C01092050103C081E08093050121E0BC
:100B900030E0A70163E015C0BB2009F4B9CFF7012D
:100BA0008081811107C010920D02809104020E9481
:100BB0002D0303C081E080930D0221E030E0A70106
:100BC00064E083E082CEBB2009F4A2CF80910D02C5
:100BD00021E030E08823D9F0A70165E083E00E949E
:100BE0003202F7018081811108C01092060160E095
:100BF00089E00E945A0961E006C091E090930601E5
:100C00000E942D0360E084E00E945A0960CE40E01B
:100C100051E06EEF59CE112702301105C9F054F49E
:100C20000130110509F04BC120E230E044EB51E006
:100C300061E066C00330110509F453C004301105AA
:100C400009F03DC128E030E047ED51E064E058C0D4
:100C50008091B20189838091B3018A838091AA0136
:100C60008B838091AB018C838091AC018D838091CB
:100C7000AD018E838091AE018F838091AF01888713
:100C80008091B00189878091B1018A878091A2010A
:100C90008B878091A3018C878091A4018D8780919F
:100CA000A5018E878091A6018F878091A701888BEF
:100CB0008091A801898B8091A9018A8B1B8A1C8A4B
:100CC0001D8A1E8A8EE58F8B8CE1888F8AEA898F38
:100CD00081EF8A8F2AE130E0AE014F5F5F4F62E023
:100CE0000FC00E943C0A90933201809333017093AD
:100CF00034016093350124E030E042E351E063E0E9
:100D000085E0E3CD11270130110529F002301105EE
:100D100009F4A7C0D4C0BB2009F4FACEF4E0CF1682
:100D2000D10408F4F5CEF701608071807624672441
:100D30007624908181810281138110270127102759
:100D400032812381A801460D571D4130544008F0DF
:100D5000DFCE011542E01407D8F52DB63EB64801A6
:100D600054E0850E911CEDB7FEB7E819F9090FB6EE
:100D7000F894FEBF0FBEEDBF4DB75EB74F5F5F4F3C
:100D80005A019183FA01818332832383CDB6DEB683
:100D9000F5E0CF0ED11CE12CF12CE016F10661F04C
:100DA000C701860D971D0E948A0EF60181936F017F
:100DB000FFEFEF1AFF0AF1CF9401A50161E08EE089
:100DC0000E9432020FB6F8943EBE0FBE2DBE7FCDFC
:100DD00099838A8382E08B831C829E012F5F3F4F21
:100DE00069015E013FEFA31A3DEFB30A76014301AB
:100DF0008C189D08C4018E0D9F1D0E948A0EF7015C
:100E00008483FFEFEF1AFF0AEA14FB0499F724E04A
:100E100032E0A60161E08EE00E94320282E0898326
:100E20001A82C80192509B830C835E0125E0A20EBA
:100E3000B11CE12C82E0F82EE016F10661F0C7014A
:100E4000860D971D0E948A0EF50181935F01FFEFC9
:100E5000EF1AFF0AF1CF97012C5F3140A60161E044
:100E60002CC0BB2009F454CE23E0C216D10408F4F0
:100E70004FCEF701C190D1907F01DC24CD24DC243A
:100E8000CB5FDD4F88809980C550D240F5E08F1A46
:100E9000910800E010E0F70161917F01C8018C0D1D
:100EA0009D1D0E9419030F5F1F4F0815190598F328
:100EB00021E030E041EA51E062E08EE006CD21E041
:100EC00030E040E051E063E0FFCC21E030E040E082
:100ED00051E062E0F9CC1F920F920FB60F921124ED
:100EE0002F933F934F935F936F937F938F939F9332
:100EF000AF93BF93EF93FF93E0910301F09104014F
:100F00000995FF91EF91BF91AF919F918F917F9143
:100F10006F915F914F913F912F910F900FBE0F9066
:100F20001F9018951F920F920FB60F9211242F93B6
:100F30003F934F935F936F937F938F939F93AF9361
:100F4000BF93EF93FF93E0910101F09102010995A6
:100F5000FF91EF91BF91AF919F918F917F916F9191
:100F60005F914F913F912F910F900FBE0F901F9067
:100F700018951F920F920FB60F9211242F933F9343
:100F80004F935F936F937F938F939F93AF93BF9391
:100F9000EF93FF938BE192E00E942601FF91EF9186
:100FA000BF91AF919F918F917F916F915F914F9181
:100FB0003F912F910F900FBE0F901F9018951F9289
:100FC0000F920FB60F9211242F938F939F93EF934D
:100FD000FF93E0912B02F0912C028081E09131028D
:100FE000F091320282FD12C09081809134028F5FB5
:100FF0008F7320913502821751F0E0913402F0E0B6
:10100000E55EFD4F958F8093340201C08081FF9192
:10101000EF919F918F912F910F900FBE0F901F9086
:1010200018951F920F920FB60F9211242F933F9392
:101030004F935F936F937F938F939F93AF93BF93E0
:10104000EF93FF938091B900887F803609F49CC0AC
:1010500068F5883209F45BC090F4803109F454C01B
:1010600038F4882309F4F2C0883009F44DC0F2C086
:10107000883109F44CC0803209F45DC0EBC0803483
:1010800009F468C048F4803309F455C0883309F086
:10109000E1C080937A01D4C0803509F44FC088350F
:1010A00009F45DC0883409F0D5C0D2C0883909F48C
:1010B000C3C0A8F4883709F467C038F4883609F447
:1010C00063C0803709F460C0C5C0883809F4B4C073
:1010D000803909F45FC0803809F0BCC05BC0803B38
:1010E00009F484C038F4803A09F466C0883A09F4F7
:1010F0007DC0B0C0803C09F4A3C0883C09F4A0C006
:10110000883B09F486C0A6C08091A00110C09091D0
:101110009F0180919E01981770F5E0919F0181E0F9
:101120008E0F80939F01F0E0E258FE4F8081809304
:10113000BB0085EC82C080937A018AC0E0919F0158
:1011400081E08E0F80939F018091BB00F0E0E25818
:10115000FE4F808390919F0180919E016AC0E09133
:101160009F0181E08E0F80939F018091BB00F0E092
:10117000E258FE4F808380917D01811169C081E03A
:1011800080937C0184EA5DC083E080937B011092B0
:101190007901CFCF80917901803208F04DC0E09184
:1011A000790181E08E0F809379018091BB00F0E09E
:1011B000E75AFE4F8083BDCF85EC8093BC00109230
:1011C0007B0180917901803230F4E0917901F0E087
:1011D000E75AFE4F10826091790170E089E591E055
:1011E000E0E0F0E009951092790134C084E080934A
:1011F0007B011092580110925701E0E0F0E0099550
:1012000080915701811105C081E0809357011092B0
:101210003701E091580181E08E0F80935801F0E092
:10122000E95CFE4F80818093BB00909158018091D2
:101230005701981708F47DCF85E88093BC000AC059
:1012400085EC8093BC0010927B0104C010927A015F
:101250000E94C101FF91EF91BF91AF919F918F913A
:101260007F916F915F914F913F912F910F900FBEA2
:101270000F901F90189590E0FC01E250FF4F2491D1
:10128000FC01E651FF4F8491882399F090E0880F8C
:10129000991FFC01E052FF4FA591B491FC01EA5265
:1012A000FF4F859194918FB7F894EC91E22BEC93DA
:1012B0008FBF089590E0FC01EE53FF4F2491FC0195
:1012C000E250FF4F3491FC01E651FF4FE491EE23D1
:1012D00009F43CC0222339F1233091F038F4213055
:1012E000A9F0223001F584B58F7D12C0273091F02E
:1012F0002830A1F02430B9F4809180008F7D03C0A4
:10130000809180008F77809380000DC084B58F77A7
:1013100084BD09C08091B0008F7703C08091B00078
:101320008F7D8093B000F0E0EE0FFF1FEA52FF4F79
:10133000A591B4919FB7F894611104C08C91309538
:10134000382302C0EC913E2B3C939FBF0895CF936E
:10135000DF93EC0189E00E943B09209711F460E0E3
:1013600004C0CF3FD10531F461E089E0DF91CF9136
:101370000C945A09EBECF0E0E491E330F9F048F416
:10138000E130B9F0E230A1F584B5806284BDC8BD1A
:1013900034C0E730E9F0E83019F1E43049F58091E4
:1013A0008000806280938000D0938B00C0938A007D
:1013B00024C084B5806884BDC7BD1FC080918000F3
:1013C000806880938000D0938900C093880015C006
:1013D0008091B00080688093B000C093B3000DC0CE
:1013E0008091B00080628093B000C093B40005C0CB
:1013F000C038D1050CF0B8CFB2CFDF91CF910895AE
:101400008E3008F08E508770806480937C008091CD
:101410007A00806480937A0080917A0086FDFCCF08
:10142000809178002091790090E0922B08953FB749
:10143000F8948091C1029091C202A091C302B09130
:10144000C40226B5A89B05C02F3F19F00196A11D27
:10145000B11D3FBFBA2FA92F982F8827820F911D4A
:10146000A11DB11DBC01CD0142E0660F771F881F91
:10147000991F4A95D1F708952FB7F8946091BD024E
:101480007091BE028091BF029091C0022FBF08955B
:101490001F920F920FB60F9211242F933F938F93A9
:1014A0009F93AF93BF938091BD029091BE02A09194
:1014B000BF02B091C0023091BC0223E0230F2D3750
:1014C00020F40196A11DB11D05C026E8230F029648
:1014D000A11DB11D2093BC028093BD029093BE025A
:1014E000A093BF02B093C0028091C1029091C2024A
:1014F000A091C302B091C4020196A11DB11D8093B9
:10150000C1029093C202A093C302B093C402BF91E0
:10151000AF919F918F913F912F910F900FBE0F90A0
:101520001F901895CF93DF9300D000D01F92CDB7B6
:10153000DEB7789484B5826084BD84B5816084BD53
:1015400085B5826085BD85B5816085BD80916E0061
:10155000816080936E001092810080918100826092
:1015600080938100809181008160809381008091CF
:1015700080008160809380008091B10084608093BE
:10158000B1008091B00081608093B00080917A00BA
:10159000846080937A0080917A00826080937A00E0
:1015A00080917A00816080937A0080917A008068CF
:1015B00080937A001092C1007894E0912B02F09110
:1015C0002C0282E08083E0912702F09128021082B1
:1015D000E0912902F0912A0287E080831092330281
:1015E000E0912F02F091300286E08083E0912D029D
:1015F000F0912E02808180618083E0912D02F09134
:101600002E02808188608083E0912D02F0912E026D
:10161000808180688083E0912D02F0912E0280818C
:101620008F7D808384E00E943B0989E00E943B0912
:1016300081E292E090930201809301018091690020
:101640008C7F826080936900E89A81E2E0E0F0E0BC
:1016500080935700E491E093D401E2E0F0E08093BE
:101660005700E491E093D501E4E0F0E08093570067
:1016700084918093D60104EB11E078011C821B82D7
:101680008B819C810E948A0EF70181937F018B815F
:101690009C8101969C838B83809791F780E0F80171
:1016A00091918F01890FF1E0033D1F07C1F79091E0
:1016B000D301981303C00E947B0364C01092B2014F
:1016C00086E68093B3011092AA011092AB011092AA
:1016D000AC011092AD018DE58093AE019AEC909330
:1016E000AF019EEB9093B0019DE09093B1011092F9
:1016F000A2011092A3011092A4011092A50180935F
:10170000A6018CEA8093A70187E58093A80183E274
:101710008093A9018FE780930402809104020E94C4
:101720002D0380EA9BEBADE0B0E08093050290933F
:101730000602A0930702B0930802809309029093D7
:101740000A02A0930B02B0930C0280930E029093B6
:101750000F02A0931002B093110281E08093DF0189
:101760008EE69FE090930801809307018CE29BEB4B
:10177000A4E8B9E38093B8029093B902A093BA02A7
:10178000B093BB0281E08093060198E288E10FB636
:10179000F894A895809360000FBE9093600021E0BC
:1017A00030E041EA51E061E080E00E943202A89519
:1017B0000E943C0A609317027093180280931902EA
:1017C00090931A028BE192E00E94100118161906FC
:1017D0006CF48BE192E00E94EE008D3319F40E94CC
:1017E0002E0404C08BE192E00E94EE00809116026C
:1017F000811110921602C0901702D0901802E0904A
:101800001902F0901A028091120290911302A09195
:101810001402B091150297018601081B190B2A0BBF
:101820003B0B40910E0250910F026091100270919B
:101830001102041715072607370708F44DC08C1549
:101840009D05AE05BF0508F047C0C0921202D092B8
:101850001302E0921402F092150280910D028111A0
:1018600048C0809106018823D9F01092060180912A
:10187000090290910A02A0910B02B0910C02809390
:101880000E0290930F02A0931002B093110260E039
:1018900089E00E945A0961E084E00E945A0929C047
:1018A00021E0209306018091050290910602A0910B
:1018B0000702B091080280930E0290930F02A0934A
:1018C0001002B093110260E084E00E945A098091F6
:1018D00004020E942D030DC0C816D906EA06FB06B5
:1018E00040F41092120210921302109214021092FD
:1018F00015028091000290910102A0910202B09124
:101900000302B701A601481B590B6A0B7B0B483E2B
:1019100053406105710508F49CC1C0920002D09249
:101920000102E0920202F09203021092E40110928E
:10193000E5011092E6011092E7011092E001109289
:10194000E1011092E2011092E30188EE93E09C83A2
:101950008B838EE00E94000A4C01990FAA08BB08F5
:101960008091E4019091E501A091E601B091E70139
:10197000880E991EAA1EBB1E8092E4019092E5017A
:10198000A092E601B092E701EB81FC813197FC83E4
:10199000EB83EF2BF1F688EE93E09C838B838FE053
:1019A0000E94000A6C01990FEE08FF088091E00187
:1019B0009091E101A091E201B091E301C80ED91E1E
:1019C000EA1EFB1EC092E001D092E101E092E2012A
:1019D000F092E301EB81FC813197FC83EB83EF2BE9
:1019E000F1F6C501B40128EE33E040E050E00E947A
:1019F000FF1049015A012093E4013093E50140931F
:101A0000E6015093E701C701B60128EE33E040E05C
:101A100050E00E94FF1029013A012093E001309329
:101A2000E1014093E2015093E301C501B4010E943A
:101A30007F0F9B01AC0160E070EC8FE794E40E94A3
:101A40000D0F20E030E040E85FE30E94A00E0E940E
:101A500015108090B8029090B902A090BA02B09090
:101A6000BB02A50194010E945D102FE03FEC4BE505
:101A70005BE30E94A10E9B01AC0160E070E080E896
:101A80009FE30E940D0F6B017C0123E333E948E8DB
:101A900053E40E94A00E8B018D839B8320E030E0F5
:101AA00040E151E40E945D1020E030E040EA50E463
:101AB0000E940D0F20E030E040E052E40E94A10EB1
:101AC0001B0189839A83C301B2010E947F0F9B018E
:101AD000AC0160E070EC8FE794E40E940D0F20E011
:101AE00030E040E85FE30E94A00E0E9415109B01C9
:101AF000AC01C501B4010E945D102FE03FEC4BE545
:101B00005BE30E94A10E9B01AC0160E070E080E805
:101B10009FE30E940D0F2B013C0123E333E948E8CA
:101B200053E40E94A00E4B015C0120E030E040E154
:101B300051E40E945D1020E030E040EA50E40E9451
:101B40000D0F20E030E040E052E40E94A10E9B0126
:101B5000A601B7014093F4015093F5016093F6019B
:101B60007093F701A8016D817B814093F801509338
:101B7000F9016093FA017093FB01A10169817A81F7
:101B80004093FC015093FD016093FE017093FF01AF
:101B9000A201B3014093E8015093E9016093EA0187
:101BA0007093EB01A401B5014093EC015093ED015A
:101BB0006093EE017093EF01A901BC014093F00125
:101BC0005093F1016093F2017093F3014091DF01B2
:101BD0004230A9F0443031F10093D7011093D8017D
:101BE000FD81F093D9012B812093DA018092DB01F2
:101BF0009092DC01A092DD01B092DE0123C0209220
:101C0000D7013092D80149814093D901EA81E0930C
:101C1000DA012093DB013093DC018093DD019093A6
:101C2000DE0110C0C092D701D092D801E092D90154
:101C3000F092DA014092DB015092DC016092DD010A
:101C40007092DE0180910501882381F00E94980244
:101C50000DC0C816D906EA06FB0640F41092000231
:101C60001092010210920202109203020E94B70128
:101C70009ECDEBE1F2E01382128288EE93E0A0E0C9
:101C8000B0E084839583A683B78321E131E031837B
:101C9000208325EC30E03587248724EC30E037873B
:101CA000268720EC30E0318B208B21EC30E0338B29
:101CB000228B22EC30E0358B248B26EC30E0378B06
:101CC000268B118E128E138E148EE5ECF2E01382A9
:101CD000128284839583A683B78383E291E0918304
:101CE0008083609107017091080180E090E00E947C
:101CF0007F0F9B01AC0160E070E080E89FE30E94F1
:101D00000D0F6093B8027093B9028093BA0290935A
:101D1000BB020895F999FECF92BD81BDF89A99272B
:101D200080B50895262FF999FECF1FBA92BD81BDC7
:101D300020BD0FB6F894FA9AF99A0FBE019608954D
:101D40005058BB27AA270E94B80E0C94D30F0E94AC
:101D5000C50F38F00E94CC0F20F039F49F3F19F4E2
:101D600026F40C94C20F0EF4E095E7FB0C94BC0F24
:101D7000E92F0E94E40F58F3BA176207730784072C
:101D8000950720F079F4A6F50C9406100EF4E09572
:101D90000B2EBA2FA02D0B01B90190010C01CA0125
:101DA000A0011124FF27591B99F0593F50F4503ED0
:101DB00068F11A16F040A22F232F342F4427585FC2
:101DC000F3CF469537952795A795F0405395C9F7DA
:101DD0007EF41F16BA0B620B730B840BBAF0915092
:101DE000A1F0FF0FBB1F661F771F881FC2F70EC031
:101DF000BA0F621F731F841F48F487957795679504
:101E0000B795F7959E3F08F0B0CF9395880F08F0EF
:101E10009927EE0F9795879508950E94210F0C94AE
:101E2000D30F0E94CC0F58F00E94C50F40F029F448
:101E30005F3F29F00C94BC0F51110C9407100C94C7
:101E4000C20F0E94E40F68F39923B1F3552391F375
:101E5000951B550BBB27AA2762177307840738F019
:101E60009F5F5F4F220F331F441FAA1FA9F335D076
:101E70000E2E3AF0E0E832D091505040E695001C2A
:101E8000CAF72BD0FE2F29D0660F771F881FBB1FE4
:101E9000261737074807AB07B0E809F0BB0B802DC2
:101EA000BF01FF2793585F4F3AF09E3F510578F0EE
:101EB0000C94BC0F0C9407105F3FE4F3983ED4F3EE
:101EC000869577956795B795F7959F5FC9F7880FC2
:101ED000911D9695879597F90895E1E0660F771F14
:101EE000881FBB1F621773078407BA0720F0621BA5
:101EF000730B840BBA0BEE1F88F7E0950895E894F6
:101F000009C097FB3EF490958095709561957F4F41
:101F10008F4F9F4F9923A9F0F92F96E9BB279395EF
:101F2000F695879577956795B795F111F8CFFAF4FF
:101F3000BB0F11F460FF1BC06F5F7F4F8F4F9F4F30
:101F400016C0882311F096E911C0772321F09EE88E
:101F5000872F762F05C0662371F096E8862F70E0F4
:101F600060E02AF09A95660F771F881FDAF7880FCE
:101F70009695879597F9089597F99F6780E870E09F
:101F800060E008959FEF80EC089500240A941616EF
:101F9000170618060906089500240A941216130657
:101FA000140605060895092E0394000C11F48823E5
:101FB00052F0BB0F40F4BF2B11F460FF04C06F5F01
:101FC0007F4F8F4F9F4F089557FD9058440F551FD7
:101FD00059F05F3F71F04795880F97FB991F61F0AB
:101FE0009F3F79F087950895121613061406551F22
:101FF000F2CF4695F1DF08C0161617061806991F8E
:10200000F1CF86957105610508940895E894BB2782
:1020100066277727CB0197F9089516F00C94CA101C
:102020000C94C20F68940C94BC0F0E94EC0FA8F3A0
:102030009923C1F3AEF3DF93CF931F930F93FF92D6
:10204000C92FDD2788232AF02197660F771F881F65
:10205000DAF720E030E040E85FEB9FE3883920F0DA
:10206000803E38F021968F770E94A10EE8E6F0E0DE
:1020700004C00E94A10EE5E9F0E00E94D8108B0197
:10208000BE01EC01FB2E6F5771097595771F880B08
:10209000990B0E94810F28E132E741E35FE30E9440
:1020A0007010AF2D9801AE01FF900F911F91CF914D
:1020B000DF910E94B80E0C94D30F0E9470100C9404
:1020C000D30F0E94C50F38F00E94CC0F20F095234B
:1020D00011F00C94BC0F0C94C20F11240C94071037
:1020E0000E94E40F70F3959FC1F3950F50E0551FC8
:1020F000629FF001729FBB27F00DB11D639FAA275D
:10210000F00DB11DAA1F649F6627B00DA11D661FAB
:10211000829F2227B00DA11D621F739FB00DA11DCC
:10212000621F839FA00D611D221F749F3327A00D86
:10213000611D231F849F600D211D822F762F6A2F22
:1021400011249F5750409AF0F1F088234AF0EE0F87
:10215000FF1FBB1F661F771F881F91505040A9F7B4
:102160009E3F510580F00C94BC0F0C9407105F3F0C
:10217000E4F3983ED4F3869577956795B795F795F0
:10218000E7959F5FC1F7FE2B880F911D9695879568
:1021900097F908959F3F31F0915020F487957795F6
:1021A0006795B795880F911D9695879597F908952E
:1021B000DF93CF931F930F93FF92EF92DF927B01F8
:1021C0008C01689406C0DA2EEF010E947010FE01A7
:1021D000E894A5912591359145915591A6F3EF018C
:1021E0000E94B80EFE019701A801DA9469F7DF900A
:1021F000EF90FF900F911F91CF91DF910895A1E291
:102200001A2EAA1BBB1BFD010DC0AA1FBB1FEE1F70
:10221000FF1FA217B307E407F50720F0A21BB30BBB
:10222000E40BF50B661F771F881F991F1A9469F737
:1022300060957095809590959B01AC01BD01CF0193
:10224000089569279627692778278727782708958B
:10225000EE0FFF1F0590F491E02D099481E090E0CE
:0A226000F8940C943311F894FFCFAA
:10226A00FFB400B40001016E0F4D4854470000004E
:10227A00004801B500DF0095011001EE00020100DF
:10228A000000000C0201021E02F301FA01F701F438
:02229A00010041
:107E0000112484B714BE81FFF0D085E080938100F7
:107E100082E08093C00088E18093C10086E0809377
:107E2000C20080E18093C4008EE0C9D0259A86E02C
:107E300020E33CEF91E0309385002093840096BBD3
:107E4000B09BFECF1D9AA8958150A9F7CC24DD24C4
:107E500088248394B5E0AB2EA1E19A2EF3E0BF2EE7
:107E6000A2D0813461F49FD0082FAFD0023811F036
:107E7000013811F484E001C083E08DD089C08234E0
:107E800011F484E103C0853419F485E0A6D080C0E4
:107E9000853579F488D0E82EFF2485D0082F10E0AE
:107EA000102F00270E291F29000F111F8ED06801E7
:107EB0006FC0863521F484E090D080E0DECF843638
:107EC00009F040C070D06FD0082F6DD080E0C81688
:107ED00080E7D80618F4F601B7BEE895C0E0D1E017
:107EE00062D089930C17E1F7F0E0CF16F0E7DF06D8
:107EF00018F0F601B7BEE89568D007B600FCFDCFD4
:107F0000A601A0E0B1E02C9130E011968C91119780
:107F100090E0982F8827822B932B1296FA010C0160
:107F200087BEE89511244E5F5F4FF1E0A038BF0790
:107F300051F7F601A7BEE89507B600FCFDCF97BE46
:107F4000E89526C08437B1F42ED02DD0F82E2BD052
:107F50003CD0F601EF2C8F010F5F1F4F84911BD097
:107F6000EA94F801C1F70894C11CD11CFA94CF0C13
:107F7000D11C0EC0853739F428D08EE10CD085E9AC
:107F80000AD08FE07ACF813511F488E018D01DD067
:107F900080E101D065CF982F8091C00085FFFCCF94
:107FA0009093C60008958091C00087FFFCCF809118
:107FB000C00084FD01C0A8958091C6000895E0E648
:107FC000F0E098E1908380830895EDDF803219F02E
:107FD00088E0F5DFFFCF84E1DECF1F93182FE3DFCA
:107FE0001150E9F7F2DF1F91089580E0E8DFEE27F6
:047FF000FF270994CA
:027FFE00040479
:0400000300007E007B
:00000001FF
